{
	"src/votingMachine.sol": {
		"booth": {
			"abi": [
				{
					"inputs": [],
					"stateMutability": "nonpayable",
					"type": "constructor"
				},
				{
					"anonymous": false,
					"inputs": [
						{
							"indexed": true,
							"internalType": "uint256",
							"name": "ElectionId",
							"type": "uint256"
						},
						{
							"indexed": true,
							"internalType": "uint256",
							"name": "CandidateId",
							"type": "uint256"
						},
						{
							"indexed": false,
							"internalType": "string",
							"name": "CandidateName",
							"type": "string"
						}
					],
					"name": "CandidateAdded",
					"type": "event"
				},
				{
					"anonymous": false,
					"inputs": [
						{
							"indexed": true,
							"internalType": "uint256",
							"name": "ElectionId",
							"type": "uint256"
						},
						{
							"indexed": false,
							"internalType": "string",
							"name": "ElectionName",
							"type": "string"
						},
						{
							"indexed": false,
							"internalType": "uint256",
							"name": "EndTime",
							"type": "uint256"
						}
					],
					"name": "ElectionCreated",
					"type": "event"
				},
				{
					"anonymous": false,
					"inputs": [
						{
							"indexed": false,
							"internalType": "uint256",
							"name": "ElectionId",
							"type": "uint256"
						},
						{
							"indexed": false,
							"internalType": "string",
							"name": "ElectionName",
							"type": "string"
						},
						{
							"indexed": false,
							"internalType": "uint256",
							"name": "WinnerId",
							"type": "uint256"
						},
						{
							"indexed": false,
							"internalType": "string",
							"name": "WinnerName",
							"type": "string"
						},
						{
							"indexed": false,
							"internalType": "uint256",
							"name": "WinnerVotes",
							"type": "uint256"
						},
						{
							"indexed": false,
							"internalType": "uint256",
							"name": "TotalVote",
							"type": "uint256"
						}
					],
					"name": "ElectionEnded",
					"type": "event"
				},
				{
					"anonymous": false,
					"inputs": [
						{
							"indexed": true,
							"internalType": "uint256",
							"name": "ElectionId",
							"type": "uint256"
						},
						{
							"indexed": true,
							"internalType": "uint256",
							"name": "CandidateId",
							"type": "uint256"
						}
					],
					"name": "VoteCast",
					"type": "event"
				},
				{
					"inputs": [
						{
							"internalType": "uint256",
							"name": "_electionId",
							"type": "uint256"
						},
						{
							"internalType": "string",
							"name": "_name",
							"type": "string"
						}
					],
					"name": "AddCandidate",
					"outputs": [],
					"stateMutability": "nonpayable",
					"type": "function"
				},
				{
					"inputs": [
						{
							"internalType": "string",
							"name": "_name",
							"type": "string"
						},
						{
							"internalType": "uint256",
							"name": "_duration",
							"type": "uint256"
						}
					],
					"name": "CreateElection",
					"outputs": [],
					"stateMutability": "nonpayable",
					"type": "function"
				},
				{
					"inputs": [],
					"name": "admin",
					"outputs": [
						{
							"internalType": "address",
							"name": "",
							"type": "address"
						}
					],
					"stateMutability": "view",
					"type": "function"
				},
				{
					"inputs": [],
					"name": "electionCount",
					"outputs": [
						{
							"internalType": "uint256",
							"name": "",
							"type": "uint256"
						}
					],
					"stateMutability": "view",
					"type": "function"
				},
				{
					"inputs": [
						{
							"internalType": "uint256",
							"name": "",
							"type": "uint256"
						}
					],
					"name": "elections",
					"outputs": [
						{
							"internalType": "uint256",
							"name": "electionId",
							"type": "uint256"
						},
						{
							"internalType": "bool",
							"name": "isActive",
							"type": "bool"
						},
						{
							"internalType": "string",
							"name": "name",
							"type": "string"
						},
						{
							"internalType": "uint256",
							"name": "endTime",
							"type": "uint256"
						},
						{
							"internalType": "uint256",
							"name": "candidateCount",
							"type": "uint256"
						},
						{
							"internalType": "uint256",
							"name": "totalVote",
							"type": "uint256"
						}
					],
					"stateMutability": "view",
					"type": "function"
				},
				{
					"inputs": [
						{
							"internalType": "uint256",
							"name": "_electionId",
							"type": "uint256"
						}
					],
					"name": "endElection",
					"outputs": [
						{
							"internalType": "uint256",
							"name": "",
							"type": "uint256"
						},
						{
							"internalType": "string",
							"name": "",
							"type": "string"
						},
						{
							"internalType": "uint256",
							"name": "",
							"type": "uint256"
						}
					],
					"stateMutability": "nonpayable",
					"type": "function"
				},
				{
					"inputs": [
						{
							"internalType": "uint256",
							"name": "_electionId",
							"type": "uint256"
						},
						{
							"internalType": "uint256",
							"name": "_candidateId",
							"type": "uint256"
						}
					],
					"name": "getCandidate",
					"outputs": [
						{
							"internalType": "uint256",
							"name": "CandidateId",
							"type": "uint256"
						},
						{
							"internalType": "string",
							"name": "Name",
							"type": "string"
						},
						{
							"internalType": "uint256",
							"name": "Votes",
							"type": "uint256"
						}
					],
					"stateMutability": "view",
					"type": "function"
				},
				{
					"inputs": [
						{
							"internalType": "uint256",
							"name": "_electionId",
							"type": "uint256"
						}
					],
					"name": "getCandidates",
					"outputs": [
						{
							"internalType": "uint256[]",
							"name": "",
							"type": "uint256[]"
						},
						{
							"internalType": "string[]",
							"name": "",
							"type": "string[]"
						}
					],
					"stateMutability": "view",
					"type": "function"
				},
				{
					"inputs": [],
					"name": "getElections",
					"outputs": [
						{
							"internalType": "uint256[]",
							"name": "",
							"type": "uint256[]"
						},
						{
							"internalType": "string[]",
							"name": "",
							"type": "string[]"
						}
					],
					"stateMutability": "view",
					"type": "function"
				},
				{
					"inputs": [
						{
							"internalType": "uint256",
							"name": "_electionId",
							"type": "uint256"
						}
					],
					"name": "getTotalVotes",
					"outputs": [
						{
							"internalType": "string",
							"name": "Name",
							"type": "string"
						},
						{
							"internalType": "uint256",
							"name": "TotalVotes",
							"type": "uint256"
						}
					],
					"stateMutability": "view",
					"type": "function"
				},
				{
					"inputs": [
						{
							"internalType": "uint256",
							"name": "_electionId",
							"type": "uint256"
						}
					],
					"name": "getWinner",
					"outputs": [
						{
							"internalType": "uint256",
							"name": "WinnerID",
							"type": "uint256"
						},
						{
							"internalType": "string",
							"name": "WminnerName",
							"type": "string"
						},
						{
							"internalType": "uint256",
							"name": "VoteCount",
							"type": "uint256"
						}
					],
					"stateMutability": "view",
					"type": "function"
				},
				{
					"inputs": [
						{
							"internalType": "uint256",
							"name": "_electionId",
							"type": "uint256"
						},
						{
							"internalType": "uint256",
							"name": "_candidateId",
							"type": "uint256"
						}
					],
					"name": "votting",
					"outputs": [],
					"stateMutability": "nonpayable",
					"type": "function"
				}
			],
			"devdoc": {
				"kind": "dev",
				"methods": {},
				"version": 1
			},
			"evm": {
				"assembly": "    /* \"src/votingMachine.sol\":61:6953  contract booth {... */\n  mstore(0x40, 0x80)\n    /* \"src/votingMachine.sol\":1876:1925  constructor(){... */\n  callvalue\n  dup1\n  iszero\n  tag_1\n  jumpi\n  revert(0x00, 0x00)\ntag_1:\n  pop\n    /* \"src/votingMachine.sol\":1907:1917  msg.sender */\n  caller\n    /* \"src/votingMachine.sol\":1900:1905  admin */\n  0x00\n  0x00\n    /* \"src/votingMachine.sol\":1900:1917  admin= msg.sender */\n  0x0100\n  exp\n  dup2\n  sload\n  dup2\n  0xffffffffffffffffffffffffffffffffffffffff\n  mul\n  not\n  and\n  swap1\n  dup4\n  0xffffffffffffffffffffffffffffffffffffffff\n  and\n  mul\n  or\n  swap1\n  sstore\n  pop\n    /* \"src/votingMachine.sol\":61:6953  contract booth {... */\n  dataSize(sub_0)\n  dup1\n  dataOffset(sub_0)\n  0x00\n  codecopy\n  0x00\n  return\nstop\n\nsub_0: assembly {\n        /* \"src/votingMachine.sol\":61:6953  contract booth {... */\n      mstore(0x40, 0x80)\n      callvalue\n      dup1\n      iszero\n      tag_1\n      jumpi\n      revert(0x00, 0x00)\n    tag_1:\n      pop\n      jumpi(tag_2, lt(calldatasize, 0x04))\n      shr(0xe0, calldataload(0x00))\n      dup1\n      0x5e6fef01\n      gt\n      tag_15\n      jumpi\n      dup1\n      0x5e6fef01\n      eq\n      tag_9\n      jumpi\n      dup1\n      0x7c0e1dba\n      eq\n      tag_10\n      jumpi\n      dup1\n      0x997d2830\n      eq\n      tag_11\n      jumpi\n      dup1\n      0x9c98bcbb\n      eq\n      tag_12\n      jumpi\n      dup1\n      0x9f3a7f52\n      eq\n      tag_13\n      jumpi\n      dup1\n      0xf851a440\n      eq\n      tag_14\n      jumpi\n      jump(tag_2)\n    tag_15:\n      dup1\n      0x0a63c583\n      eq\n      tag_3\n      jumpi\n      dup1\n      0x2ce35e11\n      eq\n      tag_4\n      jumpi\n      dup1\n      0x2d81fa59\n      eq\n      tag_5\n      jumpi\n      dup1\n      0x3e39a7a5\n      eq\n      tag_6\n      jumpi\n      dup1\n      0x4129b2c9\n      eq\n      tag_7\n      jumpi\n      dup1\n      0x4bd46448\n      eq\n      tag_8\n      jumpi\n    tag_2:\n      revert(0x00, 0x00)\n        /* \"src/votingMachine.sol\":2449:3034  function AddCandidate(uint _electionId, string memory  _name) public onlyAdmin electionExists(_electionId) electionActive(_electionId)... */\n    tag_3:\n      tag_16\n      0x04\n      dup1\n      calldatasize\n      sub\n      dup2\n      add\n      swap1\n      tag_17\n      swap2\n      swap1\n      tag_18\n      jump\t// in\n    tag_17:\n      tag_19\n      jump\t// in\n    tag_16:\n      stop\n        /* \"src/votingMachine.sol\":4846:5098  function getTotalVotes(uint _electionId) public view electionExists(_electionId) returns(string memory Name,uint TotalVotes)... */\n    tag_4:\n      tag_20\n      0x04\n      dup1\n      calldatasize\n      sub\n      dup2\n      add\n      swap1\n      tag_21\n      swap2\n      swap1\n      tag_22\n      jump\t// in\n    tag_21:\n      tag_23\n      jump\t// in\n    tag_20:\n      mload(0x40)\n      tag_24\n      swap3\n      swap2\n      swap1\n      tag_25\n      jump\t// in\n    tag_24:\n      mload(0x40)\n      dup1\n      swap2\n      sub\n      swap1\n      return\n        /* \"src/votingMachine.sol\":3042:3533  function votting(uint _electionId, uint _candidateId) public electionExists(_electionId) electionActive(_electionId) candidateValidation(_electionId,_candidateId) voteStatus(_electionId) {... */\n    tag_5:\n      tag_26\n      0x04\n      dup1\n      calldatasize\n      sub\n      dup2\n      add\n      swap1\n      tag_27\n      swap2\n      swap1\n      tag_28\n      jump\t// in\n    tag_27:\n      tag_29\n      jump\t// in\n    tag_26:\n      stop\n        /* \"src/votingMachine.sol\":6310:6948  function getCandidates(uint _electionId) public view electionExists(_electionId) returns(uint [] memory, string [] memory)... */\n    tag_6:\n      tag_30\n      0x04\n      dup1\n      calldatasize\n      sub\n      dup2\n      add\n      swap1\n      tag_31\n      swap2\n      swap1\n      tag_22\n      jump\t// in\n    tag_31:\n      tag_32\n      jump\t// in\n    tag_30:\n      mload(0x40)\n      tag_33\n      swap3\n      swap2\n      swap1\n      tag_34\n      jump\t// in\n    tag_33:\n      mload(0x40)\n      dup1\n      swap2\n      sub\n      swap1\n      return\n        /* \"src/votingMachine.sol\":5106:5831  function getWinner(uint _electionId) public view electionExists(_electionId) returns(uint WinnerID, string memory WminnerName , uint VoteCount)... */\n    tag_7:\n      tag_35\n      0x04\n      dup1\n      calldatasize\n      sub\n      dup2\n      add\n      swap1\n      tag_36\n      swap2\n      swap1\n      tag_22\n      jump\t// in\n    tag_36:\n      tag_37\n      jump\t// in\n    tag_35:\n      mload(0x40)\n      tag_38\n      swap4\n      swap3\n      swap2\n      swap1\n      tag_39\n      jump\t// in\n    tag_38:\n      mload(0x40)\n      dup1\n      swap2\n      sub\n      swap1\n      return\n        /* \"src/votingMachine.sol\":4434:4838  function getCandidate(uint _electionId, uint _candidateId) public view electionExists(_electionId) candidateValidation(_electionId,_candidateId) returns(uint CandidateId, string memory Name,uint Votes)... */\n    tag_8:\n      tag_40\n      0x04\n      dup1\n      calldatasize\n      sub\n      dup2\n      add\n      swap1\n      tag_41\n      swap2\n      swap1\n      tag_28\n      jump\t// in\n    tag_41:\n      tag_42\n      jump\t// in\n    tag_40:\n      mload(0x40)\n      tag_43\n      swap4\n      swap3\n      swap2\n      swap1\n      tag_39\n      jump\t// in\n    tag_43:\n      mload(0x40)\n      dup1\n      swap2\n      sub\n      swap1\n      return\n        /* \"src/votingMachine.sol\":522:565  mapping(uint => Election) public  elections */\n    tag_9:\n      tag_44\n      0x04\n      dup1\n      calldatasize\n      sub\n      dup2\n      add\n      swap1\n      tag_45\n      swap2\n      swap1\n      tag_22\n      jump\t// in\n    tag_45:\n      tag_46\n      jump\t// in\n    tag_44:\n      mload(0x40)\n      tag_47\n      swap7\n      swap6\n      swap5\n      swap4\n      swap3\n      swap2\n      swap1\n      tag_48\n      jump\t// in\n    tag_47:\n      mload(0x40)\n      dup1\n      swap2\n      sub\n      swap1\n      return\n        /* \"src/votingMachine.sol\":1933:2435  function CreateElection(string memory _name, uint _duration) public onlyAdmin ... */\n    tag_10:\n      tag_49\n      0x04\n      dup1\n      calldatasize\n      sub\n      dup2\n      add\n      swap1\n      tag_50\n      swap2\n      swap1\n      tag_51\n      jump\t// in\n    tag_50:\n      tag_52\n      jump\t// in\n    tag_49:\n      stop\n        /* \"src/votingMachine.sol\":490:515  uint public electionCount */\n    tag_11:\n      tag_53\n      tag_54\n      jump\t// in\n    tag_53:\n      mload(0x40)\n      tag_55\n      swap2\n      swap1\n      tag_56\n      jump\t// in\n    tag_55:\n      mload(0x40)\n      dup1\n      swap2\n      sub\n      swap1\n      return\n        /* \"src/votingMachine.sol\":3541:4426  function endElection(uint _electionId) public onlyAdmin electionExists(_electionId) electionActive(_electionId) returns(uint,string memory,uint)... */\n    tag_12:\n      tag_57\n      0x04\n      dup1\n      calldatasize\n      sub\n      dup2\n      add\n      swap1\n      tag_58\n      swap2\n      swap1\n      tag_22\n      jump\t// in\n    tag_58:\n      tag_59\n      jump\t// in\n    tag_57:\n      mload(0x40)\n      tag_60\n      swap4\n      swap3\n      swap2\n      swap1\n      tag_39\n      jump\t// in\n    tag_60:\n      mload(0x40)\n      dup1\n      swap2\n      sub\n      swap1\n      return\n        /* \"src/votingMachine.sol\":5837:6302  function getElections() public  view returns(uint [] memory, string [] memory)... */\n    tag_13:\n      tag_61\n      tag_62\n      jump\t// in\n    tag_61:\n      mload(0x40)\n      tag_63\n      swap3\n      swap2\n      swap1\n      tag_34\n      jump\t// in\n    tag_63:\n      mload(0x40)\n      dup1\n      swap2\n      sub\n      swap1\n      return\n        /* \"src/votingMachine.sol\":463:483  address public admin */\n    tag_14:\n      tag_64\n      tag_65\n      jump\t// in\n    tag_64:\n      mload(0x40)\n      tag_66\n      swap2\n      swap1\n      tag_67\n      jump\t// in\n    tag_66:\n      mload(0x40)\n      dup1\n      swap2\n      sub\n      swap1\n      return\n        /* \"src/votingMachine.sol\":2449:3034  function AddCandidate(uint _electionId, string memory  _name) public onlyAdmin electionExists(_electionId) electionActive(_electionId)... */\n    tag_19:\n        /* \"src/votingMachine.sol\":1022:1032  msg.sender */\n      caller\n        /* \"src/votingMachine.sol\":1014:1032  admin== msg.sender */\n      0xffffffffffffffffffffffffffffffffffffffff\n      and\n        /* \"src/votingMachine.sol\":1014:1019  admin */\n      0x00\n      0x00\n      swap1\n      sload\n      swap1\n      0x0100\n      exp\n      swap1\n      div\n      0xffffffffffffffffffffffffffffffffffffffff\n      and\n        /* \"src/votingMachine.sol\":1014:1032  admin== msg.sender */\n      0xffffffffffffffffffffffffffffffffffffffff\n      and\n      eq\n        /* \"src/votingMachine.sol\":1006:1072  require(admin== msg.sender,\"Only admin can perform this function\") */\n      tag_69\n      jumpi\n      mload(0x40)\n      0x08c379a000000000000000000000000000000000000000000000000000000000\n      dup2\n      mstore\n      0x04\n      add\n      tag_70\n      swap1\n      tag_71\n      jump\t// in\n    tag_70:\n      mload(0x40)\n      dup1\n      swap2\n      sub\n      swap1\n      revert\n    tag_69:\n        /* \"src/votingMachine.sol\":2543:2554  _electionId */\n      dup2\n        /* \"src/votingMachine.sol\":1172:1183  _electionId */\n      dup1\n        /* \"src/votingMachine.sol\":1168:1169  0 */\n      0x00\n        /* \"src/votingMachine.sol\":1168:1183  0 < _electionId */\n      lt\n        /* \"src/votingMachine.sol\":1168:1215  0 < _electionId && _electionId <= electionCount */\n      dup1\n      iszero\n      tag_73\n      jumpi\n      pop\n        /* \"src/votingMachine.sol\":1202:1215  electionCount */\n      sload(0x01)\n        /* \"src/votingMachine.sol\":1187:1198  _electionId */\n      dup2\n        /* \"src/votingMachine.sol\":1187:1215  _electionId <= electionCount */\n      gt\n      iszero\n        /* \"src/votingMachine.sol\":1168:1215  0 < _electionId && _electionId <= electionCount */\n    tag_73:\n        /* \"src/votingMachine.sol\":1159:1241  require( 0 < _electionId && _electionId <= electionCount ,\"Election is not Exist\") */\n      tag_74\n      jumpi\n      mload(0x40)\n      0x08c379a000000000000000000000000000000000000000000000000000000000\n      dup2\n      mstore\n      0x04\n      add\n      tag_75\n      swap1\n      tag_76\n      jump\t// in\n    tag_75:\n      mload(0x40)\n      dup1\n      swap2\n      sub\n      swap1\n      revert\n    tag_74:\n        /* \"src/votingMachine.sol\":2571:2582  _electionId */\n      dup3\n        /* \"src/votingMachine.sol\":1369:1373  true */\n      0x01\n        /* \"src/votingMachine.sol\":1336:1373  elections[_electionId].isActive==true */\n      iszero\n      iszero\n        /* \"src/votingMachine.sol\":1336:1345  elections */\n      0x02\n        /* \"src/votingMachine.sol\":1336:1358  elections[_electionId] */\n      0x00\n        /* \"src/votingMachine.sol\":1346:1357  _electionId */\n      dup4\n        /* \"src/votingMachine.sol\":1336:1358  elections[_electionId] */\n      dup2\n      mstore\n      0x20\n      add\n      swap1\n      dup2\n      mstore\n      0x20\n      add\n      0x00\n      keccak256\n        /* \"src/votingMachine.sol\":1336:1367  elections[_electionId].isActive */\n      0x01\n      add\n      0x00\n      swap1\n      sload\n      swap1\n      0x0100\n      exp\n      swap1\n      div\n      0xff\n      and\n        /* \"src/votingMachine.sol\":1336:1373  elections[_electionId].isActive==true */\n      iszero\n      iszero\n      eq\n        /* \"src/votingMachine.sol\":1336:1424  elections[_electionId].isActive==true && elections[_electionId].endTime>=block.timestamp */\n      dup1\n      iszero\n      tag_78\n      jumpi\n      pop\n        /* \"src/votingMachine.sol\":1409:1424  block.timestamp */\n      timestamp\n        /* \"src/votingMachine.sol\":1377:1386  elections */\n      0x02\n        /* \"src/votingMachine.sol\":1377:1399  elections[_electionId] */\n      0x00\n        /* \"src/votingMachine.sol\":1387:1398  _electionId */\n      dup4\n        /* \"src/votingMachine.sol\":1377:1399  elections[_electionId] */\n      dup2\n      mstore\n      0x20\n      add\n      swap1\n      dup2\n      mstore\n      0x20\n      add\n      0x00\n      keccak256\n        /* \"src/votingMachine.sol\":1377:1407  elections[_electionId].endTime */\n      0x03\n      add\n      sload\n        /* \"src/votingMachine.sol\":1377:1424  elections[_electionId].endTime>=block.timestamp */\n      lt\n      iszero\n        /* \"src/votingMachine.sol\":1336:1424  elections[_electionId].isActive==true && elections[_electionId].endTime>=block.timestamp */\n    tag_78:\n        /* \"src/votingMachine.sol\":1328:1461  require(elections[_electionId].isActive==true && elections[_electionId].endTime>=block.timestamp,\"Election is not Active od timeout\") */\n      tag_79\n      jumpi\n      mload(0x40)\n      0x08c379a000000000000000000000000000000000000000000000000000000000\n      dup2\n      mstore\n      0x04\n      add\n      tag_80\n      swap1\n      tag_81\n      jump\t// in\n    tag_80:\n      mload(0x40)\n      dup1\n      swap2\n      sub\n      swap1\n      revert\n    tag_79:\n        /* \"src/votingMachine.sol\":2600:2625  Election storage election */\n      0x00\n        /* \"src/votingMachine.sol\":2628:2637  elections */\n      0x02\n        /* \"src/votingMachine.sol\":2628:2650  elections[_electionId] */\n      0x00\n        /* \"src/votingMachine.sol\":2638:2649  _electionId */\n      dup7\n        /* \"src/votingMachine.sol\":2628:2650  elections[_electionId] */\n      dup2\n      mstore\n      0x20\n      add\n      swap1\n      dup2\n      mstore\n      0x20\n      add\n      0x00\n      keccak256\n        /* \"src/votingMachine.sol\":2600:2650  Election storage election = elections[_electionId] */\n      swap1\n      pop\n        /* \"src/votingMachine.sol\":2661:2678  uint _candidateId */\n      0x00\n        /* \"src/votingMachine.sol\":2682:2690  election */\n      dup2\n        /* \"src/votingMachine.sol\":2682:2705  election.candidateCount */\n      0x04\n      add\n      0x00\n        /* \"src/votingMachine.sol\":2680:2705  ++election.candidateCount */\n      dup2\n      sload\n      tag_83\n      swap1\n      tag_84\n      jump\t// in\n    tag_83:\n      swap2\n      swap1\n      pop\n      dup2\n      swap1\n      sstore\n        /* \"src/votingMachine.sol\":2661:2705  uint _candidateId =++election.candidateCount */\n      swap1\n      pop\n        /* \"src/votingMachine.sol\":2765:2777  _candidateId */\n      dup1\n        /* \"src/votingMachine.sol\":2718:2726  election */\n      dup3\n        /* \"src/votingMachine.sol\":2718:2737  election.candidates */\n      0x07\n      add\n        /* \"src/votingMachine.sol\":2718:2751  election.candidates[_candidateId] */\n      0x00\n        /* \"src/votingMachine.sol\":2738:2750  _candidateId */\n      dup4\n        /* \"src/votingMachine.sol\":2718:2751  election.candidates[_candidateId] */\n      dup2\n      mstore\n      0x20\n      add\n      swap1\n      dup2\n      mstore\n      0x20\n      add\n      0x00\n      keccak256\n        /* \"src/votingMachine.sol\":2718:2763  election.candidates[_candidateId].candidateId */\n      0x01\n      add\n        /* \"src/votingMachine.sol\":2718:2777  election.candidates[_candidateId].candidateId =_candidateId */\n      dup2\n      swap1\n      sstore\n      pop\n        /* \"src/votingMachine.sol\":2827:2832  _name */\n      dup5\n        /* \"src/votingMachine.sol\":2788:2796  election */\n      dup3\n        /* \"src/votingMachine.sol\":2788:2807  election.candidates */\n      0x07\n      add\n        /* \"src/votingMachine.sol\":2788:2821  election.candidates[_candidateId] */\n      0x00\n        /* \"src/votingMachine.sol\":2808:2820  _candidateId */\n      dup4\n        /* \"src/votingMachine.sol\":2788:2821  election.candidates[_candidateId] */\n      dup2\n      mstore\n      0x20\n      add\n      swap1\n      dup2\n      mstore\n      0x20\n      add\n      0x00\n      keccak256\n        /* \"src/votingMachine.sol\":2788:2826  election.candidates[_candidateId].name */\n      0x00\n      add\n        /* \"src/votingMachine.sol\":2788:2832  election.candidates[_candidateId].name=_name */\n      swap1\n      dup2\n      tag_85\n      swap2\n      swap1\n      tag_86\n      jump\t// in\n    tag_85:\n      pop\n        /* \"src/votingMachine.sol\":2887:2888  0 */\n      0x00\n        /* \"src/votingMachine.sol\":2843:2851  election */\n      dup3\n        /* \"src/votingMachine.sol\":2843:2862  election.candidates */\n      0x07\n      add\n        /* \"src/votingMachine.sol\":2843:2876  election.candidates[_candidateId] */\n      0x00\n        /* \"src/votingMachine.sol\":2863:2875  _candidateId */\n      dup4\n        /* \"src/votingMachine.sol\":2843:2876  election.candidates[_candidateId] */\n      dup2\n      mstore\n      0x20\n      add\n      swap1\n      dup2\n      mstore\n      0x20\n      add\n      0x00\n      keccak256\n        /* \"src/votingMachine.sol\":2843:2886  election.candidates[_candidateId].voteCount */\n      0x02\n      add\n        /* \"src/votingMachine.sol\":2843:2888  election.candidates[_candidateId].voteCount=0 */\n      dup2\n      swap1\n      sstore\n      pop\n        /* \"src/votingMachine.sol\":2940:2948  election */\n      dup2\n        /* \"src/votingMachine.sol\":2940:2959  election.candidates */\n      0x07\n      add\n        /* \"src/votingMachine.sol\":2940:2973  election.candidates[_candidateId] */\n      0x00\n        /* \"src/votingMachine.sol\":2960:2972  _candidateId */\n      dup3\n        /* \"src/votingMachine.sol\":2940:2973  election.candidates[_candidateId] */\n      dup2\n      mstore\n      0x20\n      add\n      swap1\n      dup2\n      mstore\n      0x20\n      add\n      0x00\n      keccak256\n        /* \"src/votingMachine.sol\":2940:2985  election.candidates[_candidateId].candidateId */\n      0x01\n      add\n      sload\n        /* \"src/votingMachine.sol\":2919:2927  election */\n      dup3\n        /* \"src/votingMachine.sol\":2919:2938  election.electionId */\n      0x00\n      add\n      sload\n        /* \"src/votingMachine.sol\":2904:3026  CandidateAdded(election.electionId, election.candidates[_candidateId].candidateId, election.candidates[_candidateId].name) */\n      0xed8911b3df733b7d5f75724158e54478ea12e30f49c9d31b5261879f5b76586f\n        /* \"src/votingMachine.sol\":2987:2995  election */\n      dup5\n        /* \"src/votingMachine.sol\":2987:3006  election.candidates */\n      0x07\n      add\n        /* \"src/votingMachine.sol\":2987:3020  election.candidates[_candidateId] */\n      0x00\n        /* \"src/votingMachine.sol\":3007:3019  _candidateId */\n      dup6\n        /* \"src/votingMachine.sol\":2987:3020  election.candidates[_candidateId] */\n      dup2\n      mstore\n      0x20\n      add\n      swap1\n      dup2\n      mstore\n      0x20\n      add\n      0x00\n      keccak256\n        /* \"src/votingMachine.sol\":2987:3025  election.candidates[_candidateId].name */\n      0x00\n      add\n        /* \"src/votingMachine.sol\":2904:3026  CandidateAdded(election.electionId, election.candidates[_candidateId].candidateId, election.candidates[_candidateId].name) */\n      mload(0x40)\n      tag_87\n      swap2\n      swap1\n      tag_88\n      jump\t// in\n    tag_87:\n      mload(0x40)\n      dup1\n      swap2\n      sub\n      swap1\n      log3\n        /* \"src/votingMachine.sol\":2589:3034  {... */\n      pop\n      pop\n        /* \"src/votingMachine.sol\":1252:1253  _ */\n      pop\n        /* \"src/votingMachine.sol\":1083:1084  _ */\n      pop\n        /* \"src/votingMachine.sol\":2449:3034  function AddCandidate(uint _electionId, string memory  _name) public onlyAdmin electionExists(_electionId) electionActive(_electionId)... */\n      pop\n      pop\n      jump\t// out\n        /* \"src/votingMachine.sol\":4846:5098  function getTotalVotes(uint _electionId) public view electionExists(_electionId) returns(string memory Name,uint TotalVotes)... */\n    tag_23:\n        /* \"src/votingMachine.sol\":4935:4953  string memory Name */\n      0x60\n        /* \"src/votingMachine.sol\":4954:4969  uint TotalVotes */\n      0x00\n        /* \"src/votingMachine.sol\":4914:4925  _electionId */\n      dup3\n        /* \"src/votingMachine.sol\":1172:1183  _electionId */\n      dup1\n        /* \"src/votingMachine.sol\":1168:1169  0 */\n      0x00\n        /* \"src/votingMachine.sol\":1168:1183  0 < _electionId */\n      lt\n        /* \"src/votingMachine.sol\":1168:1215  0 < _electionId && _electionId <= electionCount */\n      dup1\n      iszero\n      tag_90\n      jumpi\n      pop\n        /* \"src/votingMachine.sol\":1202:1215  electionCount */\n      sload(0x01)\n        /* \"src/votingMachine.sol\":1187:1198  _electionId */\n      dup2\n        /* \"src/votingMachine.sol\":1187:1215  _electionId <= electionCount */\n      gt\n      iszero\n        /* \"src/votingMachine.sol\":1168:1215  0 < _electionId && _electionId <= electionCount */\n    tag_90:\n        /* \"src/votingMachine.sol\":1159:1241  require( 0 < _electionId && _electionId <= electionCount ,\"Election is not Exist\") */\n      tag_91\n      jumpi\n      mload(0x40)\n      0x08c379a000000000000000000000000000000000000000000000000000000000\n      dup2\n      mstore\n      0x04\n      add\n      tag_92\n      swap1\n      tag_76\n      jump\t// in\n    tag_92:\n      mload(0x40)\n      dup1\n      swap2\n      sub\n      swap1\n      revert\n    tag_91:\n        /* \"src/votingMachine.sol\":4987:5012  Election storage election */\n      0x00\n        /* \"src/votingMachine.sol\":5015:5024  elections */\n      0x02\n        /* \"src/votingMachine.sol\":5015:5037  elections[_electionId] */\n      0x00\n        /* \"src/votingMachine.sol\":5025:5036  _electionId */\n      dup7\n        /* \"src/votingMachine.sol\":5015:5037  elections[_electionId] */\n      dup2\n      mstore\n      0x20\n      add\n      swap1\n      dup2\n      mstore\n      0x20\n      add\n      0x00\n      keccak256\n        /* \"src/votingMachine.sol\":4987:5037  Election storage election = elections[_electionId] */\n      swap1\n      pop\n        /* \"src/votingMachine.sol\":5057:5065  election */\n      dup1\n        /* \"src/votingMachine.sol\":5057:5070  election.name */\n      0x02\n      add\n        /* \"src/votingMachine.sol\":5071:5079  election */\n      dup2\n        /* \"src/votingMachine.sol\":5071:5089  election.totalVote */\n      0x05\n      add\n      sload\n        /* \"src/votingMachine.sol\":5050:5090  return(election.name,election.totalVote) */\n      dup2\n      dup1\n      sload\n      tag_94\n      swap1\n      tag_95\n      jump\t// in\n    tag_94:\n      dup1\n      0x1f\n      add\n      0x20\n      dup1\n      swap2\n      div\n      mul\n      0x20\n      add\n      mload(0x40)\n      swap1\n      dup2\n      add\n      0x40\n      mstore\n      dup1\n      swap3\n      swap2\n      swap1\n      dup2\n      dup2\n      mstore\n      0x20\n      add\n      dup3\n      dup1\n      sload\n      tag_96\n      swap1\n      tag_95\n      jump\t// in\n    tag_96:\n      dup1\n      iszero\n      tag_97\n      jumpi\n      dup1\n      0x1f\n      lt\n      tag_98\n      jumpi\n      0x0100\n      dup1\n      dup4\n      sload\n      div\n      mul\n      dup4\n      mstore\n      swap2\n      0x20\n      add\n      swap2\n      jump(tag_97)\n    tag_98:\n      dup3\n      add\n      swap2\n      swap1\n      0x00\n      mstore\n      keccak256(0x00, 0x20)\n      swap1\n    tag_99:\n      dup2\n      sload\n      dup2\n      mstore\n      swap1\n      0x01\n      add\n      swap1\n      0x20\n      add\n      dup1\n      dup4\n      gt\n      tag_99\n      jumpi\n      dup3\n      swap1\n      sub\n      0x1f\n      and\n      dup3\n      add\n      swap2\n    tag_97:\n      pop\n      pop\n      pop\n      pop\n      pop\n      swap2\n      pop\n      swap4\n      pop\n      swap4\n      pop\n      pop\n        /* \"src/votingMachine.sol\":4846:5098  function getTotalVotes(uint _electionId) public view electionExists(_electionId) returns(string memory Name,uint TotalVotes)... */\n      pop\n      swap2\n      pop\n      swap2\n      jump\t// out\n        /* \"src/votingMachine.sol\":3042:3533  function votting(uint _electionId, uint _candidateId) public electionExists(_electionId) electionActive(_electionId) candidateValidation(_electionId,_candidateId) voteStatus(_electionId) {... */\n    tag_29:\n        /* \"src/votingMachine.sol\":3118:3129  _electionId */\n      dup2\n        /* \"src/votingMachine.sol\":1172:1183  _electionId */\n      dup1\n        /* \"src/votingMachine.sol\":1168:1169  0 */\n      0x00\n        /* \"src/votingMachine.sol\":1168:1183  0 < _electionId */\n      lt\n        /* \"src/votingMachine.sol\":1168:1215  0 < _electionId && _electionId <= electionCount */\n      dup1\n      iszero\n      tag_101\n      jumpi\n      pop\n        /* \"src/votingMachine.sol\":1202:1215  electionCount */\n      sload(0x01)\n        /* \"src/votingMachine.sol\":1187:1198  _electionId */\n      dup2\n        /* \"src/votingMachine.sol\":1187:1215  _electionId <= electionCount */\n      gt\n      iszero\n        /* \"src/votingMachine.sol\":1168:1215  0 < _electionId && _electionId <= electionCount */\n    tag_101:\n        /* \"src/votingMachine.sol\":1159:1241  require( 0 < _electionId && _electionId <= electionCount ,\"Election is not Exist\") */\n      tag_102\n      jumpi\n      mload(0x40)\n      0x08c379a000000000000000000000000000000000000000000000000000000000\n      dup2\n      mstore\n      0x04\n      add\n      tag_103\n      swap1\n      tag_76\n      jump\t// in\n    tag_103:\n      mload(0x40)\n      dup1\n      swap2\n      sub\n      swap1\n      revert\n    tag_102:\n        /* \"src/votingMachine.sol\":3146:3157  _electionId */\n      dup3\n        /* \"src/votingMachine.sol\":1369:1373  true */\n      0x01\n        /* \"src/votingMachine.sol\":1336:1373  elections[_electionId].isActive==true */\n      iszero\n      iszero\n        /* \"src/votingMachine.sol\":1336:1345  elections */\n      0x02\n        /* \"src/votingMachine.sol\":1336:1358  elections[_electionId] */\n      0x00\n        /* \"src/votingMachine.sol\":1346:1357  _electionId */\n      dup4\n        /* \"src/votingMachine.sol\":1336:1358  elections[_electionId] */\n      dup2\n      mstore\n      0x20\n      add\n      swap1\n      dup2\n      mstore\n      0x20\n      add\n      0x00\n      keccak256\n        /* \"src/votingMachine.sol\":1336:1367  elections[_electionId].isActive */\n      0x01\n      add\n      0x00\n      swap1\n      sload\n      swap1\n      0x0100\n      exp\n      swap1\n      div\n      0xff\n      and\n        /* \"src/votingMachine.sol\":1336:1373  elections[_electionId].isActive==true */\n      iszero\n      iszero\n      eq\n        /* \"src/votingMachine.sol\":1336:1424  elections[_electionId].isActive==true && elections[_electionId].endTime>=block.timestamp */\n      dup1\n      iszero\n      tag_105\n      jumpi\n      pop\n        /* \"src/votingMachine.sol\":1409:1424  block.timestamp */\n      timestamp\n        /* \"src/votingMachine.sol\":1377:1386  elections */\n      0x02\n        /* \"src/votingMachine.sol\":1377:1399  elections[_electionId] */\n      0x00\n        /* \"src/votingMachine.sol\":1387:1398  _electionId */\n      dup4\n        /* \"src/votingMachine.sol\":1377:1399  elections[_electionId] */\n      dup2\n      mstore\n      0x20\n      add\n      swap1\n      dup2\n      mstore\n      0x20\n      add\n      0x00\n      keccak256\n        /* \"src/votingMachine.sol\":1377:1407  elections[_electionId].endTime */\n      0x03\n      add\n      sload\n        /* \"src/votingMachine.sol\":1377:1424  elections[_electionId].endTime>=block.timestamp */\n      lt\n      iszero\n        /* \"src/votingMachine.sol\":1336:1424  elections[_electionId].isActive==true && elections[_electionId].endTime>=block.timestamp */\n    tag_105:\n        /* \"src/votingMachine.sol\":1328:1461  require(elections[_electionId].isActive==true && elections[_electionId].endTime>=block.timestamp,\"Election is not Active od timeout\") */\n      tag_106\n      jumpi\n      mload(0x40)\n      0x08c379a000000000000000000000000000000000000000000000000000000000\n      dup2\n      mstore\n      0x04\n      add\n      tag_107\n      swap1\n      tag_81\n      jump\t// in\n    tag_107:\n      mload(0x40)\n      dup1\n      swap2\n      sub\n      swap1\n      revert\n    tag_106:\n        /* \"src/votingMachine.sol\":3179:3190  _electionId */\n      dup4\n        /* \"src/votingMachine.sol\":3191:3203  _candidateId */\n      dup4\n        /* \"src/votingMachine.sol\":1593:1594  0 */\n      0x00\n        /* \"src/votingMachine.sol\":1580:1592  _candidateId */\n      dup2\n        /* \"src/votingMachine.sol\":1580:1594  _candidateId>0 */\n      gt\n        /* \"src/votingMachine.sol\":1580:1651  _candidateId>0 && _candidateId <= elections[_electionId].candidateCount */\n      dup1\n      iszero\n      tag_109\n      jumpi\n      pop\n        /* \"src/votingMachine.sol\":1614:1623  elections */\n      0x02\n        /* \"src/votingMachine.sol\":1614:1636  elections[_electionId] */\n      0x00\n        /* \"src/votingMachine.sol\":1624:1635  _electionId */\n      dup4\n        /* \"src/votingMachine.sol\":1614:1636  elections[_electionId] */\n      dup2\n      mstore\n      0x20\n      add\n      swap1\n      dup2\n      mstore\n      0x20\n      add\n      0x00\n      keccak256\n        /* \"src/votingMachine.sol\":1614:1651  elections[_electionId].candidateCount */\n      0x04\n      add\n      sload\n        /* \"src/votingMachine.sol\":1598:1610  _candidateId */\n      dup2\n        /* \"src/votingMachine.sol\":1598:1651  _candidateId <= elections[_electionId].candidateCount */\n      gt\n      iszero\n        /* \"src/votingMachine.sol\":1580:1651  _candidateId>0 && _candidateId <= elections[_electionId].candidateCount */\n    tag_109:\n        /* \"src/votingMachine.sol\":1571:1678  require (_candidateId>0 && _candidateId <= elections[_electionId].candidateCount,\"Candidate Id is invalid\") */\n      tag_110\n      jumpi\n      mload(0x40)\n      0x08c379a000000000000000000000000000000000000000000000000000000000\n      dup2\n      mstore\n      0x04\n      add\n      tag_111\n      swap1\n      tag_112\n      jump\t// in\n    tag_111:\n      mload(0x40)\n      dup1\n      swap2\n      sub\n      swap1\n      revert\n    tag_110:\n        /* \"src/votingMachine.sol\":3216:3227  _electionId */\n      dup6\n        /* \"src/votingMachine.sol\":1769:1778  elections */\n      0x02\n        /* \"src/votingMachine.sol\":1769:1791  elections[_electionId] */\n      0x00\n        /* \"src/votingMachine.sol\":1779:1790  _electionId */\n      dup3\n        /* \"src/votingMachine.sol\":1769:1791  elections[_electionId] */\n      dup2\n      mstore\n      0x20\n      add\n      swap1\n      dup2\n      mstore\n      0x20\n      add\n      0x00\n      keccak256\n        /* \"src/votingMachine.sol\":1769:1800  elections[_electionId].hasVoted */\n      0x06\n      add\n        /* \"src/votingMachine.sol\":1769:1812  elections[_electionId].hasVoted[msg.sender] */\n      0x00\n        /* \"src/votingMachine.sol\":1801:1811  msg.sender */\n      caller\n        /* \"src/votingMachine.sol\":1769:1812  elections[_electionId].hasVoted[msg.sender] */\n      0xffffffffffffffffffffffffffffffffffffffff\n      and\n      0xffffffffffffffffffffffffffffffffffffffff\n      and\n      dup2\n      mstore\n      0x20\n      add\n      swap1\n      dup2\n      mstore\n      0x20\n      add\n      0x00\n      keccak256\n      0x00\n      swap1\n      sload\n      swap1\n      0x0100\n      exp\n      swap1\n      div\n      0xff\n      and\n        /* \"src/votingMachine.sol\":1768:1812  !elections[_electionId].hasVoted[msg.sender] */\n      iszero\n        /* \"src/votingMachine.sol\":1760:1848  require(!elections[_electionId].hasVoted[msg.sender],\"This voter already give his vote\") */\n      tag_114\n      jumpi\n      mload(0x40)\n      0x08c379a000000000000000000000000000000000000000000000000000000000\n      dup2\n      mstore\n      0x04\n      add\n      tag_115\n      swap1\n      tag_116\n      jump\t// in\n    tag_115:\n      mload(0x40)\n      dup1\n      swap2\n      sub\n      swap1\n      revert\n    tag_114:\n        /* \"src/votingMachine.sol\":3284:3288  true */\n      0x01\n        /* \"src/votingMachine.sol\":3240:3249  elections */\n      0x02\n        /* \"src/votingMachine.sol\":3240:3262  elections[_electionId] */\n      0x00\n        /* \"src/votingMachine.sol\":3250:3261  _electionId */\n      dup10\n        /* \"src/votingMachine.sol\":3240:3262  elections[_electionId] */\n      dup2\n      mstore\n      0x20\n      add\n      swap1\n      dup2\n      mstore\n      0x20\n      add\n      0x00\n      keccak256\n        /* \"src/votingMachine.sol\":3240:3271  elections[_electionId].hasVoted */\n      0x06\n      add\n        /* \"src/votingMachine.sol\":3240:3283  elections[_electionId].hasVoted[msg.sender] */\n      0x00\n        /* \"src/votingMachine.sol\":3272:3282  msg.sender */\n      caller\n        /* \"src/votingMachine.sol\":3240:3283  elections[_electionId].hasVoted[msg.sender] */\n      0xffffffffffffffffffffffffffffffffffffffff\n      and\n      0xffffffffffffffffffffffffffffffffffffffff\n      and\n      dup2\n      mstore\n      0x20\n      add\n      swap1\n      dup2\n      mstore\n      0x20\n      add\n      0x00\n      keccak256\n      0x00\n        /* \"src/votingMachine.sol\":3240:3288  elections[_electionId].hasVoted[msg.sender]=true */\n      0x0100\n      exp\n      dup2\n      sload\n      dup2\n      0xff\n      mul\n      not\n      and\n      swap1\n      dup4\n      iszero\n      iszero\n      mul\n      or\n      swap1\n      sstore\n      pop\n        /* \"src/votingMachine.sol\":3299:3308  elections */\n      0x02\n        /* \"src/votingMachine.sol\":3299:3321  elections[_electionId] */\n      0x00\n        /* \"src/votingMachine.sol\":3309:3320  _electionId */\n      dup9\n        /* \"src/votingMachine.sol\":3299:3321  elections[_electionId] */\n      dup2\n      mstore\n      0x20\n      add\n      swap1\n      dup2\n      mstore\n      0x20\n      add\n      0x00\n      keccak256\n        /* \"src/votingMachine.sol\":3299:3332  elections[_electionId].candidates */\n      0x07\n      add\n        /* \"src/votingMachine.sol\":3299:3346  elections[_electionId].candidates[_candidateId] */\n      0x00\n        /* \"src/votingMachine.sol\":3333:3345  _candidateId */\n      dup8\n        /* \"src/votingMachine.sol\":3299:3346  elections[_electionId].candidates[_candidateId] */\n      dup2\n      mstore\n      0x20\n      add\n      swap1\n      dup2\n      mstore\n      0x20\n      add\n      0x00\n      keccak256\n        /* \"src/votingMachine.sol\":3299:3356  elections[_electionId].candidates[_candidateId].voteCount */\n      0x02\n      add\n      0x00\n        /* \"src/votingMachine.sol\":3299:3358  elections[_electionId].candidates[_candidateId].voteCount++ */\n      dup2\n      sload\n      dup1\n      swap3\n      swap2\n      swap1\n      tag_118\n      swap1\n      tag_84\n      jump\t// in\n    tag_118:\n      swap2\n      swap1\n      pop\n      sstore\n      pop\n        /* \"src/votingMachine.sol\":3369:3378  elections */\n      0x02\n        /* \"src/votingMachine.sol\":3369:3391  elections[_electionId] */\n      0x00\n        /* \"src/votingMachine.sol\":3379:3390  _electionId */\n      dup9\n        /* \"src/votingMachine.sol\":3369:3391  elections[_electionId] */\n      dup2\n      mstore\n      0x20\n      add\n      swap1\n      dup2\n      mstore\n      0x20\n      add\n      0x00\n      keccak256\n        /* \"src/votingMachine.sol\":3369:3401  elections[_electionId].totalVote */\n      0x05\n      add\n      0x00\n        /* \"src/votingMachine.sol\":3369:3403  elections[_electionId].totalVote++ */\n      dup2\n      sload\n      dup1\n      swap3\n      swap2\n      swap1\n      tag_119\n      swap1\n      tag_84\n      jump\t// in\n    tag_119:\n      swap2\n      swap1\n      pop\n      sstore\n      pop\n        /* \"src/votingMachine.sol\":3465:3474  elections */\n      0x02\n        /* \"src/votingMachine.sol\":3465:3487  elections[_electionId] */\n      0x00\n        /* \"src/votingMachine.sol\":3475:3486  _electionId */\n      dup9\n        /* \"src/votingMachine.sol\":3465:3487  elections[_electionId] */\n      dup2\n      mstore\n      0x20\n      add\n      swap1\n      dup2\n      mstore\n      0x20\n      add\n      0x00\n      keccak256\n        /* \"src/votingMachine.sol\":3465:3498  elections[_electionId].candidates */\n      0x07\n      add\n        /* \"src/votingMachine.sol\":3465:3512  elections[_electionId].candidates[_candidateId] */\n      0x00\n        /* \"src/votingMachine.sol\":3499:3511  _candidateId */\n      dup8\n        /* \"src/votingMachine.sol\":3465:3512  elections[_electionId].candidates[_candidateId] */\n      dup2\n      mstore\n      0x20\n      add\n      swap1\n      dup2\n      mstore\n      0x20\n      add\n      0x00\n      keccak256\n        /* \"src/votingMachine.sol\":3465:3524  elections[_electionId].candidates[_candidateId].candidateId */\n      0x01\n      add\n      sload\n        /* \"src/votingMachine.sol\":3430:3439  elections */\n      0x02\n        /* \"src/votingMachine.sol\":3430:3452  elections[_electionId] */\n      0x00\n        /* \"src/votingMachine.sol\":3440:3451  _electionId */\n      dup10\n        /* \"src/votingMachine.sol\":3430:3452  elections[_electionId] */\n      dup2\n      mstore\n      0x20\n      add\n      swap1\n      dup2\n      mstore\n      0x20\n      add\n      0x00\n      keccak256\n        /* \"src/votingMachine.sol\":3430:3463  elections[_electionId].electionId */\n      0x00\n      add\n      sload\n        /* \"src/votingMachine.sol\":3421:3525  VoteCast(elections[_electionId].electionId, elections[_electionId].candidates[_candidateId].candidateId) */\n      0xc31875ef3ed5138b71a0c1da7e494bc4d2ba4f567084ea481ec9c45f3a93948b\n      mload(0x40)\n      mload(0x40)\n      dup1\n      swap2\n      sub\n      swap1\n      log3\n        /* \"src/votingMachine.sol\":1689:1690  _ */\n      pop\n        /* \"src/votingMachine.sol\":1472:1473  _ */\n      pop\n      pop\n        /* \"src/votingMachine.sol\":1252:1253  _ */\n      pop\n        /* \"src/votingMachine.sol\":3042:3533  function votting(uint _electionId, uint _candidateId) public electionExists(_electionId) electionActive(_electionId) candidateValidation(_electionId,_candidateId) voteStatus(_electionId) {... */\n      pop\n      pop\n      pop\n      jump\t// out\n        /* \"src/votingMachine.sol\":6310:6948  function getCandidates(uint _electionId) public view electionExists(_electionId) returns(uint [] memory, string [] memory)... */\n    tag_32:\n        /* \"src/votingMachine.sol\":6399:6413  uint [] memory */\n      0x60\n        /* \"src/votingMachine.sol\":6415:6431  string [] memory */\n      dup1\n        /* \"src/votingMachine.sol\":6378:6389  _electionId */\n      dup3\n        /* \"src/votingMachine.sol\":1172:1183  _electionId */\n      dup1\n        /* \"src/votingMachine.sol\":1168:1169  0 */\n      0x00\n        /* \"src/votingMachine.sol\":1168:1183  0 < _electionId */\n      lt\n        /* \"src/votingMachine.sol\":1168:1215  0 < _electionId && _electionId <= electionCount */\n      dup1\n      iszero\n      tag_121\n      jumpi\n      pop\n        /* \"src/votingMachine.sol\":1202:1215  electionCount */\n      sload(0x01)\n        /* \"src/votingMachine.sol\":1187:1198  _electionId */\n      dup2\n        /* \"src/votingMachine.sol\":1187:1215  _electionId <= electionCount */\n      gt\n      iszero\n        /* \"src/votingMachine.sol\":1168:1215  0 < _electionId && _electionId <= electionCount */\n    tag_121:\n        /* \"src/votingMachine.sol\":1159:1241  require( 0 < _electionId && _electionId <= electionCount ,\"Election is not Exist\") */\n      tag_122\n      jumpi\n      mload(0x40)\n      0x08c379a000000000000000000000000000000000000000000000000000000000\n      dup2\n      mstore\n      0x04\n      add\n      tag_123\n      swap1\n      tag_76\n      jump\t// in\n    tag_123:\n      mload(0x40)\n      dup1\n      swap2\n      sub\n      swap1\n      revert\n    tag_122:\n        /* \"src/votingMachine.sol\":6495:6496  0 */\n      0x00\n        /* \"src/votingMachine.sol\":6457:6466  elections */\n      0x02\n        /* \"src/votingMachine.sol\":6457:6479  elections[_electionId] */\n      0x00\n        /* \"src/votingMachine.sol\":6467:6478  _electionId */\n      dup7\n        /* \"src/votingMachine.sol\":6457:6479  elections[_electionId] */\n      dup2\n      mstore\n      0x20\n      add\n      swap1\n      dup2\n      mstore\n      0x20\n      add\n      0x00\n      keccak256\n        /* \"src/votingMachine.sol\":6457:6494  elections[_electionId].candidateCount */\n      0x04\n      add\n      sload\n        /* \"src/votingMachine.sol\":6457:6496  elections[_electionId].candidateCount>0 */\n      gt\n        /* \"src/votingMachine.sol\":6449:6540  require(elections[_electionId].candidateCount>0,\"There is no candidates for this election\") */\n      tag_125\n      jumpi\n      mload(0x40)\n      0x08c379a000000000000000000000000000000000000000000000000000000000\n      dup2\n      mstore\n      0x04\n      add\n      tag_126\n      swap1\n      tag_127\n      jump\t// in\n    tag_126:\n      mload(0x40)\n      dup1\n      swap2\n      sub\n      swap1\n      revert\n    tag_125:\n        /* \"src/votingMachine.sol\":6551:6577  uint [] memory candidateId */\n      0x00\n        /* \"src/votingMachine.sol\":6590:6599  elections */\n      0x02\n        /* \"src/votingMachine.sol\":6590:6612  elections[_electionId] */\n      0x00\n        /* \"src/votingMachine.sol\":6600:6611  _electionId */\n      dup7\n        /* \"src/votingMachine.sol\":6590:6612  elections[_electionId] */\n      dup2\n      mstore\n      0x20\n      add\n      swap1\n      dup2\n      mstore\n      0x20\n      add\n      0x00\n      keccak256\n        /* \"src/votingMachine.sol\":6590:6627  elections[_electionId].candidateCount */\n      0x04\n      add\n      sload\n        /* \"src/votingMachine.sol\":6579:6628  new uint[](elections[_electionId].candidateCount) */\n      0xffffffffffffffff\n      dup2\n      gt\n      iszero\n      tag_128\n      jumpi\n      tag_129\n      tag_130\n      jump\t// in\n    tag_129:\n    tag_128:\n      mload(0x40)\n      swap1\n      dup1\n      dup3\n      mstore\n      dup1\n      0x20\n      mul\n      0x20\n      add\n      dup3\n      add\n      0x40\n      mstore\n      dup1\n      iszero\n      tag_131\n      jumpi\n      dup2\n      0x20\n      add\n      0x20\n      dup3\n      mul\n      dup1\n      calldatasize\n      dup4\n      calldatacopy\n      dup1\n      dup3\n      add\n      swap2\n      pop\n      pop\n      swap1\n      pop\n    tag_131:\n      pop\n        /* \"src/votingMachine.sol\":6551:6628  uint [] memory candidateId= new uint[](elections[_electionId].candidateCount) */\n      swap1\n      pop\n        /* \"src/votingMachine.sol\":6639:6660  string [] memory Name */\n      0x00\n        /* \"src/votingMachine.sol\":6676:6685  elections */\n      0x02\n        /* \"src/votingMachine.sol\":6676:6698  elections[_electionId] */\n      0x00\n        /* \"src/votingMachine.sol\":6686:6697  _electionId */\n      dup8\n        /* \"src/votingMachine.sol\":6676:6698  elections[_electionId] */\n      dup2\n      mstore\n      0x20\n      add\n      swap1\n      dup2\n      mstore\n      0x20\n      add\n      0x00\n      keccak256\n        /* \"src/votingMachine.sol\":6676:6713  elections[_electionId].candidateCount */\n      0x04\n      add\n      sload\n        /* \"src/votingMachine.sol\":6662:6714  new string [](elections[_electionId].candidateCount) */\n      0xffffffffffffffff\n      dup2\n      gt\n      iszero\n      tag_132\n      jumpi\n      tag_133\n      tag_130\n      jump\t// in\n    tag_133:\n    tag_132:\n      mload(0x40)\n      swap1\n      dup1\n      dup3\n      mstore\n      dup1\n      0x20\n      mul\n      0x20\n      add\n      dup3\n      add\n      0x40\n      mstore\n      dup1\n      iszero\n      tag_134\n      jumpi\n      dup2\n      0x20\n      add\n    tag_135:\n      0x60\n      dup2\n      mstore\n      0x20\n      add\n      swap1\n      0x01\n      swap1\n      sub\n      swap1\n      dup2\n      tag_135\n      jumpi\n      swap1\n      pop\n    tag_134:\n      pop\n        /* \"src/votingMachine.sol\":6639:6714  string [] memory Name= new string [](elections[_electionId].candidateCount) */\n      swap1\n      pop\n        /* \"src/votingMachine.sol\":6729:6735  uint i */\n      0x00\n        /* \"src/votingMachine.sol\":6736:6737  0 */\n      0x00\n        /* \"src/votingMachine.sol\":6729:6737  uint i=0 */\n      swap1\n      pop\n        /* \"src/votingMachine.sol\":6725:6905  for(uint i=0;i<elections[_electionId].candidateCount;i++)... */\n    tag_136:\n        /* \"src/votingMachine.sol\":6740:6749  elections */\n      0x02\n        /* \"src/votingMachine.sol\":6740:6762  elections[_electionId] */\n      0x00\n        /* \"src/votingMachine.sol\":6750:6761  _electionId */\n      dup9\n        /* \"src/votingMachine.sol\":6740:6762  elections[_electionId] */\n      dup2\n      mstore\n      0x20\n      add\n      swap1\n      dup2\n      mstore\n      0x20\n      add\n      0x00\n      keccak256\n        /* \"src/votingMachine.sol\":6740:6777  elections[_electionId].candidateCount */\n      0x04\n      add\n      sload\n        /* \"src/votingMachine.sol\":6738:6739  i */\n      dup2\n        /* \"src/votingMachine.sol\":6738:6777  i<elections[_electionId].candidateCount */\n      lt\n        /* \"src/votingMachine.sol\":6725:6905  for(uint i=0;i<elections[_electionId].candidateCount;i++)... */\n      iszero\n      tag_137\n      jumpi\n        /* \"src/votingMachine.sol\":6825:6826  1 */\n      0x01\n        /* \"src/votingMachine.sol\":6823:6824  i */\n      dup2\n        /* \"src/votingMachine.sol\":6823:6826  i+1 */\n      tag_139\n      swap2\n      swap1\n      tag_140\n      jump\t// in\n    tag_139:\n        /* \"src/votingMachine.sol\":6807:6818  candidateId */\n      dup4\n        /* \"src/votingMachine.sol\":6819:6820  i */\n      dup3\n        /* \"src/votingMachine.sol\":6807:6821  candidateId[i] */\n      dup2\n      mload\n      dup2\n      lt\n      tag_141\n      jumpi\n      tag_142\n      tag_143\n      jump\t// in\n    tag_142:\n    tag_141:\n      0x20\n      mul\n      0x20\n      add\n      add\n        /* \"src/votingMachine.sol\":6807:6826  candidateId[i] =i+1 */\n      dup2\n      dup2\n      mstore\n      pop\n      pop\n        /* \"src/votingMachine.sol\":6850:6859  elections */\n      0x02\n        /* \"src/votingMachine.sol\":6850:6872  elections[_electionId] */\n      0x00\n        /* \"src/votingMachine.sol\":6860:6871  _electionId */\n      dup9\n        /* \"src/votingMachine.sol\":6850:6872  elections[_electionId] */\n      dup2\n      mstore\n      0x20\n      add\n      swap1\n      dup2\n      mstore\n      0x20\n      add\n      0x00\n      keccak256\n        /* \"src/votingMachine.sol\":6850:6883  elections[_electionId].candidates */\n      0x07\n      add\n        /* \"src/votingMachine.sol\":6850:6888  elections[_electionId].candidates[i+1] */\n      0x00\n        /* \"src/votingMachine.sol\":6886:6887  1 */\n      0x01\n        /* \"src/votingMachine.sol\":6884:6885  i */\n      dup4\n        /* \"src/votingMachine.sol\":6884:6887  i+1 */\n      tag_144\n      swap2\n      swap1\n      tag_140\n      jump\t// in\n    tag_144:\n        /* \"src/votingMachine.sol\":6850:6888  elections[_electionId].candidates[i+1] */\n      dup2\n      mstore\n      0x20\n      add\n      swap1\n      dup2\n      mstore\n      0x20\n      add\n      0x00\n      keccak256\n        /* \"src/votingMachine.sol\":6850:6893  elections[_electionId].candidates[i+1].name */\n      0x00\n      add\n        /* \"src/votingMachine.sol\":6841:6893  Name[i]= elections[_electionId].candidates[i+1].name */\n      dup1\n      sload\n      tag_145\n      swap1\n      tag_95\n      jump\t// in\n    tag_145:\n      dup1\n      0x1f\n      add\n      0x20\n      dup1\n      swap2\n      div\n      mul\n      0x20\n      add\n      mload(0x40)\n      swap1\n      dup2\n      add\n      0x40\n      mstore\n      dup1\n      swap3\n      swap2\n      swap1\n      dup2\n      dup2\n      mstore\n      0x20\n      add\n      dup3\n      dup1\n      sload\n      tag_146\n      swap1\n      tag_95\n      jump\t// in\n    tag_146:\n      dup1\n      iszero\n      tag_147\n      jumpi\n      dup1\n      0x1f\n      lt\n      tag_148\n      jumpi\n      0x0100\n      dup1\n      dup4\n      sload\n      div\n      mul\n      dup4\n      mstore\n      swap2\n      0x20\n      add\n      swap2\n      jump(tag_147)\n    tag_148:\n      dup3\n      add\n      swap2\n      swap1\n      0x00\n      mstore\n      keccak256(0x00, 0x20)\n      swap1\n    tag_149:\n      dup2\n      sload\n      dup2\n      mstore\n      swap1\n      0x01\n      add\n      swap1\n      0x20\n      add\n      dup1\n      dup4\n      gt\n      tag_149\n      jumpi\n      dup3\n      swap1\n      sub\n      0x1f\n      and\n      dup3\n      add\n      swap2\n    tag_147:\n      pop\n      pop\n      pop\n      pop\n      pop\n        /* \"src/votingMachine.sol\":6841:6845  Name */\n      dup3\n        /* \"src/votingMachine.sol\":6846:6847  i */\n      dup3\n        /* \"src/votingMachine.sol\":6841:6848  Name[i] */\n      dup2\n      mload\n      dup2\n      lt\n      tag_150\n      jumpi\n      tag_151\n      tag_143\n      jump\t// in\n    tag_151:\n    tag_150:\n      0x20\n      mul\n      0x20\n      add\n      add\n        /* \"src/votingMachine.sol\":6841:6893  Name[i]= elections[_electionId].candidates[i+1].name */\n      dup2\n      swap1\n      mstore\n      pop\n        /* \"src/votingMachine.sol\":6778:6781  i++ */\n      dup1\n      dup1\n      0x01\n      add\n      swap2\n      pop\n      pop\n        /* \"src/votingMachine.sol\":6725:6905  for(uint i=0;i<elections[_electionId].candidateCount;i++)... */\n      jump(tag_136)\n    tag_137:\n      pop\n        /* \"src/votingMachine.sol\":6923:6934  candidateId */\n      dup2\n        /* \"src/votingMachine.sol\":6935:6939  Name */\n      dup2\n        /* \"src/votingMachine.sol\":6915:6940  return (candidateId,Name) */\n      swap5\n      pop\n      swap5\n      pop\n      pop\n      pop\n        /* \"src/votingMachine.sol\":6310:6948  function getCandidates(uint _electionId) public view electionExists(_electionId) returns(uint [] memory, string [] memory)... */\n      pop\n      swap2\n      pop\n      swap2\n      jump\t// out\n        /* \"src/votingMachine.sol\":5106:5831  function getWinner(uint _electionId) public view electionExists(_electionId) returns(uint WinnerID, string memory WminnerName , uint VoteCount)... */\n    tag_37:\n        /* \"src/votingMachine.sol\":5191:5204  uint WinnerID */\n      0x00\n        /* \"src/votingMachine.sol\":5206:5231  string memory WminnerName */\n      0x60\n        /* \"src/votingMachine.sol\":5234:5248  uint VoteCount */\n      0x00\n        /* \"src/votingMachine.sol\":5170:5181  _electionId */\n      dup4\n        /* \"src/votingMachine.sol\":1172:1183  _electionId */\n      dup1\n        /* \"src/votingMachine.sol\":1168:1169  0 */\n      0x00\n        /* \"src/votingMachine.sol\":1168:1183  0 < _electionId */\n      lt\n        /* \"src/votingMachine.sol\":1168:1215  0 < _electionId && _electionId <= electionCount */\n      dup1\n      iszero\n      tag_153\n      jumpi\n      pop\n        /* \"src/votingMachine.sol\":1202:1215  electionCount */\n      sload(0x01)\n        /* \"src/votingMachine.sol\":1187:1198  _electionId */\n      dup2\n        /* \"src/votingMachine.sol\":1187:1215  _electionId <= electionCount */\n      gt\n      iszero\n        /* \"src/votingMachine.sol\":1168:1215  0 < _electionId && _electionId <= electionCount */\n    tag_153:\n        /* \"src/votingMachine.sol\":1159:1241  require( 0 < _electionId && _electionId <= electionCount ,\"Election is not Exist\") */\n      tag_154\n      jumpi\n      mload(0x40)\n      0x08c379a000000000000000000000000000000000000000000000000000000000\n      dup2\n      mstore\n      0x04\n      add\n      tag_155\n      swap1\n      tag_76\n      jump\t// in\n    tag_155:\n      mload(0x40)\n      dup1\n      swap2\n      sub\n      swap1\n      revert\n    tag_154:\n        /* \"src/votingMachine.sol\":5267:5292  Election storage election */\n      0x00\n        /* \"src/votingMachine.sol\":5295:5304  elections */\n      0x02\n        /* \"src/votingMachine.sol\":5295:5317  elections[_electionId] */\n      0x00\n        /* \"src/votingMachine.sol\":5305:5316  _electionId */\n      dup8\n        /* \"src/votingMachine.sol\":5295:5317  elections[_electionId] */\n      dup2\n      mstore\n      0x20\n      add\n      swap1\n      dup2\n      mstore\n      0x20\n      add\n      0x00\n      keccak256\n        /* \"src/votingMachine.sol\":5267:5317  Election storage election = elections[_electionId] */\n      swap1\n      pop\n        /* \"src/votingMachine.sol\":5330:5343  uint winnerId */\n      0x00\n        /* \"src/votingMachine.sol\":5344:5345  0 */\n      0x00\n        /* \"src/votingMachine.sol\":5330:5345  uint winnerId=0 */\n      swap1\n      pop\n        /* \"src/votingMachine.sol\":5356:5380  string memory winnerName */\n      0x60\n        /* \"src/votingMachine.sol\":5391:5407  uint winnerVotes */\n      0x00\n        /* \"src/votingMachine.sol\":5408:5409  0 */\n      0x00\n        /* \"src/votingMachine.sol\":5391:5409  uint winnerVotes=0 */\n      swap1\n      pop\n        /* \"src/votingMachine.sol\":5426:5432  uint i */\n      0x00\n        /* \"src/votingMachine.sol\":5433:5434  1 */\n      0x01\n        /* \"src/votingMachine.sol\":5426:5434  uint i=1 */\n      swap1\n      pop\n        /* \"src/votingMachine.sol\":5422:5773  for(uint i=1; i<= election.candidateCount; i++)... */\n    tag_157:\n        /* \"src/votingMachine.sol\":5440:5448  election */\n      dup5\n        /* \"src/votingMachine.sol\":5440:5463  election.candidateCount */\n      0x04\n      add\n      sload\n        /* \"src/votingMachine.sol\":5436:5437  i */\n      dup2\n        /* \"src/votingMachine.sol\":5436:5463  i<= election.candidateCount */\n      gt\n        /* \"src/votingMachine.sol\":5422:5773  for(uint i=1; i<= election.candidateCount; i++)... */\n      tag_158\n      jumpi\n        /* \"src/votingMachine.sol\":5532:5543  winnerVotes */\n      dup2\n        /* \"src/votingMachine.sol\":5497:5505  election */\n      dup6\n        /* \"src/votingMachine.sol\":5497:5516  election.candidates */\n      0x07\n      add\n        /* \"src/votingMachine.sol\":5497:5519  election.candidates[i] */\n      0x00\n        /* \"src/votingMachine.sol\":5517:5518  i */\n      dup4\n        /* \"src/votingMachine.sol\":5497:5519  election.candidates[i] */\n      dup2\n      mstore\n      0x20\n      add\n      swap1\n      dup2\n      mstore\n      0x20\n      add\n      0x00\n      keccak256\n        /* \"src/votingMachine.sol\":5497:5529  election.candidates[i].voteCount */\n      0x02\n      add\n      sload\n        /* \"src/votingMachine.sol\":5497:5543  election.candidates[i].voteCount > winnerVotes */\n      gt\n        /* \"src/votingMachine.sol\":5494:5762  if(election.candidates[i].voteCount > winnerVotes)... */\n      iszero\n      tag_160\n      jumpi\n        /* \"src/votingMachine.sol\":5588:5596  election */\n      dup5\n        /* \"src/votingMachine.sol\":5588:5607  election.candidates */\n      0x07\n      add\n        /* \"src/votingMachine.sol\":5588:5610  election.candidates[i] */\n      0x00\n        /* \"src/votingMachine.sol\":5608:5609  i */\n      dup3\n        /* \"src/votingMachine.sol\":5588:5610  election.candidates[i] */\n      dup2\n      mstore\n      0x20\n      add\n      swap1\n      dup2\n      mstore\n      0x20\n      add\n      0x00\n      keccak256\n        /* \"src/votingMachine.sol\":5588:5622  election.candidates[i].candidateId */\n      0x01\n      add\n      sload\n        /* \"src/votingMachine.sol\":5577:5622  winnerId = election.candidates[i].candidateId */\n      swap4\n      pop\n        /* \"src/votingMachine.sol\":5654:5662  election */\n      dup5\n        /* \"src/votingMachine.sol\":5654:5673  election.candidates */\n      0x07\n      add\n        /* \"src/votingMachine.sol\":5654:5676  election.candidates[i] */\n      0x00\n        /* \"src/votingMachine.sol\":5674:5675  i */\n      dup3\n        /* \"src/votingMachine.sol\":5654:5676  election.candidates[i] */\n      dup2\n      mstore\n      0x20\n      add\n      swap1\n      dup2\n      mstore\n      0x20\n      add\n      0x00\n      keccak256\n        /* \"src/votingMachine.sol\":5654:5681  election.candidates[i].name */\n      0x00\n      add\n        /* \"src/votingMachine.sol\":5641:5681  winnerName = election.candidates[i].name */\n      dup1\n      sload\n      tag_161\n      swap1\n      tag_95\n      jump\t// in\n    tag_161:\n      dup1\n      0x1f\n      add\n      0x20\n      dup1\n      swap2\n      div\n      mul\n      0x20\n      add\n      mload(0x40)\n      swap1\n      dup2\n      add\n      0x40\n      mstore\n      dup1\n      swap3\n      swap2\n      swap1\n      dup2\n      dup2\n      mstore\n      0x20\n      add\n      dup3\n      dup1\n      sload\n      tag_162\n      swap1\n      tag_95\n      jump\t// in\n    tag_162:\n      dup1\n      iszero\n      tag_163\n      jumpi\n      dup1\n      0x1f\n      lt\n      tag_164\n      jumpi\n      0x0100\n      dup1\n      dup4\n      sload\n      div\n      mul\n      dup4\n      mstore\n      swap2\n      0x20\n      add\n      swap2\n      jump(tag_163)\n    tag_164:\n      dup3\n      add\n      swap2\n      swap1\n      0x00\n      mstore\n      keccak256(0x00, 0x20)\n      swap1\n    tag_165:\n      dup2\n      sload\n      dup2\n      mstore\n      swap1\n      0x01\n      add\n      swap1\n      0x20\n      add\n      dup1\n      dup4\n      gt\n      tag_165\n      jumpi\n      dup3\n      swap1\n      sub\n      0x1f\n      and\n      dup3\n      add\n      swap2\n    tag_163:\n      pop\n      pop\n      pop\n      pop\n      pop\n      swap3\n      pop\n        /* \"src/votingMachine.sol\":5714:5722  election */\n      dup5\n        /* \"src/votingMachine.sol\":5714:5733  election.candidates */\n      0x07\n      add\n        /* \"src/votingMachine.sol\":5714:5736  election.candidates[i] */\n      0x00\n        /* \"src/votingMachine.sol\":5734:5735  i */\n      dup3\n        /* \"src/votingMachine.sol\":5714:5736  election.candidates[i] */\n      dup2\n      mstore\n      0x20\n      add\n      swap1\n      dup2\n      mstore\n      0x20\n      add\n      0x00\n      keccak256\n        /* \"src/votingMachine.sol\":5714:5746  election.candidates[i].voteCount */\n      0x02\n      add\n      sload\n        /* \"src/votingMachine.sol\":5700:5746  winnerVotes = election.candidates[i].voteCount */\n      swap2\n      pop\n        /* \"src/votingMachine.sol\":5494:5762  if(election.candidates[i].voteCount > winnerVotes)... */\n    tag_160:\n        /* \"src/votingMachine.sol\":5465:5468  i++ */\n      dup1\n      dup1\n      tag_166\n      swap1\n      tag_84\n      jump\t// in\n    tag_166:\n      swap2\n      pop\n      pop\n        /* \"src/votingMachine.sol\":5422:5773  for(uint i=1; i<= election.candidateCount; i++)... */\n      jump(tag_157)\n    tag_158:\n      pop\n        /* \"src/votingMachine.sol\":5791:5799  winnerId */\n      dup3\n        /* \"src/votingMachine.sol\":5800:5810  winnerName */\n      dup3\n        /* \"src/votingMachine.sol\":5811:5822  winnerVotes */\n      dup3\n        /* \"src/votingMachine.sol\":5783:5823  return (winnerId,winnerName,winnerVotes) */\n      swap8\n      pop\n      swap8\n      pop\n      swap8\n      pop\n      pop\n      pop\n      pop\n      pop\n        /* \"src/votingMachine.sol\":5106:5831  function getWinner(uint _electionId) public view electionExists(_electionId) returns(uint WinnerID, string memory WminnerName , uint VoteCount)... */\n      pop\n      swap2\n      swap4\n      swap1\n      swap3\n      pop\n      jump\t// out\n        /* \"src/votingMachine.sol\":4434:4838  function getCandidate(uint _electionId, uint _candidateId) public view electionExists(_electionId) candidateValidation(_electionId,_candidateId) returns(uint CandidateId, string memory Name,uint Votes)... */\n    tag_42:\n        /* \"src/votingMachine.sol\":4587:4603  uint CandidateId */\n      0x00\n        /* \"src/votingMachine.sol\":4605:4623  string memory Name */\n      0x60\n        /* \"src/votingMachine.sol\":4624:4634  uint Votes */\n      0x00\n        /* \"src/votingMachine.sol\":4520:4531  _electionId */\n      dup5\n        /* \"src/votingMachine.sol\":1172:1183  _electionId */\n      dup1\n        /* \"src/votingMachine.sol\":1168:1169  0 */\n      0x00\n        /* \"src/votingMachine.sol\":1168:1183  0 < _electionId */\n      lt\n        /* \"src/votingMachine.sol\":1168:1215  0 < _electionId && _electionId <= electionCount */\n      dup1\n      iszero\n      tag_168\n      jumpi\n      pop\n        /* \"src/votingMachine.sol\":1202:1215  electionCount */\n      sload(0x01)\n        /* \"src/votingMachine.sol\":1187:1198  _electionId */\n      dup2\n        /* \"src/votingMachine.sol\":1187:1215  _electionId <= electionCount */\n      gt\n      iszero\n        /* \"src/votingMachine.sol\":1168:1215  0 < _electionId && _electionId <= electionCount */\n    tag_168:\n        /* \"src/votingMachine.sol\":1159:1241  require( 0 < _electionId && _electionId <= electionCount ,\"Election is not Exist\") */\n      tag_169\n      jumpi\n      mload(0x40)\n      0x08c379a000000000000000000000000000000000000000000000000000000000\n      dup2\n      mstore\n      0x04\n      add\n      tag_170\n      swap1\n      tag_76\n      jump\t// in\n    tag_170:\n      mload(0x40)\n      dup1\n      swap2\n      sub\n      swap1\n      revert\n    tag_169:\n        /* \"src/votingMachine.sol\":4553:4564  _electionId */\n      dup6\n        /* \"src/votingMachine.sol\":4565:4577  _candidateId */\n      dup6\n        /* \"src/votingMachine.sol\":1593:1594  0 */\n      0x00\n        /* \"src/votingMachine.sol\":1580:1592  _candidateId */\n      dup2\n        /* \"src/votingMachine.sol\":1580:1594  _candidateId>0 */\n      gt\n        /* \"src/votingMachine.sol\":1580:1651  _candidateId>0 && _candidateId <= elections[_electionId].candidateCount */\n      dup1\n      iszero\n      tag_172\n      jumpi\n      pop\n        /* \"src/votingMachine.sol\":1614:1623  elections */\n      0x02\n        /* \"src/votingMachine.sol\":1614:1636  elections[_electionId] */\n      0x00\n        /* \"src/votingMachine.sol\":1624:1635  _electionId */\n      dup4\n        /* \"src/votingMachine.sol\":1614:1636  elections[_electionId] */\n      dup2\n      mstore\n      0x20\n      add\n      swap1\n      dup2\n      mstore\n      0x20\n      add\n      0x00\n      keccak256\n        /* \"src/votingMachine.sol\":1614:1651  elections[_electionId].candidateCount */\n      0x04\n      add\n      sload\n        /* \"src/votingMachine.sol\":1598:1610  _candidateId */\n      dup2\n        /* \"src/votingMachine.sol\":1598:1651  _candidateId <= elections[_electionId].candidateCount */\n      gt\n      iszero\n        /* \"src/votingMachine.sol\":1580:1651  _candidateId>0 && _candidateId <= elections[_electionId].candidateCount */\n    tag_172:\n        /* \"src/votingMachine.sol\":1571:1678  require (_candidateId>0 && _candidateId <= elections[_electionId].candidateCount,\"Candidate Id is invalid\") */\n      tag_173\n      jumpi\n      mload(0x40)\n      0x08c379a000000000000000000000000000000000000000000000000000000000\n      dup2\n      mstore\n      0x04\n      add\n      tag_174\n      swap1\n      tag_112\n      jump\t// in\n    tag_174:\n      mload(0x40)\n      dup1\n      swap2\n      sub\n      swap1\n      revert\n    tag_173:\n        /* \"src/votingMachine.sol\":4659:4668  elections */\n      0x02\n        /* \"src/votingMachine.sol\":4659:4681  elections[_electionId] */\n      0x00\n        /* \"src/votingMachine.sol\":4669:4680  _electionId */\n      dup10\n        /* \"src/votingMachine.sol\":4659:4681  elections[_electionId] */\n      dup2\n      mstore\n      0x20\n      add\n      swap1\n      dup2\n      mstore\n      0x20\n      add\n      0x00\n      keccak256\n        /* \"src/votingMachine.sol\":4659:4692  elections[_electionId].candidates */\n      0x07\n      add\n        /* \"src/votingMachine.sol\":4659:4706  elections[_electionId].candidates[_candidateId] */\n      0x00\n        /* \"src/votingMachine.sol\":4693:4705  _candidateId */\n      dup9\n        /* \"src/votingMachine.sol\":4659:4706  elections[_electionId].candidates[_candidateId] */\n      dup2\n      mstore\n      0x20\n      add\n      swap1\n      dup2\n      mstore\n      0x20\n      add\n      0x00\n      keccak256\n        /* \"src/votingMachine.sol\":4659:4718  elections[_electionId].candidates[_candidateId].candidateId */\n      0x01\n      add\n      sload\n        /* \"src/votingMachine.sol\":4719:4728  elections */\n      0x02\n        /* \"src/votingMachine.sol\":4719:4741  elections[_electionId] */\n      0x00\n        /* \"src/votingMachine.sol\":4729:4740  _electionId */\n      dup11\n        /* \"src/votingMachine.sol\":4719:4741  elections[_electionId] */\n      dup2\n      mstore\n      0x20\n      add\n      swap1\n      dup2\n      mstore\n      0x20\n      add\n      0x00\n      keccak256\n        /* \"src/votingMachine.sol\":4719:4752  elections[_electionId].candidates */\n      0x07\n      add\n        /* \"src/votingMachine.sol\":4719:4766  elections[_electionId].candidates[_candidateId] */\n      0x00\n        /* \"src/votingMachine.sol\":4753:4765  _candidateId */\n      dup10\n        /* \"src/votingMachine.sol\":4719:4766  elections[_electionId].candidates[_candidateId] */\n      dup2\n      mstore\n      0x20\n      add\n      swap1\n      dup2\n      mstore\n      0x20\n      add\n      0x00\n      keccak256\n        /* \"src/votingMachine.sol\":4719:4771  elections[_electionId].candidates[_candidateId].name */\n      0x00\n      add\n        /* \"src/votingMachine.sol\":4772:4781  elections */\n      0x02\n        /* \"src/votingMachine.sol\":4772:4794  elections[_electionId] */\n      0x00\n        /* \"src/votingMachine.sol\":4782:4793  _electionId */\n      dup12\n        /* \"src/votingMachine.sol\":4772:4794  elections[_electionId] */\n      dup2\n      mstore\n      0x20\n      add\n      swap1\n      dup2\n      mstore\n      0x20\n      add\n      0x00\n      keccak256\n        /* \"src/votingMachine.sol\":4772:4805  elections[_electionId].candidates */\n      0x07\n      add\n        /* \"src/votingMachine.sol\":4772:4819  elections[_electionId].candidates[_candidateId] */\n      0x00\n        /* \"src/votingMachine.sol\":4806:4818  _candidateId */\n      dup11\n        /* \"src/votingMachine.sol\":4772:4819  elections[_electionId].candidates[_candidateId] */\n      dup2\n      mstore\n      0x20\n      add\n      swap1\n      dup2\n      mstore\n      0x20\n      add\n      0x00\n      keccak256\n        /* \"src/votingMachine.sol\":4772:4829  elections[_electionId].candidates[_candidateId].voteCount */\n      0x02\n      add\n      sload\n        /* \"src/votingMachine.sol\":4652:4830  return(elections[_electionId].candidates[_candidateId].candidateId,elections[_electionId].candidates[_candidateId].name,elections[_electionId].candidates[_candidateId].voteCount) */\n      dup2\n      dup1\n      sload\n      tag_176\n      swap1\n      tag_95\n      jump\t// in\n    tag_176:\n      dup1\n      0x1f\n      add\n      0x20\n      dup1\n      swap2\n      div\n      mul\n      0x20\n      add\n      mload(0x40)\n      swap1\n      dup2\n      add\n      0x40\n      mstore\n      dup1\n      swap3\n      swap2\n      swap1\n      dup2\n      dup2\n      mstore\n      0x20\n      add\n      dup3\n      dup1\n      sload\n      tag_177\n      swap1\n      tag_95\n      jump\t// in\n    tag_177:\n      dup1\n      iszero\n      tag_178\n      jumpi\n      dup1\n      0x1f\n      lt\n      tag_179\n      jumpi\n      0x0100\n      dup1\n      dup4\n      sload\n      div\n      mul\n      dup4\n      mstore\n      swap2\n      0x20\n      add\n      swap2\n      jump(tag_178)\n    tag_179:\n      dup3\n      add\n      swap2\n      swap1\n      0x00\n      mstore\n      keccak256(0x00, 0x20)\n      swap1\n    tag_180:\n      dup2\n      sload\n      dup2\n      mstore\n      swap1\n      0x01\n      add\n      swap1\n      0x20\n      add\n      dup1\n      dup4\n      gt\n      tag_180\n      jumpi\n      dup3\n      swap1\n      sub\n      0x1f\n      and\n      dup3\n      add\n      swap2\n    tag_178:\n      pop\n      pop\n      pop\n      pop\n      pop\n      swap2\n      pop\n      swap6\n      pop\n      swap6\n      pop\n      swap6\n      pop\n        /* \"src/votingMachine.sol\":1252:1253  _ */\n      pop\n      pop\n        /* \"src/votingMachine.sol\":4434:4838  function getCandidate(uint _electionId, uint _candidateId) public view electionExists(_electionId) candidateValidation(_electionId,_candidateId) returns(uint CandidateId, string memory Name,uint Votes)... */\n      pop\n      swap3\n      pop\n      swap3\n      pop\n      swap3\n      jump\t// out\n        /* \"src/votingMachine.sol\":522:565  mapping(uint => Election) public  elections */\n    tag_46:\n      mstore(0x20, 0x02)\n      dup1\n      0x00\n      mstore\n      keccak256(0x00, 0x40)\n      0x00\n      swap2\n      pop\n      swap1\n      pop\n      dup1\n      0x00\n      add\n      sload\n      swap1\n      dup1\n      0x01\n      add\n      0x00\n      swap1\n      sload\n      swap1\n      0x0100\n      exp\n      swap1\n      div\n      0xff\n      and\n      swap1\n      dup1\n      0x02\n      add\n      dup1\n      sload\n      tag_181\n      swap1\n      tag_95\n      jump\t// in\n    tag_181:\n      dup1\n      0x1f\n      add\n      0x20\n      dup1\n      swap2\n      div\n      mul\n      0x20\n      add\n      mload(0x40)\n      swap1\n      dup2\n      add\n      0x40\n      mstore\n      dup1\n      swap3\n      swap2\n      swap1\n      dup2\n      dup2\n      mstore\n      0x20\n      add\n      dup3\n      dup1\n      sload\n      tag_182\n      swap1\n      tag_95\n      jump\t// in\n    tag_182:\n      dup1\n      iszero\n      tag_183\n      jumpi\n      dup1\n      0x1f\n      lt\n      tag_184\n      jumpi\n      0x0100\n      dup1\n      dup4\n      sload\n      div\n      mul\n      dup4\n      mstore\n      swap2\n      0x20\n      add\n      swap2\n      jump(tag_183)\n    tag_184:\n      dup3\n      add\n      swap2\n      swap1\n      0x00\n      mstore\n      keccak256(0x00, 0x20)\n      swap1\n    tag_185:\n      dup2\n      sload\n      dup2\n      mstore\n      swap1\n      0x01\n      add\n      swap1\n      0x20\n      add\n      dup1\n      dup4\n      gt\n      tag_185\n      jumpi\n      dup3\n      swap1\n      sub\n      0x1f\n      and\n      dup3\n      add\n      swap2\n    tag_183:\n      pop\n      pop\n      pop\n      pop\n      pop\n      swap1\n      dup1\n      0x03\n      add\n      sload\n      swap1\n      dup1\n      0x04\n      add\n      sload\n      swap1\n      dup1\n      0x05\n      add\n      sload\n      swap1\n      pop\n      dup7\n      jump\t// out\n        /* \"src/votingMachine.sol\":1933:2435  function CreateElection(string memory _name, uint _duration) public onlyAdmin ... */\n    tag_52:\n        /* \"src/votingMachine.sol\":1022:1032  msg.sender */\n      caller\n        /* \"src/votingMachine.sol\":1014:1032  admin== msg.sender */\n      0xffffffffffffffffffffffffffffffffffffffff\n      and\n        /* \"src/votingMachine.sol\":1014:1019  admin */\n      0x00\n      0x00\n      swap1\n      sload\n      swap1\n      0x0100\n      exp\n      swap1\n      div\n      0xffffffffffffffffffffffffffffffffffffffff\n      and\n        /* \"src/votingMachine.sol\":1014:1032  admin== msg.sender */\n      0xffffffffffffffffffffffffffffffffffffffff\n      and\n      eq\n        /* \"src/votingMachine.sol\":1006:1072  require(admin== msg.sender,\"Only admin can perform this function\") */\n      tag_187\n      jumpi\n      mload(0x40)\n      0x08c379a000000000000000000000000000000000000000000000000000000000\n      dup2\n      mstore\n      0x04\n      add\n      tag_188\n      swap1\n      tag_71\n      jump\t// in\n    tag_188:\n      mload(0x40)\n      dup1\n      swap2\n      sub\n      swap1\n      revert\n    tag_187:\n        /* \"src/votingMachine.sol\":2028:2041  electionCount */\n      0x01\n      0x00\n        /* \"src/votingMachine.sol\":2028:2043  electionCount++ */\n      dup2\n      sload\n      dup1\n      swap3\n      swap2\n      swap1\n      tag_190\n      swap1\n      tag_84\n      jump\t// in\n    tag_190:\n      swap2\n      swap1\n      pop\n      sstore\n      pop\n        /* \"src/votingMachine.sol\":2054:2079  Election storage election */\n      0x00\n        /* \"src/votingMachine.sol\":2082:2091  elections */\n      0x02\n        /* \"src/votingMachine.sol\":2082:2106  elections[electionCount] */\n      0x00\n        /* \"src/votingMachine.sol\":2092:2105  electionCount */\n      sload(0x01)\n        /* \"src/votingMachine.sol\":2082:2106  elections[electionCount] */\n      dup2\n      mstore\n      0x20\n      add\n      swap1\n      dup2\n      mstore\n      0x20\n      add\n      0x00\n      keccak256\n        /* \"src/votingMachine.sol\":2054:2106  Election storage election = elections[electionCount] */\n      swap1\n      pop\n        /* \"src/votingMachine.sol\":2132:2137  _name */\n      dup3\n        /* \"src/votingMachine.sol\":2117:2125  election */\n      dup2\n        /* \"src/votingMachine.sol\":2117:2130  election.name */\n      0x02\n      add\n        /* \"src/votingMachine.sol\":2117:2137  election.name= _name */\n      swap1\n      dup2\n      tag_191\n      swap2\n      swap1\n      tag_86\n      jump\t// in\n    tag_191:\n      pop\n        /* \"src/votingMachine.sol\":2170:2183  electionCount */\n      sload(0x01)\n        /* \"src/votingMachine.sol\":2148:2156  election */\n      dup2\n        /* \"src/votingMachine.sol\":2148:2167  election.electionId */\n      0x00\n      add\n        /* \"src/votingMachine.sol\":2148:2183  election.electionId = electionCount */\n      dup2\n      swap1\n      sstore\n      pop\n        /* \"src/votingMachine.sol\":2214:2218  true */\n      0x01\n        /* \"src/votingMachine.sol\":2194:2202  election */\n      dup2\n        /* \"src/votingMachine.sol\":2194:2211  election.isActive */\n      0x01\n      add\n      0x00\n        /* \"src/votingMachine.sol\":2194:2218  election.isActive = true */\n      0x0100\n      exp\n      dup2\n      sload\n      dup2\n      0xff\n      mul\n      not\n      and\n      swap1\n      dup4\n      iszero\n      iszero\n      mul\n      or\n      swap1\n      sstore\n      pop\n        /* \"src/votingMachine.sol\":2266:2275  _duration */\n      dup2\n        /* \"src/votingMachine.sol\":2248:2263  block.timestamp */\n      timestamp\n        /* \"src/votingMachine.sol\":2248:2275  block.timestamp + _duration */\n      tag_192\n      swap2\n      swap1\n      tag_140\n      jump\t// in\n    tag_192:\n        /* \"src/votingMachine.sol\":2229:2237  election */\n      dup2\n        /* \"src/votingMachine.sol\":2229:2245  election.endTime */\n      0x03\n      add\n        /* \"src/votingMachine.sol\":2229:2275  election.endTime = block.timestamp + _duration */\n      dup2\n      swap1\n      sstore\n      pop\n        /* \"src/votingMachine.sol\":2310:2311  0 */\n      0x00\n        /* \"src/votingMachine.sol\":2286:2294  election */\n      dup2\n        /* \"src/votingMachine.sol\":2286:2309  election.candidateCount */\n      0x04\n      add\n        /* \"src/votingMachine.sol\":2286:2311  election.candidateCount=0 */\n      dup2\n      swap1\n      sstore\n      pop\n        /* \"src/votingMachine.sol\":2374:2382  election */\n      dup1\n        /* \"src/votingMachine.sol\":2374:2393  election.electionId */\n      0x00\n      add\n      sload\n        /* \"src/votingMachine.sol\":2358:2427  ElectionCreated(election.electionId, election.name, election.endTime) */\n      0x43131521170c5b80ffe9526cfec987f5a24eb1f6c4bda47c41a5e4b8388afe5c\n        /* \"src/votingMachine.sol\":2395:2403  election */\n      dup3\n        /* \"src/votingMachine.sol\":2395:2408  election.name */\n      0x02\n      add\n        /* \"src/votingMachine.sol\":2410:2418  election */\n      dup4\n        /* \"src/votingMachine.sol\":2410:2426  election.endTime */\n      0x03\n      add\n      sload\n        /* \"src/votingMachine.sol\":2358:2427  ElectionCreated(election.electionId, election.name, election.endTime) */\n      mload(0x40)\n      tag_193\n      swap3\n      swap2\n      swap1\n      tag_194\n      jump\t// in\n    tag_193:\n      mload(0x40)\n      dup1\n      swap2\n      sub\n      swap1\n      log2\n        /* \"src/votingMachine.sol\":2017:2435  {... */\n      pop\n        /* \"src/votingMachine.sol\":1933:2435  function CreateElection(string memory _name, uint _duration) public onlyAdmin ... */\n      pop\n      pop\n      jump\t// out\n        /* \"src/votingMachine.sol\":490:515  uint public electionCount */\n    tag_54:\n      sload(0x01)\n      dup2\n      jump\t// out\n        /* \"src/votingMachine.sol\":3541:4426  function endElection(uint _electionId) public onlyAdmin electionExists(_electionId) electionActive(_electionId) returns(uint,string memory,uint)... */\n    tag_59:\n        /* \"src/votingMachine.sol\":3661:3665  uint */\n      0x00\n        /* \"src/votingMachine.sol\":3666:3679  string memory */\n      0x60\n        /* \"src/votingMachine.sol\":3680:3684  uint */\n      0x00\n        /* \"src/votingMachine.sol\":1022:1032  msg.sender */\n      caller\n        /* \"src/votingMachine.sol\":1014:1032  admin== msg.sender */\n      0xffffffffffffffffffffffffffffffffffffffff\n      and\n        /* \"src/votingMachine.sol\":1014:1019  admin */\n      0x00\n      0x00\n      swap1\n      sload\n      swap1\n      0x0100\n      exp\n      swap1\n      div\n      0xffffffffffffffffffffffffffffffffffffffff\n      and\n        /* \"src/votingMachine.sol\":1014:1032  admin== msg.sender */\n      0xffffffffffffffffffffffffffffffffffffffff\n      and\n      eq\n        /* \"src/votingMachine.sol\":1006:1072  require(admin== msg.sender,\"Only admin can perform this function\") */\n      tag_196\n      jumpi\n      mload(0x40)\n      0x08c379a000000000000000000000000000000000000000000000000000000000\n      dup2\n      mstore\n      0x04\n      add\n      tag_197\n      swap1\n      tag_71\n      jump\t// in\n    tag_197:\n      mload(0x40)\n      dup1\n      swap2\n      sub\n      swap1\n      revert\n    tag_196:\n        /* \"src/votingMachine.sol\":3612:3623  _electionId */\n      dup4\n        /* \"src/votingMachine.sol\":1172:1183  _electionId */\n      dup1\n        /* \"src/votingMachine.sol\":1168:1169  0 */\n      0x00\n        /* \"src/votingMachine.sol\":1168:1183  0 < _electionId */\n      lt\n        /* \"src/votingMachine.sol\":1168:1215  0 < _electionId && _electionId <= electionCount */\n      dup1\n      iszero\n      tag_199\n      jumpi\n      pop\n        /* \"src/votingMachine.sol\":1202:1215  electionCount */\n      sload(0x01)\n        /* \"src/votingMachine.sol\":1187:1198  _electionId */\n      dup2\n        /* \"src/votingMachine.sol\":1187:1215  _electionId <= electionCount */\n      gt\n      iszero\n        /* \"src/votingMachine.sol\":1168:1215  0 < _electionId && _electionId <= electionCount */\n    tag_199:\n        /* \"src/votingMachine.sol\":1159:1241  require( 0 < _electionId && _electionId <= electionCount ,\"Election is not Exist\") */\n      tag_200\n      jumpi\n      mload(0x40)\n      0x08c379a000000000000000000000000000000000000000000000000000000000\n      dup2\n      mstore\n      0x04\n      add\n      tag_201\n      swap1\n      tag_76\n      jump\t// in\n    tag_201:\n      mload(0x40)\n      dup1\n      swap2\n      sub\n      swap1\n      revert\n    tag_200:\n        /* \"src/votingMachine.sol\":3640:3651  _electionId */\n      dup5\n        /* \"src/votingMachine.sol\":1369:1373  true */\n      0x01\n        /* \"src/votingMachine.sol\":1336:1373  elections[_electionId].isActive==true */\n      iszero\n      iszero\n        /* \"src/votingMachine.sol\":1336:1345  elections */\n      0x02\n        /* \"src/votingMachine.sol\":1336:1358  elections[_electionId] */\n      0x00\n        /* \"src/votingMachine.sol\":1346:1357  _electionId */\n      dup4\n        /* \"src/votingMachine.sol\":1336:1358  elections[_electionId] */\n      dup2\n      mstore\n      0x20\n      add\n      swap1\n      dup2\n      mstore\n      0x20\n      add\n      0x00\n      keccak256\n        /* \"src/votingMachine.sol\":1336:1367  elections[_electionId].isActive */\n      0x01\n      add\n      0x00\n      swap1\n      sload\n      swap1\n      0x0100\n      exp\n      swap1\n      div\n      0xff\n      and\n        /* \"src/votingMachine.sol\":1336:1373  elections[_electionId].isActive==true */\n      iszero\n      iszero\n      eq\n        /* \"src/votingMachine.sol\":1336:1424  elections[_electionId].isActive==true && elections[_electionId].endTime>=block.timestamp */\n      dup1\n      iszero\n      tag_203\n      jumpi\n      pop\n        /* \"src/votingMachine.sol\":1409:1424  block.timestamp */\n      timestamp\n        /* \"src/votingMachine.sol\":1377:1386  elections */\n      0x02\n        /* \"src/votingMachine.sol\":1377:1399  elections[_electionId] */\n      0x00\n        /* \"src/votingMachine.sol\":1387:1398  _electionId */\n      dup4\n        /* \"src/votingMachine.sol\":1377:1399  elections[_electionId] */\n      dup2\n      mstore\n      0x20\n      add\n      swap1\n      dup2\n      mstore\n      0x20\n      add\n      0x00\n      keccak256\n        /* \"src/votingMachine.sol\":1377:1407  elections[_electionId].endTime */\n      0x03\n      add\n      sload\n        /* \"src/votingMachine.sol\":1377:1424  elections[_electionId].endTime>=block.timestamp */\n      lt\n      iszero\n        /* \"src/votingMachine.sol\":1336:1424  elections[_electionId].isActive==true && elections[_electionId].endTime>=block.timestamp */\n    tag_203:\n        /* \"src/votingMachine.sol\":1328:1461  require(elections[_electionId].isActive==true && elections[_electionId].endTime>=block.timestamp,\"Election is not Active od timeout\") */\n      tag_204\n      jumpi\n      mload(0x40)\n      0x08c379a000000000000000000000000000000000000000000000000000000000\n      dup2\n      mstore\n      0x04\n      add\n      tag_205\n      swap1\n      tag_81\n      jump\t// in\n    tag_205:\n      mload(0x40)\n      dup1\n      swap2\n      sub\n      swap1\n      revert\n    tag_204:\n        /* \"src/votingMachine.sol\":3702:3727  Election storage election */\n      0x00\n        /* \"src/votingMachine.sol\":3730:3739  elections */\n      0x02\n        /* \"src/votingMachine.sol\":3730:3752  elections[_electionId] */\n      0x00\n        /* \"src/votingMachine.sol\":3740:3751  _electionId */\n      dup9\n        /* \"src/votingMachine.sol\":3730:3752  elections[_electionId] */\n      dup2\n      mstore\n      0x20\n      add\n      swap1\n      dup2\n      mstore\n      0x20\n      add\n      0x00\n      keccak256\n        /* \"src/votingMachine.sol\":3702:3752  Election storage election = elections[_electionId] */\n      swap1\n      pop\n        /* \"src/votingMachine.sol\":3783:3788  false */\n      0x00\n        /* \"src/votingMachine.sol\":3763:3771  election */\n      dup2\n        /* \"src/votingMachine.sol\":3763:3780  election.isActive */\n      0x01\n      add\n      0x00\n        /* \"src/votingMachine.sol\":3763:3788  election.isActive = false */\n      0x0100\n      exp\n      dup2\n      sload\n      dup2\n      0xff\n      mul\n      not\n      and\n      swap1\n      dup4\n      iszero\n      iszero\n      mul\n      or\n      swap1\n      sstore\n      pop\n        /* \"src/votingMachine.sol\":3801:3814  uint winnerId */\n      0x00\n        /* \"src/votingMachine.sol\":3815:3816  0 */\n      0x00\n        /* \"src/votingMachine.sol\":3801:3816  uint winnerId=0 */\n      swap1\n      pop\n        /* \"src/votingMachine.sol\":3827:3851  string memory winnerName */\n      0x60\n        /* \"src/votingMachine.sol\":3862:3878  uint winnerVotes */\n      0x00\n        /* \"src/votingMachine.sol\":3879:3880  0 */\n      0x00\n        /* \"src/votingMachine.sol\":3862:3880  uint winnerVotes=0 */\n      swap1\n      pop\n        /* \"src/votingMachine.sol\":3897:3903  uint i */\n      0x00\n        /* \"src/votingMachine.sol\":3904:3905  1 */\n      0x01\n        /* \"src/votingMachine.sol\":3897:3905  uint i=1 */\n      swap1\n      pop\n        /* \"src/votingMachine.sol\":3893:4244  for(uint i=1; i<= election.candidateCount; i++)... */\n    tag_207:\n        /* \"src/votingMachine.sol\":3911:3919  election */\n      dup5\n        /* \"src/votingMachine.sol\":3911:3934  election.candidateCount */\n      0x04\n      add\n      sload\n        /* \"src/votingMachine.sol\":3907:3908  i */\n      dup2\n        /* \"src/votingMachine.sol\":3907:3934  i<= election.candidateCount */\n      gt\n        /* \"src/votingMachine.sol\":3893:4244  for(uint i=1; i<= election.candidateCount; i++)... */\n      tag_208\n      jumpi\n        /* \"src/votingMachine.sol\":4003:4014  winnerVotes */\n      dup2\n        /* \"src/votingMachine.sol\":3968:3976  election */\n      dup6\n        /* \"src/votingMachine.sol\":3968:3987  election.candidates */\n      0x07\n      add\n        /* \"src/votingMachine.sol\":3968:3990  election.candidates[i] */\n      0x00\n        /* \"src/votingMachine.sol\":3988:3989  i */\n      dup4\n        /* \"src/votingMachine.sol\":3968:3990  election.candidates[i] */\n      dup2\n      mstore\n      0x20\n      add\n      swap1\n      dup2\n      mstore\n      0x20\n      add\n      0x00\n      keccak256\n        /* \"src/votingMachine.sol\":3968:4000  election.candidates[i].voteCount */\n      0x02\n      add\n      sload\n        /* \"src/votingMachine.sol\":3968:4014  election.candidates[i].voteCount > winnerVotes */\n      gt\n        /* \"src/votingMachine.sol\":3965:4233  if(election.candidates[i].voteCount > winnerVotes)... */\n      iszero\n      tag_210\n      jumpi\n        /* \"src/votingMachine.sol\":4059:4067  election */\n      dup5\n        /* \"src/votingMachine.sol\":4059:4078  election.candidates */\n      0x07\n      add\n        /* \"src/votingMachine.sol\":4059:4081  election.candidates[i] */\n      0x00\n        /* \"src/votingMachine.sol\":4079:4080  i */\n      dup3\n        /* \"src/votingMachine.sol\":4059:4081  election.candidates[i] */\n      dup2\n      mstore\n      0x20\n      add\n      swap1\n      dup2\n      mstore\n      0x20\n      add\n      0x00\n      keccak256\n        /* \"src/votingMachine.sol\":4059:4093  election.candidates[i].candidateId */\n      0x01\n      add\n      sload\n        /* \"src/votingMachine.sol\":4048:4093  winnerId = election.candidates[i].candidateId */\n      swap4\n      pop\n        /* \"src/votingMachine.sol\":4125:4133  election */\n      dup5\n        /* \"src/votingMachine.sol\":4125:4144  election.candidates */\n      0x07\n      add\n        /* \"src/votingMachine.sol\":4125:4147  election.candidates[i] */\n      0x00\n        /* \"src/votingMachine.sol\":4145:4146  i */\n      dup3\n        /* \"src/votingMachine.sol\":4125:4147  election.candidates[i] */\n      dup2\n      mstore\n      0x20\n      add\n      swap1\n      dup2\n      mstore\n      0x20\n      add\n      0x00\n      keccak256\n        /* \"src/votingMachine.sol\":4125:4152  election.candidates[i].name */\n      0x00\n      add\n        /* \"src/votingMachine.sol\":4112:4152  winnerName = election.candidates[i].name */\n      dup1\n      sload\n      tag_211\n      swap1\n      tag_95\n      jump\t// in\n    tag_211:\n      dup1\n      0x1f\n      add\n      0x20\n      dup1\n      swap2\n      div\n      mul\n      0x20\n      add\n      mload(0x40)\n      swap1\n      dup2\n      add\n      0x40\n      mstore\n      dup1\n      swap3\n      swap2\n      swap1\n      dup2\n      dup2\n      mstore\n      0x20\n      add\n      dup3\n      dup1\n      sload\n      tag_212\n      swap1\n      tag_95\n      jump\t// in\n    tag_212:\n      dup1\n      iszero\n      tag_213\n      jumpi\n      dup1\n      0x1f\n      lt\n      tag_214\n      jumpi\n      0x0100\n      dup1\n      dup4\n      sload\n      div\n      mul\n      dup4\n      mstore\n      swap2\n      0x20\n      add\n      swap2\n      jump(tag_213)\n    tag_214:\n      dup3\n      add\n      swap2\n      swap1\n      0x00\n      mstore\n      keccak256(0x00, 0x20)\n      swap1\n    tag_215:\n      dup2\n      sload\n      dup2\n      mstore\n      swap1\n      0x01\n      add\n      swap1\n      0x20\n      add\n      dup1\n      dup4\n      gt\n      tag_215\n      jumpi\n      dup3\n      swap1\n      sub\n      0x1f\n      and\n      dup3\n      add\n      swap2\n    tag_213:\n      pop\n      pop\n      pop\n      pop\n      pop\n      swap3\n      pop\n        /* \"src/votingMachine.sol\":4185:4193  election */\n      dup5\n        /* \"src/votingMachine.sol\":4185:4204  election.candidates */\n      0x07\n      add\n        /* \"src/votingMachine.sol\":4185:4207  election.candidates[i] */\n      0x00\n        /* \"src/votingMachine.sol\":4205:4206  i */\n      dup3\n        /* \"src/votingMachine.sol\":4185:4207  election.candidates[i] */\n      dup2\n      mstore\n      0x20\n      add\n      swap1\n      dup2\n      mstore\n      0x20\n      add\n      0x00\n      keccak256\n        /* \"src/votingMachine.sol\":4185:4217  election.candidates[i].voteCount */\n      0x02\n      add\n      sload\n        /* \"src/votingMachine.sol\":4171:4217  winnerVotes = election.candidates[i].voteCount */\n      swap2\n      pop\n        /* \"src/votingMachine.sol\":3965:4233  if(election.candidates[i].voteCount > winnerVotes)... */\n    tag_210:\n        /* \"src/votingMachine.sol\":3936:3939  i++ */\n      dup1\n      dup1\n      tag_216\n      swap1\n      tag_84\n      jump\t// in\n    tag_216:\n      swap2\n      pop\n      pop\n        /* \"src/votingMachine.sol\":3893:4244  for(uint i=1; i<= election.candidateCount; i++)... */\n      jump(tag_207)\n    tag_208:\n      pop\n        /* \"src/votingMachine.sol\":4261:4365  ElectionEnded(election.electionId, election.name, winnerId, winnerName, winnerVotes, election.totalVote) */\n      0x3b6c4d7e2cef081634247cfac8d389fcae0ae5780d888244df410080efa0bec3\n        /* \"src/votingMachine.sol\":4275:4283  election */\n      dup5\n        /* \"src/votingMachine.sol\":4275:4294  election.electionId */\n      0x00\n      add\n      sload\n        /* \"src/votingMachine.sol\":4296:4304  election */\n      dup6\n        /* \"src/votingMachine.sol\":4296:4309  election.name */\n      0x02\n      add\n        /* \"src/votingMachine.sol\":4311:4319  winnerId */\n      dup6\n        /* \"src/votingMachine.sol\":4321:4331  winnerName */\n      dup6\n        /* \"src/votingMachine.sol\":4333:4344  winnerVotes */\n      dup6\n        /* \"src/votingMachine.sol\":4346:4354  election */\n      dup10\n        /* \"src/votingMachine.sol\":4346:4364  election.totalVote */\n      0x05\n      add\n      sload\n        /* \"src/votingMachine.sol\":4261:4365  ElectionEnded(election.electionId, election.name, winnerId, winnerName, winnerVotes, election.totalVote) */\n      mload(0x40)\n      tag_217\n      swap7\n      swap6\n      swap5\n      swap4\n      swap3\n      swap2\n      swap1\n      tag_218\n      jump\t// in\n    tag_217:\n      mload(0x40)\n      dup1\n      swap2\n      sub\n      swap1\n      log1\n        /* \"src/votingMachine.sol\":4384:4392  winnerId */\n      dup3\n        /* \"src/votingMachine.sol\":4393:4403  winnerName */\n      dup3\n        /* \"src/votingMachine.sol\":4404:4415  winnerVotes */\n      dup3\n        /* \"src/votingMachine.sol\":4376:4416  return (winnerId,winnerName,winnerVotes) */\n      swap9\n      pop\n      swap9\n      pop\n      swap9\n      pop\n      pop\n      pop\n      pop\n      pop\n        /* \"src/votingMachine.sol\":1252:1253  _ */\n      pop\n        /* \"src/votingMachine.sol\":1083:1084  _ */\n      pop\n        /* \"src/votingMachine.sol\":3541:4426  function endElection(uint _electionId) public onlyAdmin electionExists(_electionId) electionActive(_electionId) returns(uint,string memory,uint)... */\n      swap2\n      swap4\n      swap1\n      swap3\n      pop\n      jump\t// out\n        /* \"src/votingMachine.sol\":5837:6302  function getElections() public  view returns(uint [] memory, string [] memory)... */\n    tag_62:\n        /* \"src/votingMachine.sol\":5882:5896  uint [] memory */\n      0x60\n        /* \"src/votingMachine.sol\":5898:5914  string [] memory */\n      dup1\n        /* \"src/votingMachine.sol\":5954:5955  0 */\n      0x00\n        /* \"src/votingMachine.sol\":5940:5953  electionCount */\n      sload(0x01)\n        /* \"src/votingMachine.sol\":5940:5955  electionCount>0 */\n      gt\n        /* \"src/votingMachine.sol\":5932:5994  require(electionCount>0,\"There is no election is running now\") */\n      tag_220\n      jumpi\n      mload(0x40)\n      0x08c379a000000000000000000000000000000000000000000000000000000000\n      dup2\n      mstore\n      0x04\n      add\n      tag_221\n      swap1\n      tag_222\n      jump\t// in\n    tag_221:\n      mload(0x40)\n      dup1\n      swap2\n      sub\n      swap1\n      revert\n    tag_220:\n        /* \"src/votingMachine.sol\":6005:6030  uint [] memory electionId */\n      0x00\n        /* \"src/votingMachine.sol\":6043:6056  electionCount */\n      sload(0x01)\n        /* \"src/votingMachine.sol\":6032:6057  new uint[](electionCount) */\n      0xffffffffffffffff\n      dup2\n      gt\n      iszero\n      tag_223\n      jumpi\n      tag_224\n      tag_130\n      jump\t// in\n    tag_224:\n    tag_223:\n      mload(0x40)\n      swap1\n      dup1\n      dup3\n      mstore\n      dup1\n      0x20\n      mul\n      0x20\n      add\n      dup3\n      add\n      0x40\n      mstore\n      dup1\n      iszero\n      tag_225\n      jumpi\n      dup2\n      0x20\n      add\n      0x20\n      dup3\n      mul\n      dup1\n      calldatasize\n      dup4\n      calldatacopy\n      dup1\n      dup3\n      add\n      swap2\n      pop\n      pop\n      swap1\n      pop\n    tag_225:\n      pop\n        /* \"src/votingMachine.sol\":6005:6057  uint [] memory electionId= new uint[](electionCount) */\n      swap1\n      pop\n        /* \"src/votingMachine.sol\":6068:6089  string [] memory Name */\n      0x00\n        /* \"src/votingMachine.sol\":6104:6117  electionCount */\n      sload(0x01)\n        /* \"src/votingMachine.sol\":6091:6118  new string[](electionCount) */\n      0xffffffffffffffff\n      dup2\n      gt\n      iszero\n      tag_226\n      jumpi\n      tag_227\n      tag_130\n      jump\t// in\n    tag_227:\n    tag_226:\n      mload(0x40)\n      swap1\n      dup1\n      dup3\n      mstore\n      dup1\n      0x20\n      mul\n      0x20\n      add\n      dup3\n      add\n      0x40\n      mstore\n      dup1\n      iszero\n      tag_228\n      jumpi\n      dup2\n      0x20\n      add\n    tag_229:\n      0x60\n      dup2\n      mstore\n      0x20\n      add\n      swap1\n      0x01\n      swap1\n      sub\n      swap1\n      dup2\n      tag_229\n      jumpi\n      swap1\n      pop\n    tag_228:\n      pop\n        /* \"src/votingMachine.sol\":6068:6118  string [] memory Name= new string[](electionCount) */\n      swap1\n      pop\n        /* \"src/votingMachine.sol\":6133:6139  uint i */\n      0x00\n        /* \"src/votingMachine.sol\":6140:6141  0 */\n      0x00\n        /* \"src/votingMachine.sol\":6133:6141  uint i=0 */\n      swap1\n      pop\n        /* \"src/votingMachine.sol\":6129:6260  for(uint i=0;i<electionCount;i++)... */\n    tag_230:\n        /* \"src/votingMachine.sol\":6144:6157  electionCount */\n      sload(0x01)\n        /* \"src/votingMachine.sol\":6142:6143  i */\n      dup2\n        /* \"src/votingMachine.sol\":6142:6157  i<electionCount */\n      lt\n        /* \"src/votingMachine.sol\":6129:6260  for(uint i=0;i<electionCount;i++)... */\n      iszero\n      tag_231\n      jumpi\n        /* \"src/votingMachine.sol\":6204:6205  1 */\n      0x01\n        /* \"src/votingMachine.sol\":6202:6203  i */\n      dup2\n        /* \"src/votingMachine.sol\":6202:6205  i+1 */\n      tag_233\n      swap2\n      swap1\n      tag_140\n      jump\t// in\n    tag_233:\n        /* \"src/votingMachine.sol\":6187:6197  electionId */\n      dup4\n        /* \"src/votingMachine.sol\":6198:6199  i */\n      dup3\n        /* \"src/votingMachine.sol\":6187:6200  electionId[i] */\n      dup2\n      mload\n      dup2\n      lt\n      tag_234\n      jumpi\n      tag_235\n      tag_143\n      jump\t// in\n    tag_235:\n    tag_234:\n      0x20\n      mul\n      0x20\n      add\n      add\n        /* \"src/votingMachine.sol\":6187:6205  electionId[i] =i+1 */\n      dup2\n      dup2\n      mstore\n      pop\n      pop\n        /* \"src/votingMachine.sol\":6229:6238  elections */\n      0x02\n        /* \"src/votingMachine.sol\":6229:6243  elections[i+1] */\n      0x00\n        /* \"src/votingMachine.sol\":6241:6242  1 */\n      0x01\n        /* \"src/votingMachine.sol\":6239:6240  i */\n      dup4\n        /* \"src/votingMachine.sol\":6239:6242  i+1 */\n      tag_236\n      swap2\n      swap1\n      tag_140\n      jump\t// in\n    tag_236:\n        /* \"src/votingMachine.sol\":6229:6243  elections[i+1] */\n      dup2\n      mstore\n      0x20\n      add\n      swap1\n      dup2\n      mstore\n      0x20\n      add\n      0x00\n      keccak256\n        /* \"src/votingMachine.sol\":6229:6248  elections[i+1].name */\n      0x02\n      add\n        /* \"src/votingMachine.sol\":6220:6248  Name[i]= elections[i+1].name */\n      dup1\n      sload\n      tag_237\n      swap1\n      tag_95\n      jump\t// in\n    tag_237:\n      dup1\n      0x1f\n      add\n      0x20\n      dup1\n      swap2\n      div\n      mul\n      0x20\n      add\n      mload(0x40)\n      swap1\n      dup2\n      add\n      0x40\n      mstore\n      dup1\n      swap3\n      swap2\n      swap1\n      dup2\n      dup2\n      mstore\n      0x20\n      add\n      dup3\n      dup1\n      sload\n      tag_238\n      swap1\n      tag_95\n      jump\t// in\n    tag_238:\n      dup1\n      iszero\n      tag_239\n      jumpi\n      dup1\n      0x1f\n      lt\n      tag_240\n      jumpi\n      0x0100\n      dup1\n      dup4\n      sload\n      div\n      mul\n      dup4\n      mstore\n      swap2\n      0x20\n      add\n      swap2\n      jump(tag_239)\n    tag_240:\n      dup3\n      add\n      swap2\n      swap1\n      0x00\n      mstore\n      keccak256(0x00, 0x20)\n      swap1\n    tag_241:\n      dup2\n      sload\n      dup2\n      mstore\n      swap1\n      0x01\n      add\n      swap1\n      0x20\n      add\n      dup1\n      dup4\n      gt\n      tag_241\n      jumpi\n      dup3\n      swap1\n      sub\n      0x1f\n      and\n      dup3\n      add\n      swap2\n    tag_239:\n      pop\n      pop\n      pop\n      pop\n      pop\n        /* \"src/votingMachine.sol\":6220:6224  Name */\n      dup3\n        /* \"src/votingMachine.sol\":6225:6226  i */\n      dup3\n        /* \"src/votingMachine.sol\":6220:6227  Name[i] */\n      dup2\n      mload\n      dup2\n      lt\n      tag_242\n      jumpi\n      tag_243\n      tag_143\n      jump\t// in\n    tag_243:\n    tag_242:\n      0x20\n      mul\n      0x20\n      add\n      add\n        /* \"src/votingMachine.sol\":6220:6248  Name[i]= elections[i+1].name */\n      dup2\n      swap1\n      mstore\n      pop\n        /* \"src/votingMachine.sol\":6158:6161  i++ */\n      dup1\n      dup1\n      0x01\n      add\n      swap2\n      pop\n      pop\n        /* \"src/votingMachine.sol\":6129:6260  for(uint i=0;i<electionCount;i++)... */\n      jump(tag_230)\n    tag_231:\n      pop\n        /* \"src/votingMachine.sol\":6278:6288  electionId */\n      dup2\n        /* \"src/votingMachine.sol\":6289:6293  Name */\n      dup2\n        /* \"src/votingMachine.sol\":6270:6294  return (electionId,Name) */\n      swap4\n      pop\n      swap4\n      pop\n      pop\n      pop\n        /* \"src/votingMachine.sol\":5837:6302  function getElections() public  view returns(uint [] memory, string [] memory)... */\n      swap1\n      swap2\n      jump\t// out\n        /* \"src/votingMachine.sol\":463:483  address public admin */\n    tag_65:\n      0x00\n      0x00\n      swap1\n      sload\n      swap1\n      0x0100\n      exp\n      swap1\n      div\n      0xffffffffffffffffffffffffffffffffffffffff\n      and\n      dup2\n      jump\t// out\n        /* \"#utility.yul\":7:82   */\n    tag_244:\n        /* \"#utility.yul\":40:46   */\n      0x00\n        /* \"#utility.yul\":73:75   */\n      0x40\n        /* \"#utility.yul\":67:76   */\n      mload\n        /* \"#utility.yul\":57:76   */\n      swap1\n      pop\n        /* \"#utility.yul\":7:82   */\n      swap1\n      jump\t// out\n        /* \"#utility.yul\":88:205   */\n    tag_245:\n        /* \"#utility.yul\":197:198   */\n      0x00\n        /* \"#utility.yul\":194:195   */\n      0x00\n        /* \"#utility.yul\":187:199   */\n      revert\n        /* \"#utility.yul\":211:328   */\n    tag_246:\n        /* \"#utility.yul\":320:321   */\n      0x00\n        /* \"#utility.yul\":317:318   */\n      0x00\n        /* \"#utility.yul\":310:322   */\n      revert\n        /* \"#utility.yul\":334:411   */\n    tag_247:\n        /* \"#utility.yul\":371:378   */\n      0x00\n        /* \"#utility.yul\":400:405   */\n      dup2\n        /* \"#utility.yul\":389:405   */\n      swap1\n      pop\n        /* \"#utility.yul\":334:411   */\n      swap2\n      swap1\n      pop\n      jump\t// out\n        /* \"#utility.yul\":417:539   */\n    tag_248:\n        /* \"#utility.yul\":490:514   */\n      tag_322\n        /* \"#utility.yul\":508:513   */\n      dup2\n        /* \"#utility.yul\":490:514   */\n      tag_247\n      jump\t// in\n    tag_322:\n        /* \"#utility.yul\":483:488   */\n      dup2\n        /* \"#utility.yul\":480:515   */\n      eq\n        /* \"#utility.yul\":470:533   */\n      tag_323\n      jumpi\n        /* \"#utility.yul\":529:530   */\n      0x00\n        /* \"#utility.yul\":526:527   */\n      0x00\n        /* \"#utility.yul\":519:531   */\n      revert\n        /* \"#utility.yul\":470:533   */\n    tag_323:\n        /* \"#utility.yul\":417:539   */\n      pop\n      jump\t// out\n        /* \"#utility.yul\":545:684   */\n    tag_249:\n        /* \"#utility.yul\":591:596   */\n      0x00\n        /* \"#utility.yul\":629:635   */\n      dup2\n        /* \"#utility.yul\":616:636   */\n      calldataload\n        /* \"#utility.yul\":607:636   */\n      swap1\n      pop\n        /* \"#utility.yul\":645:678   */\n      tag_325\n        /* \"#utility.yul\":672:677   */\n      dup2\n        /* \"#utility.yul\":645:678   */\n      tag_248\n      jump\t// in\n    tag_325:\n        /* \"#utility.yul\":545:684   */\n      swap3\n      swap2\n      pop\n      pop\n      jump\t// out\n        /* \"#utility.yul\":690:807   */\n    tag_250:\n        /* \"#utility.yul\":799:800   */\n      0x00\n        /* \"#utility.yul\":796:797   */\n      0x00\n        /* \"#utility.yul\":789:801   */\n      revert\n        /* \"#utility.yul\":813:930   */\n    tag_251:\n        /* \"#utility.yul\":922:923   */\n      0x00\n        /* \"#utility.yul\":919:920   */\n      0x00\n        /* \"#utility.yul\":912:924   */\n      revert\n        /* \"#utility.yul\":936:1038   */\n    tag_252:\n        /* \"#utility.yul\":977:983   */\n      0x00\n        /* \"#utility.yul\":1028:1030   */\n      0x1f\n        /* \"#utility.yul\":1024:1031   */\n      not\n        /* \"#utility.yul\":1019:1021   */\n      0x1f\n        /* \"#utility.yul\":1012:1017   */\n      dup4\n        /* \"#utility.yul\":1008:1022   */\n      add\n        /* \"#utility.yul\":1004:1032   */\n      and\n        /* \"#utility.yul\":994:1032   */\n      swap1\n      pop\n        /* \"#utility.yul\":936:1038   */\n      swap2\n      swap1\n      pop\n      jump\t// out\n        /* \"#utility.yul\":1044:1224   */\n    tag_130:\n        /* \"#utility.yul\":1092:1169   */\n      0x4e487b7100000000000000000000000000000000000000000000000000000000\n        /* \"#utility.yul\":1089:1090   */\n      0x00\n        /* \"#utility.yul\":1082:1170   */\n      mstore\n        /* \"#utility.yul\":1189:1193   */\n      0x41\n        /* \"#utility.yul\":1186:1187   */\n      0x04\n        /* \"#utility.yul\":1179:1194   */\n      mstore\n        /* \"#utility.yul\":1213:1217   */\n      0x24\n        /* \"#utility.yul\":1210:1211   */\n      0x00\n        /* \"#utility.yul\":1203:1218   */\n      revert\n        /* \"#utility.yul\":1230:1511   */\n    tag_253:\n        /* \"#utility.yul\":1313:1340   */\n      tag_331\n        /* \"#utility.yul\":1335:1339   */\n      dup3\n        /* \"#utility.yul\":1313:1340   */\n      tag_252\n      jump\t// in\n    tag_331:\n        /* \"#utility.yul\":1305:1311   */\n      dup2\n        /* \"#utility.yul\":1301:1341   */\n      add\n        /* \"#utility.yul\":1443:1449   */\n      dup2\n        /* \"#utility.yul\":1431:1441   */\n      dup2\n        /* \"#utility.yul\":1428:1450   */\n      lt\n        /* \"#utility.yul\":1407:1425   */\n      0xffffffffffffffff\n        /* \"#utility.yul\":1395:1405   */\n      dup3\n        /* \"#utility.yul\":1392:1426   */\n      gt\n        /* \"#utility.yul\":1389:1451   */\n      or\n        /* \"#utility.yul\":1386:1474   */\n      iszero\n      tag_332\n      jumpi\n        /* \"#utility.yul\":1454:1472   */\n      tag_333\n      tag_130\n      jump\t// in\n    tag_333:\n        /* \"#utility.yul\":1386:1474   */\n    tag_332:\n        /* \"#utility.yul\":1494:1504   */\n      dup1\n        /* \"#utility.yul\":1490:1492   */\n      0x40\n        /* \"#utility.yul\":1483:1505   */\n      mstore\n        /* \"#utility.yul\":1273:1511   */\n      pop\n        /* \"#utility.yul\":1230:1511   */\n      pop\n      pop\n      jump\t// out\n        /* \"#utility.yul\":1517:1646   */\n    tag_254:\n        /* \"#utility.yul\":1551:1557   */\n      0x00\n        /* \"#utility.yul\":1578:1598   */\n      tag_335\n      tag_244\n      jump\t// in\n    tag_335:\n        /* \"#utility.yul\":1568:1598   */\n      swap1\n      pop\n        /* \"#utility.yul\":1607:1640   */\n      tag_336\n        /* \"#utility.yul\":1635:1639   */\n      dup3\n        /* \"#utility.yul\":1627:1633   */\n      dup3\n        /* \"#utility.yul\":1607:1640   */\n      tag_253\n      jump\t// in\n    tag_336:\n        /* \"#utility.yul\":1517:1646   */\n      swap2\n      swap1\n      pop\n      jump\t// out\n        /* \"#utility.yul\":1652:1960   */\n    tag_255:\n        /* \"#utility.yul\":1714:1718   */\n      0x00\n        /* \"#utility.yul\":1804:1822   */\n      0xffffffffffffffff\n        /* \"#utility.yul\":1796:1802   */\n      dup3\n        /* \"#utility.yul\":1793:1823   */\n      gt\n        /* \"#utility.yul\":1790:1846   */\n      iszero\n      tag_338\n      jumpi\n        /* \"#utility.yul\":1826:1844   */\n      tag_339\n      tag_130\n      jump\t// in\n    tag_339:\n        /* \"#utility.yul\":1790:1846   */\n    tag_338:\n        /* \"#utility.yul\":1864:1893   */\n      tag_340\n        /* \"#utility.yul\":1886:1892   */\n      dup3\n        /* \"#utility.yul\":1864:1893   */\n      tag_252\n      jump\t// in\n    tag_340:\n        /* \"#utility.yul\":1856:1893   */\n      swap1\n      pop\n        /* \"#utility.yul\":1948:1952   */\n      0x20\n        /* \"#utility.yul\":1942:1946   */\n      dup2\n        /* \"#utility.yul\":1938:1953   */\n      add\n        /* \"#utility.yul\":1930:1953   */\n      swap1\n      pop\n        /* \"#utility.yul\":1652:1960   */\n      swap2\n      swap1\n      pop\n      jump\t// out\n        /* \"#utility.yul\":1966:2114   */\n    tag_256:\n        /* \"#utility.yul\":2064:2070   */\n      dup3\n        /* \"#utility.yul\":2059:2062   */\n      dup2\n        /* \"#utility.yul\":2054:2057   */\n      dup4\n        /* \"#utility.yul\":2041:2071   */\n      calldatacopy\n        /* \"#utility.yul\":2105:2106   */\n      0x00\n        /* \"#utility.yul\":2096:2102   */\n      dup4\n        /* \"#utility.yul\":2091:2094   */\n      dup4\n        /* \"#utility.yul\":2087:2103   */\n      add\n        /* \"#utility.yul\":2080:2107   */\n      mstore\n        /* \"#utility.yul\":1966:2114   */\n      pop\n      pop\n      pop\n      jump\t// out\n        /* \"#utility.yul\":2120:2545   */\n    tag_257:\n        /* \"#utility.yul\":2198:2203   */\n      0x00\n        /* \"#utility.yul\":2223:2289   */\n      tag_343\n        /* \"#utility.yul\":2239:2288   */\n      tag_344\n        /* \"#utility.yul\":2281:2287   */\n      dup5\n        /* \"#utility.yul\":2239:2288   */\n      tag_255\n      jump\t// in\n    tag_344:\n        /* \"#utility.yul\":2223:2289   */\n      tag_254\n      jump\t// in\n    tag_343:\n        /* \"#utility.yul\":2214:2289   */\n      swap1\n      pop\n        /* \"#utility.yul\":2312:2318   */\n      dup3\n        /* \"#utility.yul\":2305:2310   */\n      dup2\n        /* \"#utility.yul\":2298:2319   */\n      mstore\n        /* \"#utility.yul\":2350:2354   */\n      0x20\n        /* \"#utility.yul\":2343:2348   */\n      dup2\n        /* \"#utility.yul\":2339:2355   */\n      add\n        /* \"#utility.yul\":2388:2391   */\n      dup5\n        /* \"#utility.yul\":2379:2385   */\n      dup5\n        /* \"#utility.yul\":2374:2377   */\n      dup5\n        /* \"#utility.yul\":2370:2386   */\n      add\n        /* \"#utility.yul\":2367:2392   */\n      gt\n        /* \"#utility.yul\":2364:2476   */\n      iszero\n      tag_345\n      jumpi\n        /* \"#utility.yul\":2395:2474   */\n      tag_346\n      tag_251\n      jump\t// in\n    tag_346:\n        /* \"#utility.yul\":2364:2476   */\n    tag_345:\n        /* \"#utility.yul\":2485:2539   */\n      tag_347\n        /* \"#utility.yul\":2532:2538   */\n      dup5\n        /* \"#utility.yul\":2527:2530   */\n      dup3\n        /* \"#utility.yul\":2522:2525   */\n      dup6\n        /* \"#utility.yul\":2485:2539   */\n      tag_256\n      jump\t// in\n    tag_347:\n        /* \"#utility.yul\":2204:2545   */\n      pop\n        /* \"#utility.yul\":2120:2545   */\n      swap4\n      swap3\n      pop\n      pop\n      pop\n      jump\t// out\n        /* \"#utility.yul\":2565:2905   */\n    tag_258:\n        /* \"#utility.yul\":2621:2626   */\n      0x00\n        /* \"#utility.yul\":2670:2673   */\n      dup3\n        /* \"#utility.yul\":2663:2667   */\n      0x1f\n        /* \"#utility.yul\":2655:2661   */\n      dup4\n        /* \"#utility.yul\":2651:2668   */\n      add\n        /* \"#utility.yul\":2647:2674   */\n      slt\n        /* \"#utility.yul\":2637:2759   */\n      tag_349\n      jumpi\n        /* \"#utility.yul\":2678:2757   */\n      tag_350\n      tag_250\n      jump\t// in\n    tag_350:\n        /* \"#utility.yul\":2637:2759   */\n    tag_349:\n        /* \"#utility.yul\":2795:2801   */\n      dup2\n        /* \"#utility.yul\":2782:2802   */\n      calldataload\n        /* \"#utility.yul\":2820:2899   */\n      tag_351\n        /* \"#utility.yul\":2895:2898   */\n      dup5\n        /* \"#utility.yul\":2887:2893   */\n      dup3\n        /* \"#utility.yul\":2880:2884   */\n      0x20\n        /* \"#utility.yul\":2872:2878   */\n      dup7\n        /* \"#utility.yul\":2868:2885   */\n      add\n        /* \"#utility.yul\":2820:2899   */\n      tag_257\n      jump\t// in\n    tag_351:\n        /* \"#utility.yul\":2811:2899   */\n      swap2\n      pop\n        /* \"#utility.yul\":2627:2905   */\n      pop\n        /* \"#utility.yul\":2565:2905   */\n      swap3\n      swap2\n      pop\n      pop\n      jump\t// out\n        /* \"#utility.yul\":2911:3565   */\n    tag_18:\n        /* \"#utility.yul\":2989:2995   */\n      0x00\n        /* \"#utility.yul\":2997:3003   */\n      0x00\n        /* \"#utility.yul\":3046:3048   */\n      0x40\n        /* \"#utility.yul\":3034:3043   */\n      dup4\n        /* \"#utility.yul\":3025:3032   */\n      dup6\n        /* \"#utility.yul\":3021:3044   */\n      sub\n        /* \"#utility.yul\":3017:3049   */\n      slt\n        /* \"#utility.yul\":3014:3133   */\n      iszero\n      tag_353\n      jumpi\n        /* \"#utility.yul\":3052:3131   */\n      tag_354\n      tag_245\n      jump\t// in\n    tag_354:\n        /* \"#utility.yul\":3014:3133   */\n    tag_353:\n        /* \"#utility.yul\":3172:3173   */\n      0x00\n        /* \"#utility.yul\":3197:3250   */\n      tag_355\n        /* \"#utility.yul\":3242:3249   */\n      dup6\n        /* \"#utility.yul\":3233:3239   */\n      dup3\n        /* \"#utility.yul\":3222:3231   */\n      dup7\n        /* \"#utility.yul\":3218:3240   */\n      add\n        /* \"#utility.yul\":3197:3250   */\n      tag_249\n      jump\t// in\n    tag_355:\n        /* \"#utility.yul\":3187:3250   */\n      swap3\n      pop\n        /* \"#utility.yul\":3143:3260   */\n      pop\n        /* \"#utility.yul\":3327:3329   */\n      0x20\n        /* \"#utility.yul\":3316:3325   */\n      dup4\n        /* \"#utility.yul\":3312:3330   */\n      add\n        /* \"#utility.yul\":3299:3331   */\n      calldataload\n        /* \"#utility.yul\":3358:3376   */\n      0xffffffffffffffff\n        /* \"#utility.yul\":3350:3356   */\n      dup2\n        /* \"#utility.yul\":3347:3377   */\n      gt\n        /* \"#utility.yul\":3344:3461   */\n      iszero\n      tag_356\n      jumpi\n        /* \"#utility.yul\":3380:3459   */\n      tag_357\n      tag_246\n      jump\t// in\n    tag_357:\n        /* \"#utility.yul\":3344:3461   */\n    tag_356:\n        /* \"#utility.yul\":3485:3548   */\n      tag_358\n        /* \"#utility.yul\":3540:3547   */\n      dup6\n        /* \"#utility.yul\":3531:3537   */\n      dup3\n        /* \"#utility.yul\":3520:3529   */\n      dup7\n        /* \"#utility.yul\":3516:3538   */\n      add\n        /* \"#utility.yul\":3485:3548   */\n      tag_258\n      jump\t// in\n    tag_358:\n        /* \"#utility.yul\":3475:3548   */\n      swap2\n      pop\n        /* \"#utility.yul\":3270:3558   */\n      pop\n        /* \"#utility.yul\":2911:3565   */\n      swap3\n      pop\n      swap3\n      swap1\n      pop\n      jump\t// out\n        /* \"#utility.yul\":3571:3900   */\n    tag_22:\n        /* \"#utility.yul\":3630:3636   */\n      0x00\n        /* \"#utility.yul\":3679:3681   */\n      0x20\n        /* \"#utility.yul\":3667:3676   */\n      dup3\n        /* \"#utility.yul\":3658:3665   */\n      dup5\n        /* \"#utility.yul\":3654:3677   */\n      sub\n        /* \"#utility.yul\":3650:3682   */\n      slt\n        /* \"#utility.yul\":3647:3766   */\n      iszero\n      tag_360\n      jumpi\n        /* \"#utility.yul\":3685:3764   */\n      tag_361\n      tag_245\n      jump\t// in\n    tag_361:\n        /* \"#utility.yul\":3647:3766   */\n    tag_360:\n        /* \"#utility.yul\":3805:3806   */\n      0x00\n        /* \"#utility.yul\":3830:3883   */\n      tag_362\n        /* \"#utility.yul\":3875:3882   */\n      dup5\n        /* \"#utility.yul\":3866:3872   */\n      dup3\n        /* \"#utility.yul\":3855:3864   */\n      dup6\n        /* \"#utility.yul\":3851:3873   */\n      add\n        /* \"#utility.yul\":3830:3883   */\n      tag_249\n      jump\t// in\n    tag_362:\n        /* \"#utility.yul\":3820:3883   */\n      swap2\n      pop\n        /* \"#utility.yul\":3776:3893   */\n      pop\n        /* \"#utility.yul\":3571:3900   */\n      swap3\n      swap2\n      pop\n      pop\n      jump\t// out\n        /* \"#utility.yul\":3906:4005   */\n    tag_259:\n        /* \"#utility.yul\":3958:3964   */\n      0x00\n        /* \"#utility.yul\":3992:3997   */\n      dup2\n        /* \"#utility.yul\":3986:3998   */\n      mload\n        /* \"#utility.yul\":3976:3998   */\n      swap1\n      pop\n        /* \"#utility.yul\":3906:4005   */\n      swap2\n      swap1\n      pop\n      jump\t// out\n        /* \"#utility.yul\":4011:4180   */\n    tag_260:\n        /* \"#utility.yul\":4095:4106   */\n      0x00\n        /* \"#utility.yul\":4129:4135   */\n      dup3\n        /* \"#utility.yul\":4124:4127   */\n      dup3\n        /* \"#utility.yul\":4117:4136   */\n      mstore\n        /* \"#utility.yul\":4169:4173   */\n      0x20\n        /* \"#utility.yul\":4164:4167   */\n      dup3\n        /* \"#utility.yul\":4160:4174   */\n      add\n        /* \"#utility.yul\":4145:4174   */\n      swap1\n      pop\n        /* \"#utility.yul\":4011:4180   */\n      swap3\n      swap2\n      pop\n      pop\n      jump\t// out\n        /* \"#utility.yul\":4186:4325   */\n    tag_261:\n        /* \"#utility.yul\":4275:4281   */\n      dup3\n        /* \"#utility.yul\":4270:4273   */\n      dup2\n        /* \"#utility.yul\":4265:4268   */\n      dup4\n        /* \"#utility.yul\":4259:4282   */\n      mcopy\n        /* \"#utility.yul\":4316:4317   */\n      0x00\n        /* \"#utility.yul\":4307:4313   */\n      dup4\n        /* \"#utility.yul\":4302:4305   */\n      dup4\n        /* \"#utility.yul\":4298:4314   */\n      add\n        /* \"#utility.yul\":4291:4318   */\n      mstore\n        /* \"#utility.yul\":4186:4325   */\n      pop\n      pop\n      pop\n      jump\t// out\n        /* \"#utility.yul\":4331:4708   */\n    tag_262:\n        /* \"#utility.yul\":4419:4422   */\n      0x00\n        /* \"#utility.yul\":4447:4486   */\n      tag_367\n        /* \"#utility.yul\":4480:4485   */\n      dup3\n        /* \"#utility.yul\":4447:4486   */\n      tag_259\n      jump\t// in\n    tag_367:\n        /* \"#utility.yul\":4502:4573   */\n      tag_368\n        /* \"#utility.yul\":4566:4572   */\n      dup2\n        /* \"#utility.yul\":4561:4564   */\n      dup6\n        /* \"#utility.yul\":4502:4573   */\n      tag_260\n      jump\t// in\n    tag_368:\n        /* \"#utility.yul\":4495:4573   */\n      swap4\n      pop\n        /* \"#utility.yul\":4582:4647   */\n      tag_369\n        /* \"#utility.yul\":4640:4646   */\n      dup2\n        /* \"#utility.yul\":4635:4638   */\n      dup6\n        /* \"#utility.yul\":4628:4632   */\n      0x20\n        /* \"#utility.yul\":4621:4626   */\n      dup7\n        /* \"#utility.yul\":4617:4633   */\n      add\n        /* \"#utility.yul\":4582:4647   */\n      tag_261\n      jump\t// in\n    tag_369:\n        /* \"#utility.yul\":4672:4701   */\n      tag_370\n        /* \"#utility.yul\":4694:4700   */\n      dup2\n        /* \"#utility.yul\":4672:4701   */\n      tag_252\n      jump\t// in\n    tag_370:\n        /* \"#utility.yul\":4667:4670   */\n      dup5\n        /* \"#utility.yul\":4663:4702   */\n      add\n        /* \"#utility.yul\":4656:4702   */\n      swap2\n      pop\n        /* \"#utility.yul\":4423:4708   */\n      pop\n        /* \"#utility.yul\":4331:4708   */\n      swap3\n      swap2\n      pop\n      pop\n      jump\t// out\n        /* \"#utility.yul\":4714:4832   */\n    tag_263:\n        /* \"#utility.yul\":4801:4825   */\n      tag_372\n        /* \"#utility.yul\":4819:4824   */\n      dup2\n        /* \"#utility.yul\":4801:4825   */\n      tag_247\n      jump\t// in\n    tag_372:\n        /* \"#utility.yul\":4796:4799   */\n      dup3\n        /* \"#utility.yul\":4789:4826   */\n      mstore\n        /* \"#utility.yul\":4714:4832   */\n      pop\n      pop\n      jump\t// out\n        /* \"#utility.yul\":4838:5261   */\n    tag_25:\n        /* \"#utility.yul\":4979:4983   */\n      0x00\n        /* \"#utility.yul\":5017:5019   */\n      0x40\n        /* \"#utility.yul\":5006:5015   */\n      dup3\n        /* \"#utility.yul\":5002:5020   */\n      add\n        /* \"#utility.yul\":4994:5020   */\n      swap1\n      pop\n        /* \"#utility.yul\":5066:5075   */\n      dup2\n        /* \"#utility.yul\":5060:5064   */\n      dup2\n        /* \"#utility.yul\":5056:5076   */\n      sub\n        /* \"#utility.yul\":5052:5053   */\n      0x00\n        /* \"#utility.yul\":5041:5050   */\n      dup4\n        /* \"#utility.yul\":5037:5054   */\n      add\n        /* \"#utility.yul\":5030:5077   */\n      mstore\n        /* \"#utility.yul\":5094:5172   */\n      tag_374\n        /* \"#utility.yul\":5167:5171   */\n      dup2\n        /* \"#utility.yul\":5158:5164   */\n      dup6\n        /* \"#utility.yul\":5094:5172   */\n      tag_262\n      jump\t// in\n    tag_374:\n        /* \"#utility.yul\":5086:5172   */\n      swap1\n      pop\n        /* \"#utility.yul\":5182:5254   */\n      tag_375\n        /* \"#utility.yul\":5250:5252   */\n      0x20\n        /* \"#utility.yul\":5239:5248   */\n      dup4\n        /* \"#utility.yul\":5235:5253   */\n      add\n        /* \"#utility.yul\":5226:5232   */\n      dup5\n        /* \"#utility.yul\":5182:5254   */\n      tag_263\n      jump\t// in\n    tag_375:\n        /* \"#utility.yul\":4838:5261   */\n      swap4\n      swap3\n      pop\n      pop\n      pop\n      jump\t// out\n        /* \"#utility.yul\":5267:5741   */\n    tag_28:\n        /* \"#utility.yul\":5335:5341   */\n      0x00\n        /* \"#utility.yul\":5343:5349   */\n      0x00\n        /* \"#utility.yul\":5392:5394   */\n      0x40\n        /* \"#utility.yul\":5380:5389   */\n      dup4\n        /* \"#utility.yul\":5371:5378   */\n      dup6\n        /* \"#utility.yul\":5367:5390   */\n      sub\n        /* \"#utility.yul\":5363:5395   */\n      slt\n        /* \"#utility.yul\":5360:5479   */\n      iszero\n      tag_377\n      jumpi\n        /* \"#utility.yul\":5398:5477   */\n      tag_378\n      tag_245\n      jump\t// in\n    tag_378:\n        /* \"#utility.yul\":5360:5479   */\n    tag_377:\n        /* \"#utility.yul\":5518:5519   */\n      0x00\n        /* \"#utility.yul\":5543:5596   */\n      tag_379\n        /* \"#utility.yul\":5588:5595   */\n      dup6\n        /* \"#utility.yul\":5579:5585   */\n      dup3\n        /* \"#utility.yul\":5568:5577   */\n      dup7\n        /* \"#utility.yul\":5564:5586   */\n      add\n        /* \"#utility.yul\":5543:5596   */\n      tag_249\n      jump\t// in\n    tag_379:\n        /* \"#utility.yul\":5533:5596   */\n      swap3\n      pop\n        /* \"#utility.yul\":5489:5606   */\n      pop\n        /* \"#utility.yul\":5645:5647   */\n      0x20\n        /* \"#utility.yul\":5671:5724   */\n      tag_380\n        /* \"#utility.yul\":5716:5723   */\n      dup6\n        /* \"#utility.yul\":5707:5713   */\n      dup3\n        /* \"#utility.yul\":5696:5705   */\n      dup7\n        /* \"#utility.yul\":5692:5714   */\n      add\n        /* \"#utility.yul\":5671:5724   */\n      tag_249\n      jump\t// in\n    tag_380:\n        /* \"#utility.yul\":5661:5724   */\n      swap2\n      pop\n        /* \"#utility.yul\":5616:5734   */\n      pop\n        /* \"#utility.yul\":5267:5741   */\n      swap3\n      pop\n      swap3\n      swap1\n      pop\n      jump\t// out\n        /* \"#utility.yul\":5747:5861   */\n    tag_264:\n        /* \"#utility.yul\":5814:5820   */\n      0x00\n        /* \"#utility.yul\":5848:5853   */\n      dup2\n        /* \"#utility.yul\":5842:5854   */\n      mload\n        /* \"#utility.yul\":5832:5854   */\n      swap1\n      pop\n        /* \"#utility.yul\":5747:5861   */\n      swap2\n      swap1\n      pop\n      jump\t// out\n        /* \"#utility.yul\":5867:6051   */\n    tag_265:\n        /* \"#utility.yul\":5966:5977   */\n      0x00\n        /* \"#utility.yul\":6000:6006   */\n      dup3\n        /* \"#utility.yul\":5995:5998   */\n      dup3\n        /* \"#utility.yul\":5988:6007   */\n      mstore\n        /* \"#utility.yul\":6040:6044   */\n      0x20\n        /* \"#utility.yul\":6035:6038   */\n      dup3\n        /* \"#utility.yul\":6031:6045   */\n      add\n        /* \"#utility.yul\":6016:6045   */\n      swap1\n      pop\n        /* \"#utility.yul\":5867:6051   */\n      swap3\n      swap2\n      pop\n      pop\n      jump\t// out\n        /* \"#utility.yul\":6057:6189   */\n    tag_266:\n        /* \"#utility.yul\":6124:6128   */\n      0x00\n        /* \"#utility.yul\":6147:6150   */\n      dup2\n        /* \"#utility.yul\":6139:6150   */\n      swap1\n      pop\n        /* \"#utility.yul\":6177:6181   */\n      0x20\n        /* \"#utility.yul\":6172:6175   */\n      dup3\n        /* \"#utility.yul\":6168:6182   */\n      add\n        /* \"#utility.yul\":6160:6182   */\n      swap1\n      pop\n        /* \"#utility.yul\":6057:6189   */\n      swap2\n      swap1\n      pop\n      jump\t// out\n        /* \"#utility.yul\":6195:6303   */\n    tag_267:\n        /* \"#utility.yul\":6272:6296   */\n      tag_385\n        /* \"#utility.yul\":6290:6295   */\n      dup2\n        /* \"#utility.yul\":6272:6296   */\n      tag_247\n      jump\t// in\n    tag_385:\n        /* \"#utility.yul\":6267:6270   */\n      dup3\n        /* \"#utility.yul\":6260:6297   */\n      mstore\n        /* \"#utility.yul\":6195:6303   */\n      pop\n      pop\n      jump\t// out\n        /* \"#utility.yul\":6309:6488   */\n    tag_268:\n        /* \"#utility.yul\":6378:6388   */\n      0x00\n        /* \"#utility.yul\":6399:6445   */\n      tag_387\n        /* \"#utility.yul\":6441:6444   */\n      dup4\n        /* \"#utility.yul\":6433:6439   */\n      dup4\n        /* \"#utility.yul\":6399:6445   */\n      tag_267\n      jump\t// in\n    tag_387:\n        /* \"#utility.yul\":6477:6481   */\n      0x20\n        /* \"#utility.yul\":6472:6475   */\n      dup4\n        /* \"#utility.yul\":6468:6482   */\n      add\n        /* \"#utility.yul\":6454:6482   */\n      swap1\n      pop\n        /* \"#utility.yul\":6309:6488   */\n      swap3\n      swap2\n      pop\n      pop\n      jump\t// out\n        /* \"#utility.yul\":6494:6607   */\n    tag_269:\n        /* \"#utility.yul\":6564:6568   */\n      0x00\n        /* \"#utility.yul\":6596:6600   */\n      0x20\n        /* \"#utility.yul\":6591:6594   */\n      dup3\n        /* \"#utility.yul\":6587:6601   */\n      add\n        /* \"#utility.yul\":6579:6601   */\n      swap1\n      pop\n        /* \"#utility.yul\":6494:6607   */\n      swap2\n      swap1\n      pop\n      jump\t// out\n        /* \"#utility.yul\":6643:7375   */\n    tag_270:\n        /* \"#utility.yul\":6762:6765   */\n      0x00\n        /* \"#utility.yul\":6791:6845   */\n      tag_390\n        /* \"#utility.yul\":6839:6844   */\n      dup3\n        /* \"#utility.yul\":6791:6845   */\n      tag_264\n      jump\t// in\n    tag_390:\n        /* \"#utility.yul\":6861:6947   */\n      tag_391\n        /* \"#utility.yul\":6940:6946   */\n      dup2\n        /* \"#utility.yul\":6935:6938   */\n      dup6\n        /* \"#utility.yul\":6861:6947   */\n      tag_265\n      jump\t// in\n    tag_391:\n        /* \"#utility.yul\":6854:6947   */\n      swap4\n      pop\n        /* \"#utility.yul\":6971:7027   */\n      tag_392\n        /* \"#utility.yul\":7021:7026   */\n      dup4\n        /* \"#utility.yul\":6971:7027   */\n      tag_266\n      jump\t// in\n    tag_392:\n        /* \"#utility.yul\":7050:7057   */\n      dup1\n        /* \"#utility.yul\":7081:7082   */\n      0x00\n        /* \"#utility.yul\":7066:7350   */\n    tag_393:\n        /* \"#utility.yul\":7091:7097   */\n      dup4\n        /* \"#utility.yul\":7088:7089   */\n      dup2\n        /* \"#utility.yul\":7085:7098   */\n      lt\n        /* \"#utility.yul\":7066:7350   */\n      iszero\n      tag_395\n      jumpi\n        /* \"#utility.yul\":7167:7173   */\n      dup2\n        /* \"#utility.yul\":7161:7174   */\n      mload\n        /* \"#utility.yul\":7194:7257   */\n      tag_396\n        /* \"#utility.yul\":7253:7256   */\n      dup9\n        /* \"#utility.yul\":7238:7251   */\n      dup3\n        /* \"#utility.yul\":7194:7257   */\n      tag_268\n      jump\t// in\n    tag_396:\n        /* \"#utility.yul\":7187:7257   */\n      swap8\n      pop\n        /* \"#utility.yul\":7280:7340   */\n      tag_397\n        /* \"#utility.yul\":7333:7339   */\n      dup4\n        /* \"#utility.yul\":7280:7340   */\n      tag_269\n      jump\t// in\n    tag_397:\n        /* \"#utility.yul\":7270:7340   */\n      swap3\n      pop\n        /* \"#utility.yul\":7126:7350   */\n      pop\n        /* \"#utility.yul\":7113:7114   */\n      0x01\n        /* \"#utility.yul\":7110:7111   */\n      dup2\n        /* \"#utility.yul\":7106:7115   */\n      add\n        /* \"#utility.yul\":7101:7115   */\n      swap1\n      pop\n        /* \"#utility.yul\":7066:7350   */\n      jump(tag_393)\n    tag_395:\n        /* \"#utility.yul\":7070:7084   */\n      pop\n        /* \"#utility.yul\":7366:7369   */\n      dup6\n        /* \"#utility.yul\":7359:7369   */\n      swap4\n      pop\n        /* \"#utility.yul\":6767:7375   */\n      pop\n      pop\n      pop\n        /* \"#utility.yul\":6643:7375   */\n      swap3\n      swap2\n      pop\n      pop\n      jump\t// out\n        /* \"#utility.yul\":7381:7505   */\n    tag_271:\n        /* \"#utility.yul\":7458:7464   */\n      0x00\n        /* \"#utility.yul\":7492:7497   */\n      dup2\n        /* \"#utility.yul\":7486:7498   */\n      mload\n        /* \"#utility.yul\":7476:7498   */\n      swap1\n      pop\n        /* \"#utility.yul\":7381:7505   */\n      swap2\n      swap1\n      pop\n      jump\t// out\n        /* \"#utility.yul\":7511:7705   */\n    tag_272:\n        /* \"#utility.yul\":7620:7631   */\n      0x00\n        /* \"#utility.yul\":7654:7660   */\n      dup3\n        /* \"#utility.yul\":7649:7652   */\n      dup3\n        /* \"#utility.yul\":7642:7661   */\n      mstore\n        /* \"#utility.yul\":7694:7698   */\n      0x20\n        /* \"#utility.yul\":7689:7692   */\n      dup3\n        /* \"#utility.yul\":7685:7699   */\n      add\n        /* \"#utility.yul\":7670:7699   */\n      swap1\n      pop\n        /* \"#utility.yul\":7511:7705   */\n      swap3\n      swap2\n      pop\n      pop\n      jump\t// out\n        /* \"#utility.yul\":7711:7853   */\n    tag_273:\n        /* \"#utility.yul\":7788:7792   */\n      0x00\n        /* \"#utility.yul\":7811:7814   */\n      dup2\n        /* \"#utility.yul\":7803:7814   */\n      swap1\n      pop\n        /* \"#utility.yul\":7841:7845   */\n      0x20\n        /* \"#utility.yul\":7836:7839   */\n      dup3\n        /* \"#utility.yul\":7832:7846   */\n      add\n        /* \"#utility.yul\":7824:7846   */\n      swap1\n      pop\n        /* \"#utility.yul\":7711:7853   */\n      swap2\n      swap1\n      pop\n      jump\t// out\n        /* \"#utility.yul\":7859:8018   */\n    tag_274:\n        /* \"#utility.yul\":7933:7944   */\n      0x00\n        /* \"#utility.yul\":7967:7973   */\n      dup3\n        /* \"#utility.yul\":7962:7965   */\n      dup3\n        /* \"#utility.yul\":7955:7974   */\n      mstore\n        /* \"#utility.yul\":8007:8011   */\n      0x20\n        /* \"#utility.yul\":8002:8005   */\n      dup3\n        /* \"#utility.yul\":7998:8012   */\n      add\n        /* \"#utility.yul\":7983:8012   */\n      swap1\n      pop\n        /* \"#utility.yul\":7859:8018   */\n      swap3\n      swap2\n      pop\n      pop\n      jump\t// out\n        /* \"#utility.yul\":8024:8381   */\n    tag_275:\n        /* \"#utility.yul\":8102:8105   */\n      0x00\n        /* \"#utility.yul\":8130:8169   */\n      tag_403\n        /* \"#utility.yul\":8163:8168   */\n      dup3\n        /* \"#utility.yul\":8130:8169   */\n      tag_259\n      jump\t// in\n    tag_403:\n        /* \"#utility.yul\":8185:8246   */\n      tag_404\n        /* \"#utility.yul\":8239:8245   */\n      dup2\n        /* \"#utility.yul\":8234:8237   */\n      dup6\n        /* \"#utility.yul\":8185:8246   */\n      tag_274\n      jump\t// in\n    tag_404:\n        /* \"#utility.yul\":8178:8246   */\n      swap4\n      pop\n        /* \"#utility.yul\":8255:8320   */\n      tag_405\n        /* \"#utility.yul\":8313:8319   */\n      dup2\n        /* \"#utility.yul\":8308:8311   */\n      dup6\n        /* \"#utility.yul\":8301:8305   */\n      0x20\n        /* \"#utility.yul\":8294:8299   */\n      dup7\n        /* \"#utility.yul\":8290:8306   */\n      add\n        /* \"#utility.yul\":8255:8320   */\n      tag_261\n      jump\t// in\n    tag_405:\n        /* \"#utility.yul\":8345:8374   */\n      tag_406\n        /* \"#utility.yul\":8367:8373   */\n      dup2\n        /* \"#utility.yul\":8345:8374   */\n      tag_252\n      jump\t// in\n    tag_406:\n        /* \"#utility.yul\":8340:8343   */\n      dup5\n        /* \"#utility.yul\":8336:8375   */\n      add\n        /* \"#utility.yul\":8329:8375   */\n      swap2\n      pop\n        /* \"#utility.yul\":8106:8381   */\n      pop\n        /* \"#utility.yul\":8024:8381   */\n      swap3\n      swap2\n      pop\n      pop\n      jump\t// out\n        /* \"#utility.yul\":8387:8583   */\n    tag_276:\n        /* \"#utility.yul\":8476:8486   */\n      0x00\n        /* \"#utility.yul\":8511:8577   */\n      tag_408\n        /* \"#utility.yul\":8573:8576   */\n      dup4\n        /* \"#utility.yul\":8565:8571   */\n      dup4\n        /* \"#utility.yul\":8511:8577   */\n      tag_275\n      jump\t// in\n    tag_408:\n        /* \"#utility.yul\":8497:8577   */\n      swap1\n      pop\n        /* \"#utility.yul\":8387:8583   */\n      swap3\n      swap2\n      pop\n      pop\n      jump\t// out\n        /* \"#utility.yul\":8589:8712   */\n    tag_277:\n        /* \"#utility.yul\":8669:8673   */\n      0x00\n        /* \"#utility.yul\":8701:8705   */\n      0x20\n        /* \"#utility.yul\":8696:8699   */\n      dup3\n        /* \"#utility.yul\":8692:8706   */\n      add\n        /* \"#utility.yul\":8684:8706   */\n      swap1\n      pop\n        /* \"#utility.yul\":8589:8712   */\n      swap2\n      swap1\n      pop\n      jump\t// out\n        /* \"#utility.yul\":8746:9737   */\n    tag_278:\n        /* \"#utility.yul\":8885:8888   */\n      0x00\n        /* \"#utility.yul\":8914:8978   */\n      tag_411\n        /* \"#utility.yul\":8972:8977   */\n      dup3\n        /* \"#utility.yul\":8914:8978   */\n      tag_271\n      jump\t// in\n    tag_411:\n        /* \"#utility.yul\":8994:9090   */\n      tag_412\n        /* \"#utility.yul\":9083:9089   */\n      dup2\n        /* \"#utility.yul\":9078:9081   */\n      dup6\n        /* \"#utility.yul\":8994:9090   */\n      tag_272\n      jump\t// in\n    tag_412:\n        /* \"#utility.yul\":8987:9090   */\n      swap4\n      pop\n        /* \"#utility.yul\":9116:9119   */\n      dup4\n        /* \"#utility.yul\":9161:9165   */\n      0x20\n        /* \"#utility.yul\":9153:9159   */\n      dup3\n        /* \"#utility.yul\":9149:9166   */\n      mul\n        /* \"#utility.yul\":9144:9147   */\n      dup6\n        /* \"#utility.yul\":9140:9167   */\n      add\n        /* \"#utility.yul\":9191:9257   */\n      tag_413\n        /* \"#utility.yul\":9251:9256   */\n      dup6\n        /* \"#utility.yul\":9191:9257   */\n      tag_273\n      jump\t// in\n    tag_413:\n        /* \"#utility.yul\":9280:9287   */\n      dup1\n        /* \"#utility.yul\":9311:9312   */\n      0x00\n        /* \"#utility.yul\":9296:9692   */\n    tag_414:\n        /* \"#utility.yul\":9321:9327   */\n      dup6\n        /* \"#utility.yul\":9318:9319   */\n      dup2\n        /* \"#utility.yul\":9315:9328   */\n      lt\n        /* \"#utility.yul\":9296:9692   */\n      iszero\n      tag_416\n      jumpi\n        /* \"#utility.yul\":9392:9401   */\n      dup5\n        /* \"#utility.yul\":9386:9390   */\n      dup5\n        /* \"#utility.yul\":9382:9402   */\n      sub\n        /* \"#utility.yul\":9377:9380   */\n      dup10\n        /* \"#utility.yul\":9370:9403   */\n      mstore\n        /* \"#utility.yul\":9443:9449   */\n      dup2\n        /* \"#utility.yul\":9437:9450   */\n      mload\n        /* \"#utility.yul\":9471:9555   */\n      tag_417\n        /* \"#utility.yul\":9550:9554   */\n      dup6\n        /* \"#utility.yul\":9535:9548   */\n      dup3\n        /* \"#utility.yul\":9471:9555   */\n      tag_276\n      jump\t// in\n    tag_417:\n        /* \"#utility.yul\":9463:9555   */\n      swap5\n      pop\n        /* \"#utility.yul\":9578:9648   */\n      tag_418\n        /* \"#utility.yul\":9641:9647   */\n      dup4\n        /* \"#utility.yul\":9578:9648   */\n      tag_277\n      jump\t// in\n    tag_418:\n        /* \"#utility.yul\":9568:9648   */\n      swap3\n      pop\n        /* \"#utility.yul\":9677:9681   */\n      0x20\n        /* \"#utility.yul\":9672:9675   */\n      dup11\n        /* \"#utility.yul\":9668:9682   */\n      add\n        /* \"#utility.yul\":9661:9682   */\n      swap10\n      pop\n        /* \"#utility.yul\":9356:9692   */\n      pop\n        /* \"#utility.yul\":9343:9344   */\n      0x01\n        /* \"#utility.yul\":9340:9341   */\n      dup2\n        /* \"#utility.yul\":9336:9345   */\n      add\n        /* \"#utility.yul\":9331:9345   */\n      swap1\n      pop\n        /* \"#utility.yul\":9296:9692   */\n      jump(tag_414)\n    tag_416:\n        /* \"#utility.yul\":9300:9314   */\n      pop\n        /* \"#utility.yul\":9708:9712   */\n      dup3\n        /* \"#utility.yul\":9701:9712   */\n      swap8\n      pop\n        /* \"#utility.yul\":9728:9731   */\n      dup8\n        /* \"#utility.yul\":9721:9731   */\n      swap6\n      pop\n        /* \"#utility.yul\":8890:9737   */\n      pop\n      pop\n      pop\n      pop\n      pop\n        /* \"#utility.yul\":8746:9737   */\n      swap3\n      swap2\n      pop\n      pop\n      jump\t// out\n        /* \"#utility.yul\":9743:10417   */\n    tag_34:\n        /* \"#utility.yul\":9984:9988   */\n      0x00\n        /* \"#utility.yul\":10022:10024   */\n      0x40\n        /* \"#utility.yul\":10011:10020   */\n      dup3\n        /* \"#utility.yul\":10007:10025   */\n      add\n        /* \"#utility.yul\":9999:10025   */\n      swap1\n      pop\n        /* \"#utility.yul\":10071:10080   */\n      dup2\n        /* \"#utility.yul\":10065:10069   */\n      dup2\n        /* \"#utility.yul\":10061:10081   */\n      sub\n        /* \"#utility.yul\":10057:10058   */\n      0x00\n        /* \"#utility.yul\":10046:10055   */\n      dup4\n        /* \"#utility.yul\":10042:10059   */\n      add\n        /* \"#utility.yul\":10035:10082   */\n      mstore\n        /* \"#utility.yul\":10099:10207   */\n      tag_420\n        /* \"#utility.yul\":10202:10206   */\n      dup2\n        /* \"#utility.yul\":10193:10199   */\n      dup6\n        /* \"#utility.yul\":10099:10207   */\n      tag_270\n      jump\t// in\n    tag_420:\n        /* \"#utility.yul\":10091:10207   */\n      swap1\n      pop\n        /* \"#utility.yul\":10254:10263   */\n      dup2\n        /* \"#utility.yul\":10248:10252   */\n      dup2\n        /* \"#utility.yul\":10244:10264   */\n      sub\n        /* \"#utility.yul\":10239:10241   */\n      0x20\n        /* \"#utility.yul\":10228:10237   */\n      dup4\n        /* \"#utility.yul\":10224:10242   */\n      add\n        /* \"#utility.yul\":10217:10265   */\n      mstore\n        /* \"#utility.yul\":10282:10410   */\n      tag_421\n        /* \"#utility.yul\":10405:10409   */\n      dup2\n        /* \"#utility.yul\":10396:10402   */\n      dup5\n        /* \"#utility.yul\":10282:10410   */\n      tag_278\n      jump\t// in\n    tag_421:\n        /* \"#utility.yul\":10274:10410   */\n      swap1\n      pop\n        /* \"#utility.yul\":9743:10417   */\n      swap4\n      swap3\n      pop\n      pop\n      pop\n      jump\t// out\n        /* \"#utility.yul\":10423:10956   */\n    tag_39:\n        /* \"#utility.yul\":10592:10596   */\n      0x00\n        /* \"#utility.yul\":10630:10632   */\n      0x60\n        /* \"#utility.yul\":10619:10628   */\n      dup3\n        /* \"#utility.yul\":10615:10633   */\n      add\n        /* \"#utility.yul\":10607:10633   */\n      swap1\n      pop\n        /* \"#utility.yul\":10643:10714   */\n      tag_423\n        /* \"#utility.yul\":10711:10712   */\n      0x00\n        /* \"#utility.yul\":10700:10709   */\n      dup4\n        /* \"#utility.yul\":10696:10713   */\n      add\n        /* \"#utility.yul\":10687:10693   */\n      dup7\n        /* \"#utility.yul\":10643:10714   */\n      tag_263\n      jump\t// in\n    tag_423:\n        /* \"#utility.yul\":10761:10770   */\n      dup2\n        /* \"#utility.yul\":10755:10759   */\n      dup2\n        /* \"#utility.yul\":10751:10771   */\n      sub\n        /* \"#utility.yul\":10746:10748   */\n      0x20\n        /* \"#utility.yul\":10735:10744   */\n      dup4\n        /* \"#utility.yul\":10731:10749   */\n      add\n        /* \"#utility.yul\":10724:10772   */\n      mstore\n        /* \"#utility.yul\":10789:10867   */\n      tag_424\n        /* \"#utility.yul\":10862:10866   */\n      dup2\n        /* \"#utility.yul\":10853:10859   */\n      dup6\n        /* \"#utility.yul\":10789:10867   */\n      tag_262\n      jump\t// in\n    tag_424:\n        /* \"#utility.yul\":10781:10867   */\n      swap1\n      pop\n        /* \"#utility.yul\":10877:10949   */\n      tag_425\n        /* \"#utility.yul\":10945:10947   */\n      0x40\n        /* \"#utility.yul\":10934:10943   */\n      dup4\n        /* \"#utility.yul\":10930:10948   */\n      add\n        /* \"#utility.yul\":10921:10927   */\n      dup5\n        /* \"#utility.yul\":10877:10949   */\n      tag_263\n      jump\t// in\n    tag_425:\n        /* \"#utility.yul\":10423:10956   */\n      swap5\n      swap4\n      pop\n      pop\n      pop\n      pop\n      jump\t// out\n        /* \"#utility.yul\":10962:11052   */\n    tag_279:\n        /* \"#utility.yul\":10996:11003   */\n      0x00\n        /* \"#utility.yul\":11039:11044   */\n      dup2\n        /* \"#utility.yul\":11032:11045   */\n      iszero\n        /* \"#utility.yul\":11025:11046   */\n      iszero\n        /* \"#utility.yul\":11014:11046   */\n      swap1\n      pop\n        /* \"#utility.yul\":10962:11052   */\n      swap2\n      swap1\n      pop\n      jump\t// out\n        /* \"#utility.yul\":11058:11167   */\n    tag_280:\n        /* \"#utility.yul\":11139:11160   */\n      tag_428\n        /* \"#utility.yul\":11154:11159   */\n      dup2\n        /* \"#utility.yul\":11139:11160   */\n      tag_279\n      jump\t// in\n    tag_428:\n        /* \"#utility.yul\":11134:11137   */\n      dup3\n        /* \"#utility.yul\":11127:11161   */\n      mstore\n        /* \"#utility.yul\":11058:11167   */\n      pop\n      pop\n      jump\t// out\n        /* \"#utility.yul\":11173:12027   */\n    tag_48:\n        /* \"#utility.yul\":11420:11424   */\n      0x00\n        /* \"#utility.yul\":11458:11461   */\n      0xc0\n        /* \"#utility.yul\":11447:11456   */\n      dup3\n        /* \"#utility.yul\":11443:11462   */\n      add\n        /* \"#utility.yul\":11435:11462   */\n      swap1\n      pop\n        /* \"#utility.yul\":11472:11543   */\n      tag_430\n        /* \"#utility.yul\":11540:11541   */\n      0x00\n        /* \"#utility.yul\":11529:11538   */\n      dup4\n        /* \"#utility.yul\":11525:11542   */\n      add\n        /* \"#utility.yul\":11516:11522   */\n      dup10\n        /* \"#utility.yul\":11472:11543   */\n      tag_263\n      jump\t// in\n    tag_430:\n        /* \"#utility.yul\":11553:11619   */\n      tag_431\n        /* \"#utility.yul\":11615:11617   */\n      0x20\n        /* \"#utility.yul\":11604:11613   */\n      dup4\n        /* \"#utility.yul\":11600:11618   */\n      add\n        /* \"#utility.yul\":11591:11597   */\n      dup9\n        /* \"#utility.yul\":11553:11619   */\n      tag_280\n      jump\t// in\n    tag_431:\n        /* \"#utility.yul\":11666:11675   */\n      dup2\n        /* \"#utility.yul\":11660:11664   */\n      dup2\n        /* \"#utility.yul\":11656:11676   */\n      sub\n        /* \"#utility.yul\":11651:11653   */\n      0x40\n        /* \"#utility.yul\":11640:11649   */\n      dup4\n        /* \"#utility.yul\":11636:11654   */\n      add\n        /* \"#utility.yul\":11629:11677   */\n      mstore\n        /* \"#utility.yul\":11694:11772   */\n      tag_432\n        /* \"#utility.yul\":11767:11771   */\n      dup2\n        /* \"#utility.yul\":11758:11764   */\n      dup8\n        /* \"#utility.yul\":11694:11772   */\n      tag_262\n      jump\t// in\n    tag_432:\n        /* \"#utility.yul\":11686:11772   */\n      swap1\n      pop\n        /* \"#utility.yul\":11782:11854   */\n      tag_433\n        /* \"#utility.yul\":11850:11852   */\n      0x60\n        /* \"#utility.yul\":11839:11848   */\n      dup4\n        /* \"#utility.yul\":11835:11853   */\n      add\n        /* \"#utility.yul\":11826:11832   */\n      dup7\n        /* \"#utility.yul\":11782:11854   */\n      tag_263\n      jump\t// in\n    tag_433:\n        /* \"#utility.yul\":11864:11937   */\n      tag_434\n        /* \"#utility.yul\":11932:11935   */\n      0x80\n        /* \"#utility.yul\":11921:11930   */\n      dup4\n        /* \"#utility.yul\":11917:11936   */\n      add\n        /* \"#utility.yul\":11908:11914   */\n      dup6\n        /* \"#utility.yul\":11864:11937   */\n      tag_263\n      jump\t// in\n    tag_434:\n        /* \"#utility.yul\":11947:12020   */\n      tag_435\n        /* \"#utility.yul\":12015:12018   */\n      0xa0\n        /* \"#utility.yul\":12004:12013   */\n      dup4\n        /* \"#utility.yul\":12000:12019   */\n      add\n        /* \"#utility.yul\":11991:11997   */\n      dup5\n        /* \"#utility.yul\":11947:12020   */\n      tag_263\n      jump\t// in\n    tag_435:\n        /* \"#utility.yul\":11173:12027   */\n      swap8\n      swap7\n      pop\n      pop\n      pop\n      pop\n      pop\n      pop\n      pop\n      jump\t// out\n        /* \"#utility.yul\":12033:12687   */\n    tag_51:\n        /* \"#utility.yul\":12111:12117   */\n      0x00\n        /* \"#utility.yul\":12119:12125   */\n      0x00\n        /* \"#utility.yul\":12168:12170   */\n      0x40\n        /* \"#utility.yul\":12156:12165   */\n      dup4\n        /* \"#utility.yul\":12147:12154   */\n      dup6\n        /* \"#utility.yul\":12143:12166   */\n      sub\n        /* \"#utility.yul\":12139:12171   */\n      slt\n        /* \"#utility.yul\":12136:12255   */\n      iszero\n      tag_437\n      jumpi\n        /* \"#utility.yul\":12174:12253   */\n      tag_438\n      tag_245\n      jump\t// in\n    tag_438:\n        /* \"#utility.yul\":12136:12255   */\n    tag_437:\n        /* \"#utility.yul\":12322:12323   */\n      0x00\n        /* \"#utility.yul\":12311:12320   */\n      dup4\n        /* \"#utility.yul\":12307:12324   */\n      add\n        /* \"#utility.yul\":12294:12325   */\n      calldataload\n        /* \"#utility.yul\":12352:12370   */\n      0xffffffffffffffff\n        /* \"#utility.yul\":12344:12350   */\n      dup2\n        /* \"#utility.yul\":12341:12371   */\n      gt\n        /* \"#utility.yul\":12338:12455   */\n      iszero\n      tag_439\n      jumpi\n        /* \"#utility.yul\":12374:12453   */\n      tag_440\n      tag_246\n      jump\t// in\n    tag_440:\n        /* \"#utility.yul\":12338:12455   */\n    tag_439:\n        /* \"#utility.yul\":12479:12542   */\n      tag_441\n        /* \"#utility.yul\":12534:12541   */\n      dup6\n        /* \"#utility.yul\":12525:12531   */\n      dup3\n        /* \"#utility.yul\":12514:12523   */\n      dup7\n        /* \"#utility.yul\":12510:12532   */\n      add\n        /* \"#utility.yul\":12479:12542   */\n      tag_258\n      jump\t// in\n    tag_441:\n        /* \"#utility.yul\":12469:12542   */\n      swap3\n      pop\n        /* \"#utility.yul\":12265:12552   */\n      pop\n        /* \"#utility.yul\":12591:12593   */\n      0x20\n        /* \"#utility.yul\":12617:12670   */\n      tag_442\n        /* \"#utility.yul\":12662:12669   */\n      dup6\n        /* \"#utility.yul\":12653:12659   */\n      dup3\n        /* \"#utility.yul\":12642:12651   */\n      dup7\n        /* \"#utility.yul\":12638:12660   */\n      add\n        /* \"#utility.yul\":12617:12670   */\n      tag_249\n      jump\t// in\n    tag_442:\n        /* \"#utility.yul\":12607:12670   */\n      swap2\n      pop\n        /* \"#utility.yul\":12562:12680   */\n      pop\n        /* \"#utility.yul\":12033:12687   */\n      swap3\n      pop\n      swap3\n      swap1\n      pop\n      jump\t// out\n        /* \"#utility.yul\":12693:12915   */\n    tag_56:\n        /* \"#utility.yul\":12786:12790   */\n      0x00\n        /* \"#utility.yul\":12824:12826   */\n      0x20\n        /* \"#utility.yul\":12813:12822   */\n      dup3\n        /* \"#utility.yul\":12809:12827   */\n      add\n        /* \"#utility.yul\":12801:12827   */\n      swap1\n      pop\n        /* \"#utility.yul\":12837:12908   */\n      tag_444\n        /* \"#utility.yul\":12905:12906   */\n      0x00\n        /* \"#utility.yul\":12894:12903   */\n      dup4\n        /* \"#utility.yul\":12890:12907   */\n      add\n        /* \"#utility.yul\":12881:12887   */\n      dup5\n        /* \"#utility.yul\":12837:12908   */\n      tag_263\n      jump\t// in\n    tag_444:\n        /* \"#utility.yul\":12693:12915   */\n      swap3\n      swap2\n      pop\n      pop\n      jump\t// out\n        /* \"#utility.yul\":12921:13047   */\n    tag_281:\n        /* \"#utility.yul\":12958:12965   */\n      0x00\n        /* \"#utility.yul\":12998:13040   */\n      0xffffffffffffffffffffffffffffffffffffffff\n        /* \"#utility.yul\":12991:12996   */\n      dup3\n        /* \"#utility.yul\":12987:13041   */\n      and\n        /* \"#utility.yul\":12976:13041   */\n      swap1\n      pop\n        /* \"#utility.yul\":12921:13047   */\n      swap2\n      swap1\n      pop\n      jump\t// out\n        /* \"#utility.yul\":13053:13149   */\n    tag_282:\n        /* \"#utility.yul\":13090:13097   */\n      0x00\n        /* \"#utility.yul\":13119:13143   */\n      tag_447\n        /* \"#utility.yul\":13137:13142   */\n      dup3\n        /* \"#utility.yul\":13119:13143   */\n      tag_281\n      jump\t// in\n    tag_447:\n        /* \"#utility.yul\":13108:13143   */\n      swap1\n      pop\n        /* \"#utility.yul\":13053:13149   */\n      swap2\n      swap1\n      pop\n      jump\t// out\n        /* \"#utility.yul\":13155:13273   */\n    tag_283:\n        /* \"#utility.yul\":13242:13266   */\n      tag_449\n        /* \"#utility.yul\":13260:13265   */\n      dup2\n        /* \"#utility.yul\":13242:13266   */\n      tag_282\n      jump\t// in\n    tag_449:\n        /* \"#utility.yul\":13237:13240   */\n      dup3\n        /* \"#utility.yul\":13230:13267   */\n      mstore\n        /* \"#utility.yul\":13155:13273   */\n      pop\n      pop\n      jump\t// out\n        /* \"#utility.yul\":13279:13501   */\n    tag_67:\n        /* \"#utility.yul\":13372:13376   */\n      0x00\n        /* \"#utility.yul\":13410:13412   */\n      0x20\n        /* \"#utility.yul\":13399:13408   */\n      dup3\n        /* \"#utility.yul\":13395:13413   */\n      add\n        /* \"#utility.yul\":13387:13413   */\n      swap1\n      pop\n        /* \"#utility.yul\":13423:13494   */\n      tag_451\n        /* \"#utility.yul\":13491:13492   */\n      0x00\n        /* \"#utility.yul\":13480:13489   */\n      dup4\n        /* \"#utility.yul\":13476:13493   */\n      add\n        /* \"#utility.yul\":13467:13473   */\n      dup5\n        /* \"#utility.yul\":13423:13494   */\n      tag_283\n      jump\t// in\n    tag_451:\n        /* \"#utility.yul\":13279:13501   */\n      swap3\n      swap2\n      pop\n      pop\n      jump\t// out\n        /* \"#utility.yul\":13507:13730   */\n    tag_284:\n        /* \"#utility.yul\":13647:13681   */\n      0x4f6e6c792061646d696e2063616e20706572666f726d20746869732066756e63\n        /* \"#utility.yul\":13643:13644   */\n      0x00\n        /* \"#utility.yul\":13635:13641   */\n      dup3\n        /* \"#utility.yul\":13631:13645   */\n      add\n        /* \"#utility.yul\":13624:13682   */\n      mstore\n        /* \"#utility.yul\":13716:13722   */\n      0x74696f6e00000000000000000000000000000000000000000000000000000000\n        /* \"#utility.yul\":13711:13713   */\n      0x20\n        /* \"#utility.yul\":13703:13709   */\n      dup3\n        /* \"#utility.yul\":13699:13714   */\n      add\n        /* \"#utility.yul\":13692:13723   */\n      mstore\n        /* \"#utility.yul\":13507:13730   */\n      pop\n      jump\t// out\n        /* \"#utility.yul\":13736:14102   */\n    tag_285:\n        /* \"#utility.yul\":13878:13881   */\n      0x00\n        /* \"#utility.yul\":13899:13966   */\n      tag_454\n        /* \"#utility.yul\":13963:13965   */\n      0x24\n        /* \"#utility.yul\":13958:13961   */\n      dup4\n        /* \"#utility.yul\":13899:13966   */\n      tag_260\n      jump\t// in\n    tag_454:\n        /* \"#utility.yul\":13892:13966   */\n      swap2\n      pop\n        /* \"#utility.yul\":13975:14068   */\n      tag_455\n        /* \"#utility.yul\":14064:14067   */\n      dup3\n        /* \"#utility.yul\":13975:14068   */\n      tag_284\n      jump\t// in\n    tag_455:\n        /* \"#utility.yul\":14093:14095   */\n      0x40\n        /* \"#utility.yul\":14088:14091   */\n      dup3\n        /* \"#utility.yul\":14084:14096   */\n      add\n        /* \"#utility.yul\":14077:14096   */\n      swap1\n      pop\n        /* \"#utility.yul\":13736:14102   */\n      swap2\n      swap1\n      pop\n      jump\t// out\n        /* \"#utility.yul\":14108:14527   */\n    tag_71:\n        /* \"#utility.yul\":14274:14278   */\n      0x00\n        /* \"#utility.yul\":14312:14314   */\n      0x20\n        /* \"#utility.yul\":14301:14310   */\n      dup3\n        /* \"#utility.yul\":14297:14315   */\n      add\n        /* \"#utility.yul\":14289:14315   */\n      swap1\n      pop\n        /* \"#utility.yul\":14361:14370   */\n      dup2\n        /* \"#utility.yul\":14355:14359   */\n      dup2\n        /* \"#utility.yul\":14351:14371   */\n      sub\n        /* \"#utility.yul\":14347:14348   */\n      0x00\n        /* \"#utility.yul\":14336:14345   */\n      dup4\n        /* \"#utility.yul\":14332:14349   */\n      add\n        /* \"#utility.yul\":14325:14372   */\n      mstore\n        /* \"#utility.yul\":14389:14520   */\n      tag_457\n        /* \"#utility.yul\":14515:14519   */\n      dup2\n        /* \"#utility.yul\":14389:14520   */\n      tag_285\n      jump\t// in\n    tag_457:\n        /* \"#utility.yul\":14381:14520   */\n      swap1\n      pop\n        /* \"#utility.yul\":14108:14527   */\n      swap2\n      swap1\n      pop\n      jump\t// out\n        /* \"#utility.yul\":14533:14704   */\n    tag_286:\n        /* \"#utility.yul\":14673:14696   */\n      0x456c656374696f6e206973206e6f742045786973740000000000000000000000\n        /* \"#utility.yul\":14669:14670   */\n      0x00\n        /* \"#utility.yul\":14661:14667   */\n      dup3\n        /* \"#utility.yul\":14657:14671   */\n      add\n        /* \"#utility.yul\":14650:14697   */\n      mstore\n        /* \"#utility.yul\":14533:14704   */\n      pop\n      jump\t// out\n        /* \"#utility.yul\":14710:15076   */\n    tag_287:\n        /* \"#utility.yul\":14852:14855   */\n      0x00\n        /* \"#utility.yul\":14873:14940   */\n      tag_460\n        /* \"#utility.yul\":14937:14939   */\n      0x15\n        /* \"#utility.yul\":14932:14935   */\n      dup4\n        /* \"#utility.yul\":14873:14940   */\n      tag_260\n      jump\t// in\n    tag_460:\n        /* \"#utility.yul\":14866:14940   */\n      swap2\n      pop\n        /* \"#utility.yul\":14949:15042   */\n      tag_461\n        /* \"#utility.yul\":15038:15041   */\n      dup3\n        /* \"#utility.yul\":14949:15042   */\n      tag_286\n      jump\t// in\n    tag_461:\n        /* \"#utility.yul\":15067:15069   */\n      0x20\n        /* \"#utility.yul\":15062:15065   */\n      dup3\n        /* \"#utility.yul\":15058:15070   */\n      add\n        /* \"#utility.yul\":15051:15070   */\n      swap1\n      pop\n        /* \"#utility.yul\":14710:15076   */\n      swap2\n      swap1\n      pop\n      jump\t// out\n        /* \"#utility.yul\":15082:15501   */\n    tag_76:\n        /* \"#utility.yul\":15248:15252   */\n      0x00\n        /* \"#utility.yul\":15286:15288   */\n      0x20\n        /* \"#utility.yul\":15275:15284   */\n      dup3\n        /* \"#utility.yul\":15271:15289   */\n      add\n        /* \"#utility.yul\":15263:15289   */\n      swap1\n      pop\n        /* \"#utility.yul\":15335:15344   */\n      dup2\n        /* \"#utility.yul\":15329:15333   */\n      dup2\n        /* \"#utility.yul\":15325:15345   */\n      sub\n        /* \"#utility.yul\":15321:15322   */\n      0x00\n        /* \"#utility.yul\":15310:15319   */\n      dup4\n        /* \"#utility.yul\":15306:15323   */\n      add\n        /* \"#utility.yul\":15299:15346   */\n      mstore\n        /* \"#utility.yul\":15363:15494   */\n      tag_463\n        /* \"#utility.yul\":15489:15493   */\n      dup2\n        /* \"#utility.yul\":15363:15494   */\n      tag_287\n      jump\t// in\n    tag_463:\n        /* \"#utility.yul\":15355:15494   */\n      swap1\n      pop\n        /* \"#utility.yul\":15082:15501   */\n      swap2\n      swap1\n      pop\n      jump\t// out\n        /* \"#utility.yul\":15507:15727   */\n    tag_288:\n        /* \"#utility.yul\":15647:15681   */\n      0x456c656374696f6e206973206e6f7420416374697665206f642074696d656f75\n        /* \"#utility.yul\":15643:15644   */\n      0x00\n        /* \"#utility.yul\":15635:15641   */\n      dup3\n        /* \"#utility.yul\":15631:15645   */\n      add\n        /* \"#utility.yul\":15624:15682   */\n      mstore\n        /* \"#utility.yul\":15716:15719   */\n      0x7400000000000000000000000000000000000000000000000000000000000000\n        /* \"#utility.yul\":15711:15713   */\n      0x20\n        /* \"#utility.yul\":15703:15709   */\n      dup3\n        /* \"#utility.yul\":15699:15714   */\n      add\n        /* \"#utility.yul\":15692:15720   */\n      mstore\n        /* \"#utility.yul\":15507:15727   */\n      pop\n      jump\t// out\n        /* \"#utility.yul\":15733:16099   */\n    tag_289:\n        /* \"#utility.yul\":15875:15878   */\n      0x00\n        /* \"#utility.yul\":15896:15963   */\n      tag_466\n        /* \"#utility.yul\":15960:15962   */\n      0x21\n        /* \"#utility.yul\":15955:15958   */\n      dup4\n        /* \"#utility.yul\":15896:15963   */\n      tag_260\n      jump\t// in\n    tag_466:\n        /* \"#utility.yul\":15889:15963   */\n      swap2\n      pop\n        /* \"#utility.yul\":15972:16065   */\n      tag_467\n        /* \"#utility.yul\":16061:16064   */\n      dup3\n        /* \"#utility.yul\":15972:16065   */\n      tag_288\n      jump\t// in\n    tag_467:\n        /* \"#utility.yul\":16090:16092   */\n      0x40\n        /* \"#utility.yul\":16085:16088   */\n      dup3\n        /* \"#utility.yul\":16081:16093   */\n      add\n        /* \"#utility.yul\":16074:16093   */\n      swap1\n      pop\n        /* \"#utility.yul\":15733:16099   */\n      swap2\n      swap1\n      pop\n      jump\t// out\n        /* \"#utility.yul\":16105:16524   */\n    tag_81:\n        /* \"#utility.yul\":16271:16275   */\n      0x00\n        /* \"#utility.yul\":16309:16311   */\n      0x20\n        /* \"#utility.yul\":16298:16307   */\n      dup3\n        /* \"#utility.yul\":16294:16312   */\n      add\n        /* \"#utility.yul\":16286:16312   */\n      swap1\n      pop\n        /* \"#utility.yul\":16358:16367   */\n      dup2\n        /* \"#utility.yul\":16352:16356   */\n      dup2\n        /* \"#utility.yul\":16348:16368   */\n      sub\n        /* \"#utility.yul\":16344:16345   */\n      0x00\n        /* \"#utility.yul\":16333:16342   */\n      dup4\n        /* \"#utility.yul\":16329:16346   */\n      add\n        /* \"#utility.yul\":16322:16369   */\n      mstore\n        /* \"#utility.yul\":16386:16517   */\n      tag_469\n        /* \"#utility.yul\":16512:16516   */\n      dup2\n        /* \"#utility.yul\":16386:16517   */\n      tag_289\n      jump\t// in\n    tag_469:\n        /* \"#utility.yul\":16378:16517   */\n      swap1\n      pop\n        /* \"#utility.yul\":16105:16524   */\n      swap2\n      swap1\n      pop\n      jump\t// out\n        /* \"#utility.yul\":16530:16710   */\n    tag_290:\n        /* \"#utility.yul\":16578:16655   */\n      0x4e487b7100000000000000000000000000000000000000000000000000000000\n        /* \"#utility.yul\":16575:16576   */\n      0x00\n        /* \"#utility.yul\":16568:16656   */\n      mstore\n        /* \"#utility.yul\":16675:16679   */\n      0x11\n        /* \"#utility.yul\":16672:16673   */\n      0x04\n        /* \"#utility.yul\":16665:16680   */\n      mstore\n        /* \"#utility.yul\":16699:16703   */\n      0x24\n        /* \"#utility.yul\":16696:16697   */\n      0x00\n        /* \"#utility.yul\":16689:16704   */\n      revert\n        /* \"#utility.yul\":16716:16949   */\n    tag_84:\n        /* \"#utility.yul\":16755:16758   */\n      0x00\n        /* \"#utility.yul\":16778:16802   */\n      tag_472\n        /* \"#utility.yul\":16796:16801   */\n      dup3\n        /* \"#utility.yul\":16778:16802   */\n      tag_247\n      jump\t// in\n    tag_472:\n        /* \"#utility.yul\":16769:16802   */\n      swap2\n      pop\n        /* \"#utility.yul\":16824:16890   */\n      0xffffffffffffffffffffffffffffffffffffffffffffffffffffffffffffffff\n        /* \"#utility.yul\":16817:16822   */\n      dup3\n        /* \"#utility.yul\":16814:16891   */\n      sub\n        /* \"#utility.yul\":16811:16914   */\n      tag_473\n      jumpi\n        /* \"#utility.yul\":16894:16912   */\n      tag_474\n      tag_290\n      jump\t// in\n    tag_474:\n        /* \"#utility.yul\":16811:16914   */\n    tag_473:\n        /* \"#utility.yul\":16941:16942   */\n      0x01\n        /* \"#utility.yul\":16934:16939   */\n      dup3\n        /* \"#utility.yul\":16930:16943   */\n      add\n        /* \"#utility.yul\":16923:16943   */\n      swap1\n      pop\n        /* \"#utility.yul\":16716:16949   */\n      swap2\n      swap1\n      pop\n      jump\t// out\n        /* \"#utility.yul\":16955:17135   */\n    tag_291:\n        /* \"#utility.yul\":17003:17080   */\n      0x4e487b7100000000000000000000000000000000000000000000000000000000\n        /* \"#utility.yul\":17000:17001   */\n      0x00\n        /* \"#utility.yul\":16993:17081   */\n      mstore\n        /* \"#utility.yul\":17100:17104   */\n      0x22\n        /* \"#utility.yul\":17097:17098   */\n      0x04\n        /* \"#utility.yul\":17090:17105   */\n      mstore\n        /* \"#utility.yul\":17124:17128   */\n      0x24\n        /* \"#utility.yul\":17121:17122   */\n      0x00\n        /* \"#utility.yul\":17114:17129   */\n      revert\n        /* \"#utility.yul\":17141:17461   */\n    tag_95:\n        /* \"#utility.yul\":17185:17191   */\n      0x00\n        /* \"#utility.yul\":17222:17223   */\n      0x02\n        /* \"#utility.yul\":17216:17220   */\n      dup3\n        /* \"#utility.yul\":17212:17224   */\n      div\n        /* \"#utility.yul\":17202:17224   */\n      swap1\n      pop\n        /* \"#utility.yul\":17269:17270   */\n      0x01\n        /* \"#utility.yul\":17263:17267   */\n      dup3\n        /* \"#utility.yul\":17259:17271   */\n      and\n        /* \"#utility.yul\":17290:17308   */\n      dup1\n        /* \"#utility.yul\":17280:17361   */\n      tag_477\n      jumpi\n        /* \"#utility.yul\":17346:17350   */\n      0x7f\n        /* \"#utility.yul\":17338:17344   */\n      dup3\n        /* \"#utility.yul\":17334:17351   */\n      and\n        /* \"#utility.yul\":17324:17351   */\n      swap2\n      pop\n        /* \"#utility.yul\":17280:17361   */\n    tag_477:\n        /* \"#utility.yul\":17408:17410   */\n      0x20\n        /* \"#utility.yul\":17400:17406   */\n      dup3\n        /* \"#utility.yul\":17397:17411   */\n      lt\n        /* \"#utility.yul\":17377:17395   */\n      dup2\n        /* \"#utility.yul\":17374:17412   */\n      sub\n        /* \"#utility.yul\":17371:17455   */\n      tag_478\n      jumpi\n        /* \"#utility.yul\":17427:17445   */\n      tag_479\n      tag_291\n      jump\t// in\n    tag_479:\n        /* \"#utility.yul\":17371:17455   */\n    tag_478:\n        /* \"#utility.yul\":17192:17461   */\n      pop\n        /* \"#utility.yul\":17141:17461   */\n      swap2\n      swap1\n      pop\n      jump\t// out\n        /* \"#utility.yul\":17467:17608   */\n    tag_292:\n        /* \"#utility.yul\":17516:17520   */\n      0x00\n        /* \"#utility.yul\":17539:17542   */\n      dup2\n        /* \"#utility.yul\":17531:17542   */\n      swap1\n      pop\n        /* \"#utility.yul\":17562:17565   */\n      dup2\n        /* \"#utility.yul\":17559:17560   */\n      0x00\n        /* \"#utility.yul\":17552:17566   */\n      mstore\n        /* \"#utility.yul\":17596:17600   */\n      0x20\n        /* \"#utility.yul\":17593:17594   */\n      0x00\n        /* \"#utility.yul\":17583:17601   */\n      keccak256\n        /* \"#utility.yul\":17575:17601   */\n      swap1\n      pop\n        /* \"#utility.yul\":17467:17608   */\n      swap2\n      swap1\n      pop\n      jump\t// out\n        /* \"#utility.yul\":17614:17707   */\n    tag_293:\n        /* \"#utility.yul\":17651:17657   */\n      0x00\n        /* \"#utility.yul\":17698:17700   */\n      0x20\n        /* \"#utility.yul\":17693:17695   */\n      0x1f\n        /* \"#utility.yul\":17686:17691   */\n      dup4\n        /* \"#utility.yul\":17682:17696   */\n      add\n        /* \"#utility.yul\":17678:17701   */\n      div\n        /* \"#utility.yul\":17668:17701   */\n      swap1\n      pop\n        /* \"#utility.yul\":17614:17707   */\n      swap2\n      swap1\n      pop\n      jump\t// out\n        /* \"#utility.yul\":17713:17820   */\n    tag_294:\n        /* \"#utility.yul\":17757:17765   */\n      0x00\n        /* \"#utility.yul\":17807:17812   */\n      dup3\n        /* \"#utility.yul\":17801:17805   */\n      dup3\n        /* \"#utility.yul\":17797:17813   */\n      shl\n        /* \"#utility.yul\":17776:17813   */\n      swap1\n      pop\n        /* \"#utility.yul\":17713:17820   */\n      swap3\n      swap2\n      pop\n      pop\n      jump\t// out\n        /* \"#utility.yul\":17826:18219   */\n    tag_295:\n        /* \"#utility.yul\":17895:17901   */\n      0x00\n        /* \"#utility.yul\":17945:17946   */\n      0x08\n        /* \"#utility.yul\":17933:17943   */\n      dup4\n        /* \"#utility.yul\":17929:17947   */\n      mul\n        /* \"#utility.yul\":17968:18065   */\n      tag_484\n        /* \"#utility.yul\":17998:18064   */\n      0xffffffffffffffffffffffffffffffffffffffffffffffffffffffffffffffff\n        /* \"#utility.yul\":17987:17996   */\n      dup3\n        /* \"#utility.yul\":17968:18065   */\n      tag_294\n      jump\t// in\n    tag_484:\n        /* \"#utility.yul\":18086:18125   */\n      tag_485\n        /* \"#utility.yul\":18116:18124   */\n      dup7\n        /* \"#utility.yul\":18105:18114   */\n      dup4\n        /* \"#utility.yul\":18086:18125   */\n      tag_294\n      jump\t// in\n    tag_485:\n        /* \"#utility.yul\":18074:18125   */\n      swap6\n      pop\n        /* \"#utility.yul\":18158:18162   */\n      dup1\n        /* \"#utility.yul\":18154:18163   */\n      not\n        /* \"#utility.yul\":18147:18152   */\n      dup5\n        /* \"#utility.yul\":18143:18164   */\n      and\n        /* \"#utility.yul\":18134:18164   */\n      swap4\n      pop\n        /* \"#utility.yul\":18207:18211   */\n      dup1\n        /* \"#utility.yul\":18197:18205   */\n      dup7\n        /* \"#utility.yul\":18193:18212   */\n      and\n        /* \"#utility.yul\":18186:18191   */\n      dup5\n        /* \"#utility.yul\":18183:18213   */\n      or\n        /* \"#utility.yul\":18173:18213   */\n      swap3\n      pop\n        /* \"#utility.yul\":17902:18219   */\n      pop\n      pop\n        /* \"#utility.yul\":17826:18219   */\n      swap4\n      swap3\n      pop\n      pop\n      pop\n      jump\t// out\n        /* \"#utility.yul\":18225:18285   */\n    tag_296:\n        /* \"#utility.yul\":18253:18256   */\n      0x00\n        /* \"#utility.yul\":18274:18279   */\n      dup2\n        /* \"#utility.yul\":18267:18279   */\n      swap1\n      pop\n        /* \"#utility.yul\":18225:18285   */\n      swap2\n      swap1\n      pop\n      jump\t// out\n        /* \"#utility.yul\":18291:18433   */\n    tag_297:\n        /* \"#utility.yul\":18341:18350   */\n      0x00\n        /* \"#utility.yul\":18374:18427   */\n      tag_488\n        /* \"#utility.yul\":18392:18426   */\n      tag_489\n        /* \"#utility.yul\":18401:18425   */\n      tag_490\n        /* \"#utility.yul\":18419:18424   */\n      dup5\n        /* \"#utility.yul\":18401:18425   */\n      tag_247\n      jump\t// in\n    tag_490:\n        /* \"#utility.yul\":18392:18426   */\n      tag_296\n      jump\t// in\n    tag_489:\n        /* \"#utility.yul\":18374:18427   */\n      tag_247\n      jump\t// in\n    tag_488:\n        /* \"#utility.yul\":18361:18427   */\n      swap1\n      pop\n        /* \"#utility.yul\":18291:18433   */\n      swap2\n      swap1\n      pop\n      jump\t// out\n        /* \"#utility.yul\":18439:18514   */\n    tag_298:\n        /* \"#utility.yul\":18482:18485   */\n      0x00\n        /* \"#utility.yul\":18503:18508   */\n      dup2\n        /* \"#utility.yul\":18496:18508   */\n      swap1\n      pop\n        /* \"#utility.yul\":18439:18514   */\n      swap2\n      swap1\n      pop\n      jump\t// out\n        /* \"#utility.yul\":18520:18789   */\n    tag_299:\n        /* \"#utility.yul\":18630:18669   */\n      tag_493\n        /* \"#utility.yul\":18661:18668   */\n      dup4\n        /* \"#utility.yul\":18630:18669   */\n      tag_297\n      jump\t// in\n    tag_493:\n        /* \"#utility.yul\":18691:18782   */\n      tag_494\n        /* \"#utility.yul\":18740:18781   */\n      tag_495\n        /* \"#utility.yul\":18764:18780   */\n      dup3\n        /* \"#utility.yul\":18740:18781   */\n      tag_298\n      jump\t// in\n    tag_495:\n        /* \"#utility.yul\":18732:18738   */\n      dup5\n        /* \"#utility.yul\":18725:18729   */\n      dup5\n        /* \"#utility.yul\":18719:18730   */\n      sload\n        /* \"#utility.yul\":18691:18782   */\n      tag_295\n      jump\t// in\n    tag_494:\n        /* \"#utility.yul\":18685:18689   */\n      dup3\n        /* \"#utility.yul\":18678:18783   */\n      sstore\n        /* \"#utility.yul\":18596:18789   */\n      pop\n        /* \"#utility.yul\":18520:18789   */\n      pop\n      pop\n      pop\n      jump\t// out\n        /* \"#utility.yul\":18795:18868   */\n    tag_300:\n        /* \"#utility.yul\":18840:18843   */\n      0x00\n        /* \"#utility.yul\":18861:18862   */\n      0x00\n        /* \"#utility.yul\":18854:18862   */\n      swap1\n      pop\n        /* \"#utility.yul\":18795:18868   */\n      swap1\n      jump\t// out\n        /* \"#utility.yul\":18874:19063   */\n    tag_301:\n        /* \"#utility.yul\":18951:18983   */\n      tag_498\n      tag_300\n      jump\t// in\n    tag_498:\n        /* \"#utility.yul\":18992:19057   */\n      tag_499\n        /* \"#utility.yul\":19050:19056   */\n      dup2\n        /* \"#utility.yul\":19042:19048   */\n      dup5\n        /* \"#utility.yul\":19036:19040   */\n      dup5\n        /* \"#utility.yul\":18992:19057   */\n      tag_299\n      jump\t// in\n    tag_499:\n        /* \"#utility.yul\":18927:19063   */\n      pop\n        /* \"#utility.yul\":18874:19063   */\n      pop\n      pop\n      jump\t// out\n        /* \"#utility.yul\":19069:19255   */\n    tag_302:\n        /* \"#utility.yul\":19129:19249   */\n    tag_501:\n        /* \"#utility.yul\":19146:19149   */\n      dup2\n        /* \"#utility.yul\":19139:19144   */\n      dup2\n        /* \"#utility.yul\":19136:19150   */\n      lt\n        /* \"#utility.yul\":19129:19249   */\n      iszero\n      tag_503\n      jumpi\n        /* \"#utility.yul\":19200:19239   */\n      tag_504\n        /* \"#utility.yul\":19237:19238   */\n      0x00\n        /* \"#utility.yul\":19230:19235   */\n      dup3\n        /* \"#utility.yul\":19200:19239   */\n      tag_301\n      jump\t// in\n    tag_504:\n        /* \"#utility.yul\":19173:19174   */\n      0x01\n        /* \"#utility.yul\":19166:19171   */\n      dup2\n        /* \"#utility.yul\":19162:19175   */\n      add\n        /* \"#utility.yul\":19153:19175   */\n      swap1\n      pop\n        /* \"#utility.yul\":19129:19249   */\n      jump(tag_501)\n    tag_503:\n        /* \"#utility.yul\":19069:19255   */\n      pop\n      pop\n      jump\t// out\n        /* \"#utility.yul\":19261:19804   */\n    tag_303:\n        /* \"#utility.yul\":19362:19364   */\n      0x1f\n        /* \"#utility.yul\":19357:19360   */\n      dup3\n        /* \"#utility.yul\":19354:19365   */\n      gt\n        /* \"#utility.yul\":19351:19797   */\n      iszero\n      tag_506\n      jumpi\n        /* \"#utility.yul\":19396:19434   */\n      tag_507\n        /* \"#utility.yul\":19428:19433   */\n      dup2\n        /* \"#utility.yul\":19396:19434   */\n      tag_292\n      jump\t// in\n    tag_507:\n        /* \"#utility.yul\":19480:19509   */\n      tag_508\n        /* \"#utility.yul\":19498:19508   */\n      dup5\n        /* \"#utility.yul\":19480:19509   */\n      tag_293\n      jump\t// in\n    tag_508:\n        /* \"#utility.yul\":19470:19478   */\n      dup2\n        /* \"#utility.yul\":19466:19510   */\n      add\n        /* \"#utility.yul\":19663:19665   */\n      0x20\n        /* \"#utility.yul\":19651:19661   */\n      dup6\n        /* \"#utility.yul\":19648:19666   */\n      lt\n        /* \"#utility.yul\":19645:19694   */\n      iszero\n      tag_509\n      jumpi\n        /* \"#utility.yul\":19684:19692   */\n      dup2\n        /* \"#utility.yul\":19669:19692   */\n      swap1\n      pop\n        /* \"#utility.yul\":19645:19694   */\n    tag_509:\n        /* \"#utility.yul\":19707:19787   */\n      tag_510\n        /* \"#utility.yul\":19763:19785   */\n      tag_511\n        /* \"#utility.yul\":19781:19784   */\n      dup6\n        /* \"#utility.yul\":19763:19785   */\n      tag_293\n      jump\t// in\n    tag_511:\n        /* \"#utility.yul\":19753:19761   */\n      dup4\n        /* \"#utility.yul\":19749:19786   */\n      add\n        /* \"#utility.yul\":19736:19747   */\n      dup3\n        /* \"#utility.yul\":19707:19787   */\n      tag_302\n      jump\t// in\n    tag_510:\n        /* \"#utility.yul\":19366:19797   */\n      pop\n      pop\n        /* \"#utility.yul\":19351:19797   */\n    tag_506:\n        /* \"#utility.yul\":19261:19804   */\n      pop\n      pop\n      pop\n      jump\t// out\n        /* \"#utility.yul\":19810:19927   */\n    tag_304:\n        /* \"#utility.yul\":19864:19872   */\n      0x00\n        /* \"#utility.yul\":19914:19919   */\n      dup3\n        /* \"#utility.yul\":19908:19912   */\n      dup3\n        /* \"#utility.yul\":19904:19920   */\n      shr\n        /* \"#utility.yul\":19883:19920   */\n      swap1\n      pop\n        /* \"#utility.yul\":19810:19927   */\n      swap3\n      swap2\n      pop\n      pop\n      jump\t// out\n        /* \"#utility.yul\":19933:20102   */\n    tag_305:\n        /* \"#utility.yul\":19977:19983   */\n      0x00\n        /* \"#utility.yul\":20010:20061   */\n      tag_514\n        /* \"#utility.yul\":20058:20059   */\n      0x00\n        /* \"#utility.yul\":20054:20060   */\n      not\n        /* \"#utility.yul\":20046:20051   */\n      dup5\n        /* \"#utility.yul\":20043:20044   */\n      0x08\n        /* \"#utility.yul\":20039:20052   */\n      mul\n        /* \"#utility.yul\":20010:20061   */\n      tag_304\n      jump\t// in\n    tag_514:\n        /* \"#utility.yul\":20006:20062   */\n      not\n        /* \"#utility.yul\":20091:20095   */\n      dup1\n        /* \"#utility.yul\":20085:20089   */\n      dup4\n        /* \"#utility.yul\":20081:20096   */\n      and\n        /* \"#utility.yul\":20071:20096   */\n      swap2\n      pop\n        /* \"#utility.yul\":19984:20102   */\n      pop\n        /* \"#utility.yul\":19933:20102   */\n      swap3\n      swap2\n      pop\n      pop\n      jump\t// out\n        /* \"#utility.yul\":20107:20402   */\n    tag_306:\n        /* \"#utility.yul\":20183:20187   */\n      0x00\n        /* \"#utility.yul\":20329:20358   */\n      tag_516\n        /* \"#utility.yul\":20354:20357   */\n      dup4\n        /* \"#utility.yul\":20348:20352   */\n      dup4\n        /* \"#utility.yul\":20329:20358   */\n      tag_305\n      jump\t// in\n    tag_516:\n        /* \"#utility.yul\":20321:20358   */\n      swap2\n      pop\n        /* \"#utility.yul\":20391:20394   */\n      dup3\n        /* \"#utility.yul\":20388:20389   */\n      0x02\n        /* \"#utility.yul\":20384:20395   */\n      mul\n        /* \"#utility.yul\":20378:20382   */\n      dup3\n        /* \"#utility.yul\":20375:20396   */\n      or\n        /* \"#utility.yul\":20367:20396   */\n      swap1\n      pop\n        /* \"#utility.yul\":20107:20402   */\n      swap3\n      swap2\n      pop\n      pop\n      jump\t// out\n        /* \"#utility.yul\":20407:21802   */\n    tag_86:\n        /* \"#utility.yul\":20524:20561   */\n      tag_518\n        /* \"#utility.yul\":20557:20560   */\n      dup3\n        /* \"#utility.yul\":20524:20561   */\n      tag_259\n      jump\t// in\n    tag_518:\n        /* \"#utility.yul\":20626:20644   */\n      0xffffffffffffffff\n        /* \"#utility.yul\":20618:20624   */\n      dup2\n        /* \"#utility.yul\":20615:20645   */\n      gt\n        /* \"#utility.yul\":20612:20668   */\n      iszero\n      tag_519\n      jumpi\n        /* \"#utility.yul\":20648:20666   */\n      tag_520\n      tag_130\n      jump\t// in\n    tag_520:\n        /* \"#utility.yul\":20612:20668   */\n    tag_519:\n        /* \"#utility.yul\":20692:20730   */\n      tag_521\n        /* \"#utility.yul\":20724:20728   */\n      dup3\n        /* \"#utility.yul\":20718:20729   */\n      sload\n        /* \"#utility.yul\":20692:20730   */\n      tag_95\n      jump\t// in\n    tag_521:\n        /* \"#utility.yul\":20777:20844   */\n      tag_522\n        /* \"#utility.yul\":20837:20843   */\n      dup3\n        /* \"#utility.yul\":20829:20835   */\n      dup3\n        /* \"#utility.yul\":20823:20827   */\n      dup6\n        /* \"#utility.yul\":20777:20844   */\n      tag_303\n      jump\t// in\n    tag_522:\n        /* \"#utility.yul\":20871:20872   */\n      0x00\n        /* \"#utility.yul\":20895:20899   */\n      0x20\n        /* \"#utility.yul\":20882:20899   */\n      swap1\n      pop\n        /* \"#utility.yul\":20927:20929   */\n      0x1f\n        /* \"#utility.yul\":20919:20925   */\n      dup4\n        /* \"#utility.yul\":20916:20930   */\n      gt\n        /* \"#utility.yul\":20944:20945   */\n      0x01\n        /* \"#utility.yul\":20939:21557   */\n      dup2\n      eq\n      tag_524\n      jumpi\n        /* \"#utility.yul\":21601:21602   */\n      0x00\n        /* \"#utility.yul\":21618:21624   */\n      dup5\n        /* \"#utility.yul\":21615:21692   */\n      iszero\n      tag_525\n      jumpi\n        /* \"#utility.yul\":21667:21676   */\n      dup3\n        /* \"#utility.yul\":21662:21665   */\n      dup8\n        /* \"#utility.yul\":21658:21677   */\n      add\n        /* \"#utility.yul\":21652:21678   */\n      mload\n        /* \"#utility.yul\":21643:21678   */\n      swap1\n      pop\n        /* \"#utility.yul\":21615:21692   */\n    tag_525:\n        /* \"#utility.yul\":21718:21785   */\n      tag_526\n        /* \"#utility.yul\":21778:21784   */\n      dup6\n        /* \"#utility.yul\":21771:21776   */\n      dup3\n        /* \"#utility.yul\":21718:21785   */\n      tag_306\n      jump\t// in\n    tag_526:\n        /* \"#utility.yul\":21712:21716   */\n      dup7\n        /* \"#utility.yul\":21705:21786   */\n      sstore\n        /* \"#utility.yul\":21574:21796   */\n      pop\n        /* \"#utility.yul\":20909:21796   */\n      jump(tag_523)\n        /* \"#utility.yul\":20939:21557   */\n    tag_524:\n        /* \"#utility.yul\":20991:20995   */\n      0x1f\n        /* \"#utility.yul\":20987:20996   */\n      not\n        /* \"#utility.yul\":20979:20985   */\n      dup5\n        /* \"#utility.yul\":20975:20997   */\n      and\n        /* \"#utility.yul\":21025:21062   */\n      tag_527\n        /* \"#utility.yul\":21057:21061   */\n      dup7\n        /* \"#utility.yul\":21025:21062   */\n      tag_292\n      jump\t// in\n    tag_527:\n        /* \"#utility.yul\":21084:21085   */\n      0x00\n        /* \"#utility.yul\":21098:21306   */\n    tag_528:\n        /* \"#utility.yul\":21112:21119   */\n      dup3\n        /* \"#utility.yul\":21109:21110   */\n      dup2\n        /* \"#utility.yul\":21106:21120   */\n      lt\n        /* \"#utility.yul\":21098:21306   */\n      iszero\n      tag_530\n      jumpi\n        /* \"#utility.yul\":21191:21200   */\n      dup5\n        /* \"#utility.yul\":21186:21189   */\n      dup10\n        /* \"#utility.yul\":21182:21201   */\n      add\n        /* \"#utility.yul\":21176:21202   */\n      mload\n        /* \"#utility.yul\":21168:21174   */\n      dup3\n        /* \"#utility.yul\":21161:21203   */\n      sstore\n        /* \"#utility.yul\":21242:21243   */\n      0x01\n        /* \"#utility.yul\":21234:21240   */\n      dup3\n        /* \"#utility.yul\":21230:21244   */\n      add\n        /* \"#utility.yul\":21220:21244   */\n      swap2\n      pop\n        /* \"#utility.yul\":21289:21291   */\n      0x20\n        /* \"#utility.yul\":21278:21287   */\n      dup6\n        /* \"#utility.yul\":21274:21292   */\n      add\n        /* \"#utility.yul\":21261:21292   */\n      swap5\n      pop\n        /* \"#utility.yul\":21135:21139   */\n      0x20\n        /* \"#utility.yul\":21132:21133   */\n      dup2\n        /* \"#utility.yul\":21128:21140   */\n      add\n        /* \"#utility.yul\":21123:21140   */\n      swap1\n      pop\n        /* \"#utility.yul\":21098:21306   */\n      jump(tag_528)\n    tag_530:\n        /* \"#utility.yul\":21334:21340   */\n      dup7\n        /* \"#utility.yul\":21325:21332   */\n      dup4\n        /* \"#utility.yul\":21322:21341   */\n      lt\n        /* \"#utility.yul\":21319:21498   */\n      iszero\n      tag_531\n      jumpi\n        /* \"#utility.yul\":21392:21401   */\n      dup5\n        /* \"#utility.yul\":21387:21390   */\n      dup10\n        /* \"#utility.yul\":21383:21402   */\n      add\n        /* \"#utility.yul\":21377:21403   */\n      mload\n        /* \"#utility.yul\":21435:21483   */\n      tag_532\n        /* \"#utility.yul\":21477:21481   */\n      0x1f\n        /* \"#utility.yul\":21469:21475   */\n      dup10\n        /* \"#utility.yul\":21465:21482   */\n      and\n        /* \"#utility.yul\":21454:21463   */\n      dup3\n        /* \"#utility.yul\":21435:21483   */\n      tag_305\n      jump\t// in\n    tag_532:\n        /* \"#utility.yul\":21427:21433   */\n      dup4\n        /* \"#utility.yul\":21420:21484   */\n      sstore\n        /* \"#utility.yul\":21342:21498   */\n      pop\n        /* \"#utility.yul\":21319:21498   */\n    tag_531:\n        /* \"#utility.yul\":21544:21545   */\n      0x01\n        /* \"#utility.yul\":21540:21541   */\n      0x02\n        /* \"#utility.yul\":21532:21538   */\n      dup9\n        /* \"#utility.yul\":21528:21542   */\n      mul\n        /* \"#utility.yul\":21524:21546   */\n      add\n        /* \"#utility.yul\":21518:21522   */\n      dup9\n        /* \"#utility.yul\":21511:21547   */\n      sstore\n        /* \"#utility.yul\":20946:21557   */\n      pop\n      pop\n      pop\n        /* \"#utility.yul\":20909:21796   */\n    tag_523:\n      pop\n        /* \"#utility.yul\":20499:21802   */\n      pop\n      pop\n      pop\n        /* \"#utility.yul\":20407:21802   */\n      pop\n      pop\n      jump\t// out\n        /* \"#utility.yul\":21832:22663   */\n    tag_307:\n        /* \"#utility.yul\":21917:21920   */\n      0x00\n        /* \"#utility.yul\":21954:21959   */\n      dup2\n        /* \"#utility.yul\":21948:21960   */\n      sload\n        /* \"#utility.yul\":21983:22019   */\n      tag_534\n        /* \"#utility.yul\":22009:22018   */\n      dup2\n        /* \"#utility.yul\":21983:22019   */\n      tag_95\n      jump\t// in\n    tag_534:\n        /* \"#utility.yul\":22035:22106   */\n      tag_535\n        /* \"#utility.yul\":22099:22105   */\n      dup2\n        /* \"#utility.yul\":22094:22097   */\n      dup7\n        /* \"#utility.yul\":22035:22106   */\n      tag_260\n      jump\t// in\n    tag_535:\n        /* \"#utility.yul\":22028:22106   */\n      swap5\n      pop\n        /* \"#utility.yul\":22137:22138   */\n      0x01\n        /* \"#utility.yul\":22126:22135   */\n      dup3\n        /* \"#utility.yul\":22122:22139   */\n      and\n        /* \"#utility.yul\":22153:22154   */\n      0x00\n        /* \"#utility.yul\":22148:22312   */\n      dup2\n      eq\n      tag_537\n      jumpi\n        /* \"#utility.yul\":22326:22327   */\n      0x01\n        /* \"#utility.yul\":22321:22657   */\n      dup2\n      eq\n      tag_538\n      jumpi\n        /* \"#utility.yul\":22115:22657   */\n      jump(tag_536)\n        /* \"#utility.yul\":22148:22312   */\n    tag_537:\n        /* \"#utility.yul\":22232:22236   */\n      0xff\n        /* \"#utility.yul\":22228:22237   */\n      not\n        /* \"#utility.yul\":22217:22226   */\n      dup4\n        /* \"#utility.yul\":22213:22238   */\n      and\n        /* \"#utility.yul\":22208:22211   */\n      dup7\n        /* \"#utility.yul\":22201:22239   */\n      mstore\n        /* \"#utility.yul\":22292:22298   */\n      dup2\n        /* \"#utility.yul\":22285:22299   */\n      iszero\n        /* \"#utility.yul\":22278:22300   */\n      iszero\n        /* \"#utility.yul\":22272:22276   */\n      0x20\n        /* \"#utility.yul\":22268:22301   */\n      mul\n        /* \"#utility.yul\":22263:22266   */\n      dup7\n        /* \"#utility.yul\":22259:22302   */\n      add\n        /* \"#utility.yul\":22252:22302   */\n      swap4\n      pop\n        /* \"#utility.yul\":22148:22312   */\n      jump(tag_536)\n        /* \"#utility.yul\":22321:22657   */\n    tag_538:\n        /* \"#utility.yul\":22388:22426   */\n      tag_539\n        /* \"#utility.yul\":22420:22425   */\n      dup6\n        /* \"#utility.yul\":22388:22426   */\n      tag_292\n      jump\t// in\n    tag_539:\n        /* \"#utility.yul\":22448:22449   */\n      0x00\n        /* \"#utility.yul\":22462:22616   */\n    tag_540:\n        /* \"#utility.yul\":22476:22482   */\n      dup4\n        /* \"#utility.yul\":22473:22474   */\n      dup2\n        /* \"#utility.yul\":22470:22483   */\n      lt\n        /* \"#utility.yul\":22462:22616   */\n      iszero\n      tag_542\n      jumpi\n        /* \"#utility.yul\":22550:22557   */\n      dup2\n        /* \"#utility.yul\":22544:22558   */\n      sload\n        /* \"#utility.yul\":22540:22541   */\n      dup2\n        /* \"#utility.yul\":22535:22538   */\n      dup10\n        /* \"#utility.yul\":22531:22542   */\n      add\n        /* \"#utility.yul\":22524:22559   */\n      mstore\n        /* \"#utility.yul\":22600:22601   */\n      0x01\n        /* \"#utility.yul\":22591:22598   */\n      dup3\n        /* \"#utility.yul\":22587:22602   */\n      add\n        /* \"#utility.yul\":22576:22602   */\n      swap2\n      pop\n        /* \"#utility.yul\":22498:22502   */\n      0x20\n        /* \"#utility.yul\":22495:22496   */\n      dup2\n        /* \"#utility.yul\":22491:22503   */\n      add\n        /* \"#utility.yul\":22486:22503   */\n      swap1\n      pop\n        /* \"#utility.yul\":22462:22616   */\n      jump(tag_540)\n    tag_542:\n        /* \"#utility.yul\":22645:22646   */\n      dup1\n        /* \"#utility.yul\":22640:22643   */\n      dup9\n        /* \"#utility.yul\":22636:22647   */\n      add\n        /* \"#utility.yul\":22629:22647   */\n      swap6\n      pop\n        /* \"#utility.yul\":22328:22657   */\n      pop\n      pop\n        /* \"#utility.yul\":22115:22657   */\n    tag_536:\n      pop\n        /* \"#utility.yul\":21921:22663   */\n      pop\n      pop\n        /* \"#utility.yul\":21832:22663   */\n      swap3\n      swap2\n      pop\n      pop\n      jump\t// out\n        /* \"#utility.yul\":22669:22976   */\n    tag_88:\n        /* \"#utility.yul\":22779:22783   */\n      0x00\n        /* \"#utility.yul\":22817:22819   */\n      0x20\n        /* \"#utility.yul\":22806:22815   */\n      dup3\n        /* \"#utility.yul\":22802:22820   */\n      add\n        /* \"#utility.yul\":22794:22820   */\n      swap1\n      pop\n        /* \"#utility.yul\":22866:22875   */\n      dup2\n        /* \"#utility.yul\":22860:22864   */\n      dup2\n        /* \"#utility.yul\":22856:22876   */\n      sub\n        /* \"#utility.yul\":22852:22853   */\n      0x00\n        /* \"#utility.yul\":22841:22850   */\n      dup4\n        /* \"#utility.yul\":22837:22854   */\n      add\n        /* \"#utility.yul\":22830:22877   */\n      mstore\n        /* \"#utility.yul\":22894:22969   */\n      tag_544\n        /* \"#utility.yul\":22964:22968   */\n      dup2\n        /* \"#utility.yul\":22955:22961   */\n      dup5\n        /* \"#utility.yul\":22894:22969   */\n      tag_307\n      jump\t// in\n    tag_544:\n        /* \"#utility.yul\":22886:22969   */\n      swap1\n      pop\n        /* \"#utility.yul\":22669:22976   */\n      swap3\n      swap2\n      pop\n      pop\n      jump\t// out\n        /* \"#utility.yul\":22982:23155   */\n    tag_308:\n        /* \"#utility.yul\":23122:23147   */\n      0x43616e64696461746520496420697320696e76616c6964000000000000000000\n        /* \"#utility.yul\":23118:23119   */\n      0x00\n        /* \"#utility.yul\":23110:23116   */\n      dup3\n        /* \"#utility.yul\":23106:23120   */\n      add\n        /* \"#utility.yul\":23099:23148   */\n      mstore\n        /* \"#utility.yul\":22982:23155   */\n      pop\n      jump\t// out\n        /* \"#utility.yul\":23161:23527   */\n    tag_309:\n        /* \"#utility.yul\":23303:23306   */\n      0x00\n        /* \"#utility.yul\":23324:23391   */\n      tag_547\n        /* \"#utility.yul\":23388:23390   */\n      0x17\n        /* \"#utility.yul\":23383:23386   */\n      dup4\n        /* \"#utility.yul\":23324:23391   */\n      tag_260\n      jump\t// in\n    tag_547:\n        /* \"#utility.yul\":23317:23391   */\n      swap2\n      pop\n        /* \"#utility.yul\":23400:23493   */\n      tag_548\n        /* \"#utility.yul\":23489:23492   */\n      dup3\n        /* \"#utility.yul\":23400:23493   */\n      tag_308\n      jump\t// in\n    tag_548:\n        /* \"#utility.yul\":23518:23520   */\n      0x20\n        /* \"#utility.yul\":23513:23516   */\n      dup3\n        /* \"#utility.yul\":23509:23521   */\n      add\n        /* \"#utility.yul\":23502:23521   */\n      swap1\n      pop\n        /* \"#utility.yul\":23161:23527   */\n      swap2\n      swap1\n      pop\n      jump\t// out\n        /* \"#utility.yul\":23533:23952   */\n    tag_112:\n        /* \"#utility.yul\":23699:23703   */\n      0x00\n        /* \"#utility.yul\":23737:23739   */\n      0x20\n        /* \"#utility.yul\":23726:23735   */\n      dup3\n        /* \"#utility.yul\":23722:23740   */\n      add\n        /* \"#utility.yul\":23714:23740   */\n      swap1\n      pop\n        /* \"#utility.yul\":23786:23795   */\n      dup2\n        /* \"#utility.yul\":23780:23784   */\n      dup2\n        /* \"#utility.yul\":23776:23796   */\n      sub\n        /* \"#utility.yul\":23772:23773   */\n      0x00\n        /* \"#utility.yul\":23761:23770   */\n      dup4\n        /* \"#utility.yul\":23757:23774   */\n      add\n        /* \"#utility.yul\":23750:23797   */\n      mstore\n        /* \"#utility.yul\":23814:23945   */\n      tag_550\n        /* \"#utility.yul\":23940:23944   */\n      dup2\n        /* \"#utility.yul\":23814:23945   */\n      tag_309\n      jump\t// in\n    tag_550:\n        /* \"#utility.yul\":23806:23945   */\n      swap1\n      pop\n        /* \"#utility.yul\":23533:23952   */\n      swap2\n      swap1\n      pop\n      jump\t// out\n        /* \"#utility.yul\":23958:24140   */\n    tag_310:\n        /* \"#utility.yul\":24098:24132   */\n      0x5468697320766f74657220616c726561647920676976652068697320766f7465\n        /* \"#utility.yul\":24094:24095   */\n      0x00\n        /* \"#utility.yul\":24086:24092   */\n      dup3\n        /* \"#utility.yul\":24082:24096   */\n      add\n        /* \"#utility.yul\":24075:24133   */\n      mstore\n        /* \"#utility.yul\":23958:24140   */\n      pop\n      jump\t// out\n        /* \"#utility.yul\":24146:24512   */\n    tag_311:\n        /* \"#utility.yul\":24288:24291   */\n      0x00\n        /* \"#utility.yul\":24309:24376   */\n      tag_553\n        /* \"#utility.yul\":24373:24375   */\n      0x20\n        /* \"#utility.yul\":24368:24371   */\n      dup4\n        /* \"#utility.yul\":24309:24376   */\n      tag_260\n      jump\t// in\n    tag_553:\n        /* \"#utility.yul\":24302:24376   */\n      swap2\n      pop\n        /* \"#utility.yul\":24385:24478   */\n      tag_554\n        /* \"#utility.yul\":24474:24477   */\n      dup3\n        /* \"#utility.yul\":24385:24478   */\n      tag_310\n      jump\t// in\n    tag_554:\n        /* \"#utility.yul\":24503:24505   */\n      0x20\n        /* \"#utility.yul\":24498:24501   */\n      dup3\n        /* \"#utility.yul\":24494:24506   */\n      add\n        /* \"#utility.yul\":24487:24506   */\n      swap1\n      pop\n        /* \"#utility.yul\":24146:24512   */\n      swap2\n      swap1\n      pop\n      jump\t// out\n        /* \"#utility.yul\":24518:24937   */\n    tag_116:\n        /* \"#utility.yul\":24684:24688   */\n      0x00\n        /* \"#utility.yul\":24722:24724   */\n      0x20\n        /* \"#utility.yul\":24711:24720   */\n      dup3\n        /* \"#utility.yul\":24707:24725   */\n      add\n        /* \"#utility.yul\":24699:24725   */\n      swap1\n      pop\n        /* \"#utility.yul\":24771:24780   */\n      dup2\n        /* \"#utility.yul\":24765:24769   */\n      dup2\n        /* \"#utility.yul\":24761:24781   */\n      sub\n        /* \"#utility.yul\":24757:24758   */\n      0x00\n        /* \"#utility.yul\":24746:24755   */\n      dup4\n        /* \"#utility.yul\":24742:24759   */\n      add\n        /* \"#utility.yul\":24735:24782   */\n      mstore\n        /* \"#utility.yul\":24799:24930   */\n      tag_556\n        /* \"#utility.yul\":24925:24929   */\n      dup2\n        /* \"#utility.yul\":24799:24930   */\n      tag_311\n      jump\t// in\n    tag_556:\n        /* \"#utility.yul\":24791:24930   */\n      swap1\n      pop\n        /* \"#utility.yul\":24518:24937   */\n      swap2\n      swap1\n      pop\n      jump\t// out\n        /* \"#utility.yul\":24943:25170   */\n    tag_312:\n        /* \"#utility.yul\":25083:25117   */\n      0x5468657265206973206e6f2063616e6469646174657320666f72207468697320\n        /* \"#utility.yul\":25079:25080   */\n      0x00\n        /* \"#utility.yul\":25071:25077   */\n      dup3\n        /* \"#utility.yul\":25067:25081   */\n      add\n        /* \"#utility.yul\":25060:25118   */\n      mstore\n        /* \"#utility.yul\":25152:25162   */\n      0x656c656374696f6e000000000000000000000000000000000000000000000000\n        /* \"#utility.yul\":25147:25149   */\n      0x20\n        /* \"#utility.yul\":25139:25145   */\n      dup3\n        /* \"#utility.yul\":25135:25150   */\n      add\n        /* \"#utility.yul\":25128:25163   */\n      mstore\n        /* \"#utility.yul\":24943:25170   */\n      pop\n      jump\t// out\n        /* \"#utility.yul\":25176:25542   */\n    tag_313:\n        /* \"#utility.yul\":25318:25321   */\n      0x00\n        /* \"#utility.yul\":25339:25406   */\n      tag_559\n        /* \"#utility.yul\":25403:25405   */\n      0x28\n        /* \"#utility.yul\":25398:25401   */\n      dup4\n        /* \"#utility.yul\":25339:25406   */\n      tag_260\n      jump\t// in\n    tag_559:\n        /* \"#utility.yul\":25332:25406   */\n      swap2\n      pop\n        /* \"#utility.yul\":25415:25508   */\n      tag_560\n        /* \"#utility.yul\":25504:25507   */\n      dup3\n        /* \"#utility.yul\":25415:25508   */\n      tag_312\n      jump\t// in\n    tag_560:\n        /* \"#utility.yul\":25533:25535   */\n      0x40\n        /* \"#utility.yul\":25528:25531   */\n      dup3\n        /* \"#utility.yul\":25524:25536   */\n      add\n        /* \"#utility.yul\":25517:25536   */\n      swap1\n      pop\n        /* \"#utility.yul\":25176:25542   */\n      swap2\n      swap1\n      pop\n      jump\t// out\n        /* \"#utility.yul\":25548:25967   */\n    tag_127:\n        /* \"#utility.yul\":25714:25718   */\n      0x00\n        /* \"#utility.yul\":25752:25754   */\n      0x20\n        /* \"#utility.yul\":25741:25750   */\n      dup3\n        /* \"#utility.yul\":25737:25755   */\n      add\n        /* \"#utility.yul\":25729:25755   */\n      swap1\n      pop\n        /* \"#utility.yul\":25801:25810   */\n      dup2\n        /* \"#utility.yul\":25795:25799   */\n      dup2\n        /* \"#utility.yul\":25791:25811   */\n      sub\n        /* \"#utility.yul\":25787:25788   */\n      0x00\n        /* \"#utility.yul\":25776:25785   */\n      dup4\n        /* \"#utility.yul\":25772:25789   */\n      add\n        /* \"#utility.yul\":25765:25812   */\n      mstore\n        /* \"#utility.yul\":25829:25960   */\n      tag_562\n        /* \"#utility.yul\":25955:25959   */\n      dup2\n        /* \"#utility.yul\":25829:25960   */\n      tag_313\n      jump\t// in\n    tag_562:\n        /* \"#utility.yul\":25821:25960   */\n      swap1\n      pop\n        /* \"#utility.yul\":25548:25967   */\n      swap2\n      swap1\n      pop\n      jump\t// out\n        /* \"#utility.yul\":25973:26164   */\n    tag_140:\n        /* \"#utility.yul\":26013:26016   */\n      0x00\n        /* \"#utility.yul\":26032:26052   */\n      tag_564\n        /* \"#utility.yul\":26050:26051   */\n      dup3\n        /* \"#utility.yul\":26032:26052   */\n      tag_247\n      jump\t// in\n    tag_564:\n        /* \"#utility.yul\":26027:26052   */\n      swap2\n      pop\n        /* \"#utility.yul\":26066:26086   */\n      tag_565\n        /* \"#utility.yul\":26084:26085   */\n      dup4\n        /* \"#utility.yul\":26066:26086   */\n      tag_247\n      jump\t// in\n    tag_565:\n        /* \"#utility.yul\":26061:26086   */\n      swap3\n      pop\n        /* \"#utility.yul\":26109:26110   */\n      dup3\n        /* \"#utility.yul\":26106:26107   */\n      dup3\n        /* \"#utility.yul\":26102:26111   */\n      add\n        /* \"#utility.yul\":26095:26111   */\n      swap1\n      pop\n        /* \"#utility.yul\":26130:26133   */\n      dup1\n        /* \"#utility.yul\":26127:26128   */\n      dup3\n        /* \"#utility.yul\":26124:26134   */\n      gt\n        /* \"#utility.yul\":26121:26157   */\n      iszero\n      tag_566\n      jumpi\n        /* \"#utility.yul\":26137:26155   */\n      tag_567\n      tag_290\n      jump\t// in\n    tag_567:\n        /* \"#utility.yul\":26121:26157   */\n    tag_566:\n        /* \"#utility.yul\":25973:26164   */\n      swap3\n      swap2\n      pop\n      pop\n      jump\t// out\n        /* \"#utility.yul\":26170:26350   */\n    tag_143:\n        /* \"#utility.yul\":26218:26295   */\n      0x4e487b7100000000000000000000000000000000000000000000000000000000\n        /* \"#utility.yul\":26215:26216   */\n      0x00\n        /* \"#utility.yul\":26208:26296   */\n      mstore\n        /* \"#utility.yul\":26315:26319   */\n      0x32\n        /* \"#utility.yul\":26312:26313   */\n      0x04\n        /* \"#utility.yul\":26305:26320   */\n      mstore\n        /* \"#utility.yul\":26339:26343   */\n      0x24\n        /* \"#utility.yul\":26336:26337   */\n      0x00\n        /* \"#utility.yul\":26329:26344   */\n      revert\n        /* \"#utility.yul\":26356:26773   */\n    tag_194:\n        /* \"#utility.yul\":26494:26498   */\n      0x00\n        /* \"#utility.yul\":26532:26534   */\n      0x40\n        /* \"#utility.yul\":26521:26530   */\n      dup3\n        /* \"#utility.yul\":26517:26535   */\n      add\n        /* \"#utility.yul\":26509:26535   */\n      swap1\n      pop\n        /* \"#utility.yul\":26581:26590   */\n      dup2\n        /* \"#utility.yul\":26575:26579   */\n      dup2\n        /* \"#utility.yul\":26571:26591   */\n      sub\n        /* \"#utility.yul\":26567:26568   */\n      0x00\n        /* \"#utility.yul\":26556:26565   */\n      dup4\n        /* \"#utility.yul\":26552:26569   */\n      add\n        /* \"#utility.yul\":26545:26592   */\n      mstore\n        /* \"#utility.yul\":26609:26684   */\n      tag_570\n        /* \"#utility.yul\":26679:26683   */\n      dup2\n        /* \"#utility.yul\":26670:26676   */\n      dup6\n        /* \"#utility.yul\":26609:26684   */\n      tag_307\n      jump\t// in\n    tag_570:\n        /* \"#utility.yul\":26601:26684   */\n      swap1\n      pop\n        /* \"#utility.yul\":26694:26766   */\n      tag_571\n        /* \"#utility.yul\":26762:26764   */\n      0x20\n        /* \"#utility.yul\":26751:26760   */\n      dup4\n        /* \"#utility.yul\":26747:26765   */\n      add\n        /* \"#utility.yul\":26738:26744   */\n      dup5\n        /* \"#utility.yul\":26694:26766   */\n      tag_263\n      jump\t// in\n    tag_571:\n        /* \"#utility.yul\":26356:26773   */\n      swap4\n      swap3\n      pop\n      pop\n      pop\n      jump\t// out\n        /* \"#utility.yul\":26779:27730   */\n    tag_218:\n        /* \"#utility.yul\":27049:27053   */\n      0x00\n        /* \"#utility.yul\":27087:27090   */\n      0xc0\n        /* \"#utility.yul\":27076:27085   */\n      dup3\n        /* \"#utility.yul\":27072:27091   */\n      add\n        /* \"#utility.yul\":27064:27091   */\n      swap1\n      pop\n        /* \"#utility.yul\":27101:27172   */\n      tag_573\n        /* \"#utility.yul\":27169:27170   */\n      0x00\n        /* \"#utility.yul\":27158:27167   */\n      dup4\n        /* \"#utility.yul\":27154:27171   */\n      add\n        /* \"#utility.yul\":27145:27151   */\n      dup10\n        /* \"#utility.yul\":27101:27172   */\n      tag_263\n      jump\t// in\n    tag_573:\n        /* \"#utility.yul\":27219:27228   */\n      dup2\n        /* \"#utility.yul\":27213:27217   */\n      dup2\n        /* \"#utility.yul\":27209:27229   */\n      sub\n        /* \"#utility.yul\":27204:27206   */\n      0x20\n        /* \"#utility.yul\":27193:27202   */\n      dup4\n        /* \"#utility.yul\":27189:27207   */\n      add\n        /* \"#utility.yul\":27182:27230   */\n      mstore\n        /* \"#utility.yul\":27247:27322   */\n      tag_574\n        /* \"#utility.yul\":27317:27321   */\n      dup2\n        /* \"#utility.yul\":27308:27314   */\n      dup9\n        /* \"#utility.yul\":27247:27322   */\n      tag_307\n      jump\t// in\n    tag_574:\n        /* \"#utility.yul\":27239:27322   */\n      swap1\n      pop\n        /* \"#utility.yul\":27332:27404   */\n      tag_575\n        /* \"#utility.yul\":27400:27402   */\n      0x40\n        /* \"#utility.yul\":27389:27398   */\n      dup4\n        /* \"#utility.yul\":27385:27403   */\n      add\n        /* \"#utility.yul\":27376:27382   */\n      dup8\n        /* \"#utility.yul\":27332:27404   */\n      tag_263\n      jump\t// in\n    tag_575:\n        /* \"#utility.yul\":27451:27460   */\n      dup2\n        /* \"#utility.yul\":27445:27449   */\n      dup2\n        /* \"#utility.yul\":27441:27461   */\n      sub\n        /* \"#utility.yul\":27436:27438   */\n      0x60\n        /* \"#utility.yul\":27425:27434   */\n      dup4\n        /* \"#utility.yul\":27421:27439   */\n      add\n        /* \"#utility.yul\":27414:27462   */\n      mstore\n        /* \"#utility.yul\":27479:27557   */\n      tag_576\n        /* \"#utility.yul\":27552:27556   */\n      dup2\n        /* \"#utility.yul\":27543:27549   */\n      dup7\n        /* \"#utility.yul\":27479:27557   */\n      tag_262\n      jump\t// in\n    tag_576:\n        /* \"#utility.yul\":27471:27557   */\n      swap1\n      pop\n        /* \"#utility.yul\":27567:27640   */\n      tag_577\n        /* \"#utility.yul\":27635:27638   */\n      0x80\n        /* \"#utility.yul\":27624:27633   */\n      dup4\n        /* \"#utility.yul\":27620:27639   */\n      add\n        /* \"#utility.yul\":27611:27617   */\n      dup6\n        /* \"#utility.yul\":27567:27640   */\n      tag_263\n      jump\t// in\n    tag_577:\n        /* \"#utility.yul\":27650:27723   */\n      tag_578\n        /* \"#utility.yul\":27718:27721   */\n      0xa0\n        /* \"#utility.yul\":27707:27716   */\n      dup4\n        /* \"#utility.yul\":27703:27722   */\n      add\n        /* \"#utility.yul\":27694:27700   */\n      dup5\n        /* \"#utility.yul\":27650:27723   */\n      tag_263\n      jump\t// in\n    tag_578:\n        /* \"#utility.yul\":26779:27730   */\n      swap8\n      swap7\n      pop\n      pop\n      pop\n      pop\n      pop\n      pop\n      pop\n      jump\t// out\n        /* \"#utility.yul\":27736:27958   */\n    tag_314:\n        /* \"#utility.yul\":27876:27910   */\n      0x5468657265206973206e6f20656c656374696f6e2069732072756e6e696e6720\n        /* \"#utility.yul\":27872:27873   */\n      0x00\n        /* \"#utility.yul\":27864:27870   */\n      dup3\n        /* \"#utility.yul\":27860:27874   */\n      add\n        /* \"#utility.yul\":27853:27911   */\n      mstore\n        /* \"#utility.yul\":27945:27950   */\n      0x6e6f770000000000000000000000000000000000000000000000000000000000\n        /* \"#utility.yul\":27940:27942   */\n      0x20\n        /* \"#utility.yul\":27932:27938   */\n      dup3\n        /* \"#utility.yul\":27928:27943   */\n      add\n        /* \"#utility.yul\":27921:27951   */\n      mstore\n        /* \"#utility.yul\":27736:27958   */\n      pop\n      jump\t// out\n        /* \"#utility.yul\":27964:28330   */\n    tag_315:\n        /* \"#utility.yul\":28106:28109   */\n      0x00\n        /* \"#utility.yul\":28127:28194   */\n      tag_581\n        /* \"#utility.yul\":28191:28193   */\n      0x23\n        /* \"#utility.yul\":28186:28189   */\n      dup4\n        /* \"#utility.yul\":28127:28194   */\n      tag_260\n      jump\t// in\n    tag_581:\n        /* \"#utility.yul\":28120:28194   */\n      swap2\n      pop\n        /* \"#utility.yul\":28203:28296   */\n      tag_582\n        /* \"#utility.yul\":28292:28295   */\n      dup3\n        /* \"#utility.yul\":28203:28296   */\n      tag_314\n      jump\t// in\n    tag_582:\n        /* \"#utility.yul\":28321:28323   */\n      0x40\n        /* \"#utility.yul\":28316:28319   */\n      dup3\n        /* \"#utility.yul\":28312:28324   */\n      add\n        /* \"#utility.yul\":28305:28324   */\n      swap1\n      pop\n        /* \"#utility.yul\":27964:28330   */\n      swap2\n      swap1\n      pop\n      jump\t// out\n        /* \"#utility.yul\":28336:28755   */\n    tag_222:\n        /* \"#utility.yul\":28502:28506   */\n      0x00\n        /* \"#utility.yul\":28540:28542   */\n      0x20\n        /* \"#utility.yul\":28529:28538   */\n      dup3\n        /* \"#utility.yul\":28525:28543   */\n      add\n        /* \"#utility.yul\":28517:28543   */\n      swap1\n      pop\n        /* \"#utility.yul\":28589:28598   */\n      dup2\n        /* \"#utility.yul\":28583:28587   */\n      dup2\n        /* \"#utility.yul\":28579:28599   */\n      sub\n        /* \"#utility.yul\":28575:28576   */\n      0x00\n        /* \"#utility.yul\":28564:28573   */\n      dup4\n        /* \"#utility.yul\":28560:28577   */\n      add\n        /* \"#utility.yul\":28553:28600   */\n      mstore\n        /* \"#utility.yul\":28617:28748   */\n      tag_584\n        /* \"#utility.yul\":28743:28747   */\n      dup2\n        /* \"#utility.yul\":28617:28748   */\n      tag_315\n      jump\t// in\n    tag_584:\n        /* \"#utility.yul\":28609:28748   */\n      swap1\n      pop\n        /* \"#utility.yul\":28336:28755   */\n      swap2\n      swap1\n      pop\n      jump\t// out\n\n    auxdata: 0xa2646970667358221220bd19c291a036ea47cafd07461c31c2982f4dec09277432866cc14fec7575880a64736f6c634300081e0033\n}\n",
				"bytecode": {
					"linkReferences": {},
					"object": "6080604052348015600e575f5ffd5b50335f5f6101000a81548173ffffffffffffffffffffffffffffffffffffffff021916908373ffffffffffffffffffffffffffffffffffffffff1602179055506125588061005b5f395ff3fe608060405234801561000f575f5ffd5b50600436106100b2575f3560e01c80635e6fef011161006f5780635e6fef01146101b45780637c0e1dba146101e9578063997d2830146102055780639c98bcbb146102235780639f3a7f5214610255578063f851a44014610274576100b2565b80630a63c583146100b65780632ce35e11146100d25780632d81fa59146101035780633e39a7a51461011f5780634129b2c9146101505780634bd4644814610182575b5f5ffd5b6100d060048036038101906100cb9190611800565b610292565b005b6100ec60048036038101906100e7919061185a565b6104ed565b6040516100fa9291906118f4565b60405180910390f35b61011d60048036038101906101189190611922565b6105f3565b005b6101396004803603810190610134919061185a565b610908565b604051610147929190611b1a565b60405180910390f35b61016a6004803603810190610165919061185a565b610bb6565b60405161017993929190611b4f565b60405180910390f35b61019c60048036038101906101979190611922565b610d52565b6040516101ab93929190611b4f565b60405180910390f35b6101ce60048036038101906101c9919061185a565b610f18565b6040516101e096959493929190611ba5565b60405180910390f35b61020360048036038101906101fe9190611c0b565b610fe2565b005b61020d61113b565b60405161021a9190611c65565b60405180910390f35b61023d6004803603810190610238919061185a565b611141565b60405161024c93929190611b4f565b60405180910390f35b61025d61145a565b60405161026b929190611b1a565b60405180910390f35b61027c61165c565b6040516102899190611cbd565b60405180910390f35b3373ffffffffffffffffffffffffffffffffffffffff165f5f9054906101000a900473ffffffffffffffffffffffffffffffffffffffff1673ffffffffffffffffffffffffffffffffffffffff1614610320576040517f08c379a000000000000000000000000000000000000000000000000000000000815260040161031790611d46565b60405180910390fd5b81805f10801561033257506001548111155b610371576040517f08c379a000000000000000000000000000000000000000000000000000000000815260040161036890611dae565b60405180910390fd5b826001151560025f8381526020019081526020015f206001015f9054906101000a900460ff1615151480156103ba57504260025f8381526020019081526020015f206003015410155b6103f9576040517f08c379a00000000000000000000000000000000000000000000000000000000081526004016103f090611e3c565b60405180910390fd5b5f60025f8681526020019081526020015f2090505f816004015f815461041e90611e87565b919050819055905080826007015f8381526020019081526020015f206001018190555084826007015f8381526020019081526020015f205f01908161046391906120cb565b505f826007015f8381526020019081526020015f2060020181905550816007015f8281526020019081526020015f2060010154825f01547fed8911b3df733b7d5f75724158e54478ea12e30f49c9d31b5261879f5b76586f846007015f8581526020019081526020015f205f016040516104dd919061221b565b60405180910390a3505050505050565b60605f82805f10801561050257506001548111155b610541576040517f08c379a000000000000000000000000000000000000000000000000000000000815260040161053890611dae565b60405180910390fd5b5f60025f8681526020019081526020015f20905080600201816005015481805461056a90611efb565b80601f016020809104026020016040519081016040528092919081815260200182805461059690611efb565b80156105e15780601f106105b8576101008083540402835291602001916105e1565b820191905f5260205f20905b8154815290600101906020018083116105c457829003601f168201915b50505050509150935093505050915091565b81805f10801561060557506001548111155b610644576040517f08c379a000000000000000000000000000000000000000000000000000000000815260040161063b90611dae565b60405180910390fd5b826001151560025f8381526020019081526020015f206001015f9054906101000a900460ff16151514801561068d57504260025f8381526020019081526020015f206003015410155b6106cc576040517f08c379a00000000000000000000000000000000000000000000000000000000081526004016106c390611e3c565b60405180910390fd5b83835f811180156106f1575060025f8381526020019081526020015f20600401548111155b610730576040517f08c379a000000000000000000000000000000000000000000000000000000000815260040161072790612285565b60405180910390fd5b8560025f8281526020019081526020015f206006015f3373ffffffffffffffffffffffffffffffffffffffff1673ffffffffffffffffffffffffffffffffffffffff1681526020019081526020015f205f9054906101000a900460ff16156107cd576040517f08c379a00000000000000000000000000000000000000000000000000000000081526004016107c4906122ed565b60405180910390fd5b600160025f8981526020019081526020015f206006015f3373ffffffffffffffffffffffffffffffffffffffff1673ffffffffffffffffffffffffffffffffffffffff1681526020019081526020015f205f6101000a81548160ff02191690831515021790555060025f8881526020019081526020015f206007015f8781526020019081526020015f206002015f81548092919061086a90611e87565b919050555060025f8881526020019081526020015f206005015f81548092919061089390611e87565b919050555060025f8881526020019081526020015f206007015f8781526020019081526020015f206001015460025f8981526020019081526020015f205f01547fc31875ef3ed5138b71a0c1da7e494bc4d2ba4f567084ea481ec9c45f3a93948b60405160405180910390a350505050505050565b60608082805f10801561091d57506001548111155b61095c576040517f08c379a000000000000000000000000000000000000000000000000000000000815260040161095390611dae565b60405180910390fd5b5f60025f8681526020019081526020015f2060040154116109b2576040517f08c379a00000000000000000000000000000000000000000000000000000000081526004016109a99061237b565b60405180910390fd5b5f60025f8681526020019081526020015f206004015467ffffffffffffffff8111156109e1576109e06116dc565b5b604051908082528060200260200182016040528015610a0f5781602001602082028036833780820191505090505b5090505f60025f8781526020019081526020015f206004015467ffffffffffffffff811115610a4157610a406116dc565b5b604051908082528060200260200182016040528015610a7457816020015b6060815260200190600190039081610a5f5790505b5090505f5f90505b60025f8881526020019081526020015f2060040154811015610ba757600181610aa59190612399565b838281518110610ab857610ab76123cc565b5b60200260200101818152505060025f8881526020019081526020015f206007015f600183610ae69190612399565b81526020019081526020015f205f018054610b0090611efb565b80601f0160208091040260200160405190810160405280929190818152602001828054610b2c90611efb565b8015610b775780601f10610b4e57610100808354040283529160200191610b77565b820191905f5260205f20905b815481529060010190602001808311610b5a57829003601f168201915b5050505050828281518110610b8f57610b8e6123cc565b5b60200260200101819052508080600101915050610a7c565b50818194509450505050915091565b5f60605f83805f108015610bcc57506001548111155b610c0b576040517f08c379a0000000000000000000000000000000000000000000000000000000008152600401610c0290611dae565b60405180910390fd5b5f60025f8781526020019081526020015f2090505f5f905060605f5f90505f600190505b84600401548111610d3c5781856007015f8381526020019081526020015f20600201541115610d2957846007015f8281526020019081526020015f20600101549350846007015f8281526020019081526020015f205f018054610c9190611efb565b80601f0160208091040260200160405190810160405280929190818152602001828054610cbd90611efb565b8015610d085780601f10610cdf57610100808354040283529160200191610d08565b820191905f5260205f20905b815481529060010190602001808311610ceb57829003601f168201915b50505050509250846007015f8281526020019081526020015f206002015491505b8080610d3490611e87565b915050610c2f565b5082828297509750975050505050509193909250565b5f60605f84805f108015610d6857506001548111155b610da7576040517f08c379a0000000000000000000000000000000000000000000000000000000008152600401610d9e90611dae565b60405180910390fd5b85855f81118015610dcc575060025f8381526020019081526020015f20600401548111155b610e0b576040517f08c379a0000000000000000000000000000000000000000000000000000000008152600401610e0290612285565b60405180910390fd5b60025f8981526020019081526020015f206007015f8881526020019081526020015f206001015460025f8a81526020019081526020015f206007015f8981526020019081526020015f205f0160025f8b81526020019081526020015f206007015f8a81526020019081526020015f2060020154818054610e8a90611efb565b80601f0160208091040260200160405190810160405280929190818152602001828054610eb690611efb565b8015610f015780601f10610ed857610100808354040283529160200191610f01565b820191905f5260205f20905b815481529060010190602001808311610ee457829003601f168201915b505050505091509550955095505050509250925092565b6002602052805f5260405f205f91509050805f015490806001015f9054906101000a900460ff1690806002018054610f4f90611efb565b80601f0160208091040260200160405190810160405280929190818152602001828054610f7b90611efb565b8015610fc65780601f10610f9d57610100808354040283529160200191610fc6565b820191905f5260205f20905b815481529060010190602001808311610fa957829003601f168201915b5050505050908060030154908060040154908060050154905086565b3373ffffffffffffffffffffffffffffffffffffffff165f5f9054906101000a900473ffffffffffffffffffffffffffffffffffffffff1673ffffffffffffffffffffffffffffffffffffffff1614611070576040517f08c379a000000000000000000000000000000000000000000000000000000000815260040161106790611d46565b60405180910390fd5b60015f81548092919061108290611e87565b91905055505f60025f60015481526020019081526020015f209050828160020190816110ae91906120cb565b50600154815f01819055506001816001015f6101000a81548160ff02191690831515021790555081426110e19190612399565b81600301819055505f8160040181905550805f01547f43131521170c5b80ffe9526cfec987f5a24eb1f6c4bda47c41a5e4b8388afe5c82600201836003015460405161112e9291906123f9565b60405180910390a2505050565b60015481565b5f60605f3373ffffffffffffffffffffffffffffffffffffffff165f5f9054906101000a900473ffffffffffffffffffffffffffffffffffffffff1673ffffffffffffffffffffffffffffffffffffffff16146111d3576040517f08c379a00000000000000000000000000000000000000000000000000000000081526004016111ca90611d46565b60405180910390fd5b83805f1080156111e557506001548111155b611224576040517f08c379a000000000000000000000000000000000000000000000000000000000815260040161121b90611dae565b60405180910390fd5b846001151560025f8381526020019081526020015f206001015f9054906101000a900460ff16151514801561126d57504260025f8381526020019081526020015f206003015410155b6112ac576040517f08c379a00000000000000000000000000000000000000000000000000000000081526004016112a390611e3c565b60405180910390fd5b5f60025f8881526020019081526020015f2090505f816001015f6101000a81548160ff0219169083151502179055505f5f905060605f5f90505f600190505b846004015481116113f85781856007015f8381526020019081526020015f206002015411156113e557846007015f8281526020019081526020015f20600101549350846007015f8281526020019081526020015f205f01805461134d90611efb565b80601f016020809104026020016040519081016040528092919081815260200182805461137990611efb565b80156113c45780601f1061139b576101008083540402835291602001916113c4565b820191905f5260205f20905b8154815290600101906020018083116113a757829003601f168201915b50505050509250846007015f8281526020019081526020015f206002015491505b80806113f090611e87565b9150506112eb565b507f3b6c4d7e2cef081634247cfac8d389fcae0ae5780d888244df410080efa0bec3845f015485600201858585896005015460405161143c96959493929190612427565b60405180910390a18282829850985098505050505050509193909250565b6060805f600154116114a1576040517f08c379a000000000000000000000000000000000000000000000000000000000815260040161149890612504565b60405180910390fd5b5f60015467ffffffffffffffff8111156114be576114bd6116dc565b5b6040519080825280602002602001820160405280156114ec5781602001602082028036833780820191505090505b5090505f60015467ffffffffffffffff81111561150c5761150b6116dc565b5b60405190808252806020026020018201604052801561153f57816020015b606081526020019060019003908161152a5790505b5090505f5f90505b60015481101561164f5760018161155e9190612399565b838281518110611571576115706123cc565b5b60200260200101818152505060025f60018361158d9190612399565b81526020019081526020015f2060020180546115a890611efb565b80601f01602080910402602001604051908101604052809291908181526020018280546115d490611efb565b801561161f5780601f106115f65761010080835404028352916020019161161f565b820191905f5260205f20905b81548152906001019060200180831161160257829003601f168201915b5050505050828281518110611637576116366123cc565b5b60200260200101819052508080600101915050611547565b5081819350935050509091565b5f5f9054906101000a900473ffffffffffffffffffffffffffffffffffffffff1681565b5f604051905090565b5f5ffd5b5f5ffd5b5f819050919050565b6116a381611691565b81146116ad575f5ffd5b50565b5f813590506116be8161169a565b92915050565b5f5ffd5b5f5ffd5b5f601f19601f8301169050919050565b7f4e487b71000000000000000000000000000000000000000000000000000000005f52604160045260245ffd5b611712826116cc565b810181811067ffffffffffffffff82111715611731576117306116dc565b5b80604052505050565b5f611743611680565b905061174f8282611709565b919050565b5f67ffffffffffffffff82111561176e5761176d6116dc565b5b611777826116cc565b9050602081019050919050565b828183375f83830152505050565b5f6117a461179f84611754565b61173a565b9050828152602081018484840111156117c0576117bf6116c8565b5b6117cb848285611784565b509392505050565b5f82601f8301126117e7576117e66116c4565b5b81356117f7848260208601611792565b91505092915050565b5f5f6040838503121561181657611815611689565b5b5f611823858286016116b0565b925050602083013567ffffffffffffffff8111156118445761184361168d565b5b611850858286016117d3565b9150509250929050565b5f6020828403121561186f5761186e611689565b5b5f61187c848285016116b0565b91505092915050565b5f81519050919050565b5f82825260208201905092915050565b8281835e5f83830152505050565b5f6118b782611885565b6118c1818561188f565b93506118d181856020860161189f565b6118da816116cc565b840191505092915050565b6118ee81611691565b82525050565b5f6040820190508181035f83015261190c81856118ad565b905061191b60208301846118e5565b9392505050565b5f5f6040838503121561193857611937611689565b5b5f611945858286016116b0565b9250506020611956858286016116b0565b9150509250929050565b5f81519050919050565b5f82825260208201905092915050565b5f819050602082019050919050565b61199281611691565b82525050565b5f6119a38383611989565b60208301905092915050565b5f602082019050919050565b5f6119c582611960565b6119cf818561196a565b93506119da8361197a565b805f5b83811015611a0a5781516119f18882611998565b97506119fc836119af565b9250506001810190506119dd565b5085935050505092915050565b5f81519050919050565b5f82825260208201905092915050565b5f819050602082019050919050565b5f82825260208201905092915050565b5f611a5a82611885565b611a648185611a40565b9350611a7481856020860161189f565b611a7d816116cc565b840191505092915050565b5f611a938383611a50565b905092915050565b5f602082019050919050565b5f611ab182611a17565b611abb8185611a21565b935083602082028501611acd85611a31565b805f5b85811015611b085784840389528151611ae98582611a88565b9450611af483611a9b565b925060208a01995050600181019050611ad0565b50829750879550505050505092915050565b5f6040820190508181035f830152611b3281856119bb565b90508181036020830152611b468184611aa7565b90509392505050565b5f606082019050611b625f8301866118e5565b8181036020830152611b7481856118ad565b9050611b8360408301846118e5565b949350505050565b5f8115159050919050565b611b9f81611b8b565b82525050565b5f60c082019050611bb85f8301896118e5565b611bc56020830188611b96565b8181036040830152611bd781876118ad565b9050611be660608301866118e5565b611bf360808301856118e5565b611c0060a08301846118e5565b979650505050505050565b5f5f60408385031215611c2157611c20611689565b5b5f83013567ffffffffffffffff811115611c3e57611c3d61168d565b5b611c4a858286016117d3565b9250506020611c5b858286016116b0565b9150509250929050565b5f602082019050611c785f8301846118e5565b92915050565b5f73ffffffffffffffffffffffffffffffffffffffff82169050919050565b5f611ca782611c7e565b9050919050565b611cb781611c9d565b82525050565b5f602082019050611cd05f830184611cae565b92915050565b7f4f6e6c792061646d696e2063616e20706572666f726d20746869732066756e635f8201527f74696f6e00000000000000000000000000000000000000000000000000000000602082015250565b5f611d3060248361188f565b9150611d3b82611cd6565b604082019050919050565b5f6020820190508181035f830152611d5d81611d24565b9050919050565b7f456c656374696f6e206973206e6f7420457869737400000000000000000000005f82015250565b5f611d9860158361188f565b9150611da382611d64565b602082019050919050565b5f6020820190508181035f830152611dc581611d8c565b9050919050565b7f456c656374696f6e206973206e6f7420416374697665206f642074696d656f755f8201527f7400000000000000000000000000000000000000000000000000000000000000602082015250565b5f611e2660218361188f565b9150611e3182611dcc565b604082019050919050565b5f6020820190508181035f830152611e5381611e1a565b9050919050565b7f4e487b71000000000000000000000000000000000000000000000000000000005f52601160045260245ffd5b5f611e9182611691565b91507fffffffffffffffffffffffffffffffffffffffffffffffffffffffffffffffff8203611ec357611ec2611e5a565b5b600182019050919050565b7f4e487b71000000000000000000000000000000000000000000000000000000005f52602260045260245ffd5b5f6002820490506001821680611f1257607f821691505b602082108103611f2557611f24611ece565b5b50919050565b5f819050815f5260205f209050919050565b5f6020601f8301049050919050565b5f82821b905092915050565b5f60088302611f877fffffffffffffffffffffffffffffffffffffffffffffffffffffffffffffffff82611f4c565b611f918683611f4c565b95508019841693508086168417925050509392505050565b5f819050919050565b5f611fcc611fc7611fc284611691565b611fa9565b611691565b9050919050565b5f819050919050565b611fe583611fb2565b611ff9611ff182611fd3565b848454611f58565b825550505050565b5f5f905090565b612010612001565b61201b818484611fdc565b505050565b5b8181101561203e576120335f82612008565b600181019050612021565b5050565b601f8211156120835761205481611f2b565b61205d84611f3d565b8101602085101561206c578190505b61208061207885611f3d565b830182612020565b50505b505050565b5f82821c905092915050565b5f6120a35f1984600802612088565b1980831691505092915050565b5f6120bb8383612094565b9150826002028217905092915050565b6120d482611885565b67ffffffffffffffff8111156120ed576120ec6116dc565b5b6120f78254611efb565b612102828285612042565b5f60209050601f831160018114612133575f8415612121578287015190505b61212b85826120b0565b865550612192565b601f19841661214186611f2b565b5f5b8281101561216857848901518255600182019150602085019450602081019050612143565b868310156121855784890151612181601f891682612094565b8355505b6001600288020188555050505b505050505050565b5f81546121a681611efb565b6121b0818661188f565b9450600182165f81146121ca57600181146121e057612212565b60ff198316865281151560200286019350612212565b6121e985611f2b565b5f5b8381101561220a578154818901526001820191506020810190506121eb565b808801955050505b50505092915050565b5f6020820190508181035f830152612233818461219a565b905092915050565b7f43616e64696461746520496420697320696e76616c69640000000000000000005f82015250565b5f61226f60178361188f565b915061227a8261223b565b602082019050919050565b5f6020820190508181035f83015261229c81612263565b9050919050565b7f5468697320766f74657220616c726561647920676976652068697320766f74655f82015250565b5f6122d760208361188f565b91506122e2826122a3565b602082019050919050565b5f6020820190508181035f830152612304816122cb565b9050919050565b7f5468657265206973206e6f2063616e6469646174657320666f722074686973205f8201527f656c656374696f6e000000000000000000000000000000000000000000000000602082015250565b5f61236560288361188f565b91506123708261230b565b604082019050919050565b5f6020820190508181035f83015261239281612359565b9050919050565b5f6123a382611691565b91506123ae83611691565b92508282019050808211156123c6576123c5611e5a565b5b92915050565b7f4e487b71000000000000000000000000000000000000000000000000000000005f52603260045260245ffd5b5f6040820190508181035f830152612411818561219a565b905061242060208301846118e5565b9392505050565b5f60c08201905061243a5f8301896118e5565b818103602083015261244c818861219a565b905061245b60408301876118e5565b818103606083015261246d81866118ad565b905061247c60808301856118e5565b61248960a08301846118e5565b979650505050505050565b7f5468657265206973206e6f20656c656374696f6e2069732072756e6e696e67205f8201527f6e6f770000000000000000000000000000000000000000000000000000000000602082015250565b5f6124ee60238361188f565b91506124f982612494565b604082019050919050565b5f6020820190508181035f83015261251b816124e2565b905091905056fea2646970667358221220bd19c291a036ea47cafd07461c31c2982f4dec09277432866cc14fec7575880a64736f6c634300081e0033",
					"opcodes": "PUSH1 0x80 PUSH1 0x40 MSTORE CALLVALUE DUP1 ISZERO PUSH1 0xE JUMPI PUSH0 PUSH0 REVERT JUMPDEST POP CALLER PUSH0 PUSH0 PUSH2 0x100 EXP DUP2 SLOAD DUP2 PUSH20 0xFFFFFFFFFFFFFFFFFFFFFFFFFFFFFFFFFFFFFFFF MUL NOT AND SWAP1 DUP4 PUSH20 0xFFFFFFFFFFFFFFFFFFFFFFFFFFFFFFFFFFFFFFFF AND MUL OR SWAP1 SSTORE POP PUSH2 0x2558 DUP1 PUSH2 0x5B PUSH0 CODECOPY PUSH0 RETURN INVALID PUSH1 0x80 PUSH1 0x40 MSTORE CALLVALUE DUP1 ISZERO PUSH2 0xF JUMPI PUSH0 PUSH0 REVERT JUMPDEST POP PUSH1 0x4 CALLDATASIZE LT PUSH2 0xB2 JUMPI PUSH0 CALLDATALOAD PUSH1 0xE0 SHR DUP1 PUSH4 0x5E6FEF01 GT PUSH2 0x6F JUMPI DUP1 PUSH4 0x5E6FEF01 EQ PUSH2 0x1B4 JUMPI DUP1 PUSH4 0x7C0E1DBA EQ PUSH2 0x1E9 JUMPI DUP1 PUSH4 0x997D2830 EQ PUSH2 0x205 JUMPI DUP1 PUSH4 0x9C98BCBB EQ PUSH2 0x223 JUMPI DUP1 PUSH4 0x9F3A7F52 EQ PUSH2 0x255 JUMPI DUP1 PUSH4 0xF851A440 EQ PUSH2 0x274 JUMPI PUSH2 0xB2 JUMP JUMPDEST DUP1 PUSH4 0xA63C583 EQ PUSH2 0xB6 JUMPI DUP1 PUSH4 0x2CE35E11 EQ PUSH2 0xD2 JUMPI DUP1 PUSH4 0x2D81FA59 EQ PUSH2 0x103 JUMPI DUP1 PUSH4 0x3E39A7A5 EQ PUSH2 0x11F JUMPI DUP1 PUSH4 0x4129B2C9 EQ PUSH2 0x150 JUMPI DUP1 PUSH4 0x4BD46448 EQ PUSH2 0x182 JUMPI JUMPDEST PUSH0 PUSH0 REVERT JUMPDEST PUSH2 0xD0 PUSH1 0x4 DUP1 CALLDATASIZE SUB DUP2 ADD SWAP1 PUSH2 0xCB SWAP2 SWAP1 PUSH2 0x1800 JUMP JUMPDEST PUSH2 0x292 JUMP JUMPDEST STOP JUMPDEST PUSH2 0xEC PUSH1 0x4 DUP1 CALLDATASIZE SUB DUP2 ADD SWAP1 PUSH2 0xE7 SWAP2 SWAP1 PUSH2 0x185A JUMP JUMPDEST PUSH2 0x4ED JUMP JUMPDEST PUSH1 0x40 MLOAD PUSH2 0xFA SWAP3 SWAP2 SWAP1 PUSH2 0x18F4 JUMP JUMPDEST PUSH1 0x40 MLOAD DUP1 SWAP2 SUB SWAP1 RETURN JUMPDEST PUSH2 0x11D PUSH1 0x4 DUP1 CALLDATASIZE SUB DUP2 ADD SWAP1 PUSH2 0x118 SWAP2 SWAP1 PUSH2 0x1922 JUMP JUMPDEST PUSH2 0x5F3 JUMP JUMPDEST STOP JUMPDEST PUSH2 0x139 PUSH1 0x4 DUP1 CALLDATASIZE SUB DUP2 ADD SWAP1 PUSH2 0x134 SWAP2 SWAP1 PUSH2 0x185A JUMP JUMPDEST PUSH2 0x908 JUMP JUMPDEST PUSH1 0x40 MLOAD PUSH2 0x147 SWAP3 SWAP2 SWAP1 PUSH2 0x1B1A JUMP JUMPDEST PUSH1 0x40 MLOAD DUP1 SWAP2 SUB SWAP1 RETURN JUMPDEST PUSH2 0x16A PUSH1 0x4 DUP1 CALLDATASIZE SUB DUP2 ADD SWAP1 PUSH2 0x165 SWAP2 SWAP1 PUSH2 0x185A JUMP JUMPDEST PUSH2 0xBB6 JUMP JUMPDEST PUSH1 0x40 MLOAD PUSH2 0x179 SWAP4 SWAP3 SWAP2 SWAP1 PUSH2 0x1B4F JUMP JUMPDEST PUSH1 0x40 MLOAD DUP1 SWAP2 SUB SWAP1 RETURN JUMPDEST PUSH2 0x19C PUSH1 0x4 DUP1 CALLDATASIZE SUB DUP2 ADD SWAP1 PUSH2 0x197 SWAP2 SWAP1 PUSH2 0x1922 JUMP JUMPDEST PUSH2 0xD52 JUMP JUMPDEST PUSH1 0x40 MLOAD PUSH2 0x1AB SWAP4 SWAP3 SWAP2 SWAP1 PUSH2 0x1B4F JUMP JUMPDEST PUSH1 0x40 MLOAD DUP1 SWAP2 SUB SWAP1 RETURN JUMPDEST PUSH2 0x1CE PUSH1 0x4 DUP1 CALLDATASIZE SUB DUP2 ADD SWAP1 PUSH2 0x1C9 SWAP2 SWAP1 PUSH2 0x185A JUMP JUMPDEST PUSH2 0xF18 JUMP JUMPDEST PUSH1 0x40 MLOAD PUSH2 0x1E0 SWAP7 SWAP6 SWAP5 SWAP4 SWAP3 SWAP2 SWAP1 PUSH2 0x1BA5 JUMP JUMPDEST PUSH1 0x40 MLOAD DUP1 SWAP2 SUB SWAP1 RETURN JUMPDEST PUSH2 0x203 PUSH1 0x4 DUP1 CALLDATASIZE SUB DUP2 ADD SWAP1 PUSH2 0x1FE SWAP2 SWAP1 PUSH2 0x1C0B JUMP JUMPDEST PUSH2 0xFE2 JUMP JUMPDEST STOP JUMPDEST PUSH2 0x20D PUSH2 0x113B JUMP JUMPDEST PUSH1 0x40 MLOAD PUSH2 0x21A SWAP2 SWAP1 PUSH2 0x1C65 JUMP JUMPDEST PUSH1 0x40 MLOAD DUP1 SWAP2 SUB SWAP1 RETURN JUMPDEST PUSH2 0x23D PUSH1 0x4 DUP1 CALLDATASIZE SUB DUP2 ADD SWAP1 PUSH2 0x238 SWAP2 SWAP1 PUSH2 0x185A JUMP JUMPDEST PUSH2 0x1141 JUMP JUMPDEST PUSH1 0x40 MLOAD PUSH2 0x24C SWAP4 SWAP3 SWAP2 SWAP1 PUSH2 0x1B4F JUMP JUMPDEST PUSH1 0x40 MLOAD DUP1 SWAP2 SUB SWAP1 RETURN JUMPDEST PUSH2 0x25D PUSH2 0x145A JUMP JUMPDEST PUSH1 0x40 MLOAD PUSH2 0x26B SWAP3 SWAP2 SWAP1 PUSH2 0x1B1A JUMP JUMPDEST PUSH1 0x40 MLOAD DUP1 SWAP2 SUB SWAP1 RETURN JUMPDEST PUSH2 0x27C PUSH2 0x165C JUMP JUMPDEST PUSH1 0x40 MLOAD PUSH2 0x289 SWAP2 SWAP1 PUSH2 0x1CBD JUMP JUMPDEST PUSH1 0x40 MLOAD DUP1 SWAP2 SUB SWAP1 RETURN JUMPDEST CALLER PUSH20 0xFFFFFFFFFFFFFFFFFFFFFFFFFFFFFFFFFFFFFFFF AND PUSH0 PUSH0 SWAP1 SLOAD SWAP1 PUSH2 0x100 EXP SWAP1 DIV PUSH20 0xFFFFFFFFFFFFFFFFFFFFFFFFFFFFFFFFFFFFFFFF AND PUSH20 0xFFFFFFFFFFFFFFFFFFFFFFFFFFFFFFFFFFFFFFFF AND EQ PUSH2 0x320 JUMPI PUSH1 0x40 MLOAD PUSH32 0x8C379A000000000000000000000000000000000000000000000000000000000 DUP2 MSTORE PUSH1 0x4 ADD PUSH2 0x317 SWAP1 PUSH2 0x1D46 JUMP JUMPDEST PUSH1 0x40 MLOAD DUP1 SWAP2 SUB SWAP1 REVERT JUMPDEST DUP2 DUP1 PUSH0 LT DUP1 ISZERO PUSH2 0x332 JUMPI POP PUSH1 0x1 SLOAD DUP2 GT ISZERO JUMPDEST PUSH2 0x371 JUMPI PUSH1 0x40 MLOAD PUSH32 0x8C379A000000000000000000000000000000000000000000000000000000000 DUP2 MSTORE PUSH1 0x4 ADD PUSH2 0x368 SWAP1 PUSH2 0x1DAE JUMP JUMPDEST PUSH1 0x40 MLOAD DUP1 SWAP2 SUB SWAP1 REVERT JUMPDEST DUP3 PUSH1 0x1 ISZERO ISZERO PUSH1 0x2 PUSH0 DUP4 DUP2 MSTORE PUSH1 0x20 ADD SWAP1 DUP2 MSTORE PUSH1 0x20 ADD PUSH0 KECCAK256 PUSH1 0x1 ADD PUSH0 SWAP1 SLOAD SWAP1 PUSH2 0x100 EXP SWAP1 DIV PUSH1 0xFF AND ISZERO ISZERO EQ DUP1 ISZERO PUSH2 0x3BA JUMPI POP TIMESTAMP PUSH1 0x2 PUSH0 DUP4 DUP2 MSTORE PUSH1 0x20 ADD SWAP1 DUP2 MSTORE PUSH1 0x20 ADD PUSH0 KECCAK256 PUSH1 0x3 ADD SLOAD LT ISZERO JUMPDEST PUSH2 0x3F9 JUMPI PUSH1 0x40 MLOAD PUSH32 0x8C379A000000000000000000000000000000000000000000000000000000000 DUP2 MSTORE PUSH1 0x4 ADD PUSH2 0x3F0 SWAP1 PUSH2 0x1E3C JUMP JUMPDEST PUSH1 0x40 MLOAD DUP1 SWAP2 SUB SWAP1 REVERT JUMPDEST PUSH0 PUSH1 0x2 PUSH0 DUP7 DUP2 MSTORE PUSH1 0x20 ADD SWAP1 DUP2 MSTORE PUSH1 0x20 ADD PUSH0 KECCAK256 SWAP1 POP PUSH0 DUP2 PUSH1 0x4 ADD PUSH0 DUP2 SLOAD PUSH2 0x41E SWAP1 PUSH2 0x1E87 JUMP JUMPDEST SWAP2 SWAP1 POP DUP2 SWAP1 SSTORE SWAP1 POP DUP1 DUP3 PUSH1 0x7 ADD PUSH0 DUP4 DUP2 MSTORE PUSH1 0x20 ADD SWAP1 DUP2 MSTORE PUSH1 0x20 ADD PUSH0 KECCAK256 PUSH1 0x1 ADD DUP2 SWAP1 SSTORE POP DUP5 DUP3 PUSH1 0x7 ADD PUSH0 DUP4 DUP2 MSTORE PUSH1 0x20 ADD SWAP1 DUP2 MSTORE PUSH1 0x20 ADD PUSH0 KECCAK256 PUSH0 ADD SWAP1 DUP2 PUSH2 0x463 SWAP2 SWAP1 PUSH2 0x20CB JUMP JUMPDEST POP PUSH0 DUP3 PUSH1 0x7 ADD PUSH0 DUP4 DUP2 MSTORE PUSH1 0x20 ADD SWAP1 DUP2 MSTORE PUSH1 0x20 ADD PUSH0 KECCAK256 PUSH1 0x2 ADD DUP2 SWAP1 SSTORE POP DUP2 PUSH1 0x7 ADD PUSH0 DUP3 DUP2 MSTORE PUSH1 0x20 ADD SWAP1 DUP2 MSTORE PUSH1 0x20 ADD PUSH0 KECCAK256 PUSH1 0x1 ADD SLOAD DUP3 PUSH0 ADD SLOAD PUSH32 0xED8911B3DF733B7D5F75724158E54478EA12E30F49C9D31B5261879F5B76586F DUP5 PUSH1 0x7 ADD PUSH0 DUP6 DUP2 MSTORE PUSH1 0x20 ADD SWAP1 DUP2 MSTORE PUSH1 0x20 ADD PUSH0 KECCAK256 PUSH0 ADD PUSH1 0x40 MLOAD PUSH2 0x4DD SWAP2 SWAP1 PUSH2 0x221B JUMP JUMPDEST PUSH1 0x40 MLOAD DUP1 SWAP2 SUB SWAP1 LOG3 POP POP POP POP POP POP JUMP JUMPDEST PUSH1 0x60 PUSH0 DUP3 DUP1 PUSH0 LT DUP1 ISZERO PUSH2 0x502 JUMPI POP PUSH1 0x1 SLOAD DUP2 GT ISZERO JUMPDEST PUSH2 0x541 JUMPI PUSH1 0x40 MLOAD PUSH32 0x8C379A000000000000000000000000000000000000000000000000000000000 DUP2 MSTORE PUSH1 0x4 ADD PUSH2 0x538 SWAP1 PUSH2 0x1DAE JUMP JUMPDEST PUSH1 0x40 MLOAD DUP1 SWAP2 SUB SWAP1 REVERT JUMPDEST PUSH0 PUSH1 0x2 PUSH0 DUP7 DUP2 MSTORE PUSH1 0x20 ADD SWAP1 DUP2 MSTORE PUSH1 0x20 ADD PUSH0 KECCAK256 SWAP1 POP DUP1 PUSH1 0x2 ADD DUP2 PUSH1 0x5 ADD SLOAD DUP2 DUP1 SLOAD PUSH2 0x56A SWAP1 PUSH2 0x1EFB JUMP JUMPDEST DUP1 PUSH1 0x1F ADD PUSH1 0x20 DUP1 SWAP2 DIV MUL PUSH1 0x20 ADD PUSH1 0x40 MLOAD SWAP1 DUP2 ADD PUSH1 0x40 MSTORE DUP1 SWAP3 SWAP2 SWAP1 DUP2 DUP2 MSTORE PUSH1 0x20 ADD DUP3 DUP1 SLOAD PUSH2 0x596 SWAP1 PUSH2 0x1EFB JUMP JUMPDEST DUP1 ISZERO PUSH2 0x5E1 JUMPI DUP1 PUSH1 0x1F LT PUSH2 0x5B8 JUMPI PUSH2 0x100 DUP1 DUP4 SLOAD DIV MUL DUP4 MSTORE SWAP2 PUSH1 0x20 ADD SWAP2 PUSH2 0x5E1 JUMP JUMPDEST DUP3 ADD SWAP2 SWAP1 PUSH0 MSTORE PUSH1 0x20 PUSH0 KECCAK256 SWAP1 JUMPDEST DUP2 SLOAD DUP2 MSTORE SWAP1 PUSH1 0x1 ADD SWAP1 PUSH1 0x20 ADD DUP1 DUP4 GT PUSH2 0x5C4 JUMPI DUP3 SWAP1 SUB PUSH1 0x1F AND DUP3 ADD SWAP2 JUMPDEST POP POP POP POP POP SWAP2 POP SWAP4 POP SWAP4 POP POP POP SWAP2 POP SWAP2 JUMP JUMPDEST DUP2 DUP1 PUSH0 LT DUP1 ISZERO PUSH2 0x605 JUMPI POP PUSH1 0x1 SLOAD DUP2 GT ISZERO JUMPDEST PUSH2 0x644 JUMPI PUSH1 0x40 MLOAD PUSH32 0x8C379A000000000000000000000000000000000000000000000000000000000 DUP2 MSTORE PUSH1 0x4 ADD PUSH2 0x63B SWAP1 PUSH2 0x1DAE JUMP JUMPDEST PUSH1 0x40 MLOAD DUP1 SWAP2 SUB SWAP1 REVERT JUMPDEST DUP3 PUSH1 0x1 ISZERO ISZERO PUSH1 0x2 PUSH0 DUP4 DUP2 MSTORE PUSH1 0x20 ADD SWAP1 DUP2 MSTORE PUSH1 0x20 ADD PUSH0 KECCAK256 PUSH1 0x1 ADD PUSH0 SWAP1 SLOAD SWAP1 PUSH2 0x100 EXP SWAP1 DIV PUSH1 0xFF AND ISZERO ISZERO EQ DUP1 ISZERO PUSH2 0x68D JUMPI POP TIMESTAMP PUSH1 0x2 PUSH0 DUP4 DUP2 MSTORE PUSH1 0x20 ADD SWAP1 DUP2 MSTORE PUSH1 0x20 ADD PUSH0 KECCAK256 PUSH1 0x3 ADD SLOAD LT ISZERO JUMPDEST PUSH2 0x6CC JUMPI PUSH1 0x40 MLOAD PUSH32 0x8C379A000000000000000000000000000000000000000000000000000000000 DUP2 MSTORE PUSH1 0x4 ADD PUSH2 0x6C3 SWAP1 PUSH2 0x1E3C JUMP JUMPDEST PUSH1 0x40 MLOAD DUP1 SWAP2 SUB SWAP1 REVERT JUMPDEST DUP4 DUP4 PUSH0 DUP2 GT DUP1 ISZERO PUSH2 0x6F1 JUMPI POP PUSH1 0x2 PUSH0 DUP4 DUP2 MSTORE PUSH1 0x20 ADD SWAP1 DUP2 MSTORE PUSH1 0x20 ADD PUSH0 KECCAK256 PUSH1 0x4 ADD SLOAD DUP2 GT ISZERO JUMPDEST PUSH2 0x730 JUMPI PUSH1 0x40 MLOAD PUSH32 0x8C379A000000000000000000000000000000000000000000000000000000000 DUP2 MSTORE PUSH1 0x4 ADD PUSH2 0x727 SWAP1 PUSH2 0x2285 JUMP JUMPDEST PUSH1 0x40 MLOAD DUP1 SWAP2 SUB SWAP1 REVERT JUMPDEST DUP6 PUSH1 0x2 PUSH0 DUP3 DUP2 MSTORE PUSH1 0x20 ADD SWAP1 DUP2 MSTORE PUSH1 0x20 ADD PUSH0 KECCAK256 PUSH1 0x6 ADD PUSH0 CALLER PUSH20 0xFFFFFFFFFFFFFFFFFFFFFFFFFFFFFFFFFFFFFFFF AND PUSH20 0xFFFFFFFFFFFFFFFFFFFFFFFFFFFFFFFFFFFFFFFF AND DUP2 MSTORE PUSH1 0x20 ADD SWAP1 DUP2 MSTORE PUSH1 0x20 ADD PUSH0 KECCAK256 PUSH0 SWAP1 SLOAD SWAP1 PUSH2 0x100 EXP SWAP1 DIV PUSH1 0xFF AND ISZERO PUSH2 0x7CD JUMPI PUSH1 0x40 MLOAD PUSH32 0x8C379A000000000000000000000000000000000000000000000000000000000 DUP2 MSTORE PUSH1 0x4 ADD PUSH2 0x7C4 SWAP1 PUSH2 0x22ED JUMP JUMPDEST PUSH1 0x40 MLOAD DUP1 SWAP2 SUB SWAP1 REVERT JUMPDEST PUSH1 0x1 PUSH1 0x2 PUSH0 DUP10 DUP2 MSTORE PUSH1 0x20 ADD SWAP1 DUP2 MSTORE PUSH1 0x20 ADD PUSH0 KECCAK256 PUSH1 0x6 ADD PUSH0 CALLER PUSH20 0xFFFFFFFFFFFFFFFFFFFFFFFFFFFFFFFFFFFFFFFF AND PUSH20 0xFFFFFFFFFFFFFFFFFFFFFFFFFFFFFFFFFFFFFFFF AND DUP2 MSTORE PUSH1 0x20 ADD SWAP1 DUP2 MSTORE PUSH1 0x20 ADD PUSH0 KECCAK256 PUSH0 PUSH2 0x100 EXP DUP2 SLOAD DUP2 PUSH1 0xFF MUL NOT AND SWAP1 DUP4 ISZERO ISZERO MUL OR SWAP1 SSTORE POP PUSH1 0x2 PUSH0 DUP9 DUP2 MSTORE PUSH1 0x20 ADD SWAP1 DUP2 MSTORE PUSH1 0x20 ADD PUSH0 KECCAK256 PUSH1 0x7 ADD PUSH0 DUP8 DUP2 MSTORE PUSH1 0x20 ADD SWAP1 DUP2 MSTORE PUSH1 0x20 ADD PUSH0 KECCAK256 PUSH1 0x2 ADD PUSH0 DUP2 SLOAD DUP1 SWAP3 SWAP2 SWAP1 PUSH2 0x86A SWAP1 PUSH2 0x1E87 JUMP JUMPDEST SWAP2 SWAP1 POP SSTORE POP PUSH1 0x2 PUSH0 DUP9 DUP2 MSTORE PUSH1 0x20 ADD SWAP1 DUP2 MSTORE PUSH1 0x20 ADD PUSH0 KECCAK256 PUSH1 0x5 ADD PUSH0 DUP2 SLOAD DUP1 SWAP3 SWAP2 SWAP1 PUSH2 0x893 SWAP1 PUSH2 0x1E87 JUMP JUMPDEST SWAP2 SWAP1 POP SSTORE POP PUSH1 0x2 PUSH0 DUP9 DUP2 MSTORE PUSH1 0x20 ADD SWAP1 DUP2 MSTORE PUSH1 0x20 ADD PUSH0 KECCAK256 PUSH1 0x7 ADD PUSH0 DUP8 DUP2 MSTORE PUSH1 0x20 ADD SWAP1 DUP2 MSTORE PUSH1 0x20 ADD PUSH0 KECCAK256 PUSH1 0x1 ADD SLOAD PUSH1 0x2 PUSH0 DUP10 DUP2 MSTORE PUSH1 0x20 ADD SWAP1 DUP2 MSTORE PUSH1 0x20 ADD PUSH0 KECCAK256 PUSH0 ADD SLOAD PUSH32 0xC31875EF3ED5138B71A0C1DA7E494BC4D2BA4F567084EA481EC9C45F3A93948B PUSH1 0x40 MLOAD PUSH1 0x40 MLOAD DUP1 SWAP2 SUB SWAP1 LOG3 POP POP POP POP POP POP POP JUMP JUMPDEST PUSH1 0x60 DUP1 DUP3 DUP1 PUSH0 LT DUP1 ISZERO PUSH2 0x91D JUMPI POP PUSH1 0x1 SLOAD DUP2 GT ISZERO JUMPDEST PUSH2 0x95C JUMPI PUSH1 0x40 MLOAD PUSH32 0x8C379A000000000000000000000000000000000000000000000000000000000 DUP2 MSTORE PUSH1 0x4 ADD PUSH2 0x953 SWAP1 PUSH2 0x1DAE JUMP JUMPDEST PUSH1 0x40 MLOAD DUP1 SWAP2 SUB SWAP1 REVERT JUMPDEST PUSH0 PUSH1 0x2 PUSH0 DUP7 DUP2 MSTORE PUSH1 0x20 ADD SWAP1 DUP2 MSTORE PUSH1 0x20 ADD PUSH0 KECCAK256 PUSH1 0x4 ADD SLOAD GT PUSH2 0x9B2 JUMPI PUSH1 0x40 MLOAD PUSH32 0x8C379A000000000000000000000000000000000000000000000000000000000 DUP2 MSTORE PUSH1 0x4 ADD PUSH2 0x9A9 SWAP1 PUSH2 0x237B JUMP JUMPDEST PUSH1 0x40 MLOAD DUP1 SWAP2 SUB SWAP1 REVERT JUMPDEST PUSH0 PUSH1 0x2 PUSH0 DUP7 DUP2 MSTORE PUSH1 0x20 ADD SWAP1 DUP2 MSTORE PUSH1 0x20 ADD PUSH0 KECCAK256 PUSH1 0x4 ADD SLOAD PUSH8 0xFFFFFFFFFFFFFFFF DUP2 GT ISZERO PUSH2 0x9E1 JUMPI PUSH2 0x9E0 PUSH2 0x16DC JUMP JUMPDEST JUMPDEST PUSH1 0x40 MLOAD SWAP1 DUP1 DUP3 MSTORE DUP1 PUSH1 0x20 MUL PUSH1 0x20 ADD DUP3 ADD PUSH1 0x40 MSTORE DUP1 ISZERO PUSH2 0xA0F JUMPI DUP2 PUSH1 0x20 ADD PUSH1 0x20 DUP3 MUL DUP1 CALLDATASIZE DUP4 CALLDATACOPY DUP1 DUP3 ADD SWAP2 POP POP SWAP1 POP JUMPDEST POP SWAP1 POP PUSH0 PUSH1 0x2 PUSH0 DUP8 DUP2 MSTORE PUSH1 0x20 ADD SWAP1 DUP2 MSTORE PUSH1 0x20 ADD PUSH0 KECCAK256 PUSH1 0x4 ADD SLOAD PUSH8 0xFFFFFFFFFFFFFFFF DUP2 GT ISZERO PUSH2 0xA41 JUMPI PUSH2 0xA40 PUSH2 0x16DC JUMP JUMPDEST JUMPDEST PUSH1 0x40 MLOAD SWAP1 DUP1 DUP3 MSTORE DUP1 PUSH1 0x20 MUL PUSH1 0x20 ADD DUP3 ADD PUSH1 0x40 MSTORE DUP1 ISZERO PUSH2 0xA74 JUMPI DUP2 PUSH1 0x20 ADD JUMPDEST PUSH1 0x60 DUP2 MSTORE PUSH1 0x20 ADD SWAP1 PUSH1 0x1 SWAP1 SUB SWAP1 DUP2 PUSH2 0xA5F JUMPI SWAP1 POP JUMPDEST POP SWAP1 POP PUSH0 PUSH0 SWAP1 POP JUMPDEST PUSH1 0x2 PUSH0 DUP9 DUP2 MSTORE PUSH1 0x20 ADD SWAP1 DUP2 MSTORE PUSH1 0x20 ADD PUSH0 KECCAK256 PUSH1 0x4 ADD SLOAD DUP2 LT ISZERO PUSH2 0xBA7 JUMPI PUSH1 0x1 DUP2 PUSH2 0xAA5 SWAP2 SWAP1 PUSH2 0x2399 JUMP JUMPDEST DUP4 DUP3 DUP2 MLOAD DUP2 LT PUSH2 0xAB8 JUMPI PUSH2 0xAB7 PUSH2 0x23CC JUMP JUMPDEST JUMPDEST PUSH1 0x20 MUL PUSH1 0x20 ADD ADD DUP2 DUP2 MSTORE POP POP PUSH1 0x2 PUSH0 DUP9 DUP2 MSTORE PUSH1 0x20 ADD SWAP1 DUP2 MSTORE PUSH1 0x20 ADD PUSH0 KECCAK256 PUSH1 0x7 ADD PUSH0 PUSH1 0x1 DUP4 PUSH2 0xAE6 SWAP2 SWAP1 PUSH2 0x2399 JUMP JUMPDEST DUP2 MSTORE PUSH1 0x20 ADD SWAP1 DUP2 MSTORE PUSH1 0x20 ADD PUSH0 KECCAK256 PUSH0 ADD DUP1 SLOAD PUSH2 0xB00 SWAP1 PUSH2 0x1EFB JUMP JUMPDEST DUP1 PUSH1 0x1F ADD PUSH1 0x20 DUP1 SWAP2 DIV MUL PUSH1 0x20 ADD PUSH1 0x40 MLOAD SWAP1 DUP2 ADD PUSH1 0x40 MSTORE DUP1 SWAP3 SWAP2 SWAP1 DUP2 DUP2 MSTORE PUSH1 0x20 ADD DUP3 DUP1 SLOAD PUSH2 0xB2C SWAP1 PUSH2 0x1EFB JUMP JUMPDEST DUP1 ISZERO PUSH2 0xB77 JUMPI DUP1 PUSH1 0x1F LT PUSH2 0xB4E JUMPI PUSH2 0x100 DUP1 DUP4 SLOAD DIV MUL DUP4 MSTORE SWAP2 PUSH1 0x20 ADD SWAP2 PUSH2 0xB77 JUMP JUMPDEST DUP3 ADD SWAP2 SWAP1 PUSH0 MSTORE PUSH1 0x20 PUSH0 KECCAK256 SWAP1 JUMPDEST DUP2 SLOAD DUP2 MSTORE SWAP1 PUSH1 0x1 ADD SWAP1 PUSH1 0x20 ADD DUP1 DUP4 GT PUSH2 0xB5A JUMPI DUP3 SWAP1 SUB PUSH1 0x1F AND DUP3 ADD SWAP2 JUMPDEST POP POP POP POP POP DUP3 DUP3 DUP2 MLOAD DUP2 LT PUSH2 0xB8F JUMPI PUSH2 0xB8E PUSH2 0x23CC JUMP JUMPDEST JUMPDEST PUSH1 0x20 MUL PUSH1 0x20 ADD ADD DUP2 SWAP1 MSTORE POP DUP1 DUP1 PUSH1 0x1 ADD SWAP2 POP POP PUSH2 0xA7C JUMP JUMPDEST POP DUP2 DUP2 SWAP5 POP SWAP5 POP POP POP POP SWAP2 POP SWAP2 JUMP JUMPDEST PUSH0 PUSH1 0x60 PUSH0 DUP4 DUP1 PUSH0 LT DUP1 ISZERO PUSH2 0xBCC JUMPI POP PUSH1 0x1 SLOAD DUP2 GT ISZERO JUMPDEST PUSH2 0xC0B JUMPI PUSH1 0x40 MLOAD PUSH32 0x8C379A000000000000000000000000000000000000000000000000000000000 DUP2 MSTORE PUSH1 0x4 ADD PUSH2 0xC02 SWAP1 PUSH2 0x1DAE JUMP JUMPDEST PUSH1 0x40 MLOAD DUP1 SWAP2 SUB SWAP1 REVERT JUMPDEST PUSH0 PUSH1 0x2 PUSH0 DUP8 DUP2 MSTORE PUSH1 0x20 ADD SWAP1 DUP2 MSTORE PUSH1 0x20 ADD PUSH0 KECCAK256 SWAP1 POP PUSH0 PUSH0 SWAP1 POP PUSH1 0x60 PUSH0 PUSH0 SWAP1 POP PUSH0 PUSH1 0x1 SWAP1 POP JUMPDEST DUP5 PUSH1 0x4 ADD SLOAD DUP2 GT PUSH2 0xD3C JUMPI DUP2 DUP6 PUSH1 0x7 ADD PUSH0 DUP4 DUP2 MSTORE PUSH1 0x20 ADD SWAP1 DUP2 MSTORE PUSH1 0x20 ADD PUSH0 KECCAK256 PUSH1 0x2 ADD SLOAD GT ISZERO PUSH2 0xD29 JUMPI DUP5 PUSH1 0x7 ADD PUSH0 DUP3 DUP2 MSTORE PUSH1 0x20 ADD SWAP1 DUP2 MSTORE PUSH1 0x20 ADD PUSH0 KECCAK256 PUSH1 0x1 ADD SLOAD SWAP4 POP DUP5 PUSH1 0x7 ADD PUSH0 DUP3 DUP2 MSTORE PUSH1 0x20 ADD SWAP1 DUP2 MSTORE PUSH1 0x20 ADD PUSH0 KECCAK256 PUSH0 ADD DUP1 SLOAD PUSH2 0xC91 SWAP1 PUSH2 0x1EFB JUMP JUMPDEST DUP1 PUSH1 0x1F ADD PUSH1 0x20 DUP1 SWAP2 DIV MUL PUSH1 0x20 ADD PUSH1 0x40 MLOAD SWAP1 DUP2 ADD PUSH1 0x40 MSTORE DUP1 SWAP3 SWAP2 SWAP1 DUP2 DUP2 MSTORE PUSH1 0x20 ADD DUP3 DUP1 SLOAD PUSH2 0xCBD SWAP1 PUSH2 0x1EFB JUMP JUMPDEST DUP1 ISZERO PUSH2 0xD08 JUMPI DUP1 PUSH1 0x1F LT PUSH2 0xCDF JUMPI PUSH2 0x100 DUP1 DUP4 SLOAD DIV MUL DUP4 MSTORE SWAP2 PUSH1 0x20 ADD SWAP2 PUSH2 0xD08 JUMP JUMPDEST DUP3 ADD SWAP2 SWAP1 PUSH0 MSTORE PUSH1 0x20 PUSH0 KECCAK256 SWAP1 JUMPDEST DUP2 SLOAD DUP2 MSTORE SWAP1 PUSH1 0x1 ADD SWAP1 PUSH1 0x20 ADD DUP1 DUP4 GT PUSH2 0xCEB JUMPI DUP3 SWAP1 SUB PUSH1 0x1F AND DUP3 ADD SWAP2 JUMPDEST POP POP POP POP POP SWAP3 POP DUP5 PUSH1 0x7 ADD PUSH0 DUP3 DUP2 MSTORE PUSH1 0x20 ADD SWAP1 DUP2 MSTORE PUSH1 0x20 ADD PUSH0 KECCAK256 PUSH1 0x2 ADD SLOAD SWAP2 POP JUMPDEST DUP1 DUP1 PUSH2 0xD34 SWAP1 PUSH2 0x1E87 JUMP JUMPDEST SWAP2 POP POP PUSH2 0xC2F JUMP JUMPDEST POP DUP3 DUP3 DUP3 SWAP8 POP SWAP8 POP SWAP8 POP POP POP POP POP POP SWAP2 SWAP4 SWAP1 SWAP3 POP JUMP JUMPDEST PUSH0 PUSH1 0x60 PUSH0 DUP5 DUP1 PUSH0 LT DUP1 ISZERO PUSH2 0xD68 JUMPI POP PUSH1 0x1 SLOAD DUP2 GT ISZERO JUMPDEST PUSH2 0xDA7 JUMPI PUSH1 0x40 MLOAD PUSH32 0x8C379A000000000000000000000000000000000000000000000000000000000 DUP2 MSTORE PUSH1 0x4 ADD PUSH2 0xD9E SWAP1 PUSH2 0x1DAE JUMP JUMPDEST PUSH1 0x40 MLOAD DUP1 SWAP2 SUB SWAP1 REVERT JUMPDEST DUP6 DUP6 PUSH0 DUP2 GT DUP1 ISZERO PUSH2 0xDCC JUMPI POP PUSH1 0x2 PUSH0 DUP4 DUP2 MSTORE PUSH1 0x20 ADD SWAP1 DUP2 MSTORE PUSH1 0x20 ADD PUSH0 KECCAK256 PUSH1 0x4 ADD SLOAD DUP2 GT ISZERO JUMPDEST PUSH2 0xE0B JUMPI PUSH1 0x40 MLOAD PUSH32 0x8C379A000000000000000000000000000000000000000000000000000000000 DUP2 MSTORE PUSH1 0x4 ADD PUSH2 0xE02 SWAP1 PUSH2 0x2285 JUMP JUMPDEST PUSH1 0x40 MLOAD DUP1 SWAP2 SUB SWAP1 REVERT JUMPDEST PUSH1 0x2 PUSH0 DUP10 DUP2 MSTORE PUSH1 0x20 ADD SWAP1 DUP2 MSTORE PUSH1 0x20 ADD PUSH0 KECCAK256 PUSH1 0x7 ADD PUSH0 DUP9 DUP2 MSTORE PUSH1 0x20 ADD SWAP1 DUP2 MSTORE PUSH1 0x20 ADD PUSH0 KECCAK256 PUSH1 0x1 ADD SLOAD PUSH1 0x2 PUSH0 DUP11 DUP2 MSTORE PUSH1 0x20 ADD SWAP1 DUP2 MSTORE PUSH1 0x20 ADD PUSH0 KECCAK256 PUSH1 0x7 ADD PUSH0 DUP10 DUP2 MSTORE PUSH1 0x20 ADD SWAP1 DUP2 MSTORE PUSH1 0x20 ADD PUSH0 KECCAK256 PUSH0 ADD PUSH1 0x2 PUSH0 DUP12 DUP2 MSTORE PUSH1 0x20 ADD SWAP1 DUP2 MSTORE PUSH1 0x20 ADD PUSH0 KECCAK256 PUSH1 0x7 ADD PUSH0 DUP11 DUP2 MSTORE PUSH1 0x20 ADD SWAP1 DUP2 MSTORE PUSH1 0x20 ADD PUSH0 KECCAK256 PUSH1 0x2 ADD SLOAD DUP2 DUP1 SLOAD PUSH2 0xE8A SWAP1 PUSH2 0x1EFB JUMP JUMPDEST DUP1 PUSH1 0x1F ADD PUSH1 0x20 DUP1 SWAP2 DIV MUL PUSH1 0x20 ADD PUSH1 0x40 MLOAD SWAP1 DUP2 ADD PUSH1 0x40 MSTORE DUP1 SWAP3 SWAP2 SWAP1 DUP2 DUP2 MSTORE PUSH1 0x20 ADD DUP3 DUP1 SLOAD PUSH2 0xEB6 SWAP1 PUSH2 0x1EFB JUMP JUMPDEST DUP1 ISZERO PUSH2 0xF01 JUMPI DUP1 PUSH1 0x1F LT PUSH2 0xED8 JUMPI PUSH2 0x100 DUP1 DUP4 SLOAD DIV MUL DUP4 MSTORE SWAP2 PUSH1 0x20 ADD SWAP2 PUSH2 0xF01 JUMP JUMPDEST DUP3 ADD SWAP2 SWAP1 PUSH0 MSTORE PUSH1 0x20 PUSH0 KECCAK256 SWAP1 JUMPDEST DUP2 SLOAD DUP2 MSTORE SWAP1 PUSH1 0x1 ADD SWAP1 PUSH1 0x20 ADD DUP1 DUP4 GT PUSH2 0xEE4 JUMPI DUP3 SWAP1 SUB PUSH1 0x1F AND DUP3 ADD SWAP2 JUMPDEST POP POP POP POP POP SWAP2 POP SWAP6 POP SWAP6 POP SWAP6 POP POP POP POP SWAP3 POP SWAP3 POP SWAP3 JUMP JUMPDEST PUSH1 0x2 PUSH1 0x20 MSTORE DUP1 PUSH0 MSTORE PUSH1 0x40 PUSH0 KECCAK256 PUSH0 SWAP2 POP SWAP1 POP DUP1 PUSH0 ADD SLOAD SWAP1 DUP1 PUSH1 0x1 ADD PUSH0 SWAP1 SLOAD SWAP1 PUSH2 0x100 EXP SWAP1 DIV PUSH1 0xFF AND SWAP1 DUP1 PUSH1 0x2 ADD DUP1 SLOAD PUSH2 0xF4F SWAP1 PUSH2 0x1EFB JUMP JUMPDEST DUP1 PUSH1 0x1F ADD PUSH1 0x20 DUP1 SWAP2 DIV MUL PUSH1 0x20 ADD PUSH1 0x40 MLOAD SWAP1 DUP2 ADD PUSH1 0x40 MSTORE DUP1 SWAP3 SWAP2 SWAP1 DUP2 DUP2 MSTORE PUSH1 0x20 ADD DUP3 DUP1 SLOAD PUSH2 0xF7B SWAP1 PUSH2 0x1EFB JUMP JUMPDEST DUP1 ISZERO PUSH2 0xFC6 JUMPI DUP1 PUSH1 0x1F LT PUSH2 0xF9D JUMPI PUSH2 0x100 DUP1 DUP4 SLOAD DIV MUL DUP4 MSTORE SWAP2 PUSH1 0x20 ADD SWAP2 PUSH2 0xFC6 JUMP JUMPDEST DUP3 ADD SWAP2 SWAP1 PUSH0 MSTORE PUSH1 0x20 PUSH0 KECCAK256 SWAP1 JUMPDEST DUP2 SLOAD DUP2 MSTORE SWAP1 PUSH1 0x1 ADD SWAP1 PUSH1 0x20 ADD DUP1 DUP4 GT PUSH2 0xFA9 JUMPI DUP3 SWAP1 SUB PUSH1 0x1F AND DUP3 ADD SWAP2 JUMPDEST POP POP POP POP POP SWAP1 DUP1 PUSH1 0x3 ADD SLOAD SWAP1 DUP1 PUSH1 0x4 ADD SLOAD SWAP1 DUP1 PUSH1 0x5 ADD SLOAD SWAP1 POP DUP7 JUMP JUMPDEST CALLER PUSH20 0xFFFFFFFFFFFFFFFFFFFFFFFFFFFFFFFFFFFFFFFF AND PUSH0 PUSH0 SWAP1 SLOAD SWAP1 PUSH2 0x100 EXP SWAP1 DIV PUSH20 0xFFFFFFFFFFFFFFFFFFFFFFFFFFFFFFFFFFFFFFFF AND PUSH20 0xFFFFFFFFFFFFFFFFFFFFFFFFFFFFFFFFFFFFFFFF AND EQ PUSH2 0x1070 JUMPI PUSH1 0x40 MLOAD PUSH32 0x8C379A000000000000000000000000000000000000000000000000000000000 DUP2 MSTORE PUSH1 0x4 ADD PUSH2 0x1067 SWAP1 PUSH2 0x1D46 JUMP JUMPDEST PUSH1 0x40 MLOAD DUP1 SWAP2 SUB SWAP1 REVERT JUMPDEST PUSH1 0x1 PUSH0 DUP2 SLOAD DUP1 SWAP3 SWAP2 SWAP1 PUSH2 0x1082 SWAP1 PUSH2 0x1E87 JUMP JUMPDEST SWAP2 SWAP1 POP SSTORE POP PUSH0 PUSH1 0x2 PUSH0 PUSH1 0x1 SLOAD DUP2 MSTORE PUSH1 0x20 ADD SWAP1 DUP2 MSTORE PUSH1 0x20 ADD PUSH0 KECCAK256 SWAP1 POP DUP3 DUP2 PUSH1 0x2 ADD SWAP1 DUP2 PUSH2 0x10AE SWAP2 SWAP1 PUSH2 0x20CB JUMP JUMPDEST POP PUSH1 0x1 SLOAD DUP2 PUSH0 ADD DUP2 SWAP1 SSTORE POP PUSH1 0x1 DUP2 PUSH1 0x1 ADD PUSH0 PUSH2 0x100 EXP DUP2 SLOAD DUP2 PUSH1 0xFF MUL NOT AND SWAP1 DUP4 ISZERO ISZERO MUL OR SWAP1 SSTORE POP DUP2 TIMESTAMP PUSH2 0x10E1 SWAP2 SWAP1 PUSH2 0x2399 JUMP JUMPDEST DUP2 PUSH1 0x3 ADD DUP2 SWAP1 SSTORE POP PUSH0 DUP2 PUSH1 0x4 ADD DUP2 SWAP1 SSTORE POP DUP1 PUSH0 ADD SLOAD PUSH32 0x43131521170C5B80FFE9526CFEC987F5A24EB1F6C4BDA47C41A5E4B8388AFE5C DUP3 PUSH1 0x2 ADD DUP4 PUSH1 0x3 ADD SLOAD PUSH1 0x40 MLOAD PUSH2 0x112E SWAP3 SWAP2 SWAP1 PUSH2 0x23F9 JUMP JUMPDEST PUSH1 0x40 MLOAD DUP1 SWAP2 SUB SWAP1 LOG2 POP POP POP JUMP JUMPDEST PUSH1 0x1 SLOAD DUP2 JUMP JUMPDEST PUSH0 PUSH1 0x60 PUSH0 CALLER PUSH20 0xFFFFFFFFFFFFFFFFFFFFFFFFFFFFFFFFFFFFFFFF AND PUSH0 PUSH0 SWAP1 SLOAD SWAP1 PUSH2 0x100 EXP SWAP1 DIV PUSH20 0xFFFFFFFFFFFFFFFFFFFFFFFFFFFFFFFFFFFFFFFF AND PUSH20 0xFFFFFFFFFFFFFFFFFFFFFFFFFFFFFFFFFFFFFFFF AND EQ PUSH2 0x11D3 JUMPI PUSH1 0x40 MLOAD PUSH32 0x8C379A000000000000000000000000000000000000000000000000000000000 DUP2 MSTORE PUSH1 0x4 ADD PUSH2 0x11CA SWAP1 PUSH2 0x1D46 JUMP JUMPDEST PUSH1 0x40 MLOAD DUP1 SWAP2 SUB SWAP1 REVERT JUMPDEST DUP4 DUP1 PUSH0 LT DUP1 ISZERO PUSH2 0x11E5 JUMPI POP PUSH1 0x1 SLOAD DUP2 GT ISZERO JUMPDEST PUSH2 0x1224 JUMPI PUSH1 0x40 MLOAD PUSH32 0x8C379A000000000000000000000000000000000000000000000000000000000 DUP2 MSTORE PUSH1 0x4 ADD PUSH2 0x121B SWAP1 PUSH2 0x1DAE JUMP JUMPDEST PUSH1 0x40 MLOAD DUP1 SWAP2 SUB SWAP1 REVERT JUMPDEST DUP5 PUSH1 0x1 ISZERO ISZERO PUSH1 0x2 PUSH0 DUP4 DUP2 MSTORE PUSH1 0x20 ADD SWAP1 DUP2 MSTORE PUSH1 0x20 ADD PUSH0 KECCAK256 PUSH1 0x1 ADD PUSH0 SWAP1 SLOAD SWAP1 PUSH2 0x100 EXP SWAP1 DIV PUSH1 0xFF AND ISZERO ISZERO EQ DUP1 ISZERO PUSH2 0x126D JUMPI POP TIMESTAMP PUSH1 0x2 PUSH0 DUP4 DUP2 MSTORE PUSH1 0x20 ADD SWAP1 DUP2 MSTORE PUSH1 0x20 ADD PUSH0 KECCAK256 PUSH1 0x3 ADD SLOAD LT ISZERO JUMPDEST PUSH2 0x12AC JUMPI PUSH1 0x40 MLOAD PUSH32 0x8C379A000000000000000000000000000000000000000000000000000000000 DUP2 MSTORE PUSH1 0x4 ADD PUSH2 0x12A3 SWAP1 PUSH2 0x1E3C JUMP JUMPDEST PUSH1 0x40 MLOAD DUP1 SWAP2 SUB SWAP1 REVERT JUMPDEST PUSH0 PUSH1 0x2 PUSH0 DUP9 DUP2 MSTORE PUSH1 0x20 ADD SWAP1 DUP2 MSTORE PUSH1 0x20 ADD PUSH0 KECCAK256 SWAP1 POP PUSH0 DUP2 PUSH1 0x1 ADD PUSH0 PUSH2 0x100 EXP DUP2 SLOAD DUP2 PUSH1 0xFF MUL NOT AND SWAP1 DUP4 ISZERO ISZERO MUL OR SWAP1 SSTORE POP PUSH0 PUSH0 SWAP1 POP PUSH1 0x60 PUSH0 PUSH0 SWAP1 POP PUSH0 PUSH1 0x1 SWAP1 POP JUMPDEST DUP5 PUSH1 0x4 ADD SLOAD DUP2 GT PUSH2 0x13F8 JUMPI DUP2 DUP6 PUSH1 0x7 ADD PUSH0 DUP4 DUP2 MSTORE PUSH1 0x20 ADD SWAP1 DUP2 MSTORE PUSH1 0x20 ADD PUSH0 KECCAK256 PUSH1 0x2 ADD SLOAD GT ISZERO PUSH2 0x13E5 JUMPI DUP5 PUSH1 0x7 ADD PUSH0 DUP3 DUP2 MSTORE PUSH1 0x20 ADD SWAP1 DUP2 MSTORE PUSH1 0x20 ADD PUSH0 KECCAK256 PUSH1 0x1 ADD SLOAD SWAP4 POP DUP5 PUSH1 0x7 ADD PUSH0 DUP3 DUP2 MSTORE PUSH1 0x20 ADD SWAP1 DUP2 MSTORE PUSH1 0x20 ADD PUSH0 KECCAK256 PUSH0 ADD DUP1 SLOAD PUSH2 0x134D SWAP1 PUSH2 0x1EFB JUMP JUMPDEST DUP1 PUSH1 0x1F ADD PUSH1 0x20 DUP1 SWAP2 DIV MUL PUSH1 0x20 ADD PUSH1 0x40 MLOAD SWAP1 DUP2 ADD PUSH1 0x40 MSTORE DUP1 SWAP3 SWAP2 SWAP1 DUP2 DUP2 MSTORE PUSH1 0x20 ADD DUP3 DUP1 SLOAD PUSH2 0x1379 SWAP1 PUSH2 0x1EFB JUMP JUMPDEST DUP1 ISZERO PUSH2 0x13C4 JUMPI DUP1 PUSH1 0x1F LT PUSH2 0x139B JUMPI PUSH2 0x100 DUP1 DUP4 SLOAD DIV MUL DUP4 MSTORE SWAP2 PUSH1 0x20 ADD SWAP2 PUSH2 0x13C4 JUMP JUMPDEST DUP3 ADD SWAP2 SWAP1 PUSH0 MSTORE PUSH1 0x20 PUSH0 KECCAK256 SWAP1 JUMPDEST DUP2 SLOAD DUP2 MSTORE SWAP1 PUSH1 0x1 ADD SWAP1 PUSH1 0x20 ADD DUP1 DUP4 GT PUSH2 0x13A7 JUMPI DUP3 SWAP1 SUB PUSH1 0x1F AND DUP3 ADD SWAP2 JUMPDEST POP POP POP POP POP SWAP3 POP DUP5 PUSH1 0x7 ADD PUSH0 DUP3 DUP2 MSTORE PUSH1 0x20 ADD SWAP1 DUP2 MSTORE PUSH1 0x20 ADD PUSH0 KECCAK256 PUSH1 0x2 ADD SLOAD SWAP2 POP JUMPDEST DUP1 DUP1 PUSH2 0x13F0 SWAP1 PUSH2 0x1E87 JUMP JUMPDEST SWAP2 POP POP PUSH2 0x12EB JUMP JUMPDEST POP PUSH32 0x3B6C4D7E2CEF081634247CFAC8D389FCAE0AE5780D888244DF410080EFA0BEC3 DUP5 PUSH0 ADD SLOAD DUP6 PUSH1 0x2 ADD DUP6 DUP6 DUP6 DUP10 PUSH1 0x5 ADD SLOAD PUSH1 0x40 MLOAD PUSH2 0x143C SWAP7 SWAP6 SWAP5 SWAP4 SWAP3 SWAP2 SWAP1 PUSH2 0x2427 JUMP JUMPDEST PUSH1 0x40 MLOAD DUP1 SWAP2 SUB SWAP1 LOG1 DUP3 DUP3 DUP3 SWAP9 POP SWAP9 POP SWAP9 POP POP POP POP POP POP POP SWAP2 SWAP4 SWAP1 SWAP3 POP JUMP JUMPDEST PUSH1 0x60 DUP1 PUSH0 PUSH1 0x1 SLOAD GT PUSH2 0x14A1 JUMPI PUSH1 0x40 MLOAD PUSH32 0x8C379A000000000000000000000000000000000000000000000000000000000 DUP2 MSTORE PUSH1 0x4 ADD PUSH2 0x1498 SWAP1 PUSH2 0x2504 JUMP JUMPDEST PUSH1 0x40 MLOAD DUP1 SWAP2 SUB SWAP1 REVERT JUMPDEST PUSH0 PUSH1 0x1 SLOAD PUSH8 0xFFFFFFFFFFFFFFFF DUP2 GT ISZERO PUSH2 0x14BE JUMPI PUSH2 0x14BD PUSH2 0x16DC JUMP JUMPDEST JUMPDEST PUSH1 0x40 MLOAD SWAP1 DUP1 DUP3 MSTORE DUP1 PUSH1 0x20 MUL PUSH1 0x20 ADD DUP3 ADD PUSH1 0x40 MSTORE DUP1 ISZERO PUSH2 0x14EC JUMPI DUP2 PUSH1 0x20 ADD PUSH1 0x20 DUP3 MUL DUP1 CALLDATASIZE DUP4 CALLDATACOPY DUP1 DUP3 ADD SWAP2 POP POP SWAP1 POP JUMPDEST POP SWAP1 POP PUSH0 PUSH1 0x1 SLOAD PUSH8 0xFFFFFFFFFFFFFFFF DUP2 GT ISZERO PUSH2 0x150C JUMPI PUSH2 0x150B PUSH2 0x16DC JUMP JUMPDEST JUMPDEST PUSH1 0x40 MLOAD SWAP1 DUP1 DUP3 MSTORE DUP1 PUSH1 0x20 MUL PUSH1 0x20 ADD DUP3 ADD PUSH1 0x40 MSTORE DUP1 ISZERO PUSH2 0x153F JUMPI DUP2 PUSH1 0x20 ADD JUMPDEST PUSH1 0x60 DUP2 MSTORE PUSH1 0x20 ADD SWAP1 PUSH1 0x1 SWAP1 SUB SWAP1 DUP2 PUSH2 0x152A JUMPI SWAP1 POP JUMPDEST POP SWAP1 POP PUSH0 PUSH0 SWAP1 POP JUMPDEST PUSH1 0x1 SLOAD DUP2 LT ISZERO PUSH2 0x164F JUMPI PUSH1 0x1 DUP2 PUSH2 0x155E SWAP2 SWAP1 PUSH2 0x2399 JUMP JUMPDEST DUP4 DUP3 DUP2 MLOAD DUP2 LT PUSH2 0x1571 JUMPI PUSH2 0x1570 PUSH2 0x23CC JUMP JUMPDEST JUMPDEST PUSH1 0x20 MUL PUSH1 0x20 ADD ADD DUP2 DUP2 MSTORE POP POP PUSH1 0x2 PUSH0 PUSH1 0x1 DUP4 PUSH2 0x158D SWAP2 SWAP1 PUSH2 0x2399 JUMP JUMPDEST DUP2 MSTORE PUSH1 0x20 ADD SWAP1 DUP2 MSTORE PUSH1 0x20 ADD PUSH0 KECCAK256 PUSH1 0x2 ADD DUP1 SLOAD PUSH2 0x15A8 SWAP1 PUSH2 0x1EFB JUMP JUMPDEST DUP1 PUSH1 0x1F ADD PUSH1 0x20 DUP1 SWAP2 DIV MUL PUSH1 0x20 ADD PUSH1 0x40 MLOAD SWAP1 DUP2 ADD PUSH1 0x40 MSTORE DUP1 SWAP3 SWAP2 SWAP1 DUP2 DUP2 MSTORE PUSH1 0x20 ADD DUP3 DUP1 SLOAD PUSH2 0x15D4 SWAP1 PUSH2 0x1EFB JUMP JUMPDEST DUP1 ISZERO PUSH2 0x161F JUMPI DUP1 PUSH1 0x1F LT PUSH2 0x15F6 JUMPI PUSH2 0x100 DUP1 DUP4 SLOAD DIV MUL DUP4 MSTORE SWAP2 PUSH1 0x20 ADD SWAP2 PUSH2 0x161F JUMP JUMPDEST DUP3 ADD SWAP2 SWAP1 PUSH0 MSTORE PUSH1 0x20 PUSH0 KECCAK256 SWAP1 JUMPDEST DUP2 SLOAD DUP2 MSTORE SWAP1 PUSH1 0x1 ADD SWAP1 PUSH1 0x20 ADD DUP1 DUP4 GT PUSH2 0x1602 JUMPI DUP3 SWAP1 SUB PUSH1 0x1F AND DUP3 ADD SWAP2 JUMPDEST POP POP POP POP POP DUP3 DUP3 DUP2 MLOAD DUP2 LT PUSH2 0x1637 JUMPI PUSH2 0x1636 PUSH2 0x23CC JUMP JUMPDEST JUMPDEST PUSH1 0x20 MUL PUSH1 0x20 ADD ADD DUP2 SWAP1 MSTORE POP DUP1 DUP1 PUSH1 0x1 ADD SWAP2 POP POP PUSH2 0x1547 JUMP JUMPDEST POP DUP2 DUP2 SWAP4 POP SWAP4 POP POP POP SWAP1 SWAP2 JUMP JUMPDEST PUSH0 PUSH0 SWAP1 SLOAD SWAP1 PUSH2 0x100 EXP SWAP1 DIV PUSH20 0xFFFFFFFFFFFFFFFFFFFFFFFFFFFFFFFFFFFFFFFF AND DUP2 JUMP JUMPDEST PUSH0 PUSH1 0x40 MLOAD SWAP1 POP SWAP1 JUMP JUMPDEST PUSH0 PUSH0 REVERT JUMPDEST PUSH0 PUSH0 REVERT JUMPDEST PUSH0 DUP2 SWAP1 POP SWAP2 SWAP1 POP JUMP JUMPDEST PUSH2 0x16A3 DUP2 PUSH2 0x1691 JUMP JUMPDEST DUP2 EQ PUSH2 0x16AD JUMPI PUSH0 PUSH0 REVERT JUMPDEST POP JUMP JUMPDEST PUSH0 DUP2 CALLDATALOAD SWAP1 POP PUSH2 0x16BE DUP2 PUSH2 0x169A JUMP JUMPDEST SWAP3 SWAP2 POP POP JUMP JUMPDEST PUSH0 PUSH0 REVERT JUMPDEST PUSH0 PUSH0 REVERT JUMPDEST PUSH0 PUSH1 0x1F NOT PUSH1 0x1F DUP4 ADD AND SWAP1 POP SWAP2 SWAP1 POP JUMP JUMPDEST PUSH32 0x4E487B7100000000000000000000000000000000000000000000000000000000 PUSH0 MSTORE PUSH1 0x41 PUSH1 0x4 MSTORE PUSH1 0x24 PUSH0 REVERT JUMPDEST PUSH2 0x1712 DUP3 PUSH2 0x16CC JUMP JUMPDEST DUP2 ADD DUP2 DUP2 LT PUSH8 0xFFFFFFFFFFFFFFFF DUP3 GT OR ISZERO PUSH2 0x1731 JUMPI PUSH2 0x1730 PUSH2 0x16DC JUMP JUMPDEST JUMPDEST DUP1 PUSH1 0x40 MSTORE POP POP POP JUMP JUMPDEST PUSH0 PUSH2 0x1743 PUSH2 0x1680 JUMP JUMPDEST SWAP1 POP PUSH2 0x174F DUP3 DUP3 PUSH2 0x1709 JUMP JUMPDEST SWAP2 SWAP1 POP JUMP JUMPDEST PUSH0 PUSH8 0xFFFFFFFFFFFFFFFF DUP3 GT ISZERO PUSH2 0x176E JUMPI PUSH2 0x176D PUSH2 0x16DC JUMP JUMPDEST JUMPDEST PUSH2 0x1777 DUP3 PUSH2 0x16CC JUMP JUMPDEST SWAP1 POP PUSH1 0x20 DUP2 ADD SWAP1 POP SWAP2 SWAP1 POP JUMP JUMPDEST DUP3 DUP2 DUP4 CALLDATACOPY PUSH0 DUP4 DUP4 ADD MSTORE POP POP POP JUMP JUMPDEST PUSH0 PUSH2 0x17A4 PUSH2 0x179F DUP5 PUSH2 0x1754 JUMP JUMPDEST PUSH2 0x173A JUMP JUMPDEST SWAP1 POP DUP3 DUP2 MSTORE PUSH1 0x20 DUP2 ADD DUP5 DUP5 DUP5 ADD GT ISZERO PUSH2 0x17C0 JUMPI PUSH2 0x17BF PUSH2 0x16C8 JUMP JUMPDEST JUMPDEST PUSH2 0x17CB DUP5 DUP3 DUP6 PUSH2 0x1784 JUMP JUMPDEST POP SWAP4 SWAP3 POP POP POP JUMP JUMPDEST PUSH0 DUP3 PUSH1 0x1F DUP4 ADD SLT PUSH2 0x17E7 JUMPI PUSH2 0x17E6 PUSH2 0x16C4 JUMP JUMPDEST JUMPDEST DUP2 CALLDATALOAD PUSH2 0x17F7 DUP5 DUP3 PUSH1 0x20 DUP7 ADD PUSH2 0x1792 JUMP JUMPDEST SWAP2 POP POP SWAP3 SWAP2 POP POP JUMP JUMPDEST PUSH0 PUSH0 PUSH1 0x40 DUP4 DUP6 SUB SLT ISZERO PUSH2 0x1816 JUMPI PUSH2 0x1815 PUSH2 0x1689 JUMP JUMPDEST JUMPDEST PUSH0 PUSH2 0x1823 DUP6 DUP3 DUP7 ADD PUSH2 0x16B0 JUMP JUMPDEST SWAP3 POP POP PUSH1 0x20 DUP4 ADD CALLDATALOAD PUSH8 0xFFFFFFFFFFFFFFFF DUP2 GT ISZERO PUSH2 0x1844 JUMPI PUSH2 0x1843 PUSH2 0x168D JUMP JUMPDEST JUMPDEST PUSH2 0x1850 DUP6 DUP3 DUP7 ADD PUSH2 0x17D3 JUMP JUMPDEST SWAP2 POP POP SWAP3 POP SWAP3 SWAP1 POP JUMP JUMPDEST PUSH0 PUSH1 0x20 DUP3 DUP5 SUB SLT ISZERO PUSH2 0x186F JUMPI PUSH2 0x186E PUSH2 0x1689 JUMP JUMPDEST JUMPDEST PUSH0 PUSH2 0x187C DUP5 DUP3 DUP6 ADD PUSH2 0x16B0 JUMP JUMPDEST SWAP2 POP POP SWAP3 SWAP2 POP POP JUMP JUMPDEST PUSH0 DUP2 MLOAD SWAP1 POP SWAP2 SWAP1 POP JUMP JUMPDEST PUSH0 DUP3 DUP3 MSTORE PUSH1 0x20 DUP3 ADD SWAP1 POP SWAP3 SWAP2 POP POP JUMP JUMPDEST DUP3 DUP2 DUP4 MCOPY PUSH0 DUP4 DUP4 ADD MSTORE POP POP POP JUMP JUMPDEST PUSH0 PUSH2 0x18B7 DUP3 PUSH2 0x1885 JUMP JUMPDEST PUSH2 0x18C1 DUP2 DUP6 PUSH2 0x188F JUMP JUMPDEST SWAP4 POP PUSH2 0x18D1 DUP2 DUP6 PUSH1 0x20 DUP7 ADD PUSH2 0x189F JUMP JUMPDEST PUSH2 0x18DA DUP2 PUSH2 0x16CC JUMP JUMPDEST DUP5 ADD SWAP2 POP POP SWAP3 SWAP2 POP POP JUMP JUMPDEST PUSH2 0x18EE DUP2 PUSH2 0x1691 JUMP JUMPDEST DUP3 MSTORE POP POP JUMP JUMPDEST PUSH0 PUSH1 0x40 DUP3 ADD SWAP1 POP DUP2 DUP2 SUB PUSH0 DUP4 ADD MSTORE PUSH2 0x190C DUP2 DUP6 PUSH2 0x18AD JUMP JUMPDEST SWAP1 POP PUSH2 0x191B PUSH1 0x20 DUP4 ADD DUP5 PUSH2 0x18E5 JUMP JUMPDEST SWAP4 SWAP3 POP POP POP JUMP JUMPDEST PUSH0 PUSH0 PUSH1 0x40 DUP4 DUP6 SUB SLT ISZERO PUSH2 0x1938 JUMPI PUSH2 0x1937 PUSH2 0x1689 JUMP JUMPDEST JUMPDEST PUSH0 PUSH2 0x1945 DUP6 DUP3 DUP7 ADD PUSH2 0x16B0 JUMP JUMPDEST SWAP3 POP POP PUSH1 0x20 PUSH2 0x1956 DUP6 DUP3 DUP7 ADD PUSH2 0x16B0 JUMP JUMPDEST SWAP2 POP POP SWAP3 POP SWAP3 SWAP1 POP JUMP JUMPDEST PUSH0 DUP2 MLOAD SWAP1 POP SWAP2 SWAP1 POP JUMP JUMPDEST PUSH0 DUP3 DUP3 MSTORE PUSH1 0x20 DUP3 ADD SWAP1 POP SWAP3 SWAP2 POP POP JUMP JUMPDEST PUSH0 DUP2 SWAP1 POP PUSH1 0x20 DUP3 ADD SWAP1 POP SWAP2 SWAP1 POP JUMP JUMPDEST PUSH2 0x1992 DUP2 PUSH2 0x1691 JUMP JUMPDEST DUP3 MSTORE POP POP JUMP JUMPDEST PUSH0 PUSH2 0x19A3 DUP4 DUP4 PUSH2 0x1989 JUMP JUMPDEST PUSH1 0x20 DUP4 ADD SWAP1 POP SWAP3 SWAP2 POP POP JUMP JUMPDEST PUSH0 PUSH1 0x20 DUP3 ADD SWAP1 POP SWAP2 SWAP1 POP JUMP JUMPDEST PUSH0 PUSH2 0x19C5 DUP3 PUSH2 0x1960 JUMP JUMPDEST PUSH2 0x19CF DUP2 DUP6 PUSH2 0x196A JUMP JUMPDEST SWAP4 POP PUSH2 0x19DA DUP4 PUSH2 0x197A JUMP JUMPDEST DUP1 PUSH0 JUMPDEST DUP4 DUP2 LT ISZERO PUSH2 0x1A0A JUMPI DUP2 MLOAD PUSH2 0x19F1 DUP9 DUP3 PUSH2 0x1998 JUMP JUMPDEST SWAP8 POP PUSH2 0x19FC DUP4 PUSH2 0x19AF JUMP JUMPDEST SWAP3 POP POP PUSH1 0x1 DUP2 ADD SWAP1 POP PUSH2 0x19DD JUMP JUMPDEST POP DUP6 SWAP4 POP POP POP POP SWAP3 SWAP2 POP POP JUMP JUMPDEST PUSH0 DUP2 MLOAD SWAP1 POP SWAP2 SWAP1 POP JUMP JUMPDEST PUSH0 DUP3 DUP3 MSTORE PUSH1 0x20 DUP3 ADD SWAP1 POP SWAP3 SWAP2 POP POP JUMP JUMPDEST PUSH0 DUP2 SWAP1 POP PUSH1 0x20 DUP3 ADD SWAP1 POP SWAP2 SWAP1 POP JUMP JUMPDEST PUSH0 DUP3 DUP3 MSTORE PUSH1 0x20 DUP3 ADD SWAP1 POP SWAP3 SWAP2 POP POP JUMP JUMPDEST PUSH0 PUSH2 0x1A5A DUP3 PUSH2 0x1885 JUMP JUMPDEST PUSH2 0x1A64 DUP2 DUP6 PUSH2 0x1A40 JUMP JUMPDEST SWAP4 POP PUSH2 0x1A74 DUP2 DUP6 PUSH1 0x20 DUP7 ADD PUSH2 0x189F JUMP JUMPDEST PUSH2 0x1A7D DUP2 PUSH2 0x16CC JUMP JUMPDEST DUP5 ADD SWAP2 POP POP SWAP3 SWAP2 POP POP JUMP JUMPDEST PUSH0 PUSH2 0x1A93 DUP4 DUP4 PUSH2 0x1A50 JUMP JUMPDEST SWAP1 POP SWAP3 SWAP2 POP POP JUMP JUMPDEST PUSH0 PUSH1 0x20 DUP3 ADD SWAP1 POP SWAP2 SWAP1 POP JUMP JUMPDEST PUSH0 PUSH2 0x1AB1 DUP3 PUSH2 0x1A17 JUMP JUMPDEST PUSH2 0x1ABB DUP2 DUP6 PUSH2 0x1A21 JUMP JUMPDEST SWAP4 POP DUP4 PUSH1 0x20 DUP3 MUL DUP6 ADD PUSH2 0x1ACD DUP6 PUSH2 0x1A31 JUMP JUMPDEST DUP1 PUSH0 JUMPDEST DUP6 DUP2 LT ISZERO PUSH2 0x1B08 JUMPI DUP5 DUP5 SUB DUP10 MSTORE DUP2 MLOAD PUSH2 0x1AE9 DUP6 DUP3 PUSH2 0x1A88 JUMP JUMPDEST SWAP5 POP PUSH2 0x1AF4 DUP4 PUSH2 0x1A9B JUMP JUMPDEST SWAP3 POP PUSH1 0x20 DUP11 ADD SWAP10 POP POP PUSH1 0x1 DUP2 ADD SWAP1 POP PUSH2 0x1AD0 JUMP JUMPDEST POP DUP3 SWAP8 POP DUP8 SWAP6 POP POP POP POP POP POP SWAP3 SWAP2 POP POP JUMP JUMPDEST PUSH0 PUSH1 0x40 DUP3 ADD SWAP1 POP DUP2 DUP2 SUB PUSH0 DUP4 ADD MSTORE PUSH2 0x1B32 DUP2 DUP6 PUSH2 0x19BB JUMP JUMPDEST SWAP1 POP DUP2 DUP2 SUB PUSH1 0x20 DUP4 ADD MSTORE PUSH2 0x1B46 DUP2 DUP5 PUSH2 0x1AA7 JUMP JUMPDEST SWAP1 POP SWAP4 SWAP3 POP POP POP JUMP JUMPDEST PUSH0 PUSH1 0x60 DUP3 ADD SWAP1 POP PUSH2 0x1B62 PUSH0 DUP4 ADD DUP7 PUSH2 0x18E5 JUMP JUMPDEST DUP2 DUP2 SUB PUSH1 0x20 DUP4 ADD MSTORE PUSH2 0x1B74 DUP2 DUP6 PUSH2 0x18AD JUMP JUMPDEST SWAP1 POP PUSH2 0x1B83 PUSH1 0x40 DUP4 ADD DUP5 PUSH2 0x18E5 JUMP JUMPDEST SWAP5 SWAP4 POP POP POP POP JUMP JUMPDEST PUSH0 DUP2 ISZERO ISZERO SWAP1 POP SWAP2 SWAP1 POP JUMP JUMPDEST PUSH2 0x1B9F DUP2 PUSH2 0x1B8B JUMP JUMPDEST DUP3 MSTORE POP POP JUMP JUMPDEST PUSH0 PUSH1 0xC0 DUP3 ADD SWAP1 POP PUSH2 0x1BB8 PUSH0 DUP4 ADD DUP10 PUSH2 0x18E5 JUMP JUMPDEST PUSH2 0x1BC5 PUSH1 0x20 DUP4 ADD DUP9 PUSH2 0x1B96 JUMP JUMPDEST DUP2 DUP2 SUB PUSH1 0x40 DUP4 ADD MSTORE PUSH2 0x1BD7 DUP2 DUP8 PUSH2 0x18AD JUMP JUMPDEST SWAP1 POP PUSH2 0x1BE6 PUSH1 0x60 DUP4 ADD DUP7 PUSH2 0x18E5 JUMP JUMPDEST PUSH2 0x1BF3 PUSH1 0x80 DUP4 ADD DUP6 PUSH2 0x18E5 JUMP JUMPDEST PUSH2 0x1C00 PUSH1 0xA0 DUP4 ADD DUP5 PUSH2 0x18E5 JUMP JUMPDEST SWAP8 SWAP7 POP POP POP POP POP POP POP JUMP JUMPDEST PUSH0 PUSH0 PUSH1 0x40 DUP4 DUP6 SUB SLT ISZERO PUSH2 0x1C21 JUMPI PUSH2 0x1C20 PUSH2 0x1689 JUMP JUMPDEST JUMPDEST PUSH0 DUP4 ADD CALLDATALOAD PUSH8 0xFFFFFFFFFFFFFFFF DUP2 GT ISZERO PUSH2 0x1C3E JUMPI PUSH2 0x1C3D PUSH2 0x168D JUMP JUMPDEST JUMPDEST PUSH2 0x1C4A DUP6 DUP3 DUP7 ADD PUSH2 0x17D3 JUMP JUMPDEST SWAP3 POP POP PUSH1 0x20 PUSH2 0x1C5B DUP6 DUP3 DUP7 ADD PUSH2 0x16B0 JUMP JUMPDEST SWAP2 POP POP SWAP3 POP SWAP3 SWAP1 POP JUMP JUMPDEST PUSH0 PUSH1 0x20 DUP3 ADD SWAP1 POP PUSH2 0x1C78 PUSH0 DUP4 ADD DUP5 PUSH2 0x18E5 JUMP JUMPDEST SWAP3 SWAP2 POP POP JUMP JUMPDEST PUSH0 PUSH20 0xFFFFFFFFFFFFFFFFFFFFFFFFFFFFFFFFFFFFFFFF DUP3 AND SWAP1 POP SWAP2 SWAP1 POP JUMP JUMPDEST PUSH0 PUSH2 0x1CA7 DUP3 PUSH2 0x1C7E JUMP JUMPDEST SWAP1 POP SWAP2 SWAP1 POP JUMP JUMPDEST PUSH2 0x1CB7 DUP2 PUSH2 0x1C9D JUMP JUMPDEST DUP3 MSTORE POP POP JUMP JUMPDEST PUSH0 PUSH1 0x20 DUP3 ADD SWAP1 POP PUSH2 0x1CD0 PUSH0 DUP4 ADD DUP5 PUSH2 0x1CAE JUMP JUMPDEST SWAP3 SWAP2 POP POP JUMP JUMPDEST PUSH32 0x4F6E6C792061646D696E2063616E20706572666F726D20746869732066756E63 PUSH0 DUP3 ADD MSTORE PUSH32 0x74696F6E00000000000000000000000000000000000000000000000000000000 PUSH1 0x20 DUP3 ADD MSTORE POP JUMP JUMPDEST PUSH0 PUSH2 0x1D30 PUSH1 0x24 DUP4 PUSH2 0x188F JUMP JUMPDEST SWAP2 POP PUSH2 0x1D3B DUP3 PUSH2 0x1CD6 JUMP JUMPDEST PUSH1 0x40 DUP3 ADD SWAP1 POP SWAP2 SWAP1 POP JUMP JUMPDEST PUSH0 PUSH1 0x20 DUP3 ADD SWAP1 POP DUP2 DUP2 SUB PUSH0 DUP4 ADD MSTORE PUSH2 0x1D5D DUP2 PUSH2 0x1D24 JUMP JUMPDEST SWAP1 POP SWAP2 SWAP1 POP JUMP JUMPDEST PUSH32 0x456C656374696F6E206973206E6F742045786973740000000000000000000000 PUSH0 DUP3 ADD MSTORE POP JUMP JUMPDEST PUSH0 PUSH2 0x1D98 PUSH1 0x15 DUP4 PUSH2 0x188F JUMP JUMPDEST SWAP2 POP PUSH2 0x1DA3 DUP3 PUSH2 0x1D64 JUMP JUMPDEST PUSH1 0x20 DUP3 ADD SWAP1 POP SWAP2 SWAP1 POP JUMP JUMPDEST PUSH0 PUSH1 0x20 DUP3 ADD SWAP1 POP DUP2 DUP2 SUB PUSH0 DUP4 ADD MSTORE PUSH2 0x1DC5 DUP2 PUSH2 0x1D8C JUMP JUMPDEST SWAP1 POP SWAP2 SWAP1 POP JUMP JUMPDEST PUSH32 0x456C656374696F6E206973206E6F7420416374697665206F642074696D656F75 PUSH0 DUP3 ADD MSTORE PUSH32 0x7400000000000000000000000000000000000000000000000000000000000000 PUSH1 0x20 DUP3 ADD MSTORE POP JUMP JUMPDEST PUSH0 PUSH2 0x1E26 PUSH1 0x21 DUP4 PUSH2 0x188F JUMP JUMPDEST SWAP2 POP PUSH2 0x1E31 DUP3 PUSH2 0x1DCC JUMP JUMPDEST PUSH1 0x40 DUP3 ADD SWAP1 POP SWAP2 SWAP1 POP JUMP JUMPDEST PUSH0 PUSH1 0x20 DUP3 ADD SWAP1 POP DUP2 DUP2 SUB PUSH0 DUP4 ADD MSTORE PUSH2 0x1E53 DUP2 PUSH2 0x1E1A JUMP JUMPDEST SWAP1 POP SWAP2 SWAP1 POP JUMP JUMPDEST PUSH32 0x4E487B7100000000000000000000000000000000000000000000000000000000 PUSH0 MSTORE PUSH1 0x11 PUSH1 0x4 MSTORE PUSH1 0x24 PUSH0 REVERT JUMPDEST PUSH0 PUSH2 0x1E91 DUP3 PUSH2 0x1691 JUMP JUMPDEST SWAP2 POP PUSH32 0xFFFFFFFFFFFFFFFFFFFFFFFFFFFFFFFFFFFFFFFFFFFFFFFFFFFFFFFFFFFFFFFF DUP3 SUB PUSH2 0x1EC3 JUMPI PUSH2 0x1EC2 PUSH2 0x1E5A JUMP JUMPDEST JUMPDEST PUSH1 0x1 DUP3 ADD SWAP1 POP SWAP2 SWAP1 POP JUMP JUMPDEST PUSH32 0x4E487B7100000000000000000000000000000000000000000000000000000000 PUSH0 MSTORE PUSH1 0x22 PUSH1 0x4 MSTORE PUSH1 0x24 PUSH0 REVERT JUMPDEST PUSH0 PUSH1 0x2 DUP3 DIV SWAP1 POP PUSH1 0x1 DUP3 AND DUP1 PUSH2 0x1F12 JUMPI PUSH1 0x7F DUP3 AND SWAP2 POP JUMPDEST PUSH1 0x20 DUP3 LT DUP2 SUB PUSH2 0x1F25 JUMPI PUSH2 0x1F24 PUSH2 0x1ECE JUMP JUMPDEST JUMPDEST POP SWAP2 SWAP1 POP JUMP JUMPDEST PUSH0 DUP2 SWAP1 POP DUP2 PUSH0 MSTORE PUSH1 0x20 PUSH0 KECCAK256 SWAP1 POP SWAP2 SWAP1 POP JUMP JUMPDEST PUSH0 PUSH1 0x20 PUSH1 0x1F DUP4 ADD DIV SWAP1 POP SWAP2 SWAP1 POP JUMP JUMPDEST PUSH0 DUP3 DUP3 SHL SWAP1 POP SWAP3 SWAP2 POP POP JUMP JUMPDEST PUSH0 PUSH1 0x8 DUP4 MUL PUSH2 0x1F87 PUSH32 0xFFFFFFFFFFFFFFFFFFFFFFFFFFFFFFFFFFFFFFFFFFFFFFFFFFFFFFFFFFFFFFFF DUP3 PUSH2 0x1F4C JUMP JUMPDEST PUSH2 0x1F91 DUP7 DUP4 PUSH2 0x1F4C JUMP JUMPDEST SWAP6 POP DUP1 NOT DUP5 AND SWAP4 POP DUP1 DUP7 AND DUP5 OR SWAP3 POP POP POP SWAP4 SWAP3 POP POP POP JUMP JUMPDEST PUSH0 DUP2 SWAP1 POP SWAP2 SWAP1 POP JUMP JUMPDEST PUSH0 PUSH2 0x1FCC PUSH2 0x1FC7 PUSH2 0x1FC2 DUP5 PUSH2 0x1691 JUMP JUMPDEST PUSH2 0x1FA9 JUMP JUMPDEST PUSH2 0x1691 JUMP JUMPDEST SWAP1 POP SWAP2 SWAP1 POP JUMP JUMPDEST PUSH0 DUP2 SWAP1 POP SWAP2 SWAP1 POP JUMP JUMPDEST PUSH2 0x1FE5 DUP4 PUSH2 0x1FB2 JUMP JUMPDEST PUSH2 0x1FF9 PUSH2 0x1FF1 DUP3 PUSH2 0x1FD3 JUMP JUMPDEST DUP5 DUP5 SLOAD PUSH2 0x1F58 JUMP JUMPDEST DUP3 SSTORE POP POP POP POP JUMP JUMPDEST PUSH0 PUSH0 SWAP1 POP SWAP1 JUMP JUMPDEST PUSH2 0x2010 PUSH2 0x2001 JUMP JUMPDEST PUSH2 0x201B DUP2 DUP5 DUP5 PUSH2 0x1FDC JUMP JUMPDEST POP POP POP JUMP JUMPDEST JUMPDEST DUP2 DUP2 LT ISZERO PUSH2 0x203E JUMPI PUSH2 0x2033 PUSH0 DUP3 PUSH2 0x2008 JUMP JUMPDEST PUSH1 0x1 DUP2 ADD SWAP1 POP PUSH2 0x2021 JUMP JUMPDEST POP POP JUMP JUMPDEST PUSH1 0x1F DUP3 GT ISZERO PUSH2 0x2083 JUMPI PUSH2 0x2054 DUP2 PUSH2 0x1F2B JUMP JUMPDEST PUSH2 0x205D DUP5 PUSH2 0x1F3D JUMP JUMPDEST DUP2 ADD PUSH1 0x20 DUP6 LT ISZERO PUSH2 0x206C JUMPI DUP2 SWAP1 POP JUMPDEST PUSH2 0x2080 PUSH2 0x2078 DUP6 PUSH2 0x1F3D JUMP JUMPDEST DUP4 ADD DUP3 PUSH2 0x2020 JUMP JUMPDEST POP POP JUMPDEST POP POP POP JUMP JUMPDEST PUSH0 DUP3 DUP3 SHR SWAP1 POP SWAP3 SWAP2 POP POP JUMP JUMPDEST PUSH0 PUSH2 0x20A3 PUSH0 NOT DUP5 PUSH1 0x8 MUL PUSH2 0x2088 JUMP JUMPDEST NOT DUP1 DUP4 AND SWAP2 POP POP SWAP3 SWAP2 POP POP JUMP JUMPDEST PUSH0 PUSH2 0x20BB DUP4 DUP4 PUSH2 0x2094 JUMP JUMPDEST SWAP2 POP DUP3 PUSH1 0x2 MUL DUP3 OR SWAP1 POP SWAP3 SWAP2 POP POP JUMP JUMPDEST PUSH2 0x20D4 DUP3 PUSH2 0x1885 JUMP JUMPDEST PUSH8 0xFFFFFFFFFFFFFFFF DUP2 GT ISZERO PUSH2 0x20ED JUMPI PUSH2 0x20EC PUSH2 0x16DC JUMP JUMPDEST JUMPDEST PUSH2 0x20F7 DUP3 SLOAD PUSH2 0x1EFB JUMP JUMPDEST PUSH2 0x2102 DUP3 DUP3 DUP6 PUSH2 0x2042 JUMP JUMPDEST PUSH0 PUSH1 0x20 SWAP1 POP PUSH1 0x1F DUP4 GT PUSH1 0x1 DUP2 EQ PUSH2 0x2133 JUMPI PUSH0 DUP5 ISZERO PUSH2 0x2121 JUMPI DUP3 DUP8 ADD MLOAD SWAP1 POP JUMPDEST PUSH2 0x212B DUP6 DUP3 PUSH2 0x20B0 JUMP JUMPDEST DUP7 SSTORE POP PUSH2 0x2192 JUMP JUMPDEST PUSH1 0x1F NOT DUP5 AND PUSH2 0x2141 DUP7 PUSH2 0x1F2B JUMP JUMPDEST PUSH0 JUMPDEST DUP3 DUP2 LT ISZERO PUSH2 0x2168 JUMPI DUP5 DUP10 ADD MLOAD DUP3 SSTORE PUSH1 0x1 DUP3 ADD SWAP2 POP PUSH1 0x20 DUP6 ADD SWAP5 POP PUSH1 0x20 DUP2 ADD SWAP1 POP PUSH2 0x2143 JUMP JUMPDEST DUP7 DUP4 LT ISZERO PUSH2 0x2185 JUMPI DUP5 DUP10 ADD MLOAD PUSH2 0x2181 PUSH1 0x1F DUP10 AND DUP3 PUSH2 0x2094 JUMP JUMPDEST DUP4 SSTORE POP JUMPDEST PUSH1 0x1 PUSH1 0x2 DUP9 MUL ADD DUP9 SSTORE POP POP POP JUMPDEST POP POP POP POP POP POP JUMP JUMPDEST PUSH0 DUP2 SLOAD PUSH2 0x21A6 DUP2 PUSH2 0x1EFB JUMP JUMPDEST PUSH2 0x21B0 DUP2 DUP7 PUSH2 0x188F JUMP JUMPDEST SWAP5 POP PUSH1 0x1 DUP3 AND PUSH0 DUP2 EQ PUSH2 0x21CA JUMPI PUSH1 0x1 DUP2 EQ PUSH2 0x21E0 JUMPI PUSH2 0x2212 JUMP JUMPDEST PUSH1 0xFF NOT DUP4 AND DUP7 MSTORE DUP2 ISZERO ISZERO PUSH1 0x20 MUL DUP7 ADD SWAP4 POP PUSH2 0x2212 JUMP JUMPDEST PUSH2 0x21E9 DUP6 PUSH2 0x1F2B JUMP JUMPDEST PUSH0 JUMPDEST DUP4 DUP2 LT ISZERO PUSH2 0x220A JUMPI DUP2 SLOAD DUP2 DUP10 ADD MSTORE PUSH1 0x1 DUP3 ADD SWAP2 POP PUSH1 0x20 DUP2 ADD SWAP1 POP PUSH2 0x21EB JUMP JUMPDEST DUP1 DUP9 ADD SWAP6 POP POP POP JUMPDEST POP POP POP SWAP3 SWAP2 POP POP JUMP JUMPDEST PUSH0 PUSH1 0x20 DUP3 ADD SWAP1 POP DUP2 DUP2 SUB PUSH0 DUP4 ADD MSTORE PUSH2 0x2233 DUP2 DUP5 PUSH2 0x219A JUMP JUMPDEST SWAP1 POP SWAP3 SWAP2 POP POP JUMP JUMPDEST PUSH32 0x43616E64696461746520496420697320696E76616C6964000000000000000000 PUSH0 DUP3 ADD MSTORE POP JUMP JUMPDEST PUSH0 PUSH2 0x226F PUSH1 0x17 DUP4 PUSH2 0x188F JUMP JUMPDEST SWAP2 POP PUSH2 0x227A DUP3 PUSH2 0x223B JUMP JUMPDEST PUSH1 0x20 DUP3 ADD SWAP1 POP SWAP2 SWAP1 POP JUMP JUMPDEST PUSH0 PUSH1 0x20 DUP3 ADD SWAP1 POP DUP2 DUP2 SUB PUSH0 DUP4 ADD MSTORE PUSH2 0x229C DUP2 PUSH2 0x2263 JUMP JUMPDEST SWAP1 POP SWAP2 SWAP1 POP JUMP JUMPDEST PUSH32 0x5468697320766F74657220616C726561647920676976652068697320766F7465 PUSH0 DUP3 ADD MSTORE POP JUMP JUMPDEST PUSH0 PUSH2 0x22D7 PUSH1 0x20 DUP4 PUSH2 0x188F JUMP JUMPDEST SWAP2 POP PUSH2 0x22E2 DUP3 PUSH2 0x22A3 JUMP JUMPDEST PUSH1 0x20 DUP3 ADD SWAP1 POP SWAP2 SWAP1 POP JUMP JUMPDEST PUSH0 PUSH1 0x20 DUP3 ADD SWAP1 POP DUP2 DUP2 SUB PUSH0 DUP4 ADD MSTORE PUSH2 0x2304 DUP2 PUSH2 0x22CB JUMP JUMPDEST SWAP1 POP SWAP2 SWAP1 POP JUMP JUMPDEST PUSH32 0x5468657265206973206E6F2063616E6469646174657320666F72207468697320 PUSH0 DUP3 ADD MSTORE PUSH32 0x656C656374696F6E000000000000000000000000000000000000000000000000 PUSH1 0x20 DUP3 ADD MSTORE POP JUMP JUMPDEST PUSH0 PUSH2 0x2365 PUSH1 0x28 DUP4 PUSH2 0x188F JUMP JUMPDEST SWAP2 POP PUSH2 0x2370 DUP3 PUSH2 0x230B JUMP JUMPDEST PUSH1 0x40 DUP3 ADD SWAP1 POP SWAP2 SWAP1 POP JUMP JUMPDEST PUSH0 PUSH1 0x20 DUP3 ADD SWAP1 POP DUP2 DUP2 SUB PUSH0 DUP4 ADD MSTORE PUSH2 0x2392 DUP2 PUSH2 0x2359 JUMP JUMPDEST SWAP1 POP SWAP2 SWAP1 POP JUMP JUMPDEST PUSH0 PUSH2 0x23A3 DUP3 PUSH2 0x1691 JUMP JUMPDEST SWAP2 POP PUSH2 0x23AE DUP4 PUSH2 0x1691 JUMP JUMPDEST SWAP3 POP DUP3 DUP3 ADD SWAP1 POP DUP1 DUP3 GT ISZERO PUSH2 0x23C6 JUMPI PUSH2 0x23C5 PUSH2 0x1E5A JUMP JUMPDEST JUMPDEST SWAP3 SWAP2 POP POP JUMP JUMPDEST PUSH32 0x4E487B7100000000000000000000000000000000000000000000000000000000 PUSH0 MSTORE PUSH1 0x32 PUSH1 0x4 MSTORE PUSH1 0x24 PUSH0 REVERT JUMPDEST PUSH0 PUSH1 0x40 DUP3 ADD SWAP1 POP DUP2 DUP2 SUB PUSH0 DUP4 ADD MSTORE PUSH2 0x2411 DUP2 DUP6 PUSH2 0x219A JUMP JUMPDEST SWAP1 POP PUSH2 0x2420 PUSH1 0x20 DUP4 ADD DUP5 PUSH2 0x18E5 JUMP JUMPDEST SWAP4 SWAP3 POP POP POP JUMP JUMPDEST PUSH0 PUSH1 0xC0 DUP3 ADD SWAP1 POP PUSH2 0x243A PUSH0 DUP4 ADD DUP10 PUSH2 0x18E5 JUMP JUMPDEST DUP2 DUP2 SUB PUSH1 0x20 DUP4 ADD MSTORE PUSH2 0x244C DUP2 DUP9 PUSH2 0x219A JUMP JUMPDEST SWAP1 POP PUSH2 0x245B PUSH1 0x40 DUP4 ADD DUP8 PUSH2 0x18E5 JUMP JUMPDEST DUP2 DUP2 SUB PUSH1 0x60 DUP4 ADD MSTORE PUSH2 0x246D DUP2 DUP7 PUSH2 0x18AD JUMP JUMPDEST SWAP1 POP PUSH2 0x247C PUSH1 0x80 DUP4 ADD DUP6 PUSH2 0x18E5 JUMP JUMPDEST PUSH2 0x2489 PUSH1 0xA0 DUP4 ADD DUP5 PUSH2 0x18E5 JUMP JUMPDEST SWAP8 SWAP7 POP POP POP POP POP POP POP JUMP JUMPDEST PUSH32 0x5468657265206973206E6F20656C656374696F6E2069732072756E6E696E6720 PUSH0 DUP3 ADD MSTORE PUSH32 0x6E6F770000000000000000000000000000000000000000000000000000000000 PUSH1 0x20 DUP3 ADD MSTORE POP JUMP JUMPDEST PUSH0 PUSH2 0x24EE PUSH1 0x23 DUP4 PUSH2 0x188F JUMP JUMPDEST SWAP2 POP PUSH2 0x24F9 DUP3 PUSH2 0x2494 JUMP JUMPDEST PUSH1 0x40 DUP3 ADD SWAP1 POP SWAP2 SWAP1 POP JUMP JUMPDEST PUSH0 PUSH1 0x20 DUP3 ADD SWAP1 POP DUP2 DUP2 SUB PUSH0 DUP4 ADD MSTORE PUSH2 0x251B DUP2 PUSH2 0x24E2 JUMP JUMPDEST SWAP1 POP SWAP2 SWAP1 POP JUMP INVALID LOG2 PUSH5 0x6970667358 0x22 SLT KECCAK256 0xBD NOT 0xC2 SWAP2 LOG0 CALLDATASIZE 0xEA SELFBALANCE 0xCA REVERT SMOD CHAINID SHR BALANCE 0xC2 SWAP9 0x2F 0x4D EOFCREATE 0x9 0x27 PUSH21 0x32866CC14FEC7575880A64736F6C634300081E0033 "
				},
				"gasEstimates": {
					"creation": {
						"codeDepositCost": "1912000",
						"executionCost": "26281",
						"totalCost": "1938281"
					},
					"external": {
						"AddCandidate(uint256,string)": "infinite",
						"CreateElection(string,uint256)": "infinite",
						"admin()": "2617",
						"electionCount()": "2469",
						"elections(uint256)": "infinite",
						"endElection(uint256)": "infinite",
						"getCandidate(uint256,uint256)": "infinite",
						"getCandidates(uint256)": "infinite",
						"getElections()": "infinite",
						"getTotalVotes(uint256)": "infinite",
						"getWinner(uint256)": "infinite",
						"votting(uint256,uint256)": "infinite"
					}
				},
				"methodIdentifiers": {
					"AddCandidate(uint256,string)": "0a63c583",
					"CreateElection(string,uint256)": "7c0e1dba",
					"admin()": "f851a440",
					"electionCount()": "997d2830",
					"elections(uint256)": "5e6fef01",
					"endElection(uint256)": "9c98bcbb",
					"getCandidate(uint256,uint256)": "4bd46448",
					"getCandidates(uint256)": "3e39a7a5",
					"getElections()": "9f3a7f52",
					"getTotalVotes(uint256)": "2ce35e11",
					"getWinner(uint256)": "4129b2c9",
					"votting(uint256,uint256)": "2d81fa59"
				}
			},
			"storageLayout": {
				"storage": [
					{
						"astId": 32,
						"contract": "src/votingMachine.sol:booth",
						"label": "admin",
						"offset": 0,
						"slot": "0",
						"type": "t_address"
					},
					{
						"astId": 34,
						"contract": "src/votingMachine.sol:booth",
						"label": "electionCount",
						"offset": 0,
						"slot": "1",
						"type": "t_uint256"
					},
					{
						"astId": 39,
						"contract": "src/votingMachine.sol:booth",
						"label": "elections",
						"offset": 0,
						"slot": "2",
						"type": "t_mapping(t_uint256,t_struct(Election)30_storage)"
					}
				],
				"types": {
					"t_address": {
						"encoding": "inplace",
						"label": "address",
						"numberOfBytes": "20"
					},
					"t_bool": {
						"encoding": "inplace",
						"label": "bool",
						"numberOfBytes": "1"
					},
					"t_mapping(t_address,t_bool)": {
						"encoding": "mapping",
						"key": "t_address",
						"label": "mapping(address => bool)",
						"numberOfBytes": "32",
						"value": "t_bool"
					},
					"t_mapping(t_uint256,t_struct(Election)30_storage)": {
						"encoding": "mapping",
						"key": "t_uint256",
						"label": "mapping(uint256 => struct booth.Election)",
						"numberOfBytes": "32",
						"value": "t_struct(Election)30_storage"
					},
					"t_mapping(t_uint256,t_struct(candidate)8_storage)": {
						"encoding": "mapping",
						"key": "t_uint256",
						"label": "mapping(uint256 => struct booth.candidate)",
						"numberOfBytes": "32",
						"value": "t_struct(candidate)8_storage"
					},
					"t_string_storage": {
						"encoding": "bytes",
						"label": "string",
						"numberOfBytes": "32"
					},
					"t_struct(Election)30_storage": {
						"encoding": "inplace",
						"label": "struct booth.Election",
						"members": [
							{
								"astId": 10,
								"contract": "src/votingMachine.sol:booth",
								"label": "electionId",
								"offset": 0,
								"slot": "0",
								"type": "t_uint256"
							},
							{
								"astId": 12,
								"contract": "src/votingMachine.sol:booth",
								"label": "isActive",
								"offset": 0,
								"slot": "1",
								"type": "t_bool"
							},
							{
								"astId": 14,
								"contract": "src/votingMachine.sol:booth",
								"label": "name",
								"offset": 0,
								"slot": "2",
								"type": "t_string_storage"
							},
							{
								"astId": 16,
								"contract": "src/votingMachine.sol:booth",
								"label": "endTime",
								"offset": 0,
								"slot": "3",
								"type": "t_uint256"
							},
							{
								"astId": 18,
								"contract": "src/votingMachine.sol:booth",
								"label": "candidateCount",
								"offset": 0,
								"slot": "4",
								"type": "t_uint256"
							},
							{
								"astId": 20,
								"contract": "src/votingMachine.sol:booth",
								"label": "totalVote",
								"offset": 0,
								"slot": "5",
								"type": "t_uint256"
							},
							{
								"astId": 24,
								"contract": "src/votingMachine.sol:booth",
								"label": "hasVoted",
								"offset": 0,
								"slot": "6",
								"type": "t_mapping(t_address,t_bool)"
							},
							{
								"astId": 29,
								"contract": "src/votingMachine.sol:booth",
								"label": "candidates",
								"offset": 0,
								"slot": "7",
								"type": "t_mapping(t_uint256,t_struct(candidate)8_storage)"
							}
						],
						"numberOfBytes": "256"
					},
					"t_struct(candidate)8_storage": {
						"encoding": "inplace",
						"label": "struct booth.candidate",
						"members": [
							{
								"astId": 3,
								"contract": "src/votingMachine.sol:booth",
								"label": "name",
								"offset": 0,
								"slot": "0",
								"type": "t_string_storage"
							},
							{
								"astId": 5,
								"contract": "src/votingMachine.sol:booth",
								"label": "candidateId",
								"offset": 0,
								"slot": "1",
								"type": "t_uint256"
							},
							{
								"astId": 7,
								"contract": "src/votingMachine.sol:booth",
								"label": "voteCount",
								"offset": 0,
								"slot": "2",
								"type": "t_uint256"
							}
						],
						"numberOfBytes": "96"
					},
					"t_uint256": {
						"encoding": "inplace",
						"label": "uint256",
						"numberOfBytes": "32"
					}
				}
			},
			"userdoc": {
				"kind": "user",
				"methods": {},
				"version": 1
			}
		}
	}
}