{
	"src/votingMachine.sol": {
		"booth": {
			"abi": [
				{
					"inputs": [],
					"stateMutability": "nonpayable",
					"type": "constructor"
				},
				{
					"anonymous": false,
					"inputs": [
						{
							"indexed": true,
							"internalType": "uint256",
							"name": "ElectionId",
							"type": "uint256"
						},
						{
							"indexed": true,
							"internalType": "uint256",
							"name": "CandidateId",
							"type": "uint256"
						},
						{
							"indexed": false,
							"internalType": "string",
							"name": "CandidateName",
							"type": "string"
						}
					],
					"name": "CandidateAdded",
					"type": "event"
				},
				{
					"anonymous": false,
					"inputs": [
						{
							"indexed": true,
							"internalType": "uint256",
							"name": "ElectionId",
							"type": "uint256"
						},
						{
							"indexed": false,
							"internalType": "string",
							"name": "ElectionName",
							"type": "string"
						},
						{
							"indexed": false,
							"internalType": "uint256",
							"name": "EndTime",
							"type": "uint256"
						}
					],
					"name": "ElectionCreated",
					"type": "event"
				},
				{
					"anonymous": false,
					"inputs": [
						{
							"indexed": false,
							"internalType": "uint256",
							"name": "ElectionId",
							"type": "uint256"
						},
						{
							"indexed": false,
							"internalType": "string",
							"name": "ElectionName",
							"type": "string"
						},
						{
							"indexed": false,
							"internalType": "uint256",
							"name": "WinnerId",
							"type": "uint256"
						},
						{
							"indexed": false,
							"internalType": "string",
							"name": "WinnerName",
							"type": "string"
						},
						{
							"indexed": false,
							"internalType": "uint256",
							"name": "WinnerVotes",
							"type": "uint256"
						},
						{
							"indexed": false,
							"internalType": "uint256",
							"name": "TotalVote",
							"type": "uint256"
						}
					],
					"name": "ElectionEnded",
					"type": "event"
				},
				{
					"anonymous": false,
					"inputs": [
						{
							"indexed": true,
							"internalType": "uint256",
							"name": "ElectionId",
							"type": "uint256"
						},
						{
							"indexed": true,
							"internalType": "uint256",
							"name": "CandidateId",
							"type": "uint256"
						}
					],
					"name": "VoteCast",
					"type": "event"
				},
				{
					"inputs": [
						{
							"internalType": "uint256",
							"name": "_electionId",
							"type": "uint256"
						},
						{
							"internalType": "string",
							"name": "_name",
							"type": "string"
						}
					],
					"name": "AddCandidate",
					"outputs": [],
					"stateMutability": "nonpayable",
					"type": "function"
				},
				{
					"inputs": [
						{
							"internalType": "string",
							"name": "_name",
							"type": "string"
						},
						{
							"internalType": "uint256",
							"name": "_duration",
							"type": "uint256"
						}
					],
					"name": "CreateElection",
					"outputs": [],
					"stateMutability": "nonpayable",
					"type": "function"
				},
				{
					"inputs": [],
					"name": "admin",
					"outputs": [
						{
							"internalType": "address",
							"name": "",
							"type": "address"
						}
					],
					"stateMutability": "view",
					"type": "function"
				},
				{
					"inputs": [],
					"name": "electionCount",
					"outputs": [
						{
							"internalType": "uint256",
							"name": "",
							"type": "uint256"
						}
					],
					"stateMutability": "view",
					"type": "function"
				},
				{
					"inputs": [
						{
							"internalType": "uint256",
							"name": "",
							"type": "uint256"
						}
					],
					"name": "elections",
					"outputs": [
						{
							"internalType": "uint256",
							"name": "electionId",
							"type": "uint256"
						},
						{
							"internalType": "bool",
							"name": "isActive",
							"type": "bool"
						},
						{
							"internalType": "string",
							"name": "name",
							"type": "string"
						},
						{
							"internalType": "uint256",
							"name": "endTime",
							"type": "uint256"
						},
						{
							"internalType": "uint256",
							"name": "candidateCount",
							"type": "uint256"
						},
						{
							"internalType": "uint256",
							"name": "totalVote",
							"type": "uint256"
						}
					],
					"stateMutability": "view",
					"type": "function"
				},
				{
					"inputs": [
						{
							"internalType": "uint256",
							"name": "_electionId",
							"type": "uint256"
						}
					],
					"name": "endElection",
					"outputs": [
						{
							"internalType": "uint256",
							"name": "",
							"type": "uint256"
						},
						{
							"internalType": "string",
							"name": "",
							"type": "string"
						},
						{
							"internalType": "uint256",
							"name": "",
							"type": "uint256"
						}
					],
					"stateMutability": "nonpayable",
					"type": "function"
				},
				{
					"inputs": [
						{
							"internalType": "uint256",
							"name": "_electionId",
							"type": "uint256"
						},
						{
							"internalType": "uint256",
							"name": "_candidateId",
							"type": "uint256"
						}
					],
					"name": "getCandidate",
					"outputs": [
						{
							"internalType": "uint256",
							"name": "CandidateId",
							"type": "uint256"
						},
						{
							"internalType": "string",
							"name": "Name",
							"type": "string"
						},
						{
							"internalType": "uint256",
							"name": "Votes",
							"type": "uint256"
						}
					],
					"stateMutability": "view",
					"type": "function"
				},
				{
					"inputs": [
						{
							"internalType": "uint256",
							"name": "_electionId",
							"type": "uint256"
						}
					],
					"name": "getCandidates",
					"outputs": [
						{
							"internalType": "uint256[]",
							"name": "",
							"type": "uint256[]"
						},
						{
							"internalType": "string[]",
							"name": "",
							"type": "string[]"
						},
						{
							"internalType": "uint256[]",
							"name": "",
							"type": "uint256[]"
						}
					],
					"stateMutability": "view",
					"type": "function"
				},
				{
					"inputs": [],
					"name": "getElections",
					"outputs": [
						{
							"internalType": "uint256[]",
							"name": "",
							"type": "uint256[]"
						},
						{
							"internalType": "string[]",
							"name": "",
							"type": "string[]"
						}
					],
					"stateMutability": "view",
					"type": "function"
				},
				{
					"inputs": [
						{
							"internalType": "uint256",
							"name": "_electionId",
							"type": "uint256"
						}
					],
					"name": "getTotalVotes",
					"outputs": [
						{
							"internalType": "string",
							"name": "Name",
							"type": "string"
						},
						{
							"internalType": "uint256",
							"name": "TotalVotes",
							"type": "uint256"
						}
					],
					"stateMutability": "view",
					"type": "function"
				},
				{
					"inputs": [
						{
							"internalType": "uint256",
							"name": "_electionId",
							"type": "uint256"
						}
					],
					"name": "getWinner",
					"outputs": [
						{
							"internalType": "uint256",
							"name": "WinnerID",
							"type": "uint256"
						},
						{
							"internalType": "string",
							"name": "WminnerName",
							"type": "string"
						},
						{
							"internalType": "uint256",
							"name": "VoteCount",
							"type": "uint256"
						}
					],
					"stateMutability": "view",
					"type": "function"
				},
				{
					"inputs": [
						{
							"internalType": "uint256",
							"name": "_electionId",
							"type": "uint256"
						},
						{
							"internalType": "uint256",
							"name": "_candidateId",
							"type": "uint256"
						}
					],
					"name": "votting",
					"outputs": [],
					"stateMutability": "nonpayable",
					"type": "function"
				}
			],
			"devdoc": {
				"kind": "dev",
				"methods": {},
				"version": 1
			},
			"evm": {
				"assembly": "    /* \"src/votingMachine.sol\":61:7130  contract booth {... */\n  mstore(0x40, 0x80)\n    /* \"src/votingMachine.sol\":1876:1925  constructor(){... */\n  callvalue\n  dup1\n  iszero\n  tag_1\n  jumpi\n  revert(0x00, 0x00)\ntag_1:\n  pop\n    /* \"src/votingMachine.sol\":1907:1917  msg.sender */\n  caller\n    /* \"src/votingMachine.sol\":1900:1905  admin */\n  0x00\n  0x00\n    /* \"src/votingMachine.sol\":1900:1917  admin= msg.sender */\n  0x0100\n  exp\n  dup2\n  sload\n  dup2\n  0xffffffffffffffffffffffffffffffffffffffff\n  mul\n  not\n  and\n  swap1\n  dup4\n  0xffffffffffffffffffffffffffffffffffffffff\n  and\n  mul\n  or\n  swap1\n  sstore\n  pop\n    /* \"src/votingMachine.sol\":61:7130  contract booth {... */\n  dataSize(sub_0)\n  dup1\n  dataOffset(sub_0)\n  0x00\n  codecopy\n  0x00\n  return\nstop\n\nsub_0: assembly {\n        /* \"src/votingMachine.sol\":61:7130  contract booth {... */\n      mstore(0x40, 0x80)\n      callvalue\n      dup1\n      iszero\n      tag_1\n      jumpi\n      revert(0x00, 0x00)\n    tag_1:\n      pop\n      jumpi(tag_2, lt(calldatasize, 0x04))\n      shr(0xe0, calldataload(0x00))\n      dup1\n      0x5e6fef01\n      gt\n      tag_15\n      jumpi\n      dup1\n      0x5e6fef01\n      eq\n      tag_9\n      jumpi\n      dup1\n      0x7c0e1dba\n      eq\n      tag_10\n      jumpi\n      dup1\n      0x997d2830\n      eq\n      tag_11\n      jumpi\n      dup1\n      0x9c98bcbb\n      eq\n      tag_12\n      jumpi\n      dup1\n      0x9f3a7f52\n      eq\n      tag_13\n      jumpi\n      dup1\n      0xf851a440\n      eq\n      tag_14\n      jumpi\n      jump(tag_2)\n    tag_15:\n      dup1\n      0x0a63c583\n      eq\n      tag_3\n      jumpi\n      dup1\n      0x2ce35e11\n      eq\n      tag_4\n      jumpi\n      dup1\n      0x2d81fa59\n      eq\n      tag_5\n      jumpi\n      dup1\n      0x3e39a7a5\n      eq\n      tag_6\n      jumpi\n      dup1\n      0x4129b2c9\n      eq\n      tag_7\n      jumpi\n      dup1\n      0x4bd46448\n      eq\n      tag_8\n      jumpi\n    tag_2:\n      revert(0x00, 0x00)\n        /* \"src/votingMachine.sol\":2449:3034  function AddCandidate(uint _electionId, string memory  _name) public onlyAdmin electionExists(_electionId) electionActive(_electionId)... */\n    tag_3:\n      tag_16\n      0x04\n      dup1\n      calldatasize\n      sub\n      dup2\n      add\n      swap1\n      tag_17\n      swap2\n      swap1\n      tag_18\n      jump\t// in\n    tag_17:\n      tag_19\n      jump\t// in\n    tag_16:\n      stop\n        /* \"src/votingMachine.sol\":4846:5098  function getTotalVotes(uint _electionId) public view electionExists(_electionId) returns(string memory Name,uint TotalVotes)... */\n    tag_4:\n      tag_20\n      0x04\n      dup1\n      calldatasize\n      sub\n      dup2\n      add\n      swap1\n      tag_21\n      swap2\n      swap1\n      tag_22\n      jump\t// in\n    tag_21:\n      tag_23\n      jump\t// in\n    tag_20:\n      mload(0x40)\n      tag_24\n      swap3\n      swap2\n      swap1\n      tag_25\n      jump\t// in\n    tag_24:\n      mload(0x40)\n      dup1\n      swap2\n      sub\n      swap1\n      return\n        /* \"src/votingMachine.sol\":3042:3533  function votting(uint _electionId, uint _candidateId) public electionExists(_electionId) electionActive(_electionId) candidateValidation(_electionId,_candidateId) voteStatus(_electionId) {... */\n    tag_5:\n      tag_26\n      0x04\n      dup1\n      calldatasize\n      sub\n      dup2\n      add\n      swap1\n      tag_27\n      swap2\n      swap1\n      tag_28\n      jump\t// in\n    tag_27:\n      tag_29\n      jump\t// in\n    tag_26:\n      stop\n        /* \"src/votingMachine.sol\":6310:7125  function getCandidates(uint _electionId) public view electionExists(_electionId) returns(uint [] memory, string [] memory, uint [] memory)... */\n    tag_6:\n      tag_30\n      0x04\n      dup1\n      calldatasize\n      sub\n      dup2\n      add\n      swap1\n      tag_31\n      swap2\n      swap1\n      tag_22\n      jump\t// in\n    tag_31:\n      tag_32\n      jump\t// in\n    tag_30:\n      mload(0x40)\n      tag_33\n      swap4\n      swap3\n      swap2\n      swap1\n      tag_34\n      jump\t// in\n    tag_33:\n      mload(0x40)\n      dup1\n      swap2\n      sub\n      swap1\n      return\n        /* \"src/votingMachine.sol\":5106:5831  function getWinner(uint _electionId) public view electionExists(_electionId) returns(uint WinnerID, string memory WminnerName , uint VoteCount)... */\n    tag_7:\n      tag_35\n      0x04\n      dup1\n      calldatasize\n      sub\n      dup2\n      add\n      swap1\n      tag_36\n      swap2\n      swap1\n      tag_22\n      jump\t// in\n    tag_36:\n      tag_37\n      jump\t// in\n    tag_35:\n      mload(0x40)\n      tag_38\n      swap4\n      swap3\n      swap2\n      swap1\n      tag_39\n      jump\t// in\n    tag_38:\n      mload(0x40)\n      dup1\n      swap2\n      sub\n      swap1\n      return\n        /* \"src/votingMachine.sol\":4434:4838  function getCandidate(uint _electionId, uint _candidateId) public view electionExists(_electionId) candidateValidation(_electionId,_candidateId) returns(uint CandidateId, string memory Name,uint Votes)... */\n    tag_8:\n      tag_40\n      0x04\n      dup1\n      calldatasize\n      sub\n      dup2\n      add\n      swap1\n      tag_41\n      swap2\n      swap1\n      tag_28\n      jump\t// in\n    tag_41:\n      tag_42\n      jump\t// in\n    tag_40:\n      mload(0x40)\n      tag_43\n      swap4\n      swap3\n      swap2\n      swap1\n      tag_39\n      jump\t// in\n    tag_43:\n      mload(0x40)\n      dup1\n      swap2\n      sub\n      swap1\n      return\n        /* \"src/votingMachine.sol\":522:565  mapping(uint => Election) public  elections */\n    tag_9:\n      tag_44\n      0x04\n      dup1\n      calldatasize\n      sub\n      dup2\n      add\n      swap1\n      tag_45\n      swap2\n      swap1\n      tag_22\n      jump\t// in\n    tag_45:\n      tag_46\n      jump\t// in\n    tag_44:\n      mload(0x40)\n      tag_47\n      swap7\n      swap6\n      swap5\n      swap4\n      swap3\n      swap2\n      swap1\n      tag_48\n      jump\t// in\n    tag_47:\n      mload(0x40)\n      dup1\n      swap2\n      sub\n      swap1\n      return\n        /* \"src/votingMachine.sol\":1933:2435  function CreateElection(string memory _name, uint _duration) public onlyAdmin ... */\n    tag_10:\n      tag_49\n      0x04\n      dup1\n      calldatasize\n      sub\n      dup2\n      add\n      swap1\n      tag_50\n      swap2\n      swap1\n      tag_51\n      jump\t// in\n    tag_50:\n      tag_52\n      jump\t// in\n    tag_49:\n      stop\n        /* \"src/votingMachine.sol\":490:515  uint public electionCount */\n    tag_11:\n      tag_53\n      tag_54\n      jump\t// in\n    tag_53:\n      mload(0x40)\n      tag_55\n      swap2\n      swap1\n      tag_56\n      jump\t// in\n    tag_55:\n      mload(0x40)\n      dup1\n      swap2\n      sub\n      swap1\n      return\n        /* \"src/votingMachine.sol\":3541:4426  function endElection(uint _electionId) public onlyAdmin electionExists(_electionId) electionActive(_electionId) returns(uint,string memory,uint)... */\n    tag_12:\n      tag_57\n      0x04\n      dup1\n      calldatasize\n      sub\n      dup2\n      add\n      swap1\n      tag_58\n      swap2\n      swap1\n      tag_22\n      jump\t// in\n    tag_58:\n      tag_59\n      jump\t// in\n    tag_57:\n      mload(0x40)\n      tag_60\n      swap4\n      swap3\n      swap2\n      swap1\n      tag_39\n      jump\t// in\n    tag_60:\n      mload(0x40)\n      dup1\n      swap2\n      sub\n      swap1\n      return\n        /* \"src/votingMachine.sol\":5837:6302  function getElections() public  view returns(uint [] memory, string [] memory)... */\n    tag_13:\n      tag_61\n      tag_62\n      jump\t// in\n    tag_61:\n      mload(0x40)\n      tag_63\n      swap3\n      swap2\n      swap1\n      tag_64\n      jump\t// in\n    tag_63:\n      mload(0x40)\n      dup1\n      swap2\n      sub\n      swap1\n      return\n        /* \"src/votingMachine.sol\":463:483  address public admin */\n    tag_14:\n      tag_65\n      tag_66\n      jump\t// in\n    tag_65:\n      mload(0x40)\n      tag_67\n      swap2\n      swap1\n      tag_68\n      jump\t// in\n    tag_67:\n      mload(0x40)\n      dup1\n      swap2\n      sub\n      swap1\n      return\n        /* \"src/votingMachine.sol\":2449:3034  function AddCandidate(uint _electionId, string memory  _name) public onlyAdmin electionExists(_electionId) electionActive(_electionId)... */\n    tag_19:\n        /* \"src/votingMachine.sol\":1022:1032  msg.sender */\n      caller\n        /* \"src/votingMachine.sol\":1014:1032  admin== msg.sender */\n      0xffffffffffffffffffffffffffffffffffffffff\n      and\n        /* \"src/votingMachine.sol\":1014:1019  admin */\n      0x00\n      0x00\n      swap1\n      sload\n      swap1\n      0x0100\n      exp\n      swap1\n      div\n      0xffffffffffffffffffffffffffffffffffffffff\n      and\n        /* \"src/votingMachine.sol\":1014:1032  admin== msg.sender */\n      0xffffffffffffffffffffffffffffffffffffffff\n      and\n      eq\n        /* \"src/votingMachine.sol\":1006:1072  require(admin== msg.sender,\"Only admin can perform this function\") */\n      tag_70\n      jumpi\n      mload(0x40)\n      0x08c379a000000000000000000000000000000000000000000000000000000000\n      dup2\n      mstore\n      0x04\n      add\n      tag_71\n      swap1\n      tag_72\n      jump\t// in\n    tag_71:\n      mload(0x40)\n      dup1\n      swap2\n      sub\n      swap1\n      revert\n    tag_70:\n        /* \"src/votingMachine.sol\":2543:2554  _electionId */\n      dup2\n        /* \"src/votingMachine.sol\":1172:1183  _electionId */\n      dup1\n        /* \"src/votingMachine.sol\":1168:1169  0 */\n      0x00\n        /* \"src/votingMachine.sol\":1168:1183  0 < _electionId */\n      lt\n        /* \"src/votingMachine.sol\":1168:1215  0 < _electionId && _electionId <= electionCount */\n      dup1\n      iszero\n      tag_74\n      jumpi\n      pop\n        /* \"src/votingMachine.sol\":1202:1215  electionCount */\n      sload(0x01)\n        /* \"src/votingMachine.sol\":1187:1198  _electionId */\n      dup2\n        /* \"src/votingMachine.sol\":1187:1215  _electionId <= electionCount */\n      gt\n      iszero\n        /* \"src/votingMachine.sol\":1168:1215  0 < _electionId && _electionId <= electionCount */\n    tag_74:\n        /* \"src/votingMachine.sol\":1159:1241  require( 0 < _electionId && _electionId <= electionCount ,\"Election is not Exist\") */\n      tag_75\n      jumpi\n      mload(0x40)\n      0x08c379a000000000000000000000000000000000000000000000000000000000\n      dup2\n      mstore\n      0x04\n      add\n      tag_76\n      swap1\n      tag_77\n      jump\t// in\n    tag_76:\n      mload(0x40)\n      dup1\n      swap2\n      sub\n      swap1\n      revert\n    tag_75:\n        /* \"src/votingMachine.sol\":2571:2582  _electionId */\n      dup3\n        /* \"src/votingMachine.sol\":1369:1373  true */\n      0x01\n        /* \"src/votingMachine.sol\":1336:1373  elections[_electionId].isActive==true */\n      iszero\n      iszero\n        /* \"src/votingMachine.sol\":1336:1345  elections */\n      0x02\n        /* \"src/votingMachine.sol\":1336:1358  elections[_electionId] */\n      0x00\n        /* \"src/votingMachine.sol\":1346:1357  _electionId */\n      dup4\n        /* \"src/votingMachine.sol\":1336:1358  elections[_electionId] */\n      dup2\n      mstore\n      0x20\n      add\n      swap1\n      dup2\n      mstore\n      0x20\n      add\n      0x00\n      keccak256\n        /* \"src/votingMachine.sol\":1336:1367  elections[_electionId].isActive */\n      0x01\n      add\n      0x00\n      swap1\n      sload\n      swap1\n      0x0100\n      exp\n      swap1\n      div\n      0xff\n      and\n        /* \"src/votingMachine.sol\":1336:1373  elections[_electionId].isActive==true */\n      iszero\n      iszero\n      eq\n        /* \"src/votingMachine.sol\":1336:1424  elections[_electionId].isActive==true && elections[_electionId].endTime>=block.timestamp */\n      dup1\n      iszero\n      tag_79\n      jumpi\n      pop\n        /* \"src/votingMachine.sol\":1409:1424  block.timestamp */\n      timestamp\n        /* \"src/votingMachine.sol\":1377:1386  elections */\n      0x02\n        /* \"src/votingMachine.sol\":1377:1399  elections[_electionId] */\n      0x00\n        /* \"src/votingMachine.sol\":1387:1398  _electionId */\n      dup4\n        /* \"src/votingMachine.sol\":1377:1399  elections[_electionId] */\n      dup2\n      mstore\n      0x20\n      add\n      swap1\n      dup2\n      mstore\n      0x20\n      add\n      0x00\n      keccak256\n        /* \"src/votingMachine.sol\":1377:1407  elections[_electionId].endTime */\n      0x03\n      add\n      sload\n        /* \"src/votingMachine.sol\":1377:1424  elections[_electionId].endTime>=block.timestamp */\n      lt\n      iszero\n        /* \"src/votingMachine.sol\":1336:1424  elections[_electionId].isActive==true && elections[_electionId].endTime>=block.timestamp */\n    tag_79:\n        /* \"src/votingMachine.sol\":1328:1461  require(elections[_electionId].isActive==true && elections[_electionId].endTime>=block.timestamp,\"Election is not Active od timeout\") */\n      tag_80\n      jumpi\n      mload(0x40)\n      0x08c379a000000000000000000000000000000000000000000000000000000000\n      dup2\n      mstore\n      0x04\n      add\n      tag_81\n      swap1\n      tag_82\n      jump\t// in\n    tag_81:\n      mload(0x40)\n      dup1\n      swap2\n      sub\n      swap1\n      revert\n    tag_80:\n        /* \"src/votingMachine.sol\":2600:2625  Election storage election */\n      0x00\n        /* \"src/votingMachine.sol\":2628:2637  elections */\n      0x02\n        /* \"src/votingMachine.sol\":2628:2650  elections[_electionId] */\n      0x00\n        /* \"src/votingMachine.sol\":2638:2649  _electionId */\n      dup7\n        /* \"src/votingMachine.sol\":2628:2650  elections[_electionId] */\n      dup2\n      mstore\n      0x20\n      add\n      swap1\n      dup2\n      mstore\n      0x20\n      add\n      0x00\n      keccak256\n        /* \"src/votingMachine.sol\":2600:2650  Election storage election = elections[_electionId] */\n      swap1\n      pop\n        /* \"src/votingMachine.sol\":2661:2678  uint _candidateId */\n      0x00\n        /* \"src/votingMachine.sol\":2682:2690  election */\n      dup2\n        /* \"src/votingMachine.sol\":2682:2705  election.candidateCount */\n      0x04\n      add\n      0x00\n        /* \"src/votingMachine.sol\":2680:2705  ++election.candidateCount */\n      dup2\n      sload\n      tag_84\n      swap1\n      tag_85\n      jump\t// in\n    tag_84:\n      swap2\n      swap1\n      pop\n      dup2\n      swap1\n      sstore\n        /* \"src/votingMachine.sol\":2661:2705  uint _candidateId =++election.candidateCount */\n      swap1\n      pop\n        /* \"src/votingMachine.sol\":2765:2777  _candidateId */\n      dup1\n        /* \"src/votingMachine.sol\":2718:2726  election */\n      dup3\n        /* \"src/votingMachine.sol\":2718:2737  election.candidates */\n      0x07\n      add\n        /* \"src/votingMachine.sol\":2718:2751  election.candidates[_candidateId] */\n      0x00\n        /* \"src/votingMachine.sol\":2738:2750  _candidateId */\n      dup4\n        /* \"src/votingMachine.sol\":2718:2751  election.candidates[_candidateId] */\n      dup2\n      mstore\n      0x20\n      add\n      swap1\n      dup2\n      mstore\n      0x20\n      add\n      0x00\n      keccak256\n        /* \"src/votingMachine.sol\":2718:2763  election.candidates[_candidateId].candidateId */\n      0x01\n      add\n        /* \"src/votingMachine.sol\":2718:2777  election.candidates[_candidateId].candidateId =_candidateId */\n      dup2\n      swap1\n      sstore\n      pop\n        /* \"src/votingMachine.sol\":2827:2832  _name */\n      dup5\n        /* \"src/votingMachine.sol\":2788:2796  election */\n      dup3\n        /* \"src/votingMachine.sol\":2788:2807  election.candidates */\n      0x07\n      add\n        /* \"src/votingMachine.sol\":2788:2821  election.candidates[_candidateId] */\n      0x00\n        /* \"src/votingMachine.sol\":2808:2820  _candidateId */\n      dup4\n        /* \"src/votingMachine.sol\":2788:2821  election.candidates[_candidateId] */\n      dup2\n      mstore\n      0x20\n      add\n      swap1\n      dup2\n      mstore\n      0x20\n      add\n      0x00\n      keccak256\n        /* \"src/votingMachine.sol\":2788:2826  election.candidates[_candidateId].name */\n      0x00\n      add\n        /* \"src/votingMachine.sol\":2788:2832  election.candidates[_candidateId].name=_name */\n      swap1\n      dup2\n      tag_86\n      swap2\n      swap1\n      tag_87\n      jump\t// in\n    tag_86:\n      pop\n        /* \"src/votingMachine.sol\":2887:2888  0 */\n      0x00\n        /* \"src/votingMachine.sol\":2843:2851  election */\n      dup3\n        /* \"src/votingMachine.sol\":2843:2862  election.candidates */\n      0x07\n      add\n        /* \"src/votingMachine.sol\":2843:2876  election.candidates[_candidateId] */\n      0x00\n        /* \"src/votingMachine.sol\":2863:2875  _candidateId */\n      dup4\n        /* \"src/votingMachine.sol\":2843:2876  election.candidates[_candidateId] */\n      dup2\n      mstore\n      0x20\n      add\n      swap1\n      dup2\n      mstore\n      0x20\n      add\n      0x00\n      keccak256\n        /* \"src/votingMachine.sol\":2843:2886  election.candidates[_candidateId].voteCount */\n      0x02\n      add\n        /* \"src/votingMachine.sol\":2843:2888  election.candidates[_candidateId].voteCount=0 */\n      dup2\n      swap1\n      sstore\n      pop\n        /* \"src/votingMachine.sol\":2940:2948  election */\n      dup2\n        /* \"src/votingMachine.sol\":2940:2959  election.candidates */\n      0x07\n      add\n        /* \"src/votingMachine.sol\":2940:2973  election.candidates[_candidateId] */\n      0x00\n        /* \"src/votingMachine.sol\":2960:2972  _candidateId */\n      dup3\n        /* \"src/votingMachine.sol\":2940:2973  election.candidates[_candidateId] */\n      dup2\n      mstore\n      0x20\n      add\n      swap1\n      dup2\n      mstore\n      0x20\n      add\n      0x00\n      keccak256\n        /* \"src/votingMachine.sol\":2940:2985  election.candidates[_candidateId].candidateId */\n      0x01\n      add\n      sload\n        /* \"src/votingMachine.sol\":2919:2927  election */\n      dup3\n        /* \"src/votingMachine.sol\":2919:2938  election.electionId */\n      0x00\n      add\n      sload\n        /* \"src/votingMachine.sol\":2904:3026  CandidateAdded(election.electionId, election.candidates[_candidateId].candidateId, election.candidates[_candidateId].name) */\n      0xed8911b3df733b7d5f75724158e54478ea12e30f49c9d31b5261879f5b76586f\n        /* \"src/votingMachine.sol\":2987:2995  election */\n      dup5\n        /* \"src/votingMachine.sol\":2987:3006  election.candidates */\n      0x07\n      add\n        /* \"src/votingMachine.sol\":2987:3020  election.candidates[_candidateId] */\n      0x00\n        /* \"src/votingMachine.sol\":3007:3019  _candidateId */\n      dup6\n        /* \"src/votingMachine.sol\":2987:3020  election.candidates[_candidateId] */\n      dup2\n      mstore\n      0x20\n      add\n      swap1\n      dup2\n      mstore\n      0x20\n      add\n      0x00\n      keccak256\n        /* \"src/votingMachine.sol\":2987:3025  election.candidates[_candidateId].name */\n      0x00\n      add\n        /* \"src/votingMachine.sol\":2904:3026  CandidateAdded(election.electionId, election.candidates[_candidateId].candidateId, election.candidates[_candidateId].name) */\n      mload(0x40)\n      tag_88\n      swap2\n      swap1\n      tag_89\n      jump\t// in\n    tag_88:\n      mload(0x40)\n      dup1\n      swap2\n      sub\n      swap1\n      log3\n        /* \"src/votingMachine.sol\":2589:3034  {... */\n      pop\n      pop\n        /* \"src/votingMachine.sol\":1252:1253  _ */\n      pop\n        /* \"src/votingMachine.sol\":1083:1084  _ */\n      pop\n        /* \"src/votingMachine.sol\":2449:3034  function AddCandidate(uint _electionId, string memory  _name) public onlyAdmin electionExists(_electionId) electionActive(_electionId)... */\n      pop\n      pop\n      jump\t// out\n        /* \"src/votingMachine.sol\":4846:5098  function getTotalVotes(uint _electionId) public view electionExists(_electionId) returns(string memory Name,uint TotalVotes)... */\n    tag_23:\n        /* \"src/votingMachine.sol\":4935:4953  string memory Name */\n      0x60\n        /* \"src/votingMachine.sol\":4954:4969  uint TotalVotes */\n      0x00\n        /* \"src/votingMachine.sol\":4914:4925  _electionId */\n      dup3\n        /* \"src/votingMachine.sol\":1172:1183  _electionId */\n      dup1\n        /* \"src/votingMachine.sol\":1168:1169  0 */\n      0x00\n        /* \"src/votingMachine.sol\":1168:1183  0 < _electionId */\n      lt\n        /* \"src/votingMachine.sol\":1168:1215  0 < _electionId && _electionId <= electionCount */\n      dup1\n      iszero\n      tag_91\n      jumpi\n      pop\n        /* \"src/votingMachine.sol\":1202:1215  electionCount */\n      sload(0x01)\n        /* \"src/votingMachine.sol\":1187:1198  _electionId */\n      dup2\n        /* \"src/votingMachine.sol\":1187:1215  _electionId <= electionCount */\n      gt\n      iszero\n        /* \"src/votingMachine.sol\":1168:1215  0 < _electionId && _electionId <= electionCount */\n    tag_91:\n        /* \"src/votingMachine.sol\":1159:1241  require( 0 < _electionId && _electionId <= electionCount ,\"Election is not Exist\") */\n      tag_92\n      jumpi\n      mload(0x40)\n      0x08c379a000000000000000000000000000000000000000000000000000000000\n      dup2\n      mstore\n      0x04\n      add\n      tag_93\n      swap1\n      tag_77\n      jump\t// in\n    tag_93:\n      mload(0x40)\n      dup1\n      swap2\n      sub\n      swap1\n      revert\n    tag_92:\n        /* \"src/votingMachine.sol\":4987:5012  Election storage election */\n      0x00\n        /* \"src/votingMachine.sol\":5015:5024  elections */\n      0x02\n        /* \"src/votingMachine.sol\":5015:5037  elections[_electionId] */\n      0x00\n        /* \"src/votingMachine.sol\":5025:5036  _electionId */\n      dup7\n        /* \"src/votingMachine.sol\":5015:5037  elections[_electionId] */\n      dup2\n      mstore\n      0x20\n      add\n      swap1\n      dup2\n      mstore\n      0x20\n      add\n      0x00\n      keccak256\n        /* \"src/votingMachine.sol\":4987:5037  Election storage election = elections[_electionId] */\n      swap1\n      pop\n        /* \"src/votingMachine.sol\":5057:5065  election */\n      dup1\n        /* \"src/votingMachine.sol\":5057:5070  election.name */\n      0x02\n      add\n        /* \"src/votingMachine.sol\":5071:5079  election */\n      dup2\n        /* \"src/votingMachine.sol\":5071:5089  election.totalVote */\n      0x05\n      add\n      sload\n        /* \"src/votingMachine.sol\":5050:5090  return(election.name,election.totalVote) */\n      dup2\n      dup1\n      sload\n      tag_95\n      swap1\n      tag_96\n      jump\t// in\n    tag_95:\n      dup1\n      0x1f\n      add\n      0x20\n      dup1\n      swap2\n      div\n      mul\n      0x20\n      add\n      mload(0x40)\n      swap1\n      dup2\n      add\n      0x40\n      mstore\n      dup1\n      swap3\n      swap2\n      swap1\n      dup2\n      dup2\n      mstore\n      0x20\n      add\n      dup3\n      dup1\n      sload\n      tag_97\n      swap1\n      tag_96\n      jump\t// in\n    tag_97:\n      dup1\n      iszero\n      tag_98\n      jumpi\n      dup1\n      0x1f\n      lt\n      tag_99\n      jumpi\n      0x0100\n      dup1\n      dup4\n      sload\n      div\n      mul\n      dup4\n      mstore\n      swap2\n      0x20\n      add\n      swap2\n      jump(tag_98)\n    tag_99:\n      dup3\n      add\n      swap2\n      swap1\n      0x00\n      mstore\n      keccak256(0x00, 0x20)\n      swap1\n    tag_100:\n      dup2\n      sload\n      dup2\n      mstore\n      swap1\n      0x01\n      add\n      swap1\n      0x20\n      add\n      dup1\n      dup4\n      gt\n      tag_100\n      jumpi\n      dup3\n      swap1\n      sub\n      0x1f\n      and\n      dup3\n      add\n      swap2\n    tag_98:\n      pop\n      pop\n      pop\n      pop\n      pop\n      swap2\n      pop\n      swap4\n      pop\n      swap4\n      pop\n      pop\n        /* \"src/votingMachine.sol\":4846:5098  function getTotalVotes(uint _electionId) public view electionExists(_electionId) returns(string memory Name,uint TotalVotes)... */\n      pop\n      swap2\n      pop\n      swap2\n      jump\t// out\n        /* \"src/votingMachine.sol\":3042:3533  function votting(uint _electionId, uint _candidateId) public electionExists(_electionId) electionActive(_electionId) candidateValidation(_electionId,_candidateId) voteStatus(_electionId) {... */\n    tag_29:\n        /* \"src/votingMachine.sol\":3118:3129  _electionId */\n      dup2\n        /* \"src/votingMachine.sol\":1172:1183  _electionId */\n      dup1\n        /* \"src/votingMachine.sol\":1168:1169  0 */\n      0x00\n        /* \"src/votingMachine.sol\":1168:1183  0 < _electionId */\n      lt\n        /* \"src/votingMachine.sol\":1168:1215  0 < _electionId && _electionId <= electionCount */\n      dup1\n      iszero\n      tag_102\n      jumpi\n      pop\n        /* \"src/votingMachine.sol\":1202:1215  electionCount */\n      sload(0x01)\n        /* \"src/votingMachine.sol\":1187:1198  _electionId */\n      dup2\n        /* \"src/votingMachine.sol\":1187:1215  _electionId <= electionCount */\n      gt\n      iszero\n        /* \"src/votingMachine.sol\":1168:1215  0 < _electionId && _electionId <= electionCount */\n    tag_102:\n        /* \"src/votingMachine.sol\":1159:1241  require( 0 < _electionId && _electionId <= electionCount ,\"Election is not Exist\") */\n      tag_103\n      jumpi\n      mload(0x40)\n      0x08c379a000000000000000000000000000000000000000000000000000000000\n      dup2\n      mstore\n      0x04\n      add\n      tag_104\n      swap1\n      tag_77\n      jump\t// in\n    tag_104:\n      mload(0x40)\n      dup1\n      swap2\n      sub\n      swap1\n      revert\n    tag_103:\n        /* \"src/votingMachine.sol\":3146:3157  _electionId */\n      dup3\n        /* \"src/votingMachine.sol\":1369:1373  true */\n      0x01\n        /* \"src/votingMachine.sol\":1336:1373  elections[_electionId].isActive==true */\n      iszero\n      iszero\n        /* \"src/votingMachine.sol\":1336:1345  elections */\n      0x02\n        /* \"src/votingMachine.sol\":1336:1358  elections[_electionId] */\n      0x00\n        /* \"src/votingMachine.sol\":1346:1357  _electionId */\n      dup4\n        /* \"src/votingMachine.sol\":1336:1358  elections[_electionId] */\n      dup2\n      mstore\n      0x20\n      add\n      swap1\n      dup2\n      mstore\n      0x20\n      add\n      0x00\n      keccak256\n        /* \"src/votingMachine.sol\":1336:1367  elections[_electionId].isActive */\n      0x01\n      add\n      0x00\n      swap1\n      sload\n      swap1\n      0x0100\n      exp\n      swap1\n      div\n      0xff\n      and\n        /* \"src/votingMachine.sol\":1336:1373  elections[_electionId].isActive==true */\n      iszero\n      iszero\n      eq\n        /* \"src/votingMachine.sol\":1336:1424  elections[_electionId].isActive==true && elections[_electionId].endTime>=block.timestamp */\n      dup1\n      iszero\n      tag_106\n      jumpi\n      pop\n        /* \"src/votingMachine.sol\":1409:1424  block.timestamp */\n      timestamp\n        /* \"src/votingMachine.sol\":1377:1386  elections */\n      0x02\n        /* \"src/votingMachine.sol\":1377:1399  elections[_electionId] */\n      0x00\n        /* \"src/votingMachine.sol\":1387:1398  _electionId */\n      dup4\n        /* \"src/votingMachine.sol\":1377:1399  elections[_electionId] */\n      dup2\n      mstore\n      0x20\n      add\n      swap1\n      dup2\n      mstore\n      0x20\n      add\n      0x00\n      keccak256\n        /* \"src/votingMachine.sol\":1377:1407  elections[_electionId].endTime */\n      0x03\n      add\n      sload\n        /* \"src/votingMachine.sol\":1377:1424  elections[_electionId].endTime>=block.timestamp */\n      lt\n      iszero\n        /* \"src/votingMachine.sol\":1336:1424  elections[_electionId].isActive==true && elections[_electionId].endTime>=block.timestamp */\n    tag_106:\n        /* \"src/votingMachine.sol\":1328:1461  require(elections[_electionId].isActive==true && elections[_electionId].endTime>=block.timestamp,\"Election is not Active od timeout\") */\n      tag_107\n      jumpi\n      mload(0x40)\n      0x08c379a000000000000000000000000000000000000000000000000000000000\n      dup2\n      mstore\n      0x04\n      add\n      tag_108\n      swap1\n      tag_82\n      jump\t// in\n    tag_108:\n      mload(0x40)\n      dup1\n      swap2\n      sub\n      swap1\n      revert\n    tag_107:\n        /* \"src/votingMachine.sol\":3179:3190  _electionId */\n      dup4\n        /* \"src/votingMachine.sol\":3191:3203  _candidateId */\n      dup4\n        /* \"src/votingMachine.sol\":1593:1594  0 */\n      0x00\n        /* \"src/votingMachine.sol\":1580:1592  _candidateId */\n      dup2\n        /* \"src/votingMachine.sol\":1580:1594  _candidateId>0 */\n      gt\n        /* \"src/votingMachine.sol\":1580:1651  _candidateId>0 && _candidateId <= elections[_electionId].candidateCount */\n      dup1\n      iszero\n      tag_110\n      jumpi\n      pop\n        /* \"src/votingMachine.sol\":1614:1623  elections */\n      0x02\n        /* \"src/votingMachine.sol\":1614:1636  elections[_electionId] */\n      0x00\n        /* \"src/votingMachine.sol\":1624:1635  _electionId */\n      dup4\n        /* \"src/votingMachine.sol\":1614:1636  elections[_electionId] */\n      dup2\n      mstore\n      0x20\n      add\n      swap1\n      dup2\n      mstore\n      0x20\n      add\n      0x00\n      keccak256\n        /* \"src/votingMachine.sol\":1614:1651  elections[_electionId].candidateCount */\n      0x04\n      add\n      sload\n        /* \"src/votingMachine.sol\":1598:1610  _candidateId */\n      dup2\n        /* \"src/votingMachine.sol\":1598:1651  _candidateId <= elections[_electionId].candidateCount */\n      gt\n      iszero\n        /* \"src/votingMachine.sol\":1580:1651  _candidateId>0 && _candidateId <= elections[_electionId].candidateCount */\n    tag_110:\n        /* \"src/votingMachine.sol\":1571:1678  require (_candidateId>0 && _candidateId <= elections[_electionId].candidateCount,\"Candidate Id is invalid\") */\n      tag_111\n      jumpi\n      mload(0x40)\n      0x08c379a000000000000000000000000000000000000000000000000000000000\n      dup2\n      mstore\n      0x04\n      add\n      tag_112\n      swap1\n      tag_113\n      jump\t// in\n    tag_112:\n      mload(0x40)\n      dup1\n      swap2\n      sub\n      swap1\n      revert\n    tag_111:\n        /* \"src/votingMachine.sol\":3216:3227  _electionId */\n      dup6\n        /* \"src/votingMachine.sol\":1769:1778  elections */\n      0x02\n        /* \"src/votingMachine.sol\":1769:1791  elections[_electionId] */\n      0x00\n        /* \"src/votingMachine.sol\":1779:1790  _electionId */\n      dup3\n        /* \"src/votingMachine.sol\":1769:1791  elections[_electionId] */\n      dup2\n      mstore\n      0x20\n      add\n      swap1\n      dup2\n      mstore\n      0x20\n      add\n      0x00\n      keccak256\n        /* \"src/votingMachine.sol\":1769:1800  elections[_electionId].hasVoted */\n      0x06\n      add\n        /* \"src/votingMachine.sol\":1769:1812  elections[_electionId].hasVoted[msg.sender] */\n      0x00\n        /* \"src/votingMachine.sol\":1801:1811  msg.sender */\n      caller\n        /* \"src/votingMachine.sol\":1769:1812  elections[_electionId].hasVoted[msg.sender] */\n      0xffffffffffffffffffffffffffffffffffffffff\n      and\n      0xffffffffffffffffffffffffffffffffffffffff\n      and\n      dup2\n      mstore\n      0x20\n      add\n      swap1\n      dup2\n      mstore\n      0x20\n      add\n      0x00\n      keccak256\n      0x00\n      swap1\n      sload\n      swap1\n      0x0100\n      exp\n      swap1\n      div\n      0xff\n      and\n        /* \"src/votingMachine.sol\":1768:1812  !elections[_electionId].hasVoted[msg.sender] */\n      iszero\n        /* \"src/votingMachine.sol\":1760:1848  require(!elections[_electionId].hasVoted[msg.sender],\"This voter already give his vote\") */\n      tag_115\n      jumpi\n      mload(0x40)\n      0x08c379a000000000000000000000000000000000000000000000000000000000\n      dup2\n      mstore\n      0x04\n      add\n      tag_116\n      swap1\n      tag_117\n      jump\t// in\n    tag_116:\n      mload(0x40)\n      dup1\n      swap2\n      sub\n      swap1\n      revert\n    tag_115:\n        /* \"src/votingMachine.sol\":3284:3288  true */\n      0x01\n        /* \"src/votingMachine.sol\":3240:3249  elections */\n      0x02\n        /* \"src/votingMachine.sol\":3240:3262  elections[_electionId] */\n      0x00\n        /* \"src/votingMachine.sol\":3250:3261  _electionId */\n      dup10\n        /* \"src/votingMachine.sol\":3240:3262  elections[_electionId] */\n      dup2\n      mstore\n      0x20\n      add\n      swap1\n      dup2\n      mstore\n      0x20\n      add\n      0x00\n      keccak256\n        /* \"src/votingMachine.sol\":3240:3271  elections[_electionId].hasVoted */\n      0x06\n      add\n        /* \"src/votingMachine.sol\":3240:3283  elections[_electionId].hasVoted[msg.sender] */\n      0x00\n        /* \"src/votingMachine.sol\":3272:3282  msg.sender */\n      caller\n        /* \"src/votingMachine.sol\":3240:3283  elections[_electionId].hasVoted[msg.sender] */\n      0xffffffffffffffffffffffffffffffffffffffff\n      and\n      0xffffffffffffffffffffffffffffffffffffffff\n      and\n      dup2\n      mstore\n      0x20\n      add\n      swap1\n      dup2\n      mstore\n      0x20\n      add\n      0x00\n      keccak256\n      0x00\n        /* \"src/votingMachine.sol\":3240:3288  elections[_electionId].hasVoted[msg.sender]=true */\n      0x0100\n      exp\n      dup2\n      sload\n      dup2\n      0xff\n      mul\n      not\n      and\n      swap1\n      dup4\n      iszero\n      iszero\n      mul\n      or\n      swap1\n      sstore\n      pop\n        /* \"src/votingMachine.sol\":3299:3308  elections */\n      0x02\n        /* \"src/votingMachine.sol\":3299:3321  elections[_electionId] */\n      0x00\n        /* \"src/votingMachine.sol\":3309:3320  _electionId */\n      dup9\n        /* \"src/votingMachine.sol\":3299:3321  elections[_electionId] */\n      dup2\n      mstore\n      0x20\n      add\n      swap1\n      dup2\n      mstore\n      0x20\n      add\n      0x00\n      keccak256\n        /* \"src/votingMachine.sol\":3299:3332  elections[_electionId].candidates */\n      0x07\n      add\n        /* \"src/votingMachine.sol\":3299:3346  elections[_electionId].candidates[_candidateId] */\n      0x00\n        /* \"src/votingMachine.sol\":3333:3345  _candidateId */\n      dup8\n        /* \"src/votingMachine.sol\":3299:3346  elections[_electionId].candidates[_candidateId] */\n      dup2\n      mstore\n      0x20\n      add\n      swap1\n      dup2\n      mstore\n      0x20\n      add\n      0x00\n      keccak256\n        /* \"src/votingMachine.sol\":3299:3356  elections[_electionId].candidates[_candidateId].voteCount */\n      0x02\n      add\n      0x00\n        /* \"src/votingMachine.sol\":3299:3358  elections[_electionId].candidates[_candidateId].voteCount++ */\n      dup2\n      sload\n      dup1\n      swap3\n      swap2\n      swap1\n      tag_119\n      swap1\n      tag_85\n      jump\t// in\n    tag_119:\n      swap2\n      swap1\n      pop\n      sstore\n      pop\n        /* \"src/votingMachine.sol\":3369:3378  elections */\n      0x02\n        /* \"src/votingMachine.sol\":3369:3391  elections[_electionId] */\n      0x00\n        /* \"src/votingMachine.sol\":3379:3390  _electionId */\n      dup9\n        /* \"src/votingMachine.sol\":3369:3391  elections[_electionId] */\n      dup2\n      mstore\n      0x20\n      add\n      swap1\n      dup2\n      mstore\n      0x20\n      add\n      0x00\n      keccak256\n        /* \"src/votingMachine.sol\":3369:3401  elections[_electionId].totalVote */\n      0x05\n      add\n      0x00\n        /* \"src/votingMachine.sol\":3369:3403  elections[_electionId].totalVote++ */\n      dup2\n      sload\n      dup1\n      swap3\n      swap2\n      swap1\n      tag_120\n      swap1\n      tag_85\n      jump\t// in\n    tag_120:\n      swap2\n      swap1\n      pop\n      sstore\n      pop\n        /* \"src/votingMachine.sol\":3465:3474  elections */\n      0x02\n        /* \"src/votingMachine.sol\":3465:3487  elections[_electionId] */\n      0x00\n        /* \"src/votingMachine.sol\":3475:3486  _electionId */\n      dup9\n        /* \"src/votingMachine.sol\":3465:3487  elections[_electionId] */\n      dup2\n      mstore\n      0x20\n      add\n      swap1\n      dup2\n      mstore\n      0x20\n      add\n      0x00\n      keccak256\n        /* \"src/votingMachine.sol\":3465:3498  elections[_electionId].candidates */\n      0x07\n      add\n        /* \"src/votingMachine.sol\":3465:3512  elections[_electionId].candidates[_candidateId] */\n      0x00\n        /* \"src/votingMachine.sol\":3499:3511  _candidateId */\n      dup8\n        /* \"src/votingMachine.sol\":3465:3512  elections[_electionId].candidates[_candidateId] */\n      dup2\n      mstore\n      0x20\n      add\n      swap1\n      dup2\n      mstore\n      0x20\n      add\n      0x00\n      keccak256\n        /* \"src/votingMachine.sol\":3465:3524  elections[_electionId].candidates[_candidateId].candidateId */\n      0x01\n      add\n      sload\n        /* \"src/votingMachine.sol\":3430:3439  elections */\n      0x02\n        /* \"src/votingMachine.sol\":3430:3452  elections[_electionId] */\n      0x00\n        /* \"src/votingMachine.sol\":3440:3451  _electionId */\n      dup10\n        /* \"src/votingMachine.sol\":3430:3452  elections[_electionId] */\n      dup2\n      mstore\n      0x20\n      add\n      swap1\n      dup2\n      mstore\n      0x20\n      add\n      0x00\n      keccak256\n        /* \"src/votingMachine.sol\":3430:3463  elections[_electionId].electionId */\n      0x00\n      add\n      sload\n        /* \"src/votingMachine.sol\":3421:3525  VoteCast(elections[_electionId].electionId, elections[_electionId].candidates[_candidateId].candidateId) */\n      0xc31875ef3ed5138b71a0c1da7e494bc4d2ba4f567084ea481ec9c45f3a93948b\n      mload(0x40)\n      mload(0x40)\n      dup1\n      swap2\n      sub\n      swap1\n      log3\n        /* \"src/votingMachine.sol\":1689:1690  _ */\n      pop\n        /* \"src/votingMachine.sol\":1472:1473  _ */\n      pop\n      pop\n        /* \"src/votingMachine.sol\":1252:1253  _ */\n      pop\n        /* \"src/votingMachine.sol\":3042:3533  function votting(uint _electionId, uint _candidateId) public electionExists(_electionId) electionActive(_electionId) candidateValidation(_electionId,_candidateId) voteStatus(_electionId) {... */\n      pop\n      pop\n      pop\n      jump\t// out\n        /* \"src/votingMachine.sol\":6310:7125  function getCandidates(uint _electionId) public view electionExists(_electionId) returns(uint [] memory, string [] memory, uint [] memory)... */\n    tag_32:\n        /* \"src/votingMachine.sol\":6399:6413  uint [] memory */\n      0x60\n        /* \"src/votingMachine.sol\":6415:6431  string [] memory */\n      dup1\n        /* \"src/votingMachine.sol\":6433:6447  uint [] memory */\n      0x60\n        /* \"src/votingMachine.sol\":6378:6389  _electionId */\n      dup4\n        /* \"src/votingMachine.sol\":1172:1183  _electionId */\n      dup1\n        /* \"src/votingMachine.sol\":1168:1169  0 */\n      0x00\n        /* \"src/votingMachine.sol\":1168:1183  0 < _electionId */\n      lt\n        /* \"src/votingMachine.sol\":1168:1215  0 < _electionId && _electionId <= electionCount */\n      dup1\n      iszero\n      tag_122\n      jumpi\n      pop\n        /* \"src/votingMachine.sol\":1202:1215  electionCount */\n      sload(0x01)\n        /* \"src/votingMachine.sol\":1187:1198  _electionId */\n      dup2\n        /* \"src/votingMachine.sol\":1187:1215  _electionId <= electionCount */\n      gt\n      iszero\n        /* \"src/votingMachine.sol\":1168:1215  0 < _electionId && _electionId <= electionCount */\n    tag_122:\n        /* \"src/votingMachine.sol\":1159:1241  require( 0 < _electionId && _electionId <= electionCount ,\"Election is not Exist\") */\n      tag_123\n      jumpi\n      mload(0x40)\n      0x08c379a000000000000000000000000000000000000000000000000000000000\n      dup2\n      mstore\n      0x04\n      add\n      tag_124\n      swap1\n      tag_77\n      jump\t// in\n    tag_124:\n      mload(0x40)\n      dup1\n      swap2\n      sub\n      swap1\n      revert\n    tag_123:\n        /* \"src/votingMachine.sol\":6511:6512  0 */\n      0x00\n        /* \"src/votingMachine.sol\":6473:6482  elections */\n      0x02\n        /* \"src/votingMachine.sol\":6473:6495  elections[_electionId] */\n      0x00\n        /* \"src/votingMachine.sol\":6483:6494  _electionId */\n      dup8\n        /* \"src/votingMachine.sol\":6473:6495  elections[_electionId] */\n      dup2\n      mstore\n      0x20\n      add\n      swap1\n      dup2\n      mstore\n      0x20\n      add\n      0x00\n      keccak256\n        /* \"src/votingMachine.sol\":6473:6510  elections[_electionId].candidateCount */\n      0x04\n      add\n      sload\n        /* \"src/votingMachine.sol\":6473:6512  elections[_electionId].candidateCount>0 */\n      gt\n        /* \"src/votingMachine.sol\":6465:6556  require(elections[_electionId].candidateCount>0,\"There is no candidates for this election\") */\n      tag_126\n      jumpi\n      mload(0x40)\n      0x08c379a000000000000000000000000000000000000000000000000000000000\n      dup2\n      mstore\n      0x04\n      add\n      tag_127\n      swap1\n      tag_128\n      jump\t// in\n    tag_127:\n      mload(0x40)\n      dup1\n      swap2\n      sub\n      swap1\n      revert\n    tag_126:\n        /* \"src/votingMachine.sol\":6567:6593  uint [] memory candidateId */\n      0x00\n        /* \"src/votingMachine.sol\":6606:6615  elections */\n      0x02\n        /* \"src/votingMachine.sol\":6606:6628  elections[_electionId] */\n      0x00\n        /* \"src/votingMachine.sol\":6616:6627  _electionId */\n      dup8\n        /* \"src/votingMachine.sol\":6606:6628  elections[_electionId] */\n      dup2\n      mstore\n      0x20\n      add\n      swap1\n      dup2\n      mstore\n      0x20\n      add\n      0x00\n      keccak256\n        /* \"src/votingMachine.sol\":6606:6643  elections[_electionId].candidateCount */\n      0x04\n      add\n      sload\n        /* \"src/votingMachine.sol\":6595:6644  new uint[](elections[_electionId].candidateCount) */\n      0xffffffffffffffff\n      dup2\n      gt\n      iszero\n      tag_129\n      jumpi\n      tag_130\n      tag_131\n      jump\t// in\n    tag_130:\n    tag_129:\n      mload(0x40)\n      swap1\n      dup1\n      dup3\n      mstore\n      dup1\n      0x20\n      mul\n      0x20\n      add\n      dup3\n      add\n      0x40\n      mstore\n      dup1\n      iszero\n      tag_132\n      jumpi\n      dup2\n      0x20\n      add\n      0x20\n      dup3\n      mul\n      dup1\n      calldatasize\n      dup4\n      calldatacopy\n      dup1\n      dup3\n      add\n      swap2\n      pop\n      pop\n      swap1\n      pop\n    tag_132:\n      pop\n        /* \"src/votingMachine.sol\":6567:6644  uint [] memory candidateId= new uint[](elections[_electionId].candidateCount) */\n      swap1\n      pop\n        /* \"src/votingMachine.sol\":6655:6676  string [] memory Name */\n      0x00\n        /* \"src/votingMachine.sol\":6692:6701  elections */\n      0x02\n        /* \"src/votingMachine.sol\":6692:6714  elections[_electionId] */\n      0x00\n        /* \"src/votingMachine.sol\":6702:6713  _electionId */\n      dup9\n        /* \"src/votingMachine.sol\":6692:6714  elections[_electionId] */\n      dup2\n      mstore\n      0x20\n      add\n      swap1\n      dup2\n      mstore\n      0x20\n      add\n      0x00\n      keccak256\n        /* \"src/votingMachine.sol\":6692:6729  elections[_electionId].candidateCount */\n      0x04\n      add\n      sload\n        /* \"src/votingMachine.sol\":6678:6730  new string [](elections[_electionId].candidateCount) */\n      0xffffffffffffffff\n      dup2\n      gt\n      iszero\n      tag_133\n      jumpi\n      tag_134\n      tag_131\n      jump\t// in\n    tag_134:\n    tag_133:\n      mload(0x40)\n      swap1\n      dup1\n      dup3\n      mstore\n      dup1\n      0x20\n      mul\n      0x20\n      add\n      dup3\n      add\n      0x40\n      mstore\n      dup1\n      iszero\n      tag_135\n      jumpi\n      dup2\n      0x20\n      add\n    tag_136:\n      0x60\n      dup2\n      mstore\n      0x20\n      add\n      swap1\n      0x01\n      swap1\n      sub\n      swap1\n      dup2\n      tag_136\n      jumpi\n      swap1\n      pop\n    tag_135:\n      pop\n        /* \"src/votingMachine.sol\":6655:6730  string [] memory Name= new string [](elections[_electionId].candidateCount) */\n      swap1\n      pop\n        /* \"src/votingMachine.sol\":6741:6760  uint [] memory Vote */\n      0x00\n        /* \"src/votingMachine.sol\":6776:6785  elections */\n      0x02\n        /* \"src/votingMachine.sol\":6776:6798  elections[_electionId] */\n      0x00\n        /* \"src/votingMachine.sol\":6786:6797  _electionId */\n      dup10\n        /* \"src/votingMachine.sol\":6776:6798  elections[_electionId] */\n      dup2\n      mstore\n      0x20\n      add\n      swap1\n      dup2\n      mstore\n      0x20\n      add\n      0x00\n      keccak256\n        /* \"src/votingMachine.sol\":6776:6813  elections[_electionId].candidateCount */\n      0x04\n      add\n      sload\n        /* \"src/votingMachine.sol\":6763:6814  new uint [] (elections[_electionId].candidateCount) */\n      0xffffffffffffffff\n      dup2\n      gt\n      iszero\n      tag_137\n      jumpi\n      tag_138\n      tag_131\n      jump\t// in\n    tag_138:\n    tag_137:\n      mload(0x40)\n      swap1\n      dup1\n      dup3\n      mstore\n      dup1\n      0x20\n      mul\n      0x20\n      add\n      dup3\n      add\n      0x40\n      mstore\n      dup1\n      iszero\n      tag_139\n      jumpi\n      dup2\n      0x20\n      add\n      0x20\n      dup3\n      mul\n      dup1\n      calldatasize\n      dup4\n      calldatacopy\n      dup1\n      dup3\n      add\n      swap2\n      pop\n      pop\n      swap1\n      pop\n    tag_139:\n      pop\n        /* \"src/votingMachine.sol\":6741:6814  uint [] memory Vote = new uint [] (elections[_electionId].candidateCount) */\n      swap1\n      pop\n        /* \"src/votingMachine.sol\":6829:6835  uint i */\n      0x00\n        /* \"src/votingMachine.sol\":6836:6837  0 */\n      0x00\n        /* \"src/votingMachine.sol\":6829:6837  uint i=0 */\n      swap1\n      pop\n        /* \"src/votingMachine.sol\":6825:7077  for(uint i=0;i<elections[_electionId].candidateCount;i++)... */\n    tag_140:\n        /* \"src/votingMachine.sol\":6840:6849  elections */\n      0x02\n        /* \"src/votingMachine.sol\":6840:6862  elections[_electionId] */\n      0x00\n        /* \"src/votingMachine.sol\":6850:6861  _electionId */\n      dup11\n        /* \"src/votingMachine.sol\":6840:6862  elections[_electionId] */\n      dup2\n      mstore\n      0x20\n      add\n      swap1\n      dup2\n      mstore\n      0x20\n      add\n      0x00\n      keccak256\n        /* \"src/votingMachine.sol\":6840:6877  elections[_electionId].candidateCount */\n      0x04\n      add\n      sload\n        /* \"src/votingMachine.sol\":6838:6839  i */\n      dup2\n        /* \"src/votingMachine.sol\":6838:6877  i<elections[_electionId].candidateCount */\n      lt\n        /* \"src/votingMachine.sol\":6825:7077  for(uint i=0;i<elections[_electionId].candidateCount;i++)... */\n      iszero\n      tag_141\n      jumpi\n        /* \"src/votingMachine.sol\":6925:6926  1 */\n      0x01\n        /* \"src/votingMachine.sol\":6923:6924  i */\n      dup2\n        /* \"src/votingMachine.sol\":6923:6926  i+1 */\n      tag_143\n      swap2\n      swap1\n      tag_144\n      jump\t// in\n    tag_143:\n        /* \"src/votingMachine.sol\":6907:6918  candidateId */\n      dup5\n        /* \"src/votingMachine.sol\":6919:6920  i */\n      dup3\n        /* \"src/votingMachine.sol\":6907:6921  candidateId[i] */\n      dup2\n      mload\n      dup2\n      lt\n      tag_145\n      jumpi\n      tag_146\n      tag_147\n      jump\t// in\n    tag_146:\n    tag_145:\n      0x20\n      mul\n      0x20\n      add\n      add\n        /* \"src/votingMachine.sol\":6907:6926  candidateId[i] =i+1 */\n      dup2\n      dup2\n      mstore\n      pop\n      pop\n        /* \"src/votingMachine.sol\":6950:6959  elections */\n      0x02\n        /* \"src/votingMachine.sol\":6950:6972  elections[_electionId] */\n      0x00\n        /* \"src/votingMachine.sol\":6960:6971  _electionId */\n      dup11\n        /* \"src/votingMachine.sol\":6950:6972  elections[_electionId] */\n      dup2\n      mstore\n      0x20\n      add\n      swap1\n      dup2\n      mstore\n      0x20\n      add\n      0x00\n      keccak256\n        /* \"src/votingMachine.sol\":6950:6983  elections[_electionId].candidates */\n      0x07\n      add\n        /* \"src/votingMachine.sol\":6950:6988  elections[_electionId].candidates[i+1] */\n      0x00\n        /* \"src/votingMachine.sol\":6986:6987  1 */\n      0x01\n        /* \"src/votingMachine.sol\":6984:6985  i */\n      dup4\n        /* \"src/votingMachine.sol\":6984:6987  i+1 */\n      tag_148\n      swap2\n      swap1\n      tag_144\n      jump\t// in\n    tag_148:\n        /* \"src/votingMachine.sol\":6950:6988  elections[_electionId].candidates[i+1] */\n      dup2\n      mstore\n      0x20\n      add\n      swap1\n      dup2\n      mstore\n      0x20\n      add\n      0x00\n      keccak256\n        /* \"src/votingMachine.sol\":6950:6993  elections[_electionId].candidates[i+1].name */\n      0x00\n      add\n        /* \"src/votingMachine.sol\":6941:6993  Name[i]= elections[_electionId].candidates[i+1].name */\n      dup1\n      sload\n      tag_149\n      swap1\n      tag_96\n      jump\t// in\n    tag_149:\n      dup1\n      0x1f\n      add\n      0x20\n      dup1\n      swap2\n      div\n      mul\n      0x20\n      add\n      mload(0x40)\n      swap1\n      dup2\n      add\n      0x40\n      mstore\n      dup1\n      swap3\n      swap2\n      swap1\n      dup2\n      dup2\n      mstore\n      0x20\n      add\n      dup3\n      dup1\n      sload\n      tag_150\n      swap1\n      tag_96\n      jump\t// in\n    tag_150:\n      dup1\n      iszero\n      tag_151\n      jumpi\n      dup1\n      0x1f\n      lt\n      tag_152\n      jumpi\n      0x0100\n      dup1\n      dup4\n      sload\n      div\n      mul\n      dup4\n      mstore\n      swap2\n      0x20\n      add\n      swap2\n      jump(tag_151)\n    tag_152:\n      dup3\n      add\n      swap2\n      swap1\n      0x00\n      mstore\n      keccak256(0x00, 0x20)\n      swap1\n    tag_153:\n      dup2\n      sload\n      dup2\n      mstore\n      swap1\n      0x01\n      add\n      swap1\n      0x20\n      add\n      dup1\n      dup4\n      gt\n      tag_153\n      jumpi\n      dup3\n      swap1\n      sub\n      0x1f\n      and\n      dup3\n      add\n      swap2\n    tag_151:\n      pop\n      pop\n      pop\n      pop\n      pop\n        /* \"src/votingMachine.sol\":6941:6945  Name */\n      dup4\n        /* \"src/votingMachine.sol\":6946:6947  i */\n      dup3\n        /* \"src/votingMachine.sol\":6941:6948  Name[i] */\n      dup2\n      mload\n      dup2\n      lt\n      tag_154\n      jumpi\n      tag_155\n      tag_147\n      jump\t// in\n    tag_155:\n    tag_154:\n      0x20\n      mul\n      0x20\n      add\n      add\n        /* \"src/votingMachine.sol\":6941:6993  Name[i]= elections[_electionId].candidates[i+1].name */\n      dup2\n      swap1\n      mstore\n      pop\n        /* \"src/votingMachine.sol\":7017:7026  elections */\n      0x02\n        /* \"src/votingMachine.sol\":7017:7039  elections[_electionId] */\n      0x00\n        /* \"src/votingMachine.sol\":7027:7038  _electionId */\n      dup11\n        /* \"src/votingMachine.sol\":7017:7039  elections[_electionId] */\n      dup2\n      mstore\n      0x20\n      add\n      swap1\n      dup2\n      mstore\n      0x20\n      add\n      0x00\n      keccak256\n        /* \"src/votingMachine.sol\":7017:7050  elections[_electionId].candidates */\n      0x07\n      add\n        /* \"src/votingMachine.sol\":7017:7055  elections[_electionId].candidates[i+1] */\n      0x00\n        /* \"src/votingMachine.sol\":7053:7054  1 */\n      0x01\n        /* \"src/votingMachine.sol\":7051:7052  i */\n      dup4\n        /* \"src/votingMachine.sol\":7051:7054  i+1 */\n      tag_156\n      swap2\n      swap1\n      tag_144\n      jump\t// in\n    tag_156:\n        /* \"src/votingMachine.sol\":7017:7055  elections[_electionId].candidates[i+1] */\n      dup2\n      mstore\n      0x20\n      add\n      swap1\n      dup2\n      mstore\n      0x20\n      add\n      0x00\n      keccak256\n        /* \"src/votingMachine.sol\":7017:7065  elections[_electionId].candidates[i+1].voteCount */\n      0x02\n      add\n      sload\n        /* \"src/votingMachine.sol\":7008:7012  Vote */\n      dup3\n        /* \"src/votingMachine.sol\":7013:7014  i */\n      dup3\n        /* \"src/votingMachine.sol\":7008:7015  Vote[i] */\n      dup2\n      mload\n      dup2\n      lt\n      tag_157\n      jumpi\n      tag_158\n      tag_147\n      jump\t// in\n    tag_158:\n    tag_157:\n      0x20\n      mul\n      0x20\n      add\n      add\n        /* \"src/votingMachine.sol\":7008:7065  Vote[i]= elections[_electionId].candidates[i+1].voteCount */\n      dup2\n      dup2\n      mstore\n      pop\n      pop\n        /* \"src/votingMachine.sol\":6878:6881  i++ */\n      dup1\n      dup1\n      0x01\n      add\n      swap2\n      pop\n      pop\n        /* \"src/votingMachine.sol\":6825:7077  for(uint i=0;i<elections[_electionId].candidateCount;i++)... */\n      jump(tag_140)\n    tag_141:\n      pop\n        /* \"src/votingMachine.sol\":7095:7106  candidateId */\n      dup3\n        /* \"src/votingMachine.sol\":7107:7111  Name */\n      dup3\n        /* \"src/votingMachine.sol\":7112:7116  Vote */\n      dup3\n        /* \"src/votingMachine.sol\":7087:7117  return (candidateId,Name,Vote) */\n      swap7\n      pop\n      swap7\n      pop\n      swap7\n      pop\n      pop\n      pop\n      pop\n        /* \"src/votingMachine.sol\":6310:7125  function getCandidates(uint _electionId) public view electionExists(_electionId) returns(uint [] memory, string [] memory, uint [] memory)... */\n      pop\n      swap2\n      swap4\n      swap1\n      swap3\n      pop\n      jump\t// out\n        /* \"src/votingMachine.sol\":5106:5831  function getWinner(uint _electionId) public view electionExists(_electionId) returns(uint WinnerID, string memory WminnerName , uint VoteCount)... */\n    tag_37:\n        /* \"src/votingMachine.sol\":5191:5204  uint WinnerID */\n      0x00\n        /* \"src/votingMachine.sol\":5206:5231  string memory WminnerName */\n      0x60\n        /* \"src/votingMachine.sol\":5234:5248  uint VoteCount */\n      0x00\n        /* \"src/votingMachine.sol\":5170:5181  _electionId */\n      dup4\n        /* \"src/votingMachine.sol\":1172:1183  _electionId */\n      dup1\n        /* \"src/votingMachine.sol\":1168:1169  0 */\n      0x00\n        /* \"src/votingMachine.sol\":1168:1183  0 < _electionId */\n      lt\n        /* \"src/votingMachine.sol\":1168:1215  0 < _electionId && _electionId <= electionCount */\n      dup1\n      iszero\n      tag_160\n      jumpi\n      pop\n        /* \"src/votingMachine.sol\":1202:1215  electionCount */\n      sload(0x01)\n        /* \"src/votingMachine.sol\":1187:1198  _electionId */\n      dup2\n        /* \"src/votingMachine.sol\":1187:1215  _electionId <= electionCount */\n      gt\n      iszero\n        /* \"src/votingMachine.sol\":1168:1215  0 < _electionId && _electionId <= electionCount */\n    tag_160:\n        /* \"src/votingMachine.sol\":1159:1241  require( 0 < _electionId && _electionId <= electionCount ,\"Election is not Exist\") */\n      tag_161\n      jumpi\n      mload(0x40)\n      0x08c379a000000000000000000000000000000000000000000000000000000000\n      dup2\n      mstore\n      0x04\n      add\n      tag_162\n      swap1\n      tag_77\n      jump\t// in\n    tag_162:\n      mload(0x40)\n      dup1\n      swap2\n      sub\n      swap1\n      revert\n    tag_161:\n        /* \"src/votingMachine.sol\":5267:5292  Election storage election */\n      0x00\n        /* \"src/votingMachine.sol\":5295:5304  elections */\n      0x02\n        /* \"src/votingMachine.sol\":5295:5317  elections[_electionId] */\n      0x00\n        /* \"src/votingMachine.sol\":5305:5316  _electionId */\n      dup8\n        /* \"src/votingMachine.sol\":5295:5317  elections[_electionId] */\n      dup2\n      mstore\n      0x20\n      add\n      swap1\n      dup2\n      mstore\n      0x20\n      add\n      0x00\n      keccak256\n        /* \"src/votingMachine.sol\":5267:5317  Election storage election = elections[_electionId] */\n      swap1\n      pop\n        /* \"src/votingMachine.sol\":5330:5343  uint winnerId */\n      0x00\n        /* \"src/votingMachine.sol\":5344:5345  0 */\n      0x00\n        /* \"src/votingMachine.sol\":5330:5345  uint winnerId=0 */\n      swap1\n      pop\n        /* \"src/votingMachine.sol\":5356:5380  string memory winnerName */\n      0x60\n        /* \"src/votingMachine.sol\":5391:5407  uint winnerVotes */\n      0x00\n        /* \"src/votingMachine.sol\":5408:5409  0 */\n      0x00\n        /* \"src/votingMachine.sol\":5391:5409  uint winnerVotes=0 */\n      swap1\n      pop\n        /* \"src/votingMachine.sol\":5426:5432  uint i */\n      0x00\n        /* \"src/votingMachine.sol\":5433:5434  1 */\n      0x01\n        /* \"src/votingMachine.sol\":5426:5434  uint i=1 */\n      swap1\n      pop\n        /* \"src/votingMachine.sol\":5422:5773  for(uint i=1; i<= election.candidateCount; i++)... */\n    tag_164:\n        /* \"src/votingMachine.sol\":5440:5448  election */\n      dup5\n        /* \"src/votingMachine.sol\":5440:5463  election.candidateCount */\n      0x04\n      add\n      sload\n        /* \"src/votingMachine.sol\":5436:5437  i */\n      dup2\n        /* \"src/votingMachine.sol\":5436:5463  i<= election.candidateCount */\n      gt\n        /* \"src/votingMachine.sol\":5422:5773  for(uint i=1; i<= election.candidateCount; i++)... */\n      tag_165\n      jumpi\n        /* \"src/votingMachine.sol\":5532:5543  winnerVotes */\n      dup2\n        /* \"src/votingMachine.sol\":5497:5505  election */\n      dup6\n        /* \"src/votingMachine.sol\":5497:5516  election.candidates */\n      0x07\n      add\n        /* \"src/votingMachine.sol\":5497:5519  election.candidates[i] */\n      0x00\n        /* \"src/votingMachine.sol\":5517:5518  i */\n      dup4\n        /* \"src/votingMachine.sol\":5497:5519  election.candidates[i] */\n      dup2\n      mstore\n      0x20\n      add\n      swap1\n      dup2\n      mstore\n      0x20\n      add\n      0x00\n      keccak256\n        /* \"src/votingMachine.sol\":5497:5529  election.candidates[i].voteCount */\n      0x02\n      add\n      sload\n        /* \"src/votingMachine.sol\":5497:5543  election.candidates[i].voteCount > winnerVotes */\n      gt\n        /* \"src/votingMachine.sol\":5494:5762  if(election.candidates[i].voteCount > winnerVotes)... */\n      iszero\n      tag_167\n      jumpi\n        /* \"src/votingMachine.sol\":5588:5596  election */\n      dup5\n        /* \"src/votingMachine.sol\":5588:5607  election.candidates */\n      0x07\n      add\n        /* \"src/votingMachine.sol\":5588:5610  election.candidates[i] */\n      0x00\n        /* \"src/votingMachine.sol\":5608:5609  i */\n      dup3\n        /* \"src/votingMachine.sol\":5588:5610  election.candidates[i] */\n      dup2\n      mstore\n      0x20\n      add\n      swap1\n      dup2\n      mstore\n      0x20\n      add\n      0x00\n      keccak256\n        /* \"src/votingMachine.sol\":5588:5622  election.candidates[i].candidateId */\n      0x01\n      add\n      sload\n        /* \"src/votingMachine.sol\":5577:5622  winnerId = election.candidates[i].candidateId */\n      swap4\n      pop\n        /* \"src/votingMachine.sol\":5654:5662  election */\n      dup5\n        /* \"src/votingMachine.sol\":5654:5673  election.candidates */\n      0x07\n      add\n        /* \"src/votingMachine.sol\":5654:5676  election.candidates[i] */\n      0x00\n        /* \"src/votingMachine.sol\":5674:5675  i */\n      dup3\n        /* \"src/votingMachine.sol\":5654:5676  election.candidates[i] */\n      dup2\n      mstore\n      0x20\n      add\n      swap1\n      dup2\n      mstore\n      0x20\n      add\n      0x00\n      keccak256\n        /* \"src/votingMachine.sol\":5654:5681  election.candidates[i].name */\n      0x00\n      add\n        /* \"src/votingMachine.sol\":5641:5681  winnerName = election.candidates[i].name */\n      dup1\n      sload\n      tag_168\n      swap1\n      tag_96\n      jump\t// in\n    tag_168:\n      dup1\n      0x1f\n      add\n      0x20\n      dup1\n      swap2\n      div\n      mul\n      0x20\n      add\n      mload(0x40)\n      swap1\n      dup2\n      add\n      0x40\n      mstore\n      dup1\n      swap3\n      swap2\n      swap1\n      dup2\n      dup2\n      mstore\n      0x20\n      add\n      dup3\n      dup1\n      sload\n      tag_169\n      swap1\n      tag_96\n      jump\t// in\n    tag_169:\n      dup1\n      iszero\n      tag_170\n      jumpi\n      dup1\n      0x1f\n      lt\n      tag_171\n      jumpi\n      0x0100\n      dup1\n      dup4\n      sload\n      div\n      mul\n      dup4\n      mstore\n      swap2\n      0x20\n      add\n      swap2\n      jump(tag_170)\n    tag_171:\n      dup3\n      add\n      swap2\n      swap1\n      0x00\n      mstore\n      keccak256(0x00, 0x20)\n      swap1\n    tag_172:\n      dup2\n      sload\n      dup2\n      mstore\n      swap1\n      0x01\n      add\n      swap1\n      0x20\n      add\n      dup1\n      dup4\n      gt\n      tag_172\n      jumpi\n      dup3\n      swap1\n      sub\n      0x1f\n      and\n      dup3\n      add\n      swap2\n    tag_170:\n      pop\n      pop\n      pop\n      pop\n      pop\n      swap3\n      pop\n        /* \"src/votingMachine.sol\":5714:5722  election */\n      dup5\n        /* \"src/votingMachine.sol\":5714:5733  election.candidates */\n      0x07\n      add\n        /* \"src/votingMachine.sol\":5714:5736  election.candidates[i] */\n      0x00\n        /* \"src/votingMachine.sol\":5734:5735  i */\n      dup3\n        /* \"src/votingMachine.sol\":5714:5736  election.candidates[i] */\n      dup2\n      mstore\n      0x20\n      add\n      swap1\n      dup2\n      mstore\n      0x20\n      add\n      0x00\n      keccak256\n        /* \"src/votingMachine.sol\":5714:5746  election.candidates[i].voteCount */\n      0x02\n      add\n      sload\n        /* \"src/votingMachine.sol\":5700:5746  winnerVotes = election.candidates[i].voteCount */\n      swap2\n      pop\n        /* \"src/votingMachine.sol\":5494:5762  if(election.candidates[i].voteCount > winnerVotes)... */\n    tag_167:\n        /* \"src/votingMachine.sol\":5465:5468  i++ */\n      dup1\n      dup1\n      tag_173\n      swap1\n      tag_85\n      jump\t// in\n    tag_173:\n      swap2\n      pop\n      pop\n        /* \"src/votingMachine.sol\":5422:5773  for(uint i=1; i<= election.candidateCount; i++)... */\n      jump(tag_164)\n    tag_165:\n      pop\n        /* \"src/votingMachine.sol\":5791:5799  winnerId */\n      dup3\n        /* \"src/votingMachine.sol\":5800:5810  winnerName */\n      dup3\n        /* \"src/votingMachine.sol\":5811:5822  winnerVotes */\n      dup3\n        /* \"src/votingMachine.sol\":5783:5823  return (winnerId,winnerName,winnerVotes) */\n      swap8\n      pop\n      swap8\n      pop\n      swap8\n      pop\n      pop\n      pop\n      pop\n      pop\n        /* \"src/votingMachine.sol\":5106:5831  function getWinner(uint _electionId) public view electionExists(_electionId) returns(uint WinnerID, string memory WminnerName , uint VoteCount)... */\n      pop\n      swap2\n      swap4\n      swap1\n      swap3\n      pop\n      jump\t// out\n        /* \"src/votingMachine.sol\":4434:4838  function getCandidate(uint _electionId, uint _candidateId) public view electionExists(_electionId) candidateValidation(_electionId,_candidateId) returns(uint CandidateId, string memory Name,uint Votes)... */\n    tag_42:\n        /* \"src/votingMachine.sol\":4587:4603  uint CandidateId */\n      0x00\n        /* \"src/votingMachine.sol\":4605:4623  string memory Name */\n      0x60\n        /* \"src/votingMachine.sol\":4624:4634  uint Votes */\n      0x00\n        /* \"src/votingMachine.sol\":4520:4531  _electionId */\n      dup5\n        /* \"src/votingMachine.sol\":1172:1183  _electionId */\n      dup1\n        /* \"src/votingMachine.sol\":1168:1169  0 */\n      0x00\n        /* \"src/votingMachine.sol\":1168:1183  0 < _electionId */\n      lt\n        /* \"src/votingMachine.sol\":1168:1215  0 < _electionId && _electionId <= electionCount */\n      dup1\n      iszero\n      tag_175\n      jumpi\n      pop\n        /* \"src/votingMachine.sol\":1202:1215  electionCount */\n      sload(0x01)\n        /* \"src/votingMachine.sol\":1187:1198  _electionId */\n      dup2\n        /* \"src/votingMachine.sol\":1187:1215  _electionId <= electionCount */\n      gt\n      iszero\n        /* \"src/votingMachine.sol\":1168:1215  0 < _electionId && _electionId <= electionCount */\n    tag_175:\n        /* \"src/votingMachine.sol\":1159:1241  require( 0 < _electionId && _electionId <= electionCount ,\"Election is not Exist\") */\n      tag_176\n      jumpi\n      mload(0x40)\n      0x08c379a000000000000000000000000000000000000000000000000000000000\n      dup2\n      mstore\n      0x04\n      add\n      tag_177\n      swap1\n      tag_77\n      jump\t// in\n    tag_177:\n      mload(0x40)\n      dup1\n      swap2\n      sub\n      swap1\n      revert\n    tag_176:\n        /* \"src/votingMachine.sol\":4553:4564  _electionId */\n      dup6\n        /* \"src/votingMachine.sol\":4565:4577  _candidateId */\n      dup6\n        /* \"src/votingMachine.sol\":1593:1594  0 */\n      0x00\n        /* \"src/votingMachine.sol\":1580:1592  _candidateId */\n      dup2\n        /* \"src/votingMachine.sol\":1580:1594  _candidateId>0 */\n      gt\n        /* \"src/votingMachine.sol\":1580:1651  _candidateId>0 && _candidateId <= elections[_electionId].candidateCount */\n      dup1\n      iszero\n      tag_179\n      jumpi\n      pop\n        /* \"src/votingMachine.sol\":1614:1623  elections */\n      0x02\n        /* \"src/votingMachine.sol\":1614:1636  elections[_electionId] */\n      0x00\n        /* \"src/votingMachine.sol\":1624:1635  _electionId */\n      dup4\n        /* \"src/votingMachine.sol\":1614:1636  elections[_electionId] */\n      dup2\n      mstore\n      0x20\n      add\n      swap1\n      dup2\n      mstore\n      0x20\n      add\n      0x00\n      keccak256\n        /* \"src/votingMachine.sol\":1614:1651  elections[_electionId].candidateCount */\n      0x04\n      add\n      sload\n        /* \"src/votingMachine.sol\":1598:1610  _candidateId */\n      dup2\n        /* \"src/votingMachine.sol\":1598:1651  _candidateId <= elections[_electionId].candidateCount */\n      gt\n      iszero\n        /* \"src/votingMachine.sol\":1580:1651  _candidateId>0 && _candidateId <= elections[_electionId].candidateCount */\n    tag_179:\n        /* \"src/votingMachine.sol\":1571:1678  require (_candidateId>0 && _candidateId <= elections[_electionId].candidateCount,\"Candidate Id is invalid\") */\n      tag_180\n      jumpi\n      mload(0x40)\n      0x08c379a000000000000000000000000000000000000000000000000000000000\n      dup2\n      mstore\n      0x04\n      add\n      tag_181\n      swap1\n      tag_113\n      jump\t// in\n    tag_181:\n      mload(0x40)\n      dup1\n      swap2\n      sub\n      swap1\n      revert\n    tag_180:\n        /* \"src/votingMachine.sol\":4659:4668  elections */\n      0x02\n        /* \"src/votingMachine.sol\":4659:4681  elections[_electionId] */\n      0x00\n        /* \"src/votingMachine.sol\":4669:4680  _electionId */\n      dup10\n        /* \"src/votingMachine.sol\":4659:4681  elections[_electionId] */\n      dup2\n      mstore\n      0x20\n      add\n      swap1\n      dup2\n      mstore\n      0x20\n      add\n      0x00\n      keccak256\n        /* \"src/votingMachine.sol\":4659:4692  elections[_electionId].candidates */\n      0x07\n      add\n        /* \"src/votingMachine.sol\":4659:4706  elections[_electionId].candidates[_candidateId] */\n      0x00\n        /* \"src/votingMachine.sol\":4693:4705  _candidateId */\n      dup9\n        /* \"src/votingMachine.sol\":4659:4706  elections[_electionId].candidates[_candidateId] */\n      dup2\n      mstore\n      0x20\n      add\n      swap1\n      dup2\n      mstore\n      0x20\n      add\n      0x00\n      keccak256\n        /* \"src/votingMachine.sol\":4659:4718  elections[_electionId].candidates[_candidateId].candidateId */\n      0x01\n      add\n      sload\n        /* \"src/votingMachine.sol\":4719:4728  elections */\n      0x02\n        /* \"src/votingMachine.sol\":4719:4741  elections[_electionId] */\n      0x00\n        /* \"src/votingMachine.sol\":4729:4740  _electionId */\n      dup11\n        /* \"src/votingMachine.sol\":4719:4741  elections[_electionId] */\n      dup2\n      mstore\n      0x20\n      add\n      swap1\n      dup2\n      mstore\n      0x20\n      add\n      0x00\n      keccak256\n        /* \"src/votingMachine.sol\":4719:4752  elections[_electionId].candidates */\n      0x07\n      add\n        /* \"src/votingMachine.sol\":4719:4766  elections[_electionId].candidates[_candidateId] */\n      0x00\n        /* \"src/votingMachine.sol\":4753:4765  _candidateId */\n      dup10\n        /* \"src/votingMachine.sol\":4719:4766  elections[_electionId].candidates[_candidateId] */\n      dup2\n      mstore\n      0x20\n      add\n      swap1\n      dup2\n      mstore\n      0x20\n      add\n      0x00\n      keccak256\n        /* \"src/votingMachine.sol\":4719:4771  elections[_electionId].candidates[_candidateId].name */\n      0x00\n      add\n        /* \"src/votingMachine.sol\":4772:4781  elections */\n      0x02\n        /* \"src/votingMachine.sol\":4772:4794  elections[_electionId] */\n      0x00\n        /* \"src/votingMachine.sol\":4782:4793  _electionId */\n      dup12\n        /* \"src/votingMachine.sol\":4772:4794  elections[_electionId] */\n      dup2\n      mstore\n      0x20\n      add\n      swap1\n      dup2\n      mstore\n      0x20\n      add\n      0x00\n      keccak256\n        /* \"src/votingMachine.sol\":4772:4805  elections[_electionId].candidates */\n      0x07\n      add\n        /* \"src/votingMachine.sol\":4772:4819  elections[_electionId].candidates[_candidateId] */\n      0x00\n        /* \"src/votingMachine.sol\":4806:4818  _candidateId */\n      dup11\n        /* \"src/votingMachine.sol\":4772:4819  elections[_electionId].candidates[_candidateId] */\n      dup2\n      mstore\n      0x20\n      add\n      swap1\n      dup2\n      mstore\n      0x20\n      add\n      0x00\n      keccak256\n        /* \"src/votingMachine.sol\":4772:4829  elections[_electionId].candidates[_candidateId].voteCount */\n      0x02\n      add\n      sload\n        /* \"src/votingMachine.sol\":4652:4830  return(elections[_electionId].candidates[_candidateId].candidateId,elections[_electionId].candidates[_candidateId].name,elections[_electionId].candidates[_candidateId].voteCount) */\n      dup2\n      dup1\n      sload\n      tag_183\n      swap1\n      tag_96\n      jump\t// in\n    tag_183:\n      dup1\n      0x1f\n      add\n      0x20\n      dup1\n      swap2\n      div\n      mul\n      0x20\n      add\n      mload(0x40)\n      swap1\n      dup2\n      add\n      0x40\n      mstore\n      dup1\n      swap3\n      swap2\n      swap1\n      dup2\n      dup2\n      mstore\n      0x20\n      add\n      dup3\n      dup1\n      sload\n      tag_184\n      swap1\n      tag_96\n      jump\t// in\n    tag_184:\n      dup1\n      iszero\n      tag_185\n      jumpi\n      dup1\n      0x1f\n      lt\n      tag_186\n      jumpi\n      0x0100\n      dup1\n      dup4\n      sload\n      div\n      mul\n      dup4\n      mstore\n      swap2\n      0x20\n      add\n      swap2\n      jump(tag_185)\n    tag_186:\n      dup3\n      add\n      swap2\n      swap1\n      0x00\n      mstore\n      keccak256(0x00, 0x20)\n      swap1\n    tag_187:\n      dup2\n      sload\n      dup2\n      mstore\n      swap1\n      0x01\n      add\n      swap1\n      0x20\n      add\n      dup1\n      dup4\n      gt\n      tag_187\n      jumpi\n      dup3\n      swap1\n      sub\n      0x1f\n      and\n      dup3\n      add\n      swap2\n    tag_185:\n      pop\n      pop\n      pop\n      pop\n      pop\n      swap2\n      pop\n      swap6\n      pop\n      swap6\n      pop\n      swap6\n      pop\n        /* \"src/votingMachine.sol\":1252:1253  _ */\n      pop\n      pop\n        /* \"src/votingMachine.sol\":4434:4838  function getCandidate(uint _electionId, uint _candidateId) public view electionExists(_electionId) candidateValidation(_electionId,_candidateId) returns(uint CandidateId, string memory Name,uint Votes)... */\n      pop\n      swap3\n      pop\n      swap3\n      pop\n      swap3\n      jump\t// out\n        /* \"src/votingMachine.sol\":522:565  mapping(uint => Election) public  elections */\n    tag_46:\n      mstore(0x20, 0x02)\n      dup1\n      0x00\n      mstore\n      keccak256(0x00, 0x40)\n      0x00\n      swap2\n      pop\n      swap1\n      pop\n      dup1\n      0x00\n      add\n      sload\n      swap1\n      dup1\n      0x01\n      add\n      0x00\n      swap1\n      sload\n      swap1\n      0x0100\n      exp\n      swap1\n      div\n      0xff\n      and\n      swap1\n      dup1\n      0x02\n      add\n      dup1\n      sload\n      tag_188\n      swap1\n      tag_96\n      jump\t// in\n    tag_188:\n      dup1\n      0x1f\n      add\n      0x20\n      dup1\n      swap2\n      div\n      mul\n      0x20\n      add\n      mload(0x40)\n      swap1\n      dup2\n      add\n      0x40\n      mstore\n      dup1\n      swap3\n      swap2\n      swap1\n      dup2\n      dup2\n      mstore\n      0x20\n      add\n      dup3\n      dup1\n      sload\n      tag_189\n      swap1\n      tag_96\n      jump\t// in\n    tag_189:\n      dup1\n      iszero\n      tag_190\n      jumpi\n      dup1\n      0x1f\n      lt\n      tag_191\n      jumpi\n      0x0100\n      dup1\n      dup4\n      sload\n      div\n      mul\n      dup4\n      mstore\n      swap2\n      0x20\n      add\n      swap2\n      jump(tag_190)\n    tag_191:\n      dup3\n      add\n      swap2\n      swap1\n      0x00\n      mstore\n      keccak256(0x00, 0x20)\n      swap1\n    tag_192:\n      dup2\n      sload\n      dup2\n      mstore\n      swap1\n      0x01\n      add\n      swap1\n      0x20\n      add\n      dup1\n      dup4\n      gt\n      tag_192\n      jumpi\n      dup3\n      swap1\n      sub\n      0x1f\n      and\n      dup3\n      add\n      swap2\n    tag_190:\n      pop\n      pop\n      pop\n      pop\n      pop\n      swap1\n      dup1\n      0x03\n      add\n      sload\n      swap1\n      dup1\n      0x04\n      add\n      sload\n      swap1\n      dup1\n      0x05\n      add\n      sload\n      swap1\n      pop\n      dup7\n      jump\t// out\n        /* \"src/votingMachine.sol\":1933:2435  function CreateElection(string memory _name, uint _duration) public onlyAdmin ... */\n    tag_52:\n        /* \"src/votingMachine.sol\":1022:1032  msg.sender */\n      caller\n        /* \"src/votingMachine.sol\":1014:1032  admin== msg.sender */\n      0xffffffffffffffffffffffffffffffffffffffff\n      and\n        /* \"src/votingMachine.sol\":1014:1019  admin */\n      0x00\n      0x00\n      swap1\n      sload\n      swap1\n      0x0100\n      exp\n      swap1\n      div\n      0xffffffffffffffffffffffffffffffffffffffff\n      and\n        /* \"src/votingMachine.sol\":1014:1032  admin== msg.sender */\n      0xffffffffffffffffffffffffffffffffffffffff\n      and\n      eq\n        /* \"src/votingMachine.sol\":1006:1072  require(admin== msg.sender,\"Only admin can perform this function\") */\n      tag_194\n      jumpi\n      mload(0x40)\n      0x08c379a000000000000000000000000000000000000000000000000000000000\n      dup2\n      mstore\n      0x04\n      add\n      tag_195\n      swap1\n      tag_72\n      jump\t// in\n    tag_195:\n      mload(0x40)\n      dup1\n      swap2\n      sub\n      swap1\n      revert\n    tag_194:\n        /* \"src/votingMachine.sol\":2028:2041  electionCount */\n      0x01\n      0x00\n        /* \"src/votingMachine.sol\":2028:2043  electionCount++ */\n      dup2\n      sload\n      dup1\n      swap3\n      swap2\n      swap1\n      tag_197\n      swap1\n      tag_85\n      jump\t// in\n    tag_197:\n      swap2\n      swap1\n      pop\n      sstore\n      pop\n        /* \"src/votingMachine.sol\":2054:2079  Election storage election */\n      0x00\n        /* \"src/votingMachine.sol\":2082:2091  elections */\n      0x02\n        /* \"src/votingMachine.sol\":2082:2106  elections[electionCount] */\n      0x00\n        /* \"src/votingMachine.sol\":2092:2105  electionCount */\n      sload(0x01)\n        /* \"src/votingMachine.sol\":2082:2106  elections[electionCount] */\n      dup2\n      mstore\n      0x20\n      add\n      swap1\n      dup2\n      mstore\n      0x20\n      add\n      0x00\n      keccak256\n        /* \"src/votingMachine.sol\":2054:2106  Election storage election = elections[electionCount] */\n      swap1\n      pop\n        /* \"src/votingMachine.sol\":2132:2137  _name */\n      dup3\n        /* \"src/votingMachine.sol\":2117:2125  election */\n      dup2\n        /* \"src/votingMachine.sol\":2117:2130  election.name */\n      0x02\n      add\n        /* \"src/votingMachine.sol\":2117:2137  election.name= _name */\n      swap1\n      dup2\n      tag_198\n      swap2\n      swap1\n      tag_87\n      jump\t// in\n    tag_198:\n      pop\n        /* \"src/votingMachine.sol\":2170:2183  electionCount */\n      sload(0x01)\n        /* \"src/votingMachine.sol\":2148:2156  election */\n      dup2\n        /* \"src/votingMachine.sol\":2148:2167  election.electionId */\n      0x00\n      add\n        /* \"src/votingMachine.sol\":2148:2183  election.electionId = electionCount */\n      dup2\n      swap1\n      sstore\n      pop\n        /* \"src/votingMachine.sol\":2214:2218  true */\n      0x01\n        /* \"src/votingMachine.sol\":2194:2202  election */\n      dup2\n        /* \"src/votingMachine.sol\":2194:2211  election.isActive */\n      0x01\n      add\n      0x00\n        /* \"src/votingMachine.sol\":2194:2218  election.isActive = true */\n      0x0100\n      exp\n      dup2\n      sload\n      dup2\n      0xff\n      mul\n      not\n      and\n      swap1\n      dup4\n      iszero\n      iszero\n      mul\n      or\n      swap1\n      sstore\n      pop\n        /* \"src/votingMachine.sol\":2266:2275  _duration */\n      dup2\n        /* \"src/votingMachine.sol\":2248:2263  block.timestamp */\n      timestamp\n        /* \"src/votingMachine.sol\":2248:2275  block.timestamp + _duration */\n      tag_199\n      swap2\n      swap1\n      tag_144\n      jump\t// in\n    tag_199:\n        /* \"src/votingMachine.sol\":2229:2237  election */\n      dup2\n        /* \"src/votingMachine.sol\":2229:2245  election.endTime */\n      0x03\n      add\n        /* \"src/votingMachine.sol\":2229:2275  election.endTime = block.timestamp + _duration */\n      dup2\n      swap1\n      sstore\n      pop\n        /* \"src/votingMachine.sol\":2310:2311  0 */\n      0x00\n        /* \"src/votingMachine.sol\":2286:2294  election */\n      dup2\n        /* \"src/votingMachine.sol\":2286:2309  election.candidateCount */\n      0x04\n      add\n        /* \"src/votingMachine.sol\":2286:2311  election.candidateCount=0 */\n      dup2\n      swap1\n      sstore\n      pop\n        /* \"src/votingMachine.sol\":2374:2382  election */\n      dup1\n        /* \"src/votingMachine.sol\":2374:2393  election.electionId */\n      0x00\n      add\n      sload\n        /* \"src/votingMachine.sol\":2358:2427  ElectionCreated(election.electionId, election.name, election.endTime) */\n      0x43131521170c5b80ffe9526cfec987f5a24eb1f6c4bda47c41a5e4b8388afe5c\n        /* \"src/votingMachine.sol\":2395:2403  election */\n      dup3\n        /* \"src/votingMachine.sol\":2395:2408  election.name */\n      0x02\n      add\n        /* \"src/votingMachine.sol\":2410:2418  election */\n      dup4\n        /* \"src/votingMachine.sol\":2410:2426  election.endTime */\n      0x03\n      add\n      sload\n        /* \"src/votingMachine.sol\":2358:2427  ElectionCreated(election.electionId, election.name, election.endTime) */\n      mload(0x40)\n      tag_200\n      swap3\n      swap2\n      swap1\n      tag_201\n      jump\t// in\n    tag_200:\n      mload(0x40)\n      dup1\n      swap2\n      sub\n      swap1\n      log2\n        /* \"src/votingMachine.sol\":2017:2435  {... */\n      pop\n        /* \"src/votingMachine.sol\":1933:2435  function CreateElection(string memory _name, uint _duration) public onlyAdmin ... */\n      pop\n      pop\n      jump\t// out\n        /* \"src/votingMachine.sol\":490:515  uint public electionCount */\n    tag_54:\n      sload(0x01)\n      dup2\n      jump\t// out\n        /* \"src/votingMachine.sol\":3541:4426  function endElection(uint _electionId) public onlyAdmin electionExists(_electionId) electionActive(_electionId) returns(uint,string memory,uint)... */\n    tag_59:\n        /* \"src/votingMachine.sol\":3661:3665  uint */\n      0x00\n        /* \"src/votingMachine.sol\":3666:3679  string memory */\n      0x60\n        /* \"src/votingMachine.sol\":3680:3684  uint */\n      0x00\n        /* \"src/votingMachine.sol\":1022:1032  msg.sender */\n      caller\n        /* \"src/votingMachine.sol\":1014:1032  admin== msg.sender */\n      0xffffffffffffffffffffffffffffffffffffffff\n      and\n        /* \"src/votingMachine.sol\":1014:1019  admin */\n      0x00\n      0x00\n      swap1\n      sload\n      swap1\n      0x0100\n      exp\n      swap1\n      div\n      0xffffffffffffffffffffffffffffffffffffffff\n      and\n        /* \"src/votingMachine.sol\":1014:1032  admin== msg.sender */\n      0xffffffffffffffffffffffffffffffffffffffff\n      and\n      eq\n        /* \"src/votingMachine.sol\":1006:1072  require(admin== msg.sender,\"Only admin can perform this function\") */\n      tag_203\n      jumpi\n      mload(0x40)\n      0x08c379a000000000000000000000000000000000000000000000000000000000\n      dup2\n      mstore\n      0x04\n      add\n      tag_204\n      swap1\n      tag_72\n      jump\t// in\n    tag_204:\n      mload(0x40)\n      dup1\n      swap2\n      sub\n      swap1\n      revert\n    tag_203:\n        /* \"src/votingMachine.sol\":3612:3623  _electionId */\n      dup4\n        /* \"src/votingMachine.sol\":1172:1183  _electionId */\n      dup1\n        /* \"src/votingMachine.sol\":1168:1169  0 */\n      0x00\n        /* \"src/votingMachine.sol\":1168:1183  0 < _electionId */\n      lt\n        /* \"src/votingMachine.sol\":1168:1215  0 < _electionId && _electionId <= electionCount */\n      dup1\n      iszero\n      tag_206\n      jumpi\n      pop\n        /* \"src/votingMachine.sol\":1202:1215  electionCount */\n      sload(0x01)\n        /* \"src/votingMachine.sol\":1187:1198  _electionId */\n      dup2\n        /* \"src/votingMachine.sol\":1187:1215  _electionId <= electionCount */\n      gt\n      iszero\n        /* \"src/votingMachine.sol\":1168:1215  0 < _electionId && _electionId <= electionCount */\n    tag_206:\n        /* \"src/votingMachine.sol\":1159:1241  require( 0 < _electionId && _electionId <= electionCount ,\"Election is not Exist\") */\n      tag_207\n      jumpi\n      mload(0x40)\n      0x08c379a000000000000000000000000000000000000000000000000000000000\n      dup2\n      mstore\n      0x04\n      add\n      tag_208\n      swap1\n      tag_77\n      jump\t// in\n    tag_208:\n      mload(0x40)\n      dup1\n      swap2\n      sub\n      swap1\n      revert\n    tag_207:\n        /* \"src/votingMachine.sol\":3640:3651  _electionId */\n      dup5\n        /* \"src/votingMachine.sol\":1369:1373  true */\n      0x01\n        /* \"src/votingMachine.sol\":1336:1373  elections[_electionId].isActive==true */\n      iszero\n      iszero\n        /* \"src/votingMachine.sol\":1336:1345  elections */\n      0x02\n        /* \"src/votingMachine.sol\":1336:1358  elections[_electionId] */\n      0x00\n        /* \"src/votingMachine.sol\":1346:1357  _electionId */\n      dup4\n        /* \"src/votingMachine.sol\":1336:1358  elections[_electionId] */\n      dup2\n      mstore\n      0x20\n      add\n      swap1\n      dup2\n      mstore\n      0x20\n      add\n      0x00\n      keccak256\n        /* \"src/votingMachine.sol\":1336:1367  elections[_electionId].isActive */\n      0x01\n      add\n      0x00\n      swap1\n      sload\n      swap1\n      0x0100\n      exp\n      swap1\n      div\n      0xff\n      and\n        /* \"src/votingMachine.sol\":1336:1373  elections[_electionId].isActive==true */\n      iszero\n      iszero\n      eq\n        /* \"src/votingMachine.sol\":1336:1424  elections[_electionId].isActive==true && elections[_electionId].endTime>=block.timestamp */\n      dup1\n      iszero\n      tag_210\n      jumpi\n      pop\n        /* \"src/votingMachine.sol\":1409:1424  block.timestamp */\n      timestamp\n        /* \"src/votingMachine.sol\":1377:1386  elections */\n      0x02\n        /* \"src/votingMachine.sol\":1377:1399  elections[_electionId] */\n      0x00\n        /* \"src/votingMachine.sol\":1387:1398  _electionId */\n      dup4\n        /* \"src/votingMachine.sol\":1377:1399  elections[_electionId] */\n      dup2\n      mstore\n      0x20\n      add\n      swap1\n      dup2\n      mstore\n      0x20\n      add\n      0x00\n      keccak256\n        /* \"src/votingMachine.sol\":1377:1407  elections[_electionId].endTime */\n      0x03\n      add\n      sload\n        /* \"src/votingMachine.sol\":1377:1424  elections[_electionId].endTime>=block.timestamp */\n      lt\n      iszero\n        /* \"src/votingMachine.sol\":1336:1424  elections[_electionId].isActive==true && elections[_electionId].endTime>=block.timestamp */\n    tag_210:\n        /* \"src/votingMachine.sol\":1328:1461  require(elections[_electionId].isActive==true && elections[_electionId].endTime>=block.timestamp,\"Election is not Active od timeout\") */\n      tag_211\n      jumpi\n      mload(0x40)\n      0x08c379a000000000000000000000000000000000000000000000000000000000\n      dup2\n      mstore\n      0x04\n      add\n      tag_212\n      swap1\n      tag_82\n      jump\t// in\n    tag_212:\n      mload(0x40)\n      dup1\n      swap2\n      sub\n      swap1\n      revert\n    tag_211:\n        /* \"src/votingMachine.sol\":3702:3727  Election storage election */\n      0x00\n        /* \"src/votingMachine.sol\":3730:3739  elections */\n      0x02\n        /* \"src/votingMachine.sol\":3730:3752  elections[_electionId] */\n      0x00\n        /* \"src/votingMachine.sol\":3740:3751  _electionId */\n      dup9\n        /* \"src/votingMachine.sol\":3730:3752  elections[_electionId] */\n      dup2\n      mstore\n      0x20\n      add\n      swap1\n      dup2\n      mstore\n      0x20\n      add\n      0x00\n      keccak256\n        /* \"src/votingMachine.sol\":3702:3752  Election storage election = elections[_electionId] */\n      swap1\n      pop\n        /* \"src/votingMachine.sol\":3783:3788  false */\n      0x00\n        /* \"src/votingMachine.sol\":3763:3771  election */\n      dup2\n        /* \"src/votingMachine.sol\":3763:3780  election.isActive */\n      0x01\n      add\n      0x00\n        /* \"src/votingMachine.sol\":3763:3788  election.isActive = false */\n      0x0100\n      exp\n      dup2\n      sload\n      dup2\n      0xff\n      mul\n      not\n      and\n      swap1\n      dup4\n      iszero\n      iszero\n      mul\n      or\n      swap1\n      sstore\n      pop\n        /* \"src/votingMachine.sol\":3801:3814  uint winnerId */\n      0x00\n        /* \"src/votingMachine.sol\":3815:3816  0 */\n      0x00\n        /* \"src/votingMachine.sol\":3801:3816  uint winnerId=0 */\n      swap1\n      pop\n        /* \"src/votingMachine.sol\":3827:3851  string memory winnerName */\n      0x60\n        /* \"src/votingMachine.sol\":3862:3878  uint winnerVotes */\n      0x00\n        /* \"src/votingMachine.sol\":3879:3880  0 */\n      0x00\n        /* \"src/votingMachine.sol\":3862:3880  uint winnerVotes=0 */\n      swap1\n      pop\n        /* \"src/votingMachine.sol\":3897:3903  uint i */\n      0x00\n        /* \"src/votingMachine.sol\":3904:3905  1 */\n      0x01\n        /* \"src/votingMachine.sol\":3897:3905  uint i=1 */\n      swap1\n      pop\n        /* \"src/votingMachine.sol\":3893:4244  for(uint i=1; i<= election.candidateCount; i++)... */\n    tag_214:\n        /* \"src/votingMachine.sol\":3911:3919  election */\n      dup5\n        /* \"src/votingMachine.sol\":3911:3934  election.candidateCount */\n      0x04\n      add\n      sload\n        /* \"src/votingMachine.sol\":3907:3908  i */\n      dup2\n        /* \"src/votingMachine.sol\":3907:3934  i<= election.candidateCount */\n      gt\n        /* \"src/votingMachine.sol\":3893:4244  for(uint i=1; i<= election.candidateCount; i++)... */\n      tag_215\n      jumpi\n        /* \"src/votingMachine.sol\":4003:4014  winnerVotes */\n      dup2\n        /* \"src/votingMachine.sol\":3968:3976  election */\n      dup6\n        /* \"src/votingMachine.sol\":3968:3987  election.candidates */\n      0x07\n      add\n        /* \"src/votingMachine.sol\":3968:3990  election.candidates[i] */\n      0x00\n        /* \"src/votingMachine.sol\":3988:3989  i */\n      dup4\n        /* \"src/votingMachine.sol\":3968:3990  election.candidates[i] */\n      dup2\n      mstore\n      0x20\n      add\n      swap1\n      dup2\n      mstore\n      0x20\n      add\n      0x00\n      keccak256\n        /* \"src/votingMachine.sol\":3968:4000  election.candidates[i].voteCount */\n      0x02\n      add\n      sload\n        /* \"src/votingMachine.sol\":3968:4014  election.candidates[i].voteCount > winnerVotes */\n      gt\n        /* \"src/votingMachine.sol\":3965:4233  if(election.candidates[i].voteCount > winnerVotes)... */\n      iszero\n      tag_217\n      jumpi\n        /* \"src/votingMachine.sol\":4059:4067  election */\n      dup5\n        /* \"src/votingMachine.sol\":4059:4078  election.candidates */\n      0x07\n      add\n        /* \"src/votingMachine.sol\":4059:4081  election.candidates[i] */\n      0x00\n        /* \"src/votingMachine.sol\":4079:4080  i */\n      dup3\n        /* \"src/votingMachine.sol\":4059:4081  election.candidates[i] */\n      dup2\n      mstore\n      0x20\n      add\n      swap1\n      dup2\n      mstore\n      0x20\n      add\n      0x00\n      keccak256\n        /* \"src/votingMachine.sol\":4059:4093  election.candidates[i].candidateId */\n      0x01\n      add\n      sload\n        /* \"src/votingMachine.sol\":4048:4093  winnerId = election.candidates[i].candidateId */\n      swap4\n      pop\n        /* \"src/votingMachine.sol\":4125:4133  election */\n      dup5\n        /* \"src/votingMachine.sol\":4125:4144  election.candidates */\n      0x07\n      add\n        /* \"src/votingMachine.sol\":4125:4147  election.candidates[i] */\n      0x00\n        /* \"src/votingMachine.sol\":4145:4146  i */\n      dup3\n        /* \"src/votingMachine.sol\":4125:4147  election.candidates[i] */\n      dup2\n      mstore\n      0x20\n      add\n      swap1\n      dup2\n      mstore\n      0x20\n      add\n      0x00\n      keccak256\n        /* \"src/votingMachine.sol\":4125:4152  election.candidates[i].name */\n      0x00\n      add\n        /* \"src/votingMachine.sol\":4112:4152  winnerName = election.candidates[i].name */\n      dup1\n      sload\n      tag_218\n      swap1\n      tag_96\n      jump\t// in\n    tag_218:\n      dup1\n      0x1f\n      add\n      0x20\n      dup1\n      swap2\n      div\n      mul\n      0x20\n      add\n      mload(0x40)\n      swap1\n      dup2\n      add\n      0x40\n      mstore\n      dup1\n      swap3\n      swap2\n      swap1\n      dup2\n      dup2\n      mstore\n      0x20\n      add\n      dup3\n      dup1\n      sload\n      tag_219\n      swap1\n      tag_96\n      jump\t// in\n    tag_219:\n      dup1\n      iszero\n      tag_220\n      jumpi\n      dup1\n      0x1f\n      lt\n      tag_221\n      jumpi\n      0x0100\n      dup1\n      dup4\n      sload\n      div\n      mul\n      dup4\n      mstore\n      swap2\n      0x20\n      add\n      swap2\n      jump(tag_220)\n    tag_221:\n      dup3\n      add\n      swap2\n      swap1\n      0x00\n      mstore\n      keccak256(0x00, 0x20)\n      swap1\n    tag_222:\n      dup2\n      sload\n      dup2\n      mstore\n      swap1\n      0x01\n      add\n      swap1\n      0x20\n      add\n      dup1\n      dup4\n      gt\n      tag_222\n      jumpi\n      dup3\n      swap1\n      sub\n      0x1f\n      and\n      dup3\n      add\n      swap2\n    tag_220:\n      pop\n      pop\n      pop\n      pop\n      pop\n      swap3\n      pop\n        /* \"src/votingMachine.sol\":4185:4193  election */\n      dup5\n        /* \"src/votingMachine.sol\":4185:4204  election.candidates */\n      0x07\n      add\n        /* \"src/votingMachine.sol\":4185:4207  election.candidates[i] */\n      0x00\n        /* \"src/votingMachine.sol\":4205:4206  i */\n      dup3\n        /* \"src/votingMachine.sol\":4185:4207  election.candidates[i] */\n      dup2\n      mstore\n      0x20\n      add\n      swap1\n      dup2\n      mstore\n      0x20\n      add\n      0x00\n      keccak256\n        /* \"src/votingMachine.sol\":4185:4217  election.candidates[i].voteCount */\n      0x02\n      add\n      sload\n        /* \"src/votingMachine.sol\":4171:4217  winnerVotes = election.candidates[i].voteCount */\n      swap2\n      pop\n        /* \"src/votingMachine.sol\":3965:4233  if(election.candidates[i].voteCount > winnerVotes)... */\n    tag_217:\n        /* \"src/votingMachine.sol\":3936:3939  i++ */\n      dup1\n      dup1\n      tag_223\n      swap1\n      tag_85\n      jump\t// in\n    tag_223:\n      swap2\n      pop\n      pop\n        /* \"src/votingMachine.sol\":3893:4244  for(uint i=1; i<= election.candidateCount; i++)... */\n      jump(tag_214)\n    tag_215:\n      pop\n        /* \"src/votingMachine.sol\":4261:4365  ElectionEnded(election.electionId, election.name, winnerId, winnerName, winnerVotes, election.totalVote) */\n      0x3b6c4d7e2cef081634247cfac8d389fcae0ae5780d888244df410080efa0bec3\n        /* \"src/votingMachine.sol\":4275:4283  election */\n      dup5\n        /* \"src/votingMachine.sol\":4275:4294  election.electionId */\n      0x00\n      add\n      sload\n        /* \"src/votingMachine.sol\":4296:4304  election */\n      dup6\n        /* \"src/votingMachine.sol\":4296:4309  election.name */\n      0x02\n      add\n        /* \"src/votingMachine.sol\":4311:4319  winnerId */\n      dup6\n        /* \"src/votingMachine.sol\":4321:4331  winnerName */\n      dup6\n        /* \"src/votingMachine.sol\":4333:4344  winnerVotes */\n      dup6\n        /* \"src/votingMachine.sol\":4346:4354  election */\n      dup10\n        /* \"src/votingMachine.sol\":4346:4364  election.totalVote */\n      0x05\n      add\n      sload\n        /* \"src/votingMachine.sol\":4261:4365  ElectionEnded(election.electionId, election.name, winnerId, winnerName, winnerVotes, election.totalVote) */\n      mload(0x40)\n      tag_224\n      swap7\n      swap6\n      swap5\n      swap4\n      swap3\n      swap2\n      swap1\n      tag_225\n      jump\t// in\n    tag_224:\n      mload(0x40)\n      dup1\n      swap2\n      sub\n      swap1\n      log1\n        /* \"src/votingMachine.sol\":4384:4392  winnerId */\n      dup3\n        /* \"src/votingMachine.sol\":4393:4403  winnerName */\n      dup3\n        /* \"src/votingMachine.sol\":4404:4415  winnerVotes */\n      dup3\n        /* \"src/votingMachine.sol\":4376:4416  return (winnerId,winnerName,winnerVotes) */\n      swap9\n      pop\n      swap9\n      pop\n      swap9\n      pop\n      pop\n      pop\n      pop\n      pop\n        /* \"src/votingMachine.sol\":1252:1253  _ */\n      pop\n        /* \"src/votingMachine.sol\":1083:1084  _ */\n      pop\n        /* \"src/votingMachine.sol\":3541:4426  function endElection(uint _electionId) public onlyAdmin electionExists(_electionId) electionActive(_electionId) returns(uint,string memory,uint)... */\n      swap2\n      swap4\n      swap1\n      swap3\n      pop\n      jump\t// out\n        /* \"src/votingMachine.sol\":5837:6302  function getElections() public  view returns(uint [] memory, string [] memory)... */\n    tag_62:\n        /* \"src/votingMachine.sol\":5882:5896  uint [] memory */\n      0x60\n        /* \"src/votingMachine.sol\":5898:5914  string [] memory */\n      dup1\n        /* \"src/votingMachine.sol\":5954:5955  0 */\n      0x00\n        /* \"src/votingMachine.sol\":5940:5953  electionCount */\n      sload(0x01)\n        /* \"src/votingMachine.sol\":5940:5955  electionCount>0 */\n      gt\n        /* \"src/votingMachine.sol\":5932:5994  require(electionCount>0,\"There is no election is running now\") */\n      tag_227\n      jumpi\n      mload(0x40)\n      0x08c379a000000000000000000000000000000000000000000000000000000000\n      dup2\n      mstore\n      0x04\n      add\n      tag_228\n      swap1\n      tag_229\n      jump\t// in\n    tag_228:\n      mload(0x40)\n      dup1\n      swap2\n      sub\n      swap1\n      revert\n    tag_227:\n        /* \"src/votingMachine.sol\":6005:6030  uint [] memory electionId */\n      0x00\n        /* \"src/votingMachine.sol\":6043:6056  electionCount */\n      sload(0x01)\n        /* \"src/votingMachine.sol\":6032:6057  new uint[](electionCount) */\n      0xffffffffffffffff\n      dup2\n      gt\n      iszero\n      tag_230\n      jumpi\n      tag_231\n      tag_131\n      jump\t// in\n    tag_231:\n    tag_230:\n      mload(0x40)\n      swap1\n      dup1\n      dup3\n      mstore\n      dup1\n      0x20\n      mul\n      0x20\n      add\n      dup3\n      add\n      0x40\n      mstore\n      dup1\n      iszero\n      tag_232\n      jumpi\n      dup2\n      0x20\n      add\n      0x20\n      dup3\n      mul\n      dup1\n      calldatasize\n      dup4\n      calldatacopy\n      dup1\n      dup3\n      add\n      swap2\n      pop\n      pop\n      swap1\n      pop\n    tag_232:\n      pop\n        /* \"src/votingMachine.sol\":6005:6057  uint [] memory electionId= new uint[](electionCount) */\n      swap1\n      pop\n        /* \"src/votingMachine.sol\":6068:6089  string [] memory Name */\n      0x00\n        /* \"src/votingMachine.sol\":6104:6117  electionCount */\n      sload(0x01)\n        /* \"src/votingMachine.sol\":6091:6118  new string[](electionCount) */\n      0xffffffffffffffff\n      dup2\n      gt\n      iszero\n      tag_233\n      jumpi\n      tag_234\n      tag_131\n      jump\t// in\n    tag_234:\n    tag_233:\n      mload(0x40)\n      swap1\n      dup1\n      dup3\n      mstore\n      dup1\n      0x20\n      mul\n      0x20\n      add\n      dup3\n      add\n      0x40\n      mstore\n      dup1\n      iszero\n      tag_235\n      jumpi\n      dup2\n      0x20\n      add\n    tag_236:\n      0x60\n      dup2\n      mstore\n      0x20\n      add\n      swap1\n      0x01\n      swap1\n      sub\n      swap1\n      dup2\n      tag_236\n      jumpi\n      swap1\n      pop\n    tag_235:\n      pop\n        /* \"src/votingMachine.sol\":6068:6118  string [] memory Name= new string[](electionCount) */\n      swap1\n      pop\n        /* \"src/votingMachine.sol\":6133:6139  uint i */\n      0x00\n        /* \"src/votingMachine.sol\":6140:6141  0 */\n      0x00\n        /* \"src/votingMachine.sol\":6133:6141  uint i=0 */\n      swap1\n      pop\n        /* \"src/votingMachine.sol\":6129:6260  for(uint i=0;i<electionCount;i++)... */\n    tag_237:\n        /* \"src/votingMachine.sol\":6144:6157  electionCount */\n      sload(0x01)\n        /* \"src/votingMachine.sol\":6142:6143  i */\n      dup2\n        /* \"src/votingMachine.sol\":6142:6157  i<electionCount */\n      lt\n        /* \"src/votingMachine.sol\":6129:6260  for(uint i=0;i<electionCount;i++)... */\n      iszero\n      tag_238\n      jumpi\n        /* \"src/votingMachine.sol\":6204:6205  1 */\n      0x01\n        /* \"src/votingMachine.sol\":6202:6203  i */\n      dup2\n        /* \"src/votingMachine.sol\":6202:6205  i+1 */\n      tag_240\n      swap2\n      swap1\n      tag_144\n      jump\t// in\n    tag_240:\n        /* \"src/votingMachine.sol\":6187:6197  electionId */\n      dup4\n        /* \"src/votingMachine.sol\":6198:6199  i */\n      dup3\n        /* \"src/votingMachine.sol\":6187:6200  electionId[i] */\n      dup2\n      mload\n      dup2\n      lt\n      tag_241\n      jumpi\n      tag_242\n      tag_147\n      jump\t// in\n    tag_242:\n    tag_241:\n      0x20\n      mul\n      0x20\n      add\n      add\n        /* \"src/votingMachine.sol\":6187:6205  electionId[i] =i+1 */\n      dup2\n      dup2\n      mstore\n      pop\n      pop\n        /* \"src/votingMachine.sol\":6229:6238  elections */\n      0x02\n        /* \"src/votingMachine.sol\":6229:6243  elections[i+1] */\n      0x00\n        /* \"src/votingMachine.sol\":6241:6242  1 */\n      0x01\n        /* \"src/votingMachine.sol\":6239:6240  i */\n      dup4\n        /* \"src/votingMachine.sol\":6239:6242  i+1 */\n      tag_243\n      swap2\n      swap1\n      tag_144\n      jump\t// in\n    tag_243:\n        /* \"src/votingMachine.sol\":6229:6243  elections[i+1] */\n      dup2\n      mstore\n      0x20\n      add\n      swap1\n      dup2\n      mstore\n      0x20\n      add\n      0x00\n      keccak256\n        /* \"src/votingMachine.sol\":6229:6248  elections[i+1].name */\n      0x02\n      add\n        /* \"src/votingMachine.sol\":6220:6248  Name[i]= elections[i+1].name */\n      dup1\n      sload\n      tag_244\n      swap1\n      tag_96\n      jump\t// in\n    tag_244:\n      dup1\n      0x1f\n      add\n      0x20\n      dup1\n      swap2\n      div\n      mul\n      0x20\n      add\n      mload(0x40)\n      swap1\n      dup2\n      add\n      0x40\n      mstore\n      dup1\n      swap3\n      swap2\n      swap1\n      dup2\n      dup2\n      mstore\n      0x20\n      add\n      dup3\n      dup1\n      sload\n      tag_245\n      swap1\n      tag_96\n      jump\t// in\n    tag_245:\n      dup1\n      iszero\n      tag_246\n      jumpi\n      dup1\n      0x1f\n      lt\n      tag_247\n      jumpi\n      0x0100\n      dup1\n      dup4\n      sload\n      div\n      mul\n      dup4\n      mstore\n      swap2\n      0x20\n      add\n      swap2\n      jump(tag_246)\n    tag_247:\n      dup3\n      add\n      swap2\n      swap1\n      0x00\n      mstore\n      keccak256(0x00, 0x20)\n      swap1\n    tag_248:\n      dup2\n      sload\n      dup2\n      mstore\n      swap1\n      0x01\n      add\n      swap1\n      0x20\n      add\n      dup1\n      dup4\n      gt\n      tag_248\n      jumpi\n      dup3\n      swap1\n      sub\n      0x1f\n      and\n      dup3\n      add\n      swap2\n    tag_246:\n      pop\n      pop\n      pop\n      pop\n      pop\n        /* \"src/votingMachine.sol\":6220:6224  Name */\n      dup3\n        /* \"src/votingMachine.sol\":6225:6226  i */\n      dup3\n        /* \"src/votingMachine.sol\":6220:6227  Name[i] */\n      dup2\n      mload\n      dup2\n      lt\n      tag_249\n      jumpi\n      tag_250\n      tag_147\n      jump\t// in\n    tag_250:\n    tag_249:\n      0x20\n      mul\n      0x20\n      add\n      add\n        /* \"src/votingMachine.sol\":6220:6248  Name[i]= elections[i+1].name */\n      dup2\n      swap1\n      mstore\n      pop\n        /* \"src/votingMachine.sol\":6158:6161  i++ */\n      dup1\n      dup1\n      0x01\n      add\n      swap2\n      pop\n      pop\n        /* \"src/votingMachine.sol\":6129:6260  for(uint i=0;i<electionCount;i++)... */\n      jump(tag_237)\n    tag_238:\n      pop\n        /* \"src/votingMachine.sol\":6278:6288  electionId */\n      dup2\n        /* \"src/votingMachine.sol\":6289:6293  Name */\n      dup2\n        /* \"src/votingMachine.sol\":6270:6294  return (electionId,Name) */\n      swap4\n      pop\n      swap4\n      pop\n      pop\n      pop\n        /* \"src/votingMachine.sol\":5837:6302  function getElections() public  view returns(uint [] memory, string [] memory)... */\n      swap1\n      swap2\n      jump\t// out\n        /* \"src/votingMachine.sol\":463:483  address public admin */\n    tag_66:\n      0x00\n      0x00\n      swap1\n      sload\n      swap1\n      0x0100\n      exp\n      swap1\n      div\n      0xffffffffffffffffffffffffffffffffffffffff\n      and\n      dup2\n      jump\t// out\n        /* \"#utility.yul\":7:82   */\n    tag_251:\n        /* \"#utility.yul\":40:46   */\n      0x00\n        /* \"#utility.yul\":73:75   */\n      0x40\n        /* \"#utility.yul\":67:76   */\n      mload\n        /* \"#utility.yul\":57:76   */\n      swap1\n      pop\n        /* \"#utility.yul\":7:82   */\n      swap1\n      jump\t// out\n        /* \"#utility.yul\":88:205   */\n    tag_252:\n        /* \"#utility.yul\":197:198   */\n      0x00\n        /* \"#utility.yul\":194:195   */\n      0x00\n        /* \"#utility.yul\":187:199   */\n      revert\n        /* \"#utility.yul\":211:328   */\n    tag_253:\n        /* \"#utility.yul\":320:321   */\n      0x00\n        /* \"#utility.yul\":317:318   */\n      0x00\n        /* \"#utility.yul\":310:322   */\n      revert\n        /* \"#utility.yul\":334:411   */\n    tag_254:\n        /* \"#utility.yul\":371:378   */\n      0x00\n        /* \"#utility.yul\":400:405   */\n      dup2\n        /* \"#utility.yul\":389:405   */\n      swap1\n      pop\n        /* \"#utility.yul\":334:411   */\n      swap2\n      swap1\n      pop\n      jump\t// out\n        /* \"#utility.yul\":417:539   */\n    tag_255:\n        /* \"#utility.yul\":490:514   */\n      tag_329\n        /* \"#utility.yul\":508:513   */\n      dup2\n        /* \"#utility.yul\":490:514   */\n      tag_254\n      jump\t// in\n    tag_329:\n        /* \"#utility.yul\":483:488   */\n      dup2\n        /* \"#utility.yul\":480:515   */\n      eq\n        /* \"#utility.yul\":470:533   */\n      tag_330\n      jumpi\n        /* \"#utility.yul\":529:530   */\n      0x00\n        /* \"#utility.yul\":526:527   */\n      0x00\n        /* \"#utility.yul\":519:531   */\n      revert\n        /* \"#utility.yul\":470:533   */\n    tag_330:\n        /* \"#utility.yul\":417:539   */\n      pop\n      jump\t// out\n        /* \"#utility.yul\":545:684   */\n    tag_256:\n        /* \"#utility.yul\":591:596   */\n      0x00\n        /* \"#utility.yul\":629:635   */\n      dup2\n        /* \"#utility.yul\":616:636   */\n      calldataload\n        /* \"#utility.yul\":607:636   */\n      swap1\n      pop\n        /* \"#utility.yul\":645:678   */\n      tag_332\n        /* \"#utility.yul\":672:677   */\n      dup2\n        /* \"#utility.yul\":645:678   */\n      tag_255\n      jump\t// in\n    tag_332:\n        /* \"#utility.yul\":545:684   */\n      swap3\n      swap2\n      pop\n      pop\n      jump\t// out\n        /* \"#utility.yul\":690:807   */\n    tag_257:\n        /* \"#utility.yul\":799:800   */\n      0x00\n        /* \"#utility.yul\":796:797   */\n      0x00\n        /* \"#utility.yul\":789:801   */\n      revert\n        /* \"#utility.yul\":813:930   */\n    tag_258:\n        /* \"#utility.yul\":922:923   */\n      0x00\n        /* \"#utility.yul\":919:920   */\n      0x00\n        /* \"#utility.yul\":912:924   */\n      revert\n        /* \"#utility.yul\":936:1038   */\n    tag_259:\n        /* \"#utility.yul\":977:983   */\n      0x00\n        /* \"#utility.yul\":1028:1030   */\n      0x1f\n        /* \"#utility.yul\":1024:1031   */\n      not\n        /* \"#utility.yul\":1019:1021   */\n      0x1f\n        /* \"#utility.yul\":1012:1017   */\n      dup4\n        /* \"#utility.yul\":1008:1022   */\n      add\n        /* \"#utility.yul\":1004:1032   */\n      and\n        /* \"#utility.yul\":994:1032   */\n      swap1\n      pop\n        /* \"#utility.yul\":936:1038   */\n      swap2\n      swap1\n      pop\n      jump\t// out\n        /* \"#utility.yul\":1044:1224   */\n    tag_131:\n        /* \"#utility.yul\":1092:1169   */\n      0x4e487b7100000000000000000000000000000000000000000000000000000000\n        /* \"#utility.yul\":1089:1090   */\n      0x00\n        /* \"#utility.yul\":1082:1170   */\n      mstore\n        /* \"#utility.yul\":1189:1193   */\n      0x41\n        /* \"#utility.yul\":1186:1187   */\n      0x04\n        /* \"#utility.yul\":1179:1194   */\n      mstore\n        /* \"#utility.yul\":1213:1217   */\n      0x24\n        /* \"#utility.yul\":1210:1211   */\n      0x00\n        /* \"#utility.yul\":1203:1218   */\n      revert\n        /* \"#utility.yul\":1230:1511   */\n    tag_260:\n        /* \"#utility.yul\":1313:1340   */\n      tag_338\n        /* \"#utility.yul\":1335:1339   */\n      dup3\n        /* \"#utility.yul\":1313:1340   */\n      tag_259\n      jump\t// in\n    tag_338:\n        /* \"#utility.yul\":1305:1311   */\n      dup2\n        /* \"#utility.yul\":1301:1341   */\n      add\n        /* \"#utility.yul\":1443:1449   */\n      dup2\n        /* \"#utility.yul\":1431:1441   */\n      dup2\n        /* \"#utility.yul\":1428:1450   */\n      lt\n        /* \"#utility.yul\":1407:1425   */\n      0xffffffffffffffff\n        /* \"#utility.yul\":1395:1405   */\n      dup3\n        /* \"#utility.yul\":1392:1426   */\n      gt\n        /* \"#utility.yul\":1389:1451   */\n      or\n        /* \"#utility.yul\":1386:1474   */\n      iszero\n      tag_339\n      jumpi\n        /* \"#utility.yul\":1454:1472   */\n      tag_340\n      tag_131\n      jump\t// in\n    tag_340:\n        /* \"#utility.yul\":1386:1474   */\n    tag_339:\n        /* \"#utility.yul\":1494:1504   */\n      dup1\n        /* \"#utility.yul\":1490:1492   */\n      0x40\n        /* \"#utility.yul\":1483:1505   */\n      mstore\n        /* \"#utility.yul\":1273:1511   */\n      pop\n        /* \"#utility.yul\":1230:1511   */\n      pop\n      pop\n      jump\t// out\n        /* \"#utility.yul\":1517:1646   */\n    tag_261:\n        /* \"#utility.yul\":1551:1557   */\n      0x00\n        /* \"#utility.yul\":1578:1598   */\n      tag_342\n      tag_251\n      jump\t// in\n    tag_342:\n        /* \"#utility.yul\":1568:1598   */\n      swap1\n      pop\n        /* \"#utility.yul\":1607:1640   */\n      tag_343\n        /* \"#utility.yul\":1635:1639   */\n      dup3\n        /* \"#utility.yul\":1627:1633   */\n      dup3\n        /* \"#utility.yul\":1607:1640   */\n      tag_260\n      jump\t// in\n    tag_343:\n        /* \"#utility.yul\":1517:1646   */\n      swap2\n      swap1\n      pop\n      jump\t// out\n        /* \"#utility.yul\":1652:1960   */\n    tag_262:\n        /* \"#utility.yul\":1714:1718   */\n      0x00\n        /* \"#utility.yul\":1804:1822   */\n      0xffffffffffffffff\n        /* \"#utility.yul\":1796:1802   */\n      dup3\n        /* \"#utility.yul\":1793:1823   */\n      gt\n        /* \"#utility.yul\":1790:1846   */\n      iszero\n      tag_345\n      jumpi\n        /* \"#utility.yul\":1826:1844   */\n      tag_346\n      tag_131\n      jump\t// in\n    tag_346:\n        /* \"#utility.yul\":1790:1846   */\n    tag_345:\n        /* \"#utility.yul\":1864:1893   */\n      tag_347\n        /* \"#utility.yul\":1886:1892   */\n      dup3\n        /* \"#utility.yul\":1864:1893   */\n      tag_259\n      jump\t// in\n    tag_347:\n        /* \"#utility.yul\":1856:1893   */\n      swap1\n      pop\n        /* \"#utility.yul\":1948:1952   */\n      0x20\n        /* \"#utility.yul\":1942:1946   */\n      dup2\n        /* \"#utility.yul\":1938:1953   */\n      add\n        /* \"#utility.yul\":1930:1953   */\n      swap1\n      pop\n        /* \"#utility.yul\":1652:1960   */\n      swap2\n      swap1\n      pop\n      jump\t// out\n        /* \"#utility.yul\":1966:2114   */\n    tag_263:\n        /* \"#utility.yul\":2064:2070   */\n      dup3\n        /* \"#utility.yul\":2059:2062   */\n      dup2\n        /* \"#utility.yul\":2054:2057   */\n      dup4\n        /* \"#utility.yul\":2041:2071   */\n      calldatacopy\n        /* \"#utility.yul\":2105:2106   */\n      0x00\n        /* \"#utility.yul\":2096:2102   */\n      dup4\n        /* \"#utility.yul\":2091:2094   */\n      dup4\n        /* \"#utility.yul\":2087:2103   */\n      add\n        /* \"#utility.yul\":2080:2107   */\n      mstore\n        /* \"#utility.yul\":1966:2114   */\n      pop\n      pop\n      pop\n      jump\t// out\n        /* \"#utility.yul\":2120:2545   */\n    tag_264:\n        /* \"#utility.yul\":2198:2203   */\n      0x00\n        /* \"#utility.yul\":2223:2289   */\n      tag_350\n        /* \"#utility.yul\":2239:2288   */\n      tag_351\n        /* \"#utility.yul\":2281:2287   */\n      dup5\n        /* \"#utility.yul\":2239:2288   */\n      tag_262\n      jump\t// in\n    tag_351:\n        /* \"#utility.yul\":2223:2289   */\n      tag_261\n      jump\t// in\n    tag_350:\n        /* \"#utility.yul\":2214:2289   */\n      swap1\n      pop\n        /* \"#utility.yul\":2312:2318   */\n      dup3\n        /* \"#utility.yul\":2305:2310   */\n      dup2\n        /* \"#utility.yul\":2298:2319   */\n      mstore\n        /* \"#utility.yul\":2350:2354   */\n      0x20\n        /* \"#utility.yul\":2343:2348   */\n      dup2\n        /* \"#utility.yul\":2339:2355   */\n      add\n        /* \"#utility.yul\":2388:2391   */\n      dup5\n        /* \"#utility.yul\":2379:2385   */\n      dup5\n        /* \"#utility.yul\":2374:2377   */\n      dup5\n        /* \"#utility.yul\":2370:2386   */\n      add\n        /* \"#utility.yul\":2367:2392   */\n      gt\n        /* \"#utility.yul\":2364:2476   */\n      iszero\n      tag_352\n      jumpi\n        /* \"#utility.yul\":2395:2474   */\n      tag_353\n      tag_258\n      jump\t// in\n    tag_353:\n        /* \"#utility.yul\":2364:2476   */\n    tag_352:\n        /* \"#utility.yul\":2485:2539   */\n      tag_354\n        /* \"#utility.yul\":2532:2538   */\n      dup5\n        /* \"#utility.yul\":2527:2530   */\n      dup3\n        /* \"#utility.yul\":2522:2525   */\n      dup6\n        /* \"#utility.yul\":2485:2539   */\n      tag_263\n      jump\t// in\n    tag_354:\n        /* \"#utility.yul\":2204:2545   */\n      pop\n        /* \"#utility.yul\":2120:2545   */\n      swap4\n      swap3\n      pop\n      pop\n      pop\n      jump\t// out\n        /* \"#utility.yul\":2565:2905   */\n    tag_265:\n        /* \"#utility.yul\":2621:2626   */\n      0x00\n        /* \"#utility.yul\":2670:2673   */\n      dup3\n        /* \"#utility.yul\":2663:2667   */\n      0x1f\n        /* \"#utility.yul\":2655:2661   */\n      dup4\n        /* \"#utility.yul\":2651:2668   */\n      add\n        /* \"#utility.yul\":2647:2674   */\n      slt\n        /* \"#utility.yul\":2637:2759   */\n      tag_356\n      jumpi\n        /* \"#utility.yul\":2678:2757   */\n      tag_357\n      tag_257\n      jump\t// in\n    tag_357:\n        /* \"#utility.yul\":2637:2759   */\n    tag_356:\n        /* \"#utility.yul\":2795:2801   */\n      dup2\n        /* \"#utility.yul\":2782:2802   */\n      calldataload\n        /* \"#utility.yul\":2820:2899   */\n      tag_358\n        /* \"#utility.yul\":2895:2898   */\n      dup5\n        /* \"#utility.yul\":2887:2893   */\n      dup3\n        /* \"#utility.yul\":2880:2884   */\n      0x20\n        /* \"#utility.yul\":2872:2878   */\n      dup7\n        /* \"#utility.yul\":2868:2885   */\n      add\n        /* \"#utility.yul\":2820:2899   */\n      tag_264\n      jump\t// in\n    tag_358:\n        /* \"#utility.yul\":2811:2899   */\n      swap2\n      pop\n        /* \"#utility.yul\":2627:2905   */\n      pop\n        /* \"#utility.yul\":2565:2905   */\n      swap3\n      swap2\n      pop\n      pop\n      jump\t// out\n        /* \"#utility.yul\":2911:3565   */\n    tag_18:\n        /* \"#utility.yul\":2989:2995   */\n      0x00\n        /* \"#utility.yul\":2997:3003   */\n      0x00\n        /* \"#utility.yul\":3046:3048   */\n      0x40\n        /* \"#utility.yul\":3034:3043   */\n      dup4\n        /* \"#utility.yul\":3025:3032   */\n      dup6\n        /* \"#utility.yul\":3021:3044   */\n      sub\n        /* \"#utility.yul\":3017:3049   */\n      slt\n        /* \"#utility.yul\":3014:3133   */\n      iszero\n      tag_360\n      jumpi\n        /* \"#utility.yul\":3052:3131   */\n      tag_361\n      tag_252\n      jump\t// in\n    tag_361:\n        /* \"#utility.yul\":3014:3133   */\n    tag_360:\n        /* \"#utility.yul\":3172:3173   */\n      0x00\n        /* \"#utility.yul\":3197:3250   */\n      tag_362\n        /* \"#utility.yul\":3242:3249   */\n      dup6\n        /* \"#utility.yul\":3233:3239   */\n      dup3\n        /* \"#utility.yul\":3222:3231   */\n      dup7\n        /* \"#utility.yul\":3218:3240   */\n      add\n        /* \"#utility.yul\":3197:3250   */\n      tag_256\n      jump\t// in\n    tag_362:\n        /* \"#utility.yul\":3187:3250   */\n      swap3\n      pop\n        /* \"#utility.yul\":3143:3260   */\n      pop\n        /* \"#utility.yul\":3327:3329   */\n      0x20\n        /* \"#utility.yul\":3316:3325   */\n      dup4\n        /* \"#utility.yul\":3312:3330   */\n      add\n        /* \"#utility.yul\":3299:3331   */\n      calldataload\n        /* \"#utility.yul\":3358:3376   */\n      0xffffffffffffffff\n        /* \"#utility.yul\":3350:3356   */\n      dup2\n        /* \"#utility.yul\":3347:3377   */\n      gt\n        /* \"#utility.yul\":3344:3461   */\n      iszero\n      tag_363\n      jumpi\n        /* \"#utility.yul\":3380:3459   */\n      tag_364\n      tag_253\n      jump\t// in\n    tag_364:\n        /* \"#utility.yul\":3344:3461   */\n    tag_363:\n        /* \"#utility.yul\":3485:3548   */\n      tag_365\n        /* \"#utility.yul\":3540:3547   */\n      dup6\n        /* \"#utility.yul\":3531:3537   */\n      dup3\n        /* \"#utility.yul\":3520:3529   */\n      dup7\n        /* \"#utility.yul\":3516:3538   */\n      add\n        /* \"#utility.yul\":3485:3548   */\n      tag_265\n      jump\t// in\n    tag_365:\n        /* \"#utility.yul\":3475:3548   */\n      swap2\n      pop\n        /* \"#utility.yul\":3270:3558   */\n      pop\n        /* \"#utility.yul\":2911:3565   */\n      swap3\n      pop\n      swap3\n      swap1\n      pop\n      jump\t// out\n        /* \"#utility.yul\":3571:3900   */\n    tag_22:\n        /* \"#utility.yul\":3630:3636   */\n      0x00\n        /* \"#utility.yul\":3679:3681   */\n      0x20\n        /* \"#utility.yul\":3667:3676   */\n      dup3\n        /* \"#utility.yul\":3658:3665   */\n      dup5\n        /* \"#utility.yul\":3654:3677   */\n      sub\n        /* \"#utility.yul\":3650:3682   */\n      slt\n        /* \"#utility.yul\":3647:3766   */\n      iszero\n      tag_367\n      jumpi\n        /* \"#utility.yul\":3685:3764   */\n      tag_368\n      tag_252\n      jump\t// in\n    tag_368:\n        /* \"#utility.yul\":3647:3766   */\n    tag_367:\n        /* \"#utility.yul\":3805:3806   */\n      0x00\n        /* \"#utility.yul\":3830:3883   */\n      tag_369\n        /* \"#utility.yul\":3875:3882   */\n      dup5\n        /* \"#utility.yul\":3866:3872   */\n      dup3\n        /* \"#utility.yul\":3855:3864   */\n      dup6\n        /* \"#utility.yul\":3851:3873   */\n      add\n        /* \"#utility.yul\":3830:3883   */\n      tag_256\n      jump\t// in\n    tag_369:\n        /* \"#utility.yul\":3820:3883   */\n      swap2\n      pop\n        /* \"#utility.yul\":3776:3893   */\n      pop\n        /* \"#utility.yul\":3571:3900   */\n      swap3\n      swap2\n      pop\n      pop\n      jump\t// out\n        /* \"#utility.yul\":3906:4005   */\n    tag_266:\n        /* \"#utility.yul\":3958:3964   */\n      0x00\n        /* \"#utility.yul\":3992:3997   */\n      dup2\n        /* \"#utility.yul\":3986:3998   */\n      mload\n        /* \"#utility.yul\":3976:3998   */\n      swap1\n      pop\n        /* \"#utility.yul\":3906:4005   */\n      swap2\n      swap1\n      pop\n      jump\t// out\n        /* \"#utility.yul\":4011:4180   */\n    tag_267:\n        /* \"#utility.yul\":4095:4106   */\n      0x00\n        /* \"#utility.yul\":4129:4135   */\n      dup3\n        /* \"#utility.yul\":4124:4127   */\n      dup3\n        /* \"#utility.yul\":4117:4136   */\n      mstore\n        /* \"#utility.yul\":4169:4173   */\n      0x20\n        /* \"#utility.yul\":4164:4167   */\n      dup3\n        /* \"#utility.yul\":4160:4174   */\n      add\n        /* \"#utility.yul\":4145:4174   */\n      swap1\n      pop\n        /* \"#utility.yul\":4011:4180   */\n      swap3\n      swap2\n      pop\n      pop\n      jump\t// out\n        /* \"#utility.yul\":4186:4325   */\n    tag_268:\n        /* \"#utility.yul\":4275:4281   */\n      dup3\n        /* \"#utility.yul\":4270:4273   */\n      dup2\n        /* \"#utility.yul\":4265:4268   */\n      dup4\n        /* \"#utility.yul\":4259:4282   */\n      mcopy\n        /* \"#utility.yul\":4316:4317   */\n      0x00\n        /* \"#utility.yul\":4307:4313   */\n      dup4\n        /* \"#utility.yul\":4302:4305   */\n      dup4\n        /* \"#utility.yul\":4298:4314   */\n      add\n        /* \"#utility.yul\":4291:4318   */\n      mstore\n        /* \"#utility.yul\":4186:4325   */\n      pop\n      pop\n      pop\n      jump\t// out\n        /* \"#utility.yul\":4331:4708   */\n    tag_269:\n        /* \"#utility.yul\":4419:4422   */\n      0x00\n        /* \"#utility.yul\":4447:4486   */\n      tag_374\n        /* \"#utility.yul\":4480:4485   */\n      dup3\n        /* \"#utility.yul\":4447:4486   */\n      tag_266\n      jump\t// in\n    tag_374:\n        /* \"#utility.yul\":4502:4573   */\n      tag_375\n        /* \"#utility.yul\":4566:4572   */\n      dup2\n        /* \"#utility.yul\":4561:4564   */\n      dup6\n        /* \"#utility.yul\":4502:4573   */\n      tag_267\n      jump\t// in\n    tag_375:\n        /* \"#utility.yul\":4495:4573   */\n      swap4\n      pop\n        /* \"#utility.yul\":4582:4647   */\n      tag_376\n        /* \"#utility.yul\":4640:4646   */\n      dup2\n        /* \"#utility.yul\":4635:4638   */\n      dup6\n        /* \"#utility.yul\":4628:4632   */\n      0x20\n        /* \"#utility.yul\":4621:4626   */\n      dup7\n        /* \"#utility.yul\":4617:4633   */\n      add\n        /* \"#utility.yul\":4582:4647   */\n      tag_268\n      jump\t// in\n    tag_376:\n        /* \"#utility.yul\":4672:4701   */\n      tag_377\n        /* \"#utility.yul\":4694:4700   */\n      dup2\n        /* \"#utility.yul\":4672:4701   */\n      tag_259\n      jump\t// in\n    tag_377:\n        /* \"#utility.yul\":4667:4670   */\n      dup5\n        /* \"#utility.yul\":4663:4702   */\n      add\n        /* \"#utility.yul\":4656:4702   */\n      swap2\n      pop\n        /* \"#utility.yul\":4423:4708   */\n      pop\n        /* \"#utility.yul\":4331:4708   */\n      swap3\n      swap2\n      pop\n      pop\n      jump\t// out\n        /* \"#utility.yul\":4714:4832   */\n    tag_270:\n        /* \"#utility.yul\":4801:4825   */\n      tag_379\n        /* \"#utility.yul\":4819:4824   */\n      dup2\n        /* \"#utility.yul\":4801:4825   */\n      tag_254\n      jump\t// in\n    tag_379:\n        /* \"#utility.yul\":4796:4799   */\n      dup3\n        /* \"#utility.yul\":4789:4826   */\n      mstore\n        /* \"#utility.yul\":4714:4832   */\n      pop\n      pop\n      jump\t// out\n        /* \"#utility.yul\":4838:5261   */\n    tag_25:\n        /* \"#utility.yul\":4979:4983   */\n      0x00\n        /* \"#utility.yul\":5017:5019   */\n      0x40\n        /* \"#utility.yul\":5006:5015   */\n      dup3\n        /* \"#utility.yul\":5002:5020   */\n      add\n        /* \"#utility.yul\":4994:5020   */\n      swap1\n      pop\n        /* \"#utility.yul\":5066:5075   */\n      dup2\n        /* \"#utility.yul\":5060:5064   */\n      dup2\n        /* \"#utility.yul\":5056:5076   */\n      sub\n        /* \"#utility.yul\":5052:5053   */\n      0x00\n        /* \"#utility.yul\":5041:5050   */\n      dup4\n        /* \"#utility.yul\":5037:5054   */\n      add\n        /* \"#utility.yul\":5030:5077   */\n      mstore\n        /* \"#utility.yul\":5094:5172   */\n      tag_381\n        /* \"#utility.yul\":5167:5171   */\n      dup2\n        /* \"#utility.yul\":5158:5164   */\n      dup6\n        /* \"#utility.yul\":5094:5172   */\n      tag_269\n      jump\t// in\n    tag_381:\n        /* \"#utility.yul\":5086:5172   */\n      swap1\n      pop\n        /* \"#utility.yul\":5182:5254   */\n      tag_382\n        /* \"#utility.yul\":5250:5252   */\n      0x20\n        /* \"#utility.yul\":5239:5248   */\n      dup4\n        /* \"#utility.yul\":5235:5253   */\n      add\n        /* \"#utility.yul\":5226:5232   */\n      dup5\n        /* \"#utility.yul\":5182:5254   */\n      tag_270\n      jump\t// in\n    tag_382:\n        /* \"#utility.yul\":4838:5261   */\n      swap4\n      swap3\n      pop\n      pop\n      pop\n      jump\t// out\n        /* \"#utility.yul\":5267:5741   */\n    tag_28:\n        /* \"#utility.yul\":5335:5341   */\n      0x00\n        /* \"#utility.yul\":5343:5349   */\n      0x00\n        /* \"#utility.yul\":5392:5394   */\n      0x40\n        /* \"#utility.yul\":5380:5389   */\n      dup4\n        /* \"#utility.yul\":5371:5378   */\n      dup6\n        /* \"#utility.yul\":5367:5390   */\n      sub\n        /* \"#utility.yul\":5363:5395   */\n      slt\n        /* \"#utility.yul\":5360:5479   */\n      iszero\n      tag_384\n      jumpi\n        /* \"#utility.yul\":5398:5477   */\n      tag_385\n      tag_252\n      jump\t// in\n    tag_385:\n        /* \"#utility.yul\":5360:5479   */\n    tag_384:\n        /* \"#utility.yul\":5518:5519   */\n      0x00\n        /* \"#utility.yul\":5543:5596   */\n      tag_386\n        /* \"#utility.yul\":5588:5595   */\n      dup6\n        /* \"#utility.yul\":5579:5585   */\n      dup3\n        /* \"#utility.yul\":5568:5577   */\n      dup7\n        /* \"#utility.yul\":5564:5586   */\n      add\n        /* \"#utility.yul\":5543:5596   */\n      tag_256\n      jump\t// in\n    tag_386:\n        /* \"#utility.yul\":5533:5596   */\n      swap3\n      pop\n        /* \"#utility.yul\":5489:5606   */\n      pop\n        /* \"#utility.yul\":5645:5647   */\n      0x20\n        /* \"#utility.yul\":5671:5724   */\n      tag_387\n        /* \"#utility.yul\":5716:5723   */\n      dup6\n        /* \"#utility.yul\":5707:5713   */\n      dup3\n        /* \"#utility.yul\":5696:5705   */\n      dup7\n        /* \"#utility.yul\":5692:5714   */\n      add\n        /* \"#utility.yul\":5671:5724   */\n      tag_256\n      jump\t// in\n    tag_387:\n        /* \"#utility.yul\":5661:5724   */\n      swap2\n      pop\n        /* \"#utility.yul\":5616:5734   */\n      pop\n        /* \"#utility.yul\":5267:5741   */\n      swap3\n      pop\n      swap3\n      swap1\n      pop\n      jump\t// out\n        /* \"#utility.yul\":5747:5861   */\n    tag_271:\n        /* \"#utility.yul\":5814:5820   */\n      0x00\n        /* \"#utility.yul\":5848:5853   */\n      dup2\n        /* \"#utility.yul\":5842:5854   */\n      mload\n        /* \"#utility.yul\":5832:5854   */\n      swap1\n      pop\n        /* \"#utility.yul\":5747:5861   */\n      swap2\n      swap1\n      pop\n      jump\t// out\n        /* \"#utility.yul\":5867:6051   */\n    tag_272:\n        /* \"#utility.yul\":5966:5977   */\n      0x00\n        /* \"#utility.yul\":6000:6006   */\n      dup3\n        /* \"#utility.yul\":5995:5998   */\n      dup3\n        /* \"#utility.yul\":5988:6007   */\n      mstore\n        /* \"#utility.yul\":6040:6044   */\n      0x20\n        /* \"#utility.yul\":6035:6038   */\n      dup3\n        /* \"#utility.yul\":6031:6045   */\n      add\n        /* \"#utility.yul\":6016:6045   */\n      swap1\n      pop\n        /* \"#utility.yul\":5867:6051   */\n      swap3\n      swap2\n      pop\n      pop\n      jump\t// out\n        /* \"#utility.yul\":6057:6189   */\n    tag_273:\n        /* \"#utility.yul\":6124:6128   */\n      0x00\n        /* \"#utility.yul\":6147:6150   */\n      dup2\n        /* \"#utility.yul\":6139:6150   */\n      swap1\n      pop\n        /* \"#utility.yul\":6177:6181   */\n      0x20\n        /* \"#utility.yul\":6172:6175   */\n      dup3\n        /* \"#utility.yul\":6168:6182   */\n      add\n        /* \"#utility.yul\":6160:6182   */\n      swap1\n      pop\n        /* \"#utility.yul\":6057:6189   */\n      swap2\n      swap1\n      pop\n      jump\t// out\n        /* \"#utility.yul\":6195:6303   */\n    tag_274:\n        /* \"#utility.yul\":6272:6296   */\n      tag_392\n        /* \"#utility.yul\":6290:6295   */\n      dup2\n        /* \"#utility.yul\":6272:6296   */\n      tag_254\n      jump\t// in\n    tag_392:\n        /* \"#utility.yul\":6267:6270   */\n      dup3\n        /* \"#utility.yul\":6260:6297   */\n      mstore\n        /* \"#utility.yul\":6195:6303   */\n      pop\n      pop\n      jump\t// out\n        /* \"#utility.yul\":6309:6488   */\n    tag_275:\n        /* \"#utility.yul\":6378:6388   */\n      0x00\n        /* \"#utility.yul\":6399:6445   */\n      tag_394\n        /* \"#utility.yul\":6441:6444   */\n      dup4\n        /* \"#utility.yul\":6433:6439   */\n      dup4\n        /* \"#utility.yul\":6399:6445   */\n      tag_274\n      jump\t// in\n    tag_394:\n        /* \"#utility.yul\":6477:6481   */\n      0x20\n        /* \"#utility.yul\":6472:6475   */\n      dup4\n        /* \"#utility.yul\":6468:6482   */\n      add\n        /* \"#utility.yul\":6454:6482   */\n      swap1\n      pop\n        /* \"#utility.yul\":6309:6488   */\n      swap3\n      swap2\n      pop\n      pop\n      jump\t// out\n        /* \"#utility.yul\":6494:6607   */\n    tag_276:\n        /* \"#utility.yul\":6564:6568   */\n      0x00\n        /* \"#utility.yul\":6596:6600   */\n      0x20\n        /* \"#utility.yul\":6591:6594   */\n      dup3\n        /* \"#utility.yul\":6587:6601   */\n      add\n        /* \"#utility.yul\":6579:6601   */\n      swap1\n      pop\n        /* \"#utility.yul\":6494:6607   */\n      swap2\n      swap1\n      pop\n      jump\t// out\n        /* \"#utility.yul\":6643:7375   */\n    tag_277:\n        /* \"#utility.yul\":6762:6765   */\n      0x00\n        /* \"#utility.yul\":6791:6845   */\n      tag_397\n        /* \"#utility.yul\":6839:6844   */\n      dup3\n        /* \"#utility.yul\":6791:6845   */\n      tag_271\n      jump\t// in\n    tag_397:\n        /* \"#utility.yul\":6861:6947   */\n      tag_398\n        /* \"#utility.yul\":6940:6946   */\n      dup2\n        /* \"#utility.yul\":6935:6938   */\n      dup6\n        /* \"#utility.yul\":6861:6947   */\n      tag_272\n      jump\t// in\n    tag_398:\n        /* \"#utility.yul\":6854:6947   */\n      swap4\n      pop\n        /* \"#utility.yul\":6971:7027   */\n      tag_399\n        /* \"#utility.yul\":7021:7026   */\n      dup4\n        /* \"#utility.yul\":6971:7027   */\n      tag_273\n      jump\t// in\n    tag_399:\n        /* \"#utility.yul\":7050:7057   */\n      dup1\n        /* \"#utility.yul\":7081:7082   */\n      0x00\n        /* \"#utility.yul\":7066:7350   */\n    tag_400:\n        /* \"#utility.yul\":7091:7097   */\n      dup4\n        /* \"#utility.yul\":7088:7089   */\n      dup2\n        /* \"#utility.yul\":7085:7098   */\n      lt\n        /* \"#utility.yul\":7066:7350   */\n      iszero\n      tag_402\n      jumpi\n        /* \"#utility.yul\":7167:7173   */\n      dup2\n        /* \"#utility.yul\":7161:7174   */\n      mload\n        /* \"#utility.yul\":7194:7257   */\n      tag_403\n        /* \"#utility.yul\":7253:7256   */\n      dup9\n        /* \"#utility.yul\":7238:7251   */\n      dup3\n        /* \"#utility.yul\":7194:7257   */\n      tag_275\n      jump\t// in\n    tag_403:\n        /* \"#utility.yul\":7187:7257   */\n      swap8\n      pop\n        /* \"#utility.yul\":7280:7340   */\n      tag_404\n        /* \"#utility.yul\":7333:7339   */\n      dup4\n        /* \"#utility.yul\":7280:7340   */\n      tag_276\n      jump\t// in\n    tag_404:\n        /* \"#utility.yul\":7270:7340   */\n      swap3\n      pop\n        /* \"#utility.yul\":7126:7350   */\n      pop\n        /* \"#utility.yul\":7113:7114   */\n      0x01\n        /* \"#utility.yul\":7110:7111   */\n      dup2\n        /* \"#utility.yul\":7106:7115   */\n      add\n        /* \"#utility.yul\":7101:7115   */\n      swap1\n      pop\n        /* \"#utility.yul\":7066:7350   */\n      jump(tag_400)\n    tag_402:\n        /* \"#utility.yul\":7070:7084   */\n      pop\n        /* \"#utility.yul\":7366:7369   */\n      dup6\n        /* \"#utility.yul\":7359:7369   */\n      swap4\n      pop\n        /* \"#utility.yul\":6767:7375   */\n      pop\n      pop\n      pop\n        /* \"#utility.yul\":6643:7375   */\n      swap3\n      swap2\n      pop\n      pop\n      jump\t// out\n        /* \"#utility.yul\":7381:7505   */\n    tag_278:\n        /* \"#utility.yul\":7458:7464   */\n      0x00\n        /* \"#utility.yul\":7492:7497   */\n      dup2\n        /* \"#utility.yul\":7486:7498   */\n      mload\n        /* \"#utility.yul\":7476:7498   */\n      swap1\n      pop\n        /* \"#utility.yul\":7381:7505   */\n      swap2\n      swap1\n      pop\n      jump\t// out\n        /* \"#utility.yul\":7511:7705   */\n    tag_279:\n        /* \"#utility.yul\":7620:7631   */\n      0x00\n        /* \"#utility.yul\":7654:7660   */\n      dup3\n        /* \"#utility.yul\":7649:7652   */\n      dup3\n        /* \"#utility.yul\":7642:7661   */\n      mstore\n        /* \"#utility.yul\":7694:7698   */\n      0x20\n        /* \"#utility.yul\":7689:7692   */\n      dup3\n        /* \"#utility.yul\":7685:7699   */\n      add\n        /* \"#utility.yul\":7670:7699   */\n      swap1\n      pop\n        /* \"#utility.yul\":7511:7705   */\n      swap3\n      swap2\n      pop\n      pop\n      jump\t// out\n        /* \"#utility.yul\":7711:7853   */\n    tag_280:\n        /* \"#utility.yul\":7788:7792   */\n      0x00\n        /* \"#utility.yul\":7811:7814   */\n      dup2\n        /* \"#utility.yul\":7803:7814   */\n      swap1\n      pop\n        /* \"#utility.yul\":7841:7845   */\n      0x20\n        /* \"#utility.yul\":7836:7839   */\n      dup3\n        /* \"#utility.yul\":7832:7846   */\n      add\n        /* \"#utility.yul\":7824:7846   */\n      swap1\n      pop\n        /* \"#utility.yul\":7711:7853   */\n      swap2\n      swap1\n      pop\n      jump\t// out\n        /* \"#utility.yul\":7859:8018   */\n    tag_281:\n        /* \"#utility.yul\":7933:7944   */\n      0x00\n        /* \"#utility.yul\":7967:7973   */\n      dup3\n        /* \"#utility.yul\":7962:7965   */\n      dup3\n        /* \"#utility.yul\":7955:7974   */\n      mstore\n        /* \"#utility.yul\":8007:8011   */\n      0x20\n        /* \"#utility.yul\":8002:8005   */\n      dup3\n        /* \"#utility.yul\":7998:8012   */\n      add\n        /* \"#utility.yul\":7983:8012   */\n      swap1\n      pop\n        /* \"#utility.yul\":7859:8018   */\n      swap3\n      swap2\n      pop\n      pop\n      jump\t// out\n        /* \"#utility.yul\":8024:8381   */\n    tag_282:\n        /* \"#utility.yul\":8102:8105   */\n      0x00\n        /* \"#utility.yul\":8130:8169   */\n      tag_410\n        /* \"#utility.yul\":8163:8168   */\n      dup3\n        /* \"#utility.yul\":8130:8169   */\n      tag_266\n      jump\t// in\n    tag_410:\n        /* \"#utility.yul\":8185:8246   */\n      tag_411\n        /* \"#utility.yul\":8239:8245   */\n      dup2\n        /* \"#utility.yul\":8234:8237   */\n      dup6\n        /* \"#utility.yul\":8185:8246   */\n      tag_281\n      jump\t// in\n    tag_411:\n        /* \"#utility.yul\":8178:8246   */\n      swap4\n      pop\n        /* \"#utility.yul\":8255:8320   */\n      tag_412\n        /* \"#utility.yul\":8313:8319   */\n      dup2\n        /* \"#utility.yul\":8308:8311   */\n      dup6\n        /* \"#utility.yul\":8301:8305   */\n      0x20\n        /* \"#utility.yul\":8294:8299   */\n      dup7\n        /* \"#utility.yul\":8290:8306   */\n      add\n        /* \"#utility.yul\":8255:8320   */\n      tag_268\n      jump\t// in\n    tag_412:\n        /* \"#utility.yul\":8345:8374   */\n      tag_413\n        /* \"#utility.yul\":8367:8373   */\n      dup2\n        /* \"#utility.yul\":8345:8374   */\n      tag_259\n      jump\t// in\n    tag_413:\n        /* \"#utility.yul\":8340:8343   */\n      dup5\n        /* \"#utility.yul\":8336:8375   */\n      add\n        /* \"#utility.yul\":8329:8375   */\n      swap2\n      pop\n        /* \"#utility.yul\":8106:8381   */\n      pop\n        /* \"#utility.yul\":8024:8381   */\n      swap3\n      swap2\n      pop\n      pop\n      jump\t// out\n        /* \"#utility.yul\":8387:8583   */\n    tag_283:\n        /* \"#utility.yul\":8476:8486   */\n      0x00\n        /* \"#utility.yul\":8511:8577   */\n      tag_415\n        /* \"#utility.yul\":8573:8576   */\n      dup4\n        /* \"#utility.yul\":8565:8571   */\n      dup4\n        /* \"#utility.yul\":8511:8577   */\n      tag_282\n      jump\t// in\n    tag_415:\n        /* \"#utility.yul\":8497:8577   */\n      swap1\n      pop\n        /* \"#utility.yul\":8387:8583   */\n      swap3\n      swap2\n      pop\n      pop\n      jump\t// out\n        /* \"#utility.yul\":8589:8712   */\n    tag_284:\n        /* \"#utility.yul\":8669:8673   */\n      0x00\n        /* \"#utility.yul\":8701:8705   */\n      0x20\n        /* \"#utility.yul\":8696:8699   */\n      dup3\n        /* \"#utility.yul\":8692:8706   */\n      add\n        /* \"#utility.yul\":8684:8706   */\n      swap1\n      pop\n        /* \"#utility.yul\":8589:8712   */\n      swap2\n      swap1\n      pop\n      jump\t// out\n        /* \"#utility.yul\":8746:9737   */\n    tag_285:\n        /* \"#utility.yul\":8885:8888   */\n      0x00\n        /* \"#utility.yul\":8914:8978   */\n      tag_418\n        /* \"#utility.yul\":8972:8977   */\n      dup3\n        /* \"#utility.yul\":8914:8978   */\n      tag_278\n      jump\t// in\n    tag_418:\n        /* \"#utility.yul\":8994:9090   */\n      tag_419\n        /* \"#utility.yul\":9083:9089   */\n      dup2\n        /* \"#utility.yul\":9078:9081   */\n      dup6\n        /* \"#utility.yul\":8994:9090   */\n      tag_279\n      jump\t// in\n    tag_419:\n        /* \"#utility.yul\":8987:9090   */\n      swap4\n      pop\n        /* \"#utility.yul\":9116:9119   */\n      dup4\n        /* \"#utility.yul\":9161:9165   */\n      0x20\n        /* \"#utility.yul\":9153:9159   */\n      dup3\n        /* \"#utility.yul\":9149:9166   */\n      mul\n        /* \"#utility.yul\":9144:9147   */\n      dup6\n        /* \"#utility.yul\":9140:9167   */\n      add\n        /* \"#utility.yul\":9191:9257   */\n      tag_420\n        /* \"#utility.yul\":9251:9256   */\n      dup6\n        /* \"#utility.yul\":9191:9257   */\n      tag_280\n      jump\t// in\n    tag_420:\n        /* \"#utility.yul\":9280:9287   */\n      dup1\n        /* \"#utility.yul\":9311:9312   */\n      0x00\n        /* \"#utility.yul\":9296:9692   */\n    tag_421:\n        /* \"#utility.yul\":9321:9327   */\n      dup6\n        /* \"#utility.yul\":9318:9319   */\n      dup2\n        /* \"#utility.yul\":9315:9328   */\n      lt\n        /* \"#utility.yul\":9296:9692   */\n      iszero\n      tag_423\n      jumpi\n        /* \"#utility.yul\":9392:9401   */\n      dup5\n        /* \"#utility.yul\":9386:9390   */\n      dup5\n        /* \"#utility.yul\":9382:9402   */\n      sub\n        /* \"#utility.yul\":9377:9380   */\n      dup10\n        /* \"#utility.yul\":9370:9403   */\n      mstore\n        /* \"#utility.yul\":9443:9449   */\n      dup2\n        /* \"#utility.yul\":9437:9450   */\n      mload\n        /* \"#utility.yul\":9471:9555   */\n      tag_424\n        /* \"#utility.yul\":9550:9554   */\n      dup6\n        /* \"#utility.yul\":9535:9548   */\n      dup3\n        /* \"#utility.yul\":9471:9555   */\n      tag_283\n      jump\t// in\n    tag_424:\n        /* \"#utility.yul\":9463:9555   */\n      swap5\n      pop\n        /* \"#utility.yul\":9578:9648   */\n      tag_425\n        /* \"#utility.yul\":9641:9647   */\n      dup4\n        /* \"#utility.yul\":9578:9648   */\n      tag_284\n      jump\t// in\n    tag_425:\n        /* \"#utility.yul\":9568:9648   */\n      swap3\n      pop\n        /* \"#utility.yul\":9677:9681   */\n      0x20\n        /* \"#utility.yul\":9672:9675   */\n      dup11\n        /* \"#utility.yul\":9668:9682   */\n      add\n        /* \"#utility.yul\":9661:9682   */\n      swap10\n      pop\n        /* \"#utility.yul\":9356:9692   */\n      pop\n        /* \"#utility.yul\":9343:9344   */\n      0x01\n        /* \"#utility.yul\":9340:9341   */\n      dup2\n        /* \"#utility.yul\":9336:9345   */\n      add\n        /* \"#utility.yul\":9331:9345   */\n      swap1\n      pop\n        /* \"#utility.yul\":9296:9692   */\n      jump(tag_421)\n    tag_423:\n        /* \"#utility.yul\":9300:9314   */\n      pop\n        /* \"#utility.yul\":9708:9712   */\n      dup3\n        /* \"#utility.yul\":9701:9712   */\n      swap8\n      pop\n        /* \"#utility.yul\":9728:9731   */\n      dup8\n        /* \"#utility.yul\":9721:9731   */\n      swap6\n      pop\n        /* \"#utility.yul\":8890:9737   */\n      pop\n      pop\n      pop\n      pop\n      pop\n        /* \"#utility.yul\":8746:9737   */\n      swap3\n      swap2\n      pop\n      pop\n      jump\t// out\n        /* \"#utility.yul\":9743:10678   */\n    tag_34:\n        /* \"#utility.yul\":10062:10066   */\n      0x00\n        /* \"#utility.yul\":10100:10102   */\n      0x60\n        /* \"#utility.yul\":10089:10098   */\n      dup3\n        /* \"#utility.yul\":10085:10103   */\n      add\n        /* \"#utility.yul\":10077:10103   */\n      swap1\n      pop\n        /* \"#utility.yul\":10149:10158   */\n      dup2\n        /* \"#utility.yul\":10143:10147   */\n      dup2\n        /* \"#utility.yul\":10139:10159   */\n      sub\n        /* \"#utility.yul\":10135:10136   */\n      0x00\n        /* \"#utility.yul\":10124:10133   */\n      dup4\n        /* \"#utility.yul\":10120:10137   */\n      add\n        /* \"#utility.yul\":10113:10160   */\n      mstore\n        /* \"#utility.yul\":10177:10285   */\n      tag_427\n        /* \"#utility.yul\":10280:10284   */\n      dup2\n        /* \"#utility.yul\":10271:10277   */\n      dup7\n        /* \"#utility.yul\":10177:10285   */\n      tag_277\n      jump\t// in\n    tag_427:\n        /* \"#utility.yul\":10169:10285   */\n      swap1\n      pop\n        /* \"#utility.yul\":10332:10341   */\n      dup2\n        /* \"#utility.yul\":10326:10330   */\n      dup2\n        /* \"#utility.yul\":10322:10342   */\n      sub\n        /* \"#utility.yul\":10317:10319   */\n      0x20\n        /* \"#utility.yul\":10306:10315   */\n      dup4\n        /* \"#utility.yul\":10302:10320   */\n      add\n        /* \"#utility.yul\":10295:10343   */\n      mstore\n        /* \"#utility.yul\":10360:10488   */\n      tag_428\n        /* \"#utility.yul\":10483:10487   */\n      dup2\n        /* \"#utility.yul\":10474:10480   */\n      dup6\n        /* \"#utility.yul\":10360:10488   */\n      tag_285\n      jump\t// in\n    tag_428:\n        /* \"#utility.yul\":10352:10488   */\n      swap1\n      pop\n        /* \"#utility.yul\":10535:10544   */\n      dup2\n        /* \"#utility.yul\":10529:10533   */\n      dup2\n        /* \"#utility.yul\":10525:10545   */\n      sub\n        /* \"#utility.yul\":10520:10522   */\n      0x40\n        /* \"#utility.yul\":10509:10518   */\n      dup4\n        /* \"#utility.yul\":10505:10523   */\n      add\n        /* \"#utility.yul\":10498:10546   */\n      mstore\n        /* \"#utility.yul\":10563:10671   */\n      tag_429\n        /* \"#utility.yul\":10666:10670   */\n      dup2\n        /* \"#utility.yul\":10657:10663   */\n      dup5\n        /* \"#utility.yul\":10563:10671   */\n      tag_277\n      jump\t// in\n    tag_429:\n        /* \"#utility.yul\":10555:10671   */\n      swap1\n      pop\n        /* \"#utility.yul\":9743:10678   */\n      swap5\n      swap4\n      pop\n      pop\n      pop\n      pop\n      jump\t// out\n        /* \"#utility.yul\":10684:11217   */\n    tag_39:\n        /* \"#utility.yul\":10853:10857   */\n      0x00\n        /* \"#utility.yul\":10891:10893   */\n      0x60\n        /* \"#utility.yul\":10880:10889   */\n      dup3\n        /* \"#utility.yul\":10876:10894   */\n      add\n        /* \"#utility.yul\":10868:10894   */\n      swap1\n      pop\n        /* \"#utility.yul\":10904:10975   */\n      tag_431\n        /* \"#utility.yul\":10972:10973   */\n      0x00\n        /* \"#utility.yul\":10961:10970   */\n      dup4\n        /* \"#utility.yul\":10957:10974   */\n      add\n        /* \"#utility.yul\":10948:10954   */\n      dup7\n        /* \"#utility.yul\":10904:10975   */\n      tag_270\n      jump\t// in\n    tag_431:\n        /* \"#utility.yul\":11022:11031   */\n      dup2\n        /* \"#utility.yul\":11016:11020   */\n      dup2\n        /* \"#utility.yul\":11012:11032   */\n      sub\n        /* \"#utility.yul\":11007:11009   */\n      0x20\n        /* \"#utility.yul\":10996:11005   */\n      dup4\n        /* \"#utility.yul\":10992:11010   */\n      add\n        /* \"#utility.yul\":10985:11033   */\n      mstore\n        /* \"#utility.yul\":11050:11128   */\n      tag_432\n        /* \"#utility.yul\":11123:11127   */\n      dup2\n        /* \"#utility.yul\":11114:11120   */\n      dup6\n        /* \"#utility.yul\":11050:11128   */\n      tag_269\n      jump\t// in\n    tag_432:\n        /* \"#utility.yul\":11042:11128   */\n      swap1\n      pop\n        /* \"#utility.yul\":11138:11210   */\n      tag_433\n        /* \"#utility.yul\":11206:11208   */\n      0x40\n        /* \"#utility.yul\":11195:11204   */\n      dup4\n        /* \"#utility.yul\":11191:11209   */\n      add\n        /* \"#utility.yul\":11182:11188   */\n      dup5\n        /* \"#utility.yul\":11138:11210   */\n      tag_270\n      jump\t// in\n    tag_433:\n        /* \"#utility.yul\":10684:11217   */\n      swap5\n      swap4\n      pop\n      pop\n      pop\n      pop\n      jump\t// out\n        /* \"#utility.yul\":11223:11313   */\n    tag_286:\n        /* \"#utility.yul\":11257:11264   */\n      0x00\n        /* \"#utility.yul\":11300:11305   */\n      dup2\n        /* \"#utility.yul\":11293:11306   */\n      iszero\n        /* \"#utility.yul\":11286:11307   */\n      iszero\n        /* \"#utility.yul\":11275:11307   */\n      swap1\n      pop\n        /* \"#utility.yul\":11223:11313   */\n      swap2\n      swap1\n      pop\n      jump\t// out\n        /* \"#utility.yul\":11319:11428   */\n    tag_287:\n        /* \"#utility.yul\":11400:11421   */\n      tag_436\n        /* \"#utility.yul\":11415:11420   */\n      dup2\n        /* \"#utility.yul\":11400:11421   */\n      tag_286\n      jump\t// in\n    tag_436:\n        /* \"#utility.yul\":11395:11398   */\n      dup3\n        /* \"#utility.yul\":11388:11422   */\n      mstore\n        /* \"#utility.yul\":11319:11428   */\n      pop\n      pop\n      jump\t// out\n        /* \"#utility.yul\":11434:12288   */\n    tag_48:\n        /* \"#utility.yul\":11681:11685   */\n      0x00\n        /* \"#utility.yul\":11719:11722   */\n      0xc0\n        /* \"#utility.yul\":11708:11717   */\n      dup3\n        /* \"#utility.yul\":11704:11723   */\n      add\n        /* \"#utility.yul\":11696:11723   */\n      swap1\n      pop\n        /* \"#utility.yul\":11733:11804   */\n      tag_438\n        /* \"#utility.yul\":11801:11802   */\n      0x00\n        /* \"#utility.yul\":11790:11799   */\n      dup4\n        /* \"#utility.yul\":11786:11803   */\n      add\n        /* \"#utility.yul\":11777:11783   */\n      dup10\n        /* \"#utility.yul\":11733:11804   */\n      tag_270\n      jump\t// in\n    tag_438:\n        /* \"#utility.yul\":11814:11880   */\n      tag_439\n        /* \"#utility.yul\":11876:11878   */\n      0x20\n        /* \"#utility.yul\":11865:11874   */\n      dup4\n        /* \"#utility.yul\":11861:11879   */\n      add\n        /* \"#utility.yul\":11852:11858   */\n      dup9\n        /* \"#utility.yul\":11814:11880   */\n      tag_287\n      jump\t// in\n    tag_439:\n        /* \"#utility.yul\":11927:11936   */\n      dup2\n        /* \"#utility.yul\":11921:11925   */\n      dup2\n        /* \"#utility.yul\":11917:11937   */\n      sub\n        /* \"#utility.yul\":11912:11914   */\n      0x40\n        /* \"#utility.yul\":11901:11910   */\n      dup4\n        /* \"#utility.yul\":11897:11915   */\n      add\n        /* \"#utility.yul\":11890:11938   */\n      mstore\n        /* \"#utility.yul\":11955:12033   */\n      tag_440\n        /* \"#utility.yul\":12028:12032   */\n      dup2\n        /* \"#utility.yul\":12019:12025   */\n      dup8\n        /* \"#utility.yul\":11955:12033   */\n      tag_269\n      jump\t// in\n    tag_440:\n        /* \"#utility.yul\":11947:12033   */\n      swap1\n      pop\n        /* \"#utility.yul\":12043:12115   */\n      tag_441\n        /* \"#utility.yul\":12111:12113   */\n      0x60\n        /* \"#utility.yul\":12100:12109   */\n      dup4\n        /* \"#utility.yul\":12096:12114   */\n      add\n        /* \"#utility.yul\":12087:12093   */\n      dup7\n        /* \"#utility.yul\":12043:12115   */\n      tag_270\n      jump\t// in\n    tag_441:\n        /* \"#utility.yul\":12125:12198   */\n      tag_442\n        /* \"#utility.yul\":12193:12196   */\n      0x80\n        /* \"#utility.yul\":12182:12191   */\n      dup4\n        /* \"#utility.yul\":12178:12197   */\n      add\n        /* \"#utility.yul\":12169:12175   */\n      dup6\n        /* \"#utility.yul\":12125:12198   */\n      tag_270\n      jump\t// in\n    tag_442:\n        /* \"#utility.yul\":12208:12281   */\n      tag_443\n        /* \"#utility.yul\":12276:12279   */\n      0xa0\n        /* \"#utility.yul\":12265:12274   */\n      dup4\n        /* \"#utility.yul\":12261:12280   */\n      add\n        /* \"#utility.yul\":12252:12258   */\n      dup5\n        /* \"#utility.yul\":12208:12281   */\n      tag_270\n      jump\t// in\n    tag_443:\n        /* \"#utility.yul\":11434:12288   */\n      swap8\n      swap7\n      pop\n      pop\n      pop\n      pop\n      pop\n      pop\n      pop\n      jump\t// out\n        /* \"#utility.yul\":12294:12948   */\n    tag_51:\n        /* \"#utility.yul\":12372:12378   */\n      0x00\n        /* \"#utility.yul\":12380:12386   */\n      0x00\n        /* \"#utility.yul\":12429:12431   */\n      0x40\n        /* \"#utility.yul\":12417:12426   */\n      dup4\n        /* \"#utility.yul\":12408:12415   */\n      dup6\n        /* \"#utility.yul\":12404:12427   */\n      sub\n        /* \"#utility.yul\":12400:12432   */\n      slt\n        /* \"#utility.yul\":12397:12516   */\n      iszero\n      tag_445\n      jumpi\n        /* \"#utility.yul\":12435:12514   */\n      tag_446\n      tag_252\n      jump\t// in\n    tag_446:\n        /* \"#utility.yul\":12397:12516   */\n    tag_445:\n        /* \"#utility.yul\":12583:12584   */\n      0x00\n        /* \"#utility.yul\":12572:12581   */\n      dup4\n        /* \"#utility.yul\":12568:12585   */\n      add\n        /* \"#utility.yul\":12555:12586   */\n      calldataload\n        /* \"#utility.yul\":12613:12631   */\n      0xffffffffffffffff\n        /* \"#utility.yul\":12605:12611   */\n      dup2\n        /* \"#utility.yul\":12602:12632   */\n      gt\n        /* \"#utility.yul\":12599:12716   */\n      iszero\n      tag_447\n      jumpi\n        /* \"#utility.yul\":12635:12714   */\n      tag_448\n      tag_253\n      jump\t// in\n    tag_448:\n        /* \"#utility.yul\":12599:12716   */\n    tag_447:\n        /* \"#utility.yul\":12740:12803   */\n      tag_449\n        /* \"#utility.yul\":12795:12802   */\n      dup6\n        /* \"#utility.yul\":12786:12792   */\n      dup3\n        /* \"#utility.yul\":12775:12784   */\n      dup7\n        /* \"#utility.yul\":12771:12793   */\n      add\n        /* \"#utility.yul\":12740:12803   */\n      tag_265\n      jump\t// in\n    tag_449:\n        /* \"#utility.yul\":12730:12803   */\n      swap3\n      pop\n        /* \"#utility.yul\":12526:12813   */\n      pop\n        /* \"#utility.yul\":12852:12854   */\n      0x20\n        /* \"#utility.yul\":12878:12931   */\n      tag_450\n        /* \"#utility.yul\":12923:12930   */\n      dup6\n        /* \"#utility.yul\":12914:12920   */\n      dup3\n        /* \"#utility.yul\":12903:12912   */\n      dup7\n        /* \"#utility.yul\":12899:12921   */\n      add\n        /* \"#utility.yul\":12878:12931   */\n      tag_256\n      jump\t// in\n    tag_450:\n        /* \"#utility.yul\":12868:12931   */\n      swap2\n      pop\n        /* \"#utility.yul\":12823:12941   */\n      pop\n        /* \"#utility.yul\":12294:12948   */\n      swap3\n      pop\n      swap3\n      swap1\n      pop\n      jump\t// out\n        /* \"#utility.yul\":12954:13176   */\n    tag_56:\n        /* \"#utility.yul\":13047:13051   */\n      0x00\n        /* \"#utility.yul\":13085:13087   */\n      0x20\n        /* \"#utility.yul\":13074:13083   */\n      dup3\n        /* \"#utility.yul\":13070:13088   */\n      add\n        /* \"#utility.yul\":13062:13088   */\n      swap1\n      pop\n        /* \"#utility.yul\":13098:13169   */\n      tag_452\n        /* \"#utility.yul\":13166:13167   */\n      0x00\n        /* \"#utility.yul\":13155:13164   */\n      dup4\n        /* \"#utility.yul\":13151:13168   */\n      add\n        /* \"#utility.yul\":13142:13148   */\n      dup5\n        /* \"#utility.yul\":13098:13169   */\n      tag_270\n      jump\t// in\n    tag_452:\n        /* \"#utility.yul\":12954:13176   */\n      swap3\n      swap2\n      pop\n      pop\n      jump\t// out\n        /* \"#utility.yul\":13182:13856   */\n    tag_64:\n        /* \"#utility.yul\":13423:13427   */\n      0x00\n        /* \"#utility.yul\":13461:13463   */\n      0x40\n        /* \"#utility.yul\":13450:13459   */\n      dup3\n        /* \"#utility.yul\":13446:13464   */\n      add\n        /* \"#utility.yul\":13438:13464   */\n      swap1\n      pop\n        /* \"#utility.yul\":13510:13519   */\n      dup2\n        /* \"#utility.yul\":13504:13508   */\n      dup2\n        /* \"#utility.yul\":13500:13520   */\n      sub\n        /* \"#utility.yul\":13496:13497   */\n      0x00\n        /* \"#utility.yul\":13485:13494   */\n      dup4\n        /* \"#utility.yul\":13481:13498   */\n      add\n        /* \"#utility.yul\":13474:13521   */\n      mstore\n        /* \"#utility.yul\":13538:13646   */\n      tag_454\n        /* \"#utility.yul\":13641:13645   */\n      dup2\n        /* \"#utility.yul\":13632:13638   */\n      dup6\n        /* \"#utility.yul\":13538:13646   */\n      tag_277\n      jump\t// in\n    tag_454:\n        /* \"#utility.yul\":13530:13646   */\n      swap1\n      pop\n        /* \"#utility.yul\":13693:13702   */\n      dup2\n        /* \"#utility.yul\":13687:13691   */\n      dup2\n        /* \"#utility.yul\":13683:13703   */\n      sub\n        /* \"#utility.yul\":13678:13680   */\n      0x20\n        /* \"#utility.yul\":13667:13676   */\n      dup4\n        /* \"#utility.yul\":13663:13681   */\n      add\n        /* \"#utility.yul\":13656:13704   */\n      mstore\n        /* \"#utility.yul\":13721:13849   */\n      tag_455\n        /* \"#utility.yul\":13844:13848   */\n      dup2\n        /* \"#utility.yul\":13835:13841   */\n      dup5\n        /* \"#utility.yul\":13721:13849   */\n      tag_285\n      jump\t// in\n    tag_455:\n        /* \"#utility.yul\":13713:13849   */\n      swap1\n      pop\n        /* \"#utility.yul\":13182:13856   */\n      swap4\n      swap3\n      pop\n      pop\n      pop\n      jump\t// out\n        /* \"#utility.yul\":13862:13988   */\n    tag_288:\n        /* \"#utility.yul\":13899:13906   */\n      0x00\n        /* \"#utility.yul\":13939:13981   */\n      0xffffffffffffffffffffffffffffffffffffffff\n        /* \"#utility.yul\":13932:13937   */\n      dup3\n        /* \"#utility.yul\":13928:13982   */\n      and\n        /* \"#utility.yul\":13917:13982   */\n      swap1\n      pop\n        /* \"#utility.yul\":13862:13988   */\n      swap2\n      swap1\n      pop\n      jump\t// out\n        /* \"#utility.yul\":13994:14090   */\n    tag_289:\n        /* \"#utility.yul\":14031:14038   */\n      0x00\n        /* \"#utility.yul\":14060:14084   */\n      tag_458\n        /* \"#utility.yul\":14078:14083   */\n      dup3\n        /* \"#utility.yul\":14060:14084   */\n      tag_288\n      jump\t// in\n    tag_458:\n        /* \"#utility.yul\":14049:14084   */\n      swap1\n      pop\n        /* \"#utility.yul\":13994:14090   */\n      swap2\n      swap1\n      pop\n      jump\t// out\n        /* \"#utility.yul\":14096:14214   */\n    tag_290:\n        /* \"#utility.yul\":14183:14207   */\n      tag_460\n        /* \"#utility.yul\":14201:14206   */\n      dup2\n        /* \"#utility.yul\":14183:14207   */\n      tag_289\n      jump\t// in\n    tag_460:\n        /* \"#utility.yul\":14178:14181   */\n      dup3\n        /* \"#utility.yul\":14171:14208   */\n      mstore\n        /* \"#utility.yul\":14096:14214   */\n      pop\n      pop\n      jump\t// out\n        /* \"#utility.yul\":14220:14442   */\n    tag_68:\n        /* \"#utility.yul\":14313:14317   */\n      0x00\n        /* \"#utility.yul\":14351:14353   */\n      0x20\n        /* \"#utility.yul\":14340:14349   */\n      dup3\n        /* \"#utility.yul\":14336:14354   */\n      add\n        /* \"#utility.yul\":14328:14354   */\n      swap1\n      pop\n        /* \"#utility.yul\":14364:14435   */\n      tag_462\n        /* \"#utility.yul\":14432:14433   */\n      0x00\n        /* \"#utility.yul\":14421:14430   */\n      dup4\n        /* \"#utility.yul\":14417:14434   */\n      add\n        /* \"#utility.yul\":14408:14414   */\n      dup5\n        /* \"#utility.yul\":14364:14435   */\n      tag_290\n      jump\t// in\n    tag_462:\n        /* \"#utility.yul\":14220:14442   */\n      swap3\n      swap2\n      pop\n      pop\n      jump\t// out\n        /* \"#utility.yul\":14448:14671   */\n    tag_291:\n        /* \"#utility.yul\":14588:14622   */\n      0x4f6e6c792061646d696e2063616e20706572666f726d20746869732066756e63\n        /* \"#utility.yul\":14584:14585   */\n      0x00\n        /* \"#utility.yul\":14576:14582   */\n      dup3\n        /* \"#utility.yul\":14572:14586   */\n      add\n        /* \"#utility.yul\":14565:14623   */\n      mstore\n        /* \"#utility.yul\":14657:14663   */\n      0x74696f6e00000000000000000000000000000000000000000000000000000000\n        /* \"#utility.yul\":14652:14654   */\n      0x20\n        /* \"#utility.yul\":14644:14650   */\n      dup3\n        /* \"#utility.yul\":14640:14655   */\n      add\n        /* \"#utility.yul\":14633:14664   */\n      mstore\n        /* \"#utility.yul\":14448:14671   */\n      pop\n      jump\t// out\n        /* \"#utility.yul\":14677:15043   */\n    tag_292:\n        /* \"#utility.yul\":14819:14822   */\n      0x00\n        /* \"#utility.yul\":14840:14907   */\n      tag_465\n        /* \"#utility.yul\":14904:14906   */\n      0x24\n        /* \"#utility.yul\":14899:14902   */\n      dup4\n        /* \"#utility.yul\":14840:14907   */\n      tag_267\n      jump\t// in\n    tag_465:\n        /* \"#utility.yul\":14833:14907   */\n      swap2\n      pop\n        /* \"#utility.yul\":14916:15009   */\n      tag_466\n        /* \"#utility.yul\":15005:15008   */\n      dup3\n        /* \"#utility.yul\":14916:15009   */\n      tag_291\n      jump\t// in\n    tag_466:\n        /* \"#utility.yul\":15034:15036   */\n      0x40\n        /* \"#utility.yul\":15029:15032   */\n      dup3\n        /* \"#utility.yul\":15025:15037   */\n      add\n        /* \"#utility.yul\":15018:15037   */\n      swap1\n      pop\n        /* \"#utility.yul\":14677:15043   */\n      swap2\n      swap1\n      pop\n      jump\t// out\n        /* \"#utility.yul\":15049:15468   */\n    tag_72:\n        /* \"#utility.yul\":15215:15219   */\n      0x00\n        /* \"#utility.yul\":15253:15255   */\n      0x20\n        /* \"#utility.yul\":15242:15251   */\n      dup3\n        /* \"#utility.yul\":15238:15256   */\n      add\n        /* \"#utility.yul\":15230:15256   */\n      swap1\n      pop\n        /* \"#utility.yul\":15302:15311   */\n      dup2\n        /* \"#utility.yul\":15296:15300   */\n      dup2\n        /* \"#utility.yul\":15292:15312   */\n      sub\n        /* \"#utility.yul\":15288:15289   */\n      0x00\n        /* \"#utility.yul\":15277:15286   */\n      dup4\n        /* \"#utility.yul\":15273:15290   */\n      add\n        /* \"#utility.yul\":15266:15313   */\n      mstore\n        /* \"#utility.yul\":15330:15461   */\n      tag_468\n        /* \"#utility.yul\":15456:15460   */\n      dup2\n        /* \"#utility.yul\":15330:15461   */\n      tag_292\n      jump\t// in\n    tag_468:\n        /* \"#utility.yul\":15322:15461   */\n      swap1\n      pop\n        /* \"#utility.yul\":15049:15468   */\n      swap2\n      swap1\n      pop\n      jump\t// out\n        /* \"#utility.yul\":15474:15645   */\n    tag_293:\n        /* \"#utility.yul\":15614:15637   */\n      0x456c656374696f6e206973206e6f742045786973740000000000000000000000\n        /* \"#utility.yul\":15610:15611   */\n      0x00\n        /* \"#utility.yul\":15602:15608   */\n      dup3\n        /* \"#utility.yul\":15598:15612   */\n      add\n        /* \"#utility.yul\":15591:15638   */\n      mstore\n        /* \"#utility.yul\":15474:15645   */\n      pop\n      jump\t// out\n        /* \"#utility.yul\":15651:16017   */\n    tag_294:\n        /* \"#utility.yul\":15793:15796   */\n      0x00\n        /* \"#utility.yul\":15814:15881   */\n      tag_471\n        /* \"#utility.yul\":15878:15880   */\n      0x15\n        /* \"#utility.yul\":15873:15876   */\n      dup4\n        /* \"#utility.yul\":15814:15881   */\n      tag_267\n      jump\t// in\n    tag_471:\n        /* \"#utility.yul\":15807:15881   */\n      swap2\n      pop\n        /* \"#utility.yul\":15890:15983   */\n      tag_472\n        /* \"#utility.yul\":15979:15982   */\n      dup3\n        /* \"#utility.yul\":15890:15983   */\n      tag_293\n      jump\t// in\n    tag_472:\n        /* \"#utility.yul\":16008:16010   */\n      0x20\n        /* \"#utility.yul\":16003:16006   */\n      dup3\n        /* \"#utility.yul\":15999:16011   */\n      add\n        /* \"#utility.yul\":15992:16011   */\n      swap1\n      pop\n        /* \"#utility.yul\":15651:16017   */\n      swap2\n      swap1\n      pop\n      jump\t// out\n        /* \"#utility.yul\":16023:16442   */\n    tag_77:\n        /* \"#utility.yul\":16189:16193   */\n      0x00\n        /* \"#utility.yul\":16227:16229   */\n      0x20\n        /* \"#utility.yul\":16216:16225   */\n      dup3\n        /* \"#utility.yul\":16212:16230   */\n      add\n        /* \"#utility.yul\":16204:16230   */\n      swap1\n      pop\n        /* \"#utility.yul\":16276:16285   */\n      dup2\n        /* \"#utility.yul\":16270:16274   */\n      dup2\n        /* \"#utility.yul\":16266:16286   */\n      sub\n        /* \"#utility.yul\":16262:16263   */\n      0x00\n        /* \"#utility.yul\":16251:16260   */\n      dup4\n        /* \"#utility.yul\":16247:16264   */\n      add\n        /* \"#utility.yul\":16240:16287   */\n      mstore\n        /* \"#utility.yul\":16304:16435   */\n      tag_474\n        /* \"#utility.yul\":16430:16434   */\n      dup2\n        /* \"#utility.yul\":16304:16435   */\n      tag_294\n      jump\t// in\n    tag_474:\n        /* \"#utility.yul\":16296:16435   */\n      swap1\n      pop\n        /* \"#utility.yul\":16023:16442   */\n      swap2\n      swap1\n      pop\n      jump\t// out\n        /* \"#utility.yul\":16448:16668   */\n    tag_295:\n        /* \"#utility.yul\":16588:16622   */\n      0x456c656374696f6e206973206e6f7420416374697665206f642074696d656f75\n        /* \"#utility.yul\":16584:16585   */\n      0x00\n        /* \"#utility.yul\":16576:16582   */\n      dup3\n        /* \"#utility.yul\":16572:16586   */\n      add\n        /* \"#utility.yul\":16565:16623   */\n      mstore\n        /* \"#utility.yul\":16657:16660   */\n      0x7400000000000000000000000000000000000000000000000000000000000000\n        /* \"#utility.yul\":16652:16654   */\n      0x20\n        /* \"#utility.yul\":16644:16650   */\n      dup3\n        /* \"#utility.yul\":16640:16655   */\n      add\n        /* \"#utility.yul\":16633:16661   */\n      mstore\n        /* \"#utility.yul\":16448:16668   */\n      pop\n      jump\t// out\n        /* \"#utility.yul\":16674:17040   */\n    tag_296:\n        /* \"#utility.yul\":16816:16819   */\n      0x00\n        /* \"#utility.yul\":16837:16904   */\n      tag_477\n        /* \"#utility.yul\":16901:16903   */\n      0x21\n        /* \"#utility.yul\":16896:16899   */\n      dup4\n        /* \"#utility.yul\":16837:16904   */\n      tag_267\n      jump\t// in\n    tag_477:\n        /* \"#utility.yul\":16830:16904   */\n      swap2\n      pop\n        /* \"#utility.yul\":16913:17006   */\n      tag_478\n        /* \"#utility.yul\":17002:17005   */\n      dup3\n        /* \"#utility.yul\":16913:17006   */\n      tag_295\n      jump\t// in\n    tag_478:\n        /* \"#utility.yul\":17031:17033   */\n      0x40\n        /* \"#utility.yul\":17026:17029   */\n      dup3\n        /* \"#utility.yul\":17022:17034   */\n      add\n        /* \"#utility.yul\":17015:17034   */\n      swap1\n      pop\n        /* \"#utility.yul\":16674:17040   */\n      swap2\n      swap1\n      pop\n      jump\t// out\n        /* \"#utility.yul\":17046:17465   */\n    tag_82:\n        /* \"#utility.yul\":17212:17216   */\n      0x00\n        /* \"#utility.yul\":17250:17252   */\n      0x20\n        /* \"#utility.yul\":17239:17248   */\n      dup3\n        /* \"#utility.yul\":17235:17253   */\n      add\n        /* \"#utility.yul\":17227:17253   */\n      swap1\n      pop\n        /* \"#utility.yul\":17299:17308   */\n      dup2\n        /* \"#utility.yul\":17293:17297   */\n      dup2\n        /* \"#utility.yul\":17289:17309   */\n      sub\n        /* \"#utility.yul\":17285:17286   */\n      0x00\n        /* \"#utility.yul\":17274:17283   */\n      dup4\n        /* \"#utility.yul\":17270:17287   */\n      add\n        /* \"#utility.yul\":17263:17310   */\n      mstore\n        /* \"#utility.yul\":17327:17458   */\n      tag_480\n        /* \"#utility.yul\":17453:17457   */\n      dup2\n        /* \"#utility.yul\":17327:17458   */\n      tag_296\n      jump\t// in\n    tag_480:\n        /* \"#utility.yul\":17319:17458   */\n      swap1\n      pop\n        /* \"#utility.yul\":17046:17465   */\n      swap2\n      swap1\n      pop\n      jump\t// out\n        /* \"#utility.yul\":17471:17651   */\n    tag_297:\n        /* \"#utility.yul\":17519:17596   */\n      0x4e487b7100000000000000000000000000000000000000000000000000000000\n        /* \"#utility.yul\":17516:17517   */\n      0x00\n        /* \"#utility.yul\":17509:17597   */\n      mstore\n        /* \"#utility.yul\":17616:17620   */\n      0x11\n        /* \"#utility.yul\":17613:17614   */\n      0x04\n        /* \"#utility.yul\":17606:17621   */\n      mstore\n        /* \"#utility.yul\":17640:17644   */\n      0x24\n        /* \"#utility.yul\":17637:17638   */\n      0x00\n        /* \"#utility.yul\":17630:17645   */\n      revert\n        /* \"#utility.yul\":17657:17890   */\n    tag_85:\n        /* \"#utility.yul\":17696:17699   */\n      0x00\n        /* \"#utility.yul\":17719:17743   */\n      tag_483\n        /* \"#utility.yul\":17737:17742   */\n      dup3\n        /* \"#utility.yul\":17719:17743   */\n      tag_254\n      jump\t// in\n    tag_483:\n        /* \"#utility.yul\":17710:17743   */\n      swap2\n      pop\n        /* \"#utility.yul\":17765:17831   */\n      0xffffffffffffffffffffffffffffffffffffffffffffffffffffffffffffffff\n        /* \"#utility.yul\":17758:17763   */\n      dup3\n        /* \"#utility.yul\":17755:17832   */\n      sub\n        /* \"#utility.yul\":17752:17855   */\n      tag_484\n      jumpi\n        /* \"#utility.yul\":17835:17853   */\n      tag_485\n      tag_297\n      jump\t// in\n    tag_485:\n        /* \"#utility.yul\":17752:17855   */\n    tag_484:\n        /* \"#utility.yul\":17882:17883   */\n      0x01\n        /* \"#utility.yul\":17875:17880   */\n      dup3\n        /* \"#utility.yul\":17871:17884   */\n      add\n        /* \"#utility.yul\":17864:17884   */\n      swap1\n      pop\n        /* \"#utility.yul\":17657:17890   */\n      swap2\n      swap1\n      pop\n      jump\t// out\n        /* \"#utility.yul\":17896:18076   */\n    tag_298:\n        /* \"#utility.yul\":17944:18021   */\n      0x4e487b7100000000000000000000000000000000000000000000000000000000\n        /* \"#utility.yul\":17941:17942   */\n      0x00\n        /* \"#utility.yul\":17934:18022   */\n      mstore\n        /* \"#utility.yul\":18041:18045   */\n      0x22\n        /* \"#utility.yul\":18038:18039   */\n      0x04\n        /* \"#utility.yul\":18031:18046   */\n      mstore\n        /* \"#utility.yul\":18065:18069   */\n      0x24\n        /* \"#utility.yul\":18062:18063   */\n      0x00\n        /* \"#utility.yul\":18055:18070   */\n      revert\n        /* \"#utility.yul\":18082:18402   */\n    tag_96:\n        /* \"#utility.yul\":18126:18132   */\n      0x00\n        /* \"#utility.yul\":18163:18164   */\n      0x02\n        /* \"#utility.yul\":18157:18161   */\n      dup3\n        /* \"#utility.yul\":18153:18165   */\n      div\n        /* \"#utility.yul\":18143:18165   */\n      swap1\n      pop\n        /* \"#utility.yul\":18210:18211   */\n      0x01\n        /* \"#utility.yul\":18204:18208   */\n      dup3\n        /* \"#utility.yul\":18200:18212   */\n      and\n        /* \"#utility.yul\":18231:18249   */\n      dup1\n        /* \"#utility.yul\":18221:18302   */\n      tag_488\n      jumpi\n        /* \"#utility.yul\":18287:18291   */\n      0x7f\n        /* \"#utility.yul\":18279:18285   */\n      dup3\n        /* \"#utility.yul\":18275:18292   */\n      and\n        /* \"#utility.yul\":18265:18292   */\n      swap2\n      pop\n        /* \"#utility.yul\":18221:18302   */\n    tag_488:\n        /* \"#utility.yul\":18349:18351   */\n      0x20\n        /* \"#utility.yul\":18341:18347   */\n      dup3\n        /* \"#utility.yul\":18338:18352   */\n      lt\n        /* \"#utility.yul\":18318:18336   */\n      dup2\n        /* \"#utility.yul\":18315:18353   */\n      sub\n        /* \"#utility.yul\":18312:18396   */\n      tag_489\n      jumpi\n        /* \"#utility.yul\":18368:18386   */\n      tag_490\n      tag_298\n      jump\t// in\n    tag_490:\n        /* \"#utility.yul\":18312:18396   */\n    tag_489:\n        /* \"#utility.yul\":18133:18402   */\n      pop\n        /* \"#utility.yul\":18082:18402   */\n      swap2\n      swap1\n      pop\n      jump\t// out\n        /* \"#utility.yul\":18408:18549   */\n    tag_299:\n        /* \"#utility.yul\":18457:18461   */\n      0x00\n        /* \"#utility.yul\":18480:18483   */\n      dup2\n        /* \"#utility.yul\":18472:18483   */\n      swap1\n      pop\n        /* \"#utility.yul\":18503:18506   */\n      dup2\n        /* \"#utility.yul\":18500:18501   */\n      0x00\n        /* \"#utility.yul\":18493:18507   */\n      mstore\n        /* \"#utility.yul\":18537:18541   */\n      0x20\n        /* \"#utility.yul\":18534:18535   */\n      0x00\n        /* \"#utility.yul\":18524:18542   */\n      keccak256\n        /* \"#utility.yul\":18516:18542   */\n      swap1\n      pop\n        /* \"#utility.yul\":18408:18549   */\n      swap2\n      swap1\n      pop\n      jump\t// out\n        /* \"#utility.yul\":18555:18648   */\n    tag_300:\n        /* \"#utility.yul\":18592:18598   */\n      0x00\n        /* \"#utility.yul\":18639:18641   */\n      0x20\n        /* \"#utility.yul\":18634:18636   */\n      0x1f\n        /* \"#utility.yul\":18627:18632   */\n      dup4\n        /* \"#utility.yul\":18623:18637   */\n      add\n        /* \"#utility.yul\":18619:18642   */\n      div\n        /* \"#utility.yul\":18609:18642   */\n      swap1\n      pop\n        /* \"#utility.yul\":18555:18648   */\n      swap2\n      swap1\n      pop\n      jump\t// out\n        /* \"#utility.yul\":18654:18761   */\n    tag_301:\n        /* \"#utility.yul\":18698:18706   */\n      0x00\n        /* \"#utility.yul\":18748:18753   */\n      dup3\n        /* \"#utility.yul\":18742:18746   */\n      dup3\n        /* \"#utility.yul\":18738:18754   */\n      shl\n        /* \"#utility.yul\":18717:18754   */\n      swap1\n      pop\n        /* \"#utility.yul\":18654:18761   */\n      swap3\n      swap2\n      pop\n      pop\n      jump\t// out\n        /* \"#utility.yul\":18767:19160   */\n    tag_302:\n        /* \"#utility.yul\":18836:18842   */\n      0x00\n        /* \"#utility.yul\":18886:18887   */\n      0x08\n        /* \"#utility.yul\":18874:18884   */\n      dup4\n        /* \"#utility.yul\":18870:18888   */\n      mul\n        /* \"#utility.yul\":18909:19006   */\n      tag_495\n        /* \"#utility.yul\":18939:19005   */\n      0xffffffffffffffffffffffffffffffffffffffffffffffffffffffffffffffff\n        /* \"#utility.yul\":18928:18937   */\n      dup3\n        /* \"#utility.yul\":18909:19006   */\n      tag_301\n      jump\t// in\n    tag_495:\n        /* \"#utility.yul\":19027:19066   */\n      tag_496\n        /* \"#utility.yul\":19057:19065   */\n      dup7\n        /* \"#utility.yul\":19046:19055   */\n      dup4\n        /* \"#utility.yul\":19027:19066   */\n      tag_301\n      jump\t// in\n    tag_496:\n        /* \"#utility.yul\":19015:19066   */\n      swap6\n      pop\n        /* \"#utility.yul\":19099:19103   */\n      dup1\n        /* \"#utility.yul\":19095:19104   */\n      not\n        /* \"#utility.yul\":19088:19093   */\n      dup5\n        /* \"#utility.yul\":19084:19105   */\n      and\n        /* \"#utility.yul\":19075:19105   */\n      swap4\n      pop\n        /* \"#utility.yul\":19148:19152   */\n      dup1\n        /* \"#utility.yul\":19138:19146   */\n      dup7\n        /* \"#utility.yul\":19134:19153   */\n      and\n        /* \"#utility.yul\":19127:19132   */\n      dup5\n        /* \"#utility.yul\":19124:19154   */\n      or\n        /* \"#utility.yul\":19114:19154   */\n      swap3\n      pop\n        /* \"#utility.yul\":18843:19160   */\n      pop\n      pop\n        /* \"#utility.yul\":18767:19160   */\n      swap4\n      swap3\n      pop\n      pop\n      pop\n      jump\t// out\n        /* \"#utility.yul\":19166:19226   */\n    tag_303:\n        /* \"#utility.yul\":19194:19197   */\n      0x00\n        /* \"#utility.yul\":19215:19220   */\n      dup2\n        /* \"#utility.yul\":19208:19220   */\n      swap1\n      pop\n        /* \"#utility.yul\":19166:19226   */\n      swap2\n      swap1\n      pop\n      jump\t// out\n        /* \"#utility.yul\":19232:19374   */\n    tag_304:\n        /* \"#utility.yul\":19282:19291   */\n      0x00\n        /* \"#utility.yul\":19315:19368   */\n      tag_499\n        /* \"#utility.yul\":19333:19367   */\n      tag_500\n        /* \"#utility.yul\":19342:19366   */\n      tag_501\n        /* \"#utility.yul\":19360:19365   */\n      dup5\n        /* \"#utility.yul\":19342:19366   */\n      tag_254\n      jump\t// in\n    tag_501:\n        /* \"#utility.yul\":19333:19367   */\n      tag_303\n      jump\t// in\n    tag_500:\n        /* \"#utility.yul\":19315:19368   */\n      tag_254\n      jump\t// in\n    tag_499:\n        /* \"#utility.yul\":19302:19368   */\n      swap1\n      pop\n        /* \"#utility.yul\":19232:19374   */\n      swap2\n      swap1\n      pop\n      jump\t// out\n        /* \"#utility.yul\":19380:19455   */\n    tag_305:\n        /* \"#utility.yul\":19423:19426   */\n      0x00\n        /* \"#utility.yul\":19444:19449   */\n      dup2\n        /* \"#utility.yul\":19437:19449   */\n      swap1\n      pop\n        /* \"#utility.yul\":19380:19455   */\n      swap2\n      swap1\n      pop\n      jump\t// out\n        /* \"#utility.yul\":19461:19730   */\n    tag_306:\n        /* \"#utility.yul\":19571:19610   */\n      tag_504\n        /* \"#utility.yul\":19602:19609   */\n      dup4\n        /* \"#utility.yul\":19571:19610   */\n      tag_304\n      jump\t// in\n    tag_504:\n        /* \"#utility.yul\":19632:19723   */\n      tag_505\n        /* \"#utility.yul\":19681:19722   */\n      tag_506\n        /* \"#utility.yul\":19705:19721   */\n      dup3\n        /* \"#utility.yul\":19681:19722   */\n      tag_305\n      jump\t// in\n    tag_506:\n        /* \"#utility.yul\":19673:19679   */\n      dup5\n        /* \"#utility.yul\":19666:19670   */\n      dup5\n        /* \"#utility.yul\":19660:19671   */\n      sload\n        /* \"#utility.yul\":19632:19723   */\n      tag_302\n      jump\t// in\n    tag_505:\n        /* \"#utility.yul\":19626:19630   */\n      dup3\n        /* \"#utility.yul\":19619:19724   */\n      sstore\n        /* \"#utility.yul\":19537:19730   */\n      pop\n        /* \"#utility.yul\":19461:19730   */\n      pop\n      pop\n      pop\n      jump\t// out\n        /* \"#utility.yul\":19736:19809   */\n    tag_307:\n        /* \"#utility.yul\":19781:19784   */\n      0x00\n        /* \"#utility.yul\":19802:19803   */\n      0x00\n        /* \"#utility.yul\":19795:19803   */\n      swap1\n      pop\n        /* \"#utility.yul\":19736:19809   */\n      swap1\n      jump\t// out\n        /* \"#utility.yul\":19815:20004   */\n    tag_308:\n        /* \"#utility.yul\":19892:19924   */\n      tag_509\n      tag_307\n      jump\t// in\n    tag_509:\n        /* \"#utility.yul\":19933:19998   */\n      tag_510\n        /* \"#utility.yul\":19991:19997   */\n      dup2\n        /* \"#utility.yul\":19983:19989   */\n      dup5\n        /* \"#utility.yul\":19977:19981   */\n      dup5\n        /* \"#utility.yul\":19933:19998   */\n      tag_306\n      jump\t// in\n    tag_510:\n        /* \"#utility.yul\":19868:20004   */\n      pop\n        /* \"#utility.yul\":19815:20004   */\n      pop\n      pop\n      jump\t// out\n        /* \"#utility.yul\":20010:20196   */\n    tag_309:\n        /* \"#utility.yul\":20070:20190   */\n    tag_512:\n        /* \"#utility.yul\":20087:20090   */\n      dup2\n        /* \"#utility.yul\":20080:20085   */\n      dup2\n        /* \"#utility.yul\":20077:20091   */\n      lt\n        /* \"#utility.yul\":20070:20190   */\n      iszero\n      tag_514\n      jumpi\n        /* \"#utility.yul\":20141:20180   */\n      tag_515\n        /* \"#utility.yul\":20178:20179   */\n      0x00\n        /* \"#utility.yul\":20171:20176   */\n      dup3\n        /* \"#utility.yul\":20141:20180   */\n      tag_308\n      jump\t// in\n    tag_515:\n        /* \"#utility.yul\":20114:20115   */\n      0x01\n        /* \"#utility.yul\":20107:20112   */\n      dup2\n        /* \"#utility.yul\":20103:20116   */\n      add\n        /* \"#utility.yul\":20094:20116   */\n      swap1\n      pop\n        /* \"#utility.yul\":20070:20190   */\n      jump(tag_512)\n    tag_514:\n        /* \"#utility.yul\":20010:20196   */\n      pop\n      pop\n      jump\t// out\n        /* \"#utility.yul\":20202:20745   */\n    tag_310:\n        /* \"#utility.yul\":20303:20305   */\n      0x1f\n        /* \"#utility.yul\":20298:20301   */\n      dup3\n        /* \"#utility.yul\":20295:20306   */\n      gt\n        /* \"#utility.yul\":20292:20738   */\n      iszero\n      tag_517\n      jumpi\n        /* \"#utility.yul\":20337:20375   */\n      tag_518\n        /* \"#utility.yul\":20369:20374   */\n      dup2\n        /* \"#utility.yul\":20337:20375   */\n      tag_299\n      jump\t// in\n    tag_518:\n        /* \"#utility.yul\":20421:20450   */\n      tag_519\n        /* \"#utility.yul\":20439:20449   */\n      dup5\n        /* \"#utility.yul\":20421:20450   */\n      tag_300\n      jump\t// in\n    tag_519:\n        /* \"#utility.yul\":20411:20419   */\n      dup2\n        /* \"#utility.yul\":20407:20451   */\n      add\n        /* \"#utility.yul\":20604:20606   */\n      0x20\n        /* \"#utility.yul\":20592:20602   */\n      dup6\n        /* \"#utility.yul\":20589:20607   */\n      lt\n        /* \"#utility.yul\":20586:20635   */\n      iszero\n      tag_520\n      jumpi\n        /* \"#utility.yul\":20625:20633   */\n      dup2\n        /* \"#utility.yul\":20610:20633   */\n      swap1\n      pop\n        /* \"#utility.yul\":20586:20635   */\n    tag_520:\n        /* \"#utility.yul\":20648:20728   */\n      tag_521\n        /* \"#utility.yul\":20704:20726   */\n      tag_522\n        /* \"#utility.yul\":20722:20725   */\n      dup6\n        /* \"#utility.yul\":20704:20726   */\n      tag_300\n      jump\t// in\n    tag_522:\n        /* \"#utility.yul\":20694:20702   */\n      dup4\n        /* \"#utility.yul\":20690:20727   */\n      add\n        /* \"#utility.yul\":20677:20688   */\n      dup3\n        /* \"#utility.yul\":20648:20728   */\n      tag_309\n      jump\t// in\n    tag_521:\n        /* \"#utility.yul\":20307:20738   */\n      pop\n      pop\n        /* \"#utility.yul\":20292:20738   */\n    tag_517:\n        /* \"#utility.yul\":20202:20745   */\n      pop\n      pop\n      pop\n      jump\t// out\n        /* \"#utility.yul\":20751:20868   */\n    tag_311:\n        /* \"#utility.yul\":20805:20813   */\n      0x00\n        /* \"#utility.yul\":20855:20860   */\n      dup3\n        /* \"#utility.yul\":20849:20853   */\n      dup3\n        /* \"#utility.yul\":20845:20861   */\n      shr\n        /* \"#utility.yul\":20824:20861   */\n      swap1\n      pop\n        /* \"#utility.yul\":20751:20868   */\n      swap3\n      swap2\n      pop\n      pop\n      jump\t// out\n        /* \"#utility.yul\":20874:21043   */\n    tag_312:\n        /* \"#utility.yul\":20918:20924   */\n      0x00\n        /* \"#utility.yul\":20951:21002   */\n      tag_525\n        /* \"#utility.yul\":20999:21000   */\n      0x00\n        /* \"#utility.yul\":20995:21001   */\n      not\n        /* \"#utility.yul\":20987:20992   */\n      dup5\n        /* \"#utility.yul\":20984:20985   */\n      0x08\n        /* \"#utility.yul\":20980:20993   */\n      mul\n        /* \"#utility.yul\":20951:21002   */\n      tag_311\n      jump\t// in\n    tag_525:\n        /* \"#utility.yul\":20947:21003   */\n      not\n        /* \"#utility.yul\":21032:21036   */\n      dup1\n        /* \"#utility.yul\":21026:21030   */\n      dup4\n        /* \"#utility.yul\":21022:21037   */\n      and\n        /* \"#utility.yul\":21012:21037   */\n      swap2\n      pop\n        /* \"#utility.yul\":20925:21043   */\n      pop\n        /* \"#utility.yul\":20874:21043   */\n      swap3\n      swap2\n      pop\n      pop\n      jump\t// out\n        /* \"#utility.yul\":21048:21343   */\n    tag_313:\n        /* \"#utility.yul\":21124:21128   */\n      0x00\n        /* \"#utility.yul\":21270:21299   */\n      tag_527\n        /* \"#utility.yul\":21295:21298   */\n      dup4\n        /* \"#utility.yul\":21289:21293   */\n      dup4\n        /* \"#utility.yul\":21270:21299   */\n      tag_312\n      jump\t// in\n    tag_527:\n        /* \"#utility.yul\":21262:21299   */\n      swap2\n      pop\n        /* \"#utility.yul\":21332:21335   */\n      dup3\n        /* \"#utility.yul\":21329:21330   */\n      0x02\n        /* \"#utility.yul\":21325:21336   */\n      mul\n        /* \"#utility.yul\":21319:21323   */\n      dup3\n        /* \"#utility.yul\":21316:21337   */\n      or\n        /* \"#utility.yul\":21308:21337   */\n      swap1\n      pop\n        /* \"#utility.yul\":21048:21343   */\n      swap3\n      swap2\n      pop\n      pop\n      jump\t// out\n        /* \"#utility.yul\":21348:22743   */\n    tag_87:\n        /* \"#utility.yul\":21465:21502   */\n      tag_529\n        /* \"#utility.yul\":21498:21501   */\n      dup3\n        /* \"#utility.yul\":21465:21502   */\n      tag_266\n      jump\t// in\n    tag_529:\n        /* \"#utility.yul\":21567:21585   */\n      0xffffffffffffffff\n        /* \"#utility.yul\":21559:21565   */\n      dup2\n        /* \"#utility.yul\":21556:21586   */\n      gt\n        /* \"#utility.yul\":21553:21609   */\n      iszero\n      tag_530\n      jumpi\n        /* \"#utility.yul\":21589:21607   */\n      tag_531\n      tag_131\n      jump\t// in\n    tag_531:\n        /* \"#utility.yul\":21553:21609   */\n    tag_530:\n        /* \"#utility.yul\":21633:21671   */\n      tag_532\n        /* \"#utility.yul\":21665:21669   */\n      dup3\n        /* \"#utility.yul\":21659:21670   */\n      sload\n        /* \"#utility.yul\":21633:21671   */\n      tag_96\n      jump\t// in\n    tag_532:\n        /* \"#utility.yul\":21718:21785   */\n      tag_533\n        /* \"#utility.yul\":21778:21784   */\n      dup3\n        /* \"#utility.yul\":21770:21776   */\n      dup3\n        /* \"#utility.yul\":21764:21768   */\n      dup6\n        /* \"#utility.yul\":21718:21785   */\n      tag_310\n      jump\t// in\n    tag_533:\n        /* \"#utility.yul\":21812:21813   */\n      0x00\n        /* \"#utility.yul\":21836:21840   */\n      0x20\n        /* \"#utility.yul\":21823:21840   */\n      swap1\n      pop\n        /* \"#utility.yul\":21868:21870   */\n      0x1f\n        /* \"#utility.yul\":21860:21866   */\n      dup4\n        /* \"#utility.yul\":21857:21871   */\n      gt\n        /* \"#utility.yul\":21885:21886   */\n      0x01\n        /* \"#utility.yul\":21880:22498   */\n      dup2\n      eq\n      tag_535\n      jumpi\n        /* \"#utility.yul\":22542:22543   */\n      0x00\n        /* \"#utility.yul\":22559:22565   */\n      dup5\n        /* \"#utility.yul\":22556:22633   */\n      iszero\n      tag_536\n      jumpi\n        /* \"#utility.yul\":22608:22617   */\n      dup3\n        /* \"#utility.yul\":22603:22606   */\n      dup8\n        /* \"#utility.yul\":22599:22618   */\n      add\n        /* \"#utility.yul\":22593:22619   */\n      mload\n        /* \"#utility.yul\":22584:22619   */\n      swap1\n      pop\n        /* \"#utility.yul\":22556:22633   */\n    tag_536:\n        /* \"#utility.yul\":22659:22726   */\n      tag_537\n        /* \"#utility.yul\":22719:22725   */\n      dup6\n        /* \"#utility.yul\":22712:22717   */\n      dup3\n        /* \"#utility.yul\":22659:22726   */\n      tag_313\n      jump\t// in\n    tag_537:\n        /* \"#utility.yul\":22653:22657   */\n      dup7\n        /* \"#utility.yul\":22646:22727   */\n      sstore\n        /* \"#utility.yul\":22515:22737   */\n      pop\n        /* \"#utility.yul\":21850:22737   */\n      jump(tag_534)\n        /* \"#utility.yul\":21880:22498   */\n    tag_535:\n        /* \"#utility.yul\":21932:21936   */\n      0x1f\n        /* \"#utility.yul\":21928:21937   */\n      not\n        /* \"#utility.yul\":21920:21926   */\n      dup5\n        /* \"#utility.yul\":21916:21938   */\n      and\n        /* \"#utility.yul\":21966:22003   */\n      tag_538\n        /* \"#utility.yul\":21998:22002   */\n      dup7\n        /* \"#utility.yul\":21966:22003   */\n      tag_299\n      jump\t// in\n    tag_538:\n        /* \"#utility.yul\":22025:22026   */\n      0x00\n        /* \"#utility.yul\":22039:22247   */\n    tag_539:\n        /* \"#utility.yul\":22053:22060   */\n      dup3\n        /* \"#utility.yul\":22050:22051   */\n      dup2\n        /* \"#utility.yul\":22047:22061   */\n      lt\n        /* \"#utility.yul\":22039:22247   */\n      iszero\n      tag_541\n      jumpi\n        /* \"#utility.yul\":22132:22141   */\n      dup5\n        /* \"#utility.yul\":22127:22130   */\n      dup10\n        /* \"#utility.yul\":22123:22142   */\n      add\n        /* \"#utility.yul\":22117:22143   */\n      mload\n        /* \"#utility.yul\":22109:22115   */\n      dup3\n        /* \"#utility.yul\":22102:22144   */\n      sstore\n        /* \"#utility.yul\":22183:22184   */\n      0x01\n        /* \"#utility.yul\":22175:22181   */\n      dup3\n        /* \"#utility.yul\":22171:22185   */\n      add\n        /* \"#utility.yul\":22161:22185   */\n      swap2\n      pop\n        /* \"#utility.yul\":22230:22232   */\n      0x20\n        /* \"#utility.yul\":22219:22228   */\n      dup6\n        /* \"#utility.yul\":22215:22233   */\n      add\n        /* \"#utility.yul\":22202:22233   */\n      swap5\n      pop\n        /* \"#utility.yul\":22076:22080   */\n      0x20\n        /* \"#utility.yul\":22073:22074   */\n      dup2\n        /* \"#utility.yul\":22069:22081   */\n      add\n        /* \"#utility.yul\":22064:22081   */\n      swap1\n      pop\n        /* \"#utility.yul\":22039:22247   */\n      jump(tag_539)\n    tag_541:\n        /* \"#utility.yul\":22275:22281   */\n      dup7\n        /* \"#utility.yul\":22266:22273   */\n      dup4\n        /* \"#utility.yul\":22263:22282   */\n      lt\n        /* \"#utility.yul\":22260:22439   */\n      iszero\n      tag_542\n      jumpi\n        /* \"#utility.yul\":22333:22342   */\n      dup5\n        /* \"#utility.yul\":22328:22331   */\n      dup10\n        /* \"#utility.yul\":22324:22343   */\n      add\n        /* \"#utility.yul\":22318:22344   */\n      mload\n        /* \"#utility.yul\":22376:22424   */\n      tag_543\n        /* \"#utility.yul\":22418:22422   */\n      0x1f\n        /* \"#utility.yul\":22410:22416   */\n      dup10\n        /* \"#utility.yul\":22406:22423   */\n      and\n        /* \"#utility.yul\":22395:22404   */\n      dup3\n        /* \"#utility.yul\":22376:22424   */\n      tag_312\n      jump\t// in\n    tag_543:\n        /* \"#utility.yul\":22368:22374   */\n      dup4\n        /* \"#utility.yul\":22361:22425   */\n      sstore\n        /* \"#utility.yul\":22283:22439   */\n      pop\n        /* \"#utility.yul\":22260:22439   */\n    tag_542:\n        /* \"#utility.yul\":22485:22486   */\n      0x01\n        /* \"#utility.yul\":22481:22482   */\n      0x02\n        /* \"#utility.yul\":22473:22479   */\n      dup9\n        /* \"#utility.yul\":22469:22483   */\n      mul\n        /* \"#utility.yul\":22465:22487   */\n      add\n        /* \"#utility.yul\":22459:22463   */\n      dup9\n        /* \"#utility.yul\":22452:22488   */\n      sstore\n        /* \"#utility.yul\":21887:22498   */\n      pop\n      pop\n      pop\n        /* \"#utility.yul\":21850:22737   */\n    tag_534:\n      pop\n        /* \"#utility.yul\":21440:22743   */\n      pop\n      pop\n      pop\n        /* \"#utility.yul\":21348:22743   */\n      pop\n      pop\n      jump\t// out\n        /* \"#utility.yul\":22773:23604   */\n    tag_314:\n        /* \"#utility.yul\":22858:22861   */\n      0x00\n        /* \"#utility.yul\":22895:22900   */\n      dup2\n        /* \"#utility.yul\":22889:22901   */\n      sload\n        /* \"#utility.yul\":22924:22960   */\n      tag_545\n        /* \"#utility.yul\":22950:22959   */\n      dup2\n        /* \"#utility.yul\":22924:22960   */\n      tag_96\n      jump\t// in\n    tag_545:\n        /* \"#utility.yul\":22976:23047   */\n      tag_546\n        /* \"#utility.yul\":23040:23046   */\n      dup2\n        /* \"#utility.yul\":23035:23038   */\n      dup7\n        /* \"#utility.yul\":22976:23047   */\n      tag_267\n      jump\t// in\n    tag_546:\n        /* \"#utility.yul\":22969:23047   */\n      swap5\n      pop\n        /* \"#utility.yul\":23078:23079   */\n      0x01\n        /* \"#utility.yul\":23067:23076   */\n      dup3\n        /* \"#utility.yul\":23063:23080   */\n      and\n        /* \"#utility.yul\":23094:23095   */\n      0x00\n        /* \"#utility.yul\":23089:23253   */\n      dup2\n      eq\n      tag_548\n      jumpi\n        /* \"#utility.yul\":23267:23268   */\n      0x01\n        /* \"#utility.yul\":23262:23598   */\n      dup2\n      eq\n      tag_549\n      jumpi\n        /* \"#utility.yul\":23056:23598   */\n      jump(tag_547)\n        /* \"#utility.yul\":23089:23253   */\n    tag_548:\n        /* \"#utility.yul\":23173:23177   */\n      0xff\n        /* \"#utility.yul\":23169:23178   */\n      not\n        /* \"#utility.yul\":23158:23167   */\n      dup4\n        /* \"#utility.yul\":23154:23179   */\n      and\n        /* \"#utility.yul\":23149:23152   */\n      dup7\n        /* \"#utility.yul\":23142:23180   */\n      mstore\n        /* \"#utility.yul\":23233:23239   */\n      dup2\n        /* \"#utility.yul\":23226:23240   */\n      iszero\n        /* \"#utility.yul\":23219:23241   */\n      iszero\n        /* \"#utility.yul\":23213:23217   */\n      0x20\n        /* \"#utility.yul\":23209:23242   */\n      mul\n        /* \"#utility.yul\":23204:23207   */\n      dup7\n        /* \"#utility.yul\":23200:23243   */\n      add\n        /* \"#utility.yul\":23193:23243   */\n      swap4\n      pop\n        /* \"#utility.yul\":23089:23253   */\n      jump(tag_547)\n        /* \"#utility.yul\":23262:23598   */\n    tag_549:\n        /* \"#utility.yul\":23329:23367   */\n      tag_550\n        /* \"#utility.yul\":23361:23366   */\n      dup6\n        /* \"#utility.yul\":23329:23367   */\n      tag_299\n      jump\t// in\n    tag_550:\n        /* \"#utility.yul\":23389:23390   */\n      0x00\n        /* \"#utility.yul\":23403:23557   */\n    tag_551:\n        /* \"#utility.yul\":23417:23423   */\n      dup4\n        /* \"#utility.yul\":23414:23415   */\n      dup2\n        /* \"#utility.yul\":23411:23424   */\n      lt\n        /* \"#utility.yul\":23403:23557   */\n      iszero\n      tag_553\n      jumpi\n        /* \"#utility.yul\":23491:23498   */\n      dup2\n        /* \"#utility.yul\":23485:23499   */\n      sload\n        /* \"#utility.yul\":23481:23482   */\n      dup2\n        /* \"#utility.yul\":23476:23479   */\n      dup10\n        /* \"#utility.yul\":23472:23483   */\n      add\n        /* \"#utility.yul\":23465:23500   */\n      mstore\n        /* \"#utility.yul\":23541:23542   */\n      0x01\n        /* \"#utility.yul\":23532:23539   */\n      dup3\n        /* \"#utility.yul\":23528:23543   */\n      add\n        /* \"#utility.yul\":23517:23543   */\n      swap2\n      pop\n        /* \"#utility.yul\":23439:23443   */\n      0x20\n        /* \"#utility.yul\":23436:23437   */\n      dup2\n        /* \"#utility.yul\":23432:23444   */\n      add\n        /* \"#utility.yul\":23427:23444   */\n      swap1\n      pop\n        /* \"#utility.yul\":23403:23557   */\n      jump(tag_551)\n    tag_553:\n        /* \"#utility.yul\":23586:23587   */\n      dup1\n        /* \"#utility.yul\":23581:23584   */\n      dup9\n        /* \"#utility.yul\":23577:23588   */\n      add\n        /* \"#utility.yul\":23570:23588   */\n      swap6\n      pop\n        /* \"#utility.yul\":23269:23598   */\n      pop\n      pop\n        /* \"#utility.yul\":23056:23598   */\n    tag_547:\n      pop\n        /* \"#utility.yul\":22862:23604   */\n      pop\n      pop\n        /* \"#utility.yul\":22773:23604   */\n      swap3\n      swap2\n      pop\n      pop\n      jump\t// out\n        /* \"#utility.yul\":23610:23917   */\n    tag_89:\n        /* \"#utility.yul\":23720:23724   */\n      0x00\n        /* \"#utility.yul\":23758:23760   */\n      0x20\n        /* \"#utility.yul\":23747:23756   */\n      dup3\n        /* \"#utility.yul\":23743:23761   */\n      add\n        /* \"#utility.yul\":23735:23761   */\n      swap1\n      pop\n        /* \"#utility.yul\":23807:23816   */\n      dup2\n        /* \"#utility.yul\":23801:23805   */\n      dup2\n        /* \"#utility.yul\":23797:23817   */\n      sub\n        /* \"#utility.yul\":23793:23794   */\n      0x00\n        /* \"#utility.yul\":23782:23791   */\n      dup4\n        /* \"#utility.yul\":23778:23795   */\n      add\n        /* \"#utility.yul\":23771:23818   */\n      mstore\n        /* \"#utility.yul\":23835:23910   */\n      tag_555\n        /* \"#utility.yul\":23905:23909   */\n      dup2\n        /* \"#utility.yul\":23896:23902   */\n      dup5\n        /* \"#utility.yul\":23835:23910   */\n      tag_314\n      jump\t// in\n    tag_555:\n        /* \"#utility.yul\":23827:23910   */\n      swap1\n      pop\n        /* \"#utility.yul\":23610:23917   */\n      swap3\n      swap2\n      pop\n      pop\n      jump\t// out\n        /* \"#utility.yul\":23923:24096   */\n    tag_315:\n        /* \"#utility.yul\":24063:24088   */\n      0x43616e64696461746520496420697320696e76616c6964000000000000000000\n        /* \"#utility.yul\":24059:24060   */\n      0x00\n        /* \"#utility.yul\":24051:24057   */\n      dup3\n        /* \"#utility.yul\":24047:24061   */\n      add\n        /* \"#utility.yul\":24040:24089   */\n      mstore\n        /* \"#utility.yul\":23923:24096   */\n      pop\n      jump\t// out\n        /* \"#utility.yul\":24102:24468   */\n    tag_316:\n        /* \"#utility.yul\":24244:24247   */\n      0x00\n        /* \"#utility.yul\":24265:24332   */\n      tag_558\n        /* \"#utility.yul\":24329:24331   */\n      0x17\n        /* \"#utility.yul\":24324:24327   */\n      dup4\n        /* \"#utility.yul\":24265:24332   */\n      tag_267\n      jump\t// in\n    tag_558:\n        /* \"#utility.yul\":24258:24332   */\n      swap2\n      pop\n        /* \"#utility.yul\":24341:24434   */\n      tag_559\n        /* \"#utility.yul\":24430:24433   */\n      dup3\n        /* \"#utility.yul\":24341:24434   */\n      tag_315\n      jump\t// in\n    tag_559:\n        /* \"#utility.yul\":24459:24461   */\n      0x20\n        /* \"#utility.yul\":24454:24457   */\n      dup3\n        /* \"#utility.yul\":24450:24462   */\n      add\n        /* \"#utility.yul\":24443:24462   */\n      swap1\n      pop\n        /* \"#utility.yul\":24102:24468   */\n      swap2\n      swap1\n      pop\n      jump\t// out\n        /* \"#utility.yul\":24474:24893   */\n    tag_113:\n        /* \"#utility.yul\":24640:24644   */\n      0x00\n        /* \"#utility.yul\":24678:24680   */\n      0x20\n        /* \"#utility.yul\":24667:24676   */\n      dup3\n        /* \"#utility.yul\":24663:24681   */\n      add\n        /* \"#utility.yul\":24655:24681   */\n      swap1\n      pop\n        /* \"#utility.yul\":24727:24736   */\n      dup2\n        /* \"#utility.yul\":24721:24725   */\n      dup2\n        /* \"#utility.yul\":24717:24737   */\n      sub\n        /* \"#utility.yul\":24713:24714   */\n      0x00\n        /* \"#utility.yul\":24702:24711   */\n      dup4\n        /* \"#utility.yul\":24698:24715   */\n      add\n        /* \"#utility.yul\":24691:24738   */\n      mstore\n        /* \"#utility.yul\":24755:24886   */\n      tag_561\n        /* \"#utility.yul\":24881:24885   */\n      dup2\n        /* \"#utility.yul\":24755:24886   */\n      tag_316\n      jump\t// in\n    tag_561:\n        /* \"#utility.yul\":24747:24886   */\n      swap1\n      pop\n        /* \"#utility.yul\":24474:24893   */\n      swap2\n      swap1\n      pop\n      jump\t// out\n        /* \"#utility.yul\":24899:25081   */\n    tag_317:\n        /* \"#utility.yul\":25039:25073   */\n      0x5468697320766f74657220616c726561647920676976652068697320766f7465\n        /* \"#utility.yul\":25035:25036   */\n      0x00\n        /* \"#utility.yul\":25027:25033   */\n      dup3\n        /* \"#utility.yul\":25023:25037   */\n      add\n        /* \"#utility.yul\":25016:25074   */\n      mstore\n        /* \"#utility.yul\":24899:25081   */\n      pop\n      jump\t// out\n        /* \"#utility.yul\":25087:25453   */\n    tag_318:\n        /* \"#utility.yul\":25229:25232   */\n      0x00\n        /* \"#utility.yul\":25250:25317   */\n      tag_564\n        /* \"#utility.yul\":25314:25316   */\n      0x20\n        /* \"#utility.yul\":25309:25312   */\n      dup4\n        /* \"#utility.yul\":25250:25317   */\n      tag_267\n      jump\t// in\n    tag_564:\n        /* \"#utility.yul\":25243:25317   */\n      swap2\n      pop\n        /* \"#utility.yul\":25326:25419   */\n      tag_565\n        /* \"#utility.yul\":25415:25418   */\n      dup3\n        /* \"#utility.yul\":25326:25419   */\n      tag_317\n      jump\t// in\n    tag_565:\n        /* \"#utility.yul\":25444:25446   */\n      0x20\n        /* \"#utility.yul\":25439:25442   */\n      dup3\n        /* \"#utility.yul\":25435:25447   */\n      add\n        /* \"#utility.yul\":25428:25447   */\n      swap1\n      pop\n        /* \"#utility.yul\":25087:25453   */\n      swap2\n      swap1\n      pop\n      jump\t// out\n        /* \"#utility.yul\":25459:25878   */\n    tag_117:\n        /* \"#utility.yul\":25625:25629   */\n      0x00\n        /* \"#utility.yul\":25663:25665   */\n      0x20\n        /* \"#utility.yul\":25652:25661   */\n      dup3\n        /* \"#utility.yul\":25648:25666   */\n      add\n        /* \"#utility.yul\":25640:25666   */\n      swap1\n      pop\n        /* \"#utility.yul\":25712:25721   */\n      dup2\n        /* \"#utility.yul\":25706:25710   */\n      dup2\n        /* \"#utility.yul\":25702:25722   */\n      sub\n        /* \"#utility.yul\":25698:25699   */\n      0x00\n        /* \"#utility.yul\":25687:25696   */\n      dup4\n        /* \"#utility.yul\":25683:25700   */\n      add\n        /* \"#utility.yul\":25676:25723   */\n      mstore\n        /* \"#utility.yul\":25740:25871   */\n      tag_567\n        /* \"#utility.yul\":25866:25870   */\n      dup2\n        /* \"#utility.yul\":25740:25871   */\n      tag_318\n      jump\t// in\n    tag_567:\n        /* \"#utility.yul\":25732:25871   */\n      swap1\n      pop\n        /* \"#utility.yul\":25459:25878   */\n      swap2\n      swap1\n      pop\n      jump\t// out\n        /* \"#utility.yul\":25884:26111   */\n    tag_319:\n        /* \"#utility.yul\":26024:26058   */\n      0x5468657265206973206e6f2063616e6469646174657320666f72207468697320\n        /* \"#utility.yul\":26020:26021   */\n      0x00\n        /* \"#utility.yul\":26012:26018   */\n      dup3\n        /* \"#utility.yul\":26008:26022   */\n      add\n        /* \"#utility.yul\":26001:26059   */\n      mstore\n        /* \"#utility.yul\":26093:26103   */\n      0x656c656374696f6e000000000000000000000000000000000000000000000000\n        /* \"#utility.yul\":26088:26090   */\n      0x20\n        /* \"#utility.yul\":26080:26086   */\n      dup3\n        /* \"#utility.yul\":26076:26091   */\n      add\n        /* \"#utility.yul\":26069:26104   */\n      mstore\n        /* \"#utility.yul\":25884:26111   */\n      pop\n      jump\t// out\n        /* \"#utility.yul\":26117:26483   */\n    tag_320:\n        /* \"#utility.yul\":26259:26262   */\n      0x00\n        /* \"#utility.yul\":26280:26347   */\n      tag_570\n        /* \"#utility.yul\":26344:26346   */\n      0x28\n        /* \"#utility.yul\":26339:26342   */\n      dup4\n        /* \"#utility.yul\":26280:26347   */\n      tag_267\n      jump\t// in\n    tag_570:\n        /* \"#utility.yul\":26273:26347   */\n      swap2\n      pop\n        /* \"#utility.yul\":26356:26449   */\n      tag_571\n        /* \"#utility.yul\":26445:26448   */\n      dup3\n        /* \"#utility.yul\":26356:26449   */\n      tag_319\n      jump\t// in\n    tag_571:\n        /* \"#utility.yul\":26474:26476   */\n      0x40\n        /* \"#utility.yul\":26469:26472   */\n      dup3\n        /* \"#utility.yul\":26465:26477   */\n      add\n        /* \"#utility.yul\":26458:26477   */\n      swap1\n      pop\n        /* \"#utility.yul\":26117:26483   */\n      swap2\n      swap1\n      pop\n      jump\t// out\n        /* \"#utility.yul\":26489:26908   */\n    tag_128:\n        /* \"#utility.yul\":26655:26659   */\n      0x00\n        /* \"#utility.yul\":26693:26695   */\n      0x20\n        /* \"#utility.yul\":26682:26691   */\n      dup3\n        /* \"#utility.yul\":26678:26696   */\n      add\n        /* \"#utility.yul\":26670:26696   */\n      swap1\n      pop\n        /* \"#utility.yul\":26742:26751   */\n      dup2\n        /* \"#utility.yul\":26736:26740   */\n      dup2\n        /* \"#utility.yul\":26732:26752   */\n      sub\n        /* \"#utility.yul\":26728:26729   */\n      0x00\n        /* \"#utility.yul\":26717:26726   */\n      dup4\n        /* \"#utility.yul\":26713:26730   */\n      add\n        /* \"#utility.yul\":26706:26753   */\n      mstore\n        /* \"#utility.yul\":26770:26901   */\n      tag_573\n        /* \"#utility.yul\":26896:26900   */\n      dup2\n        /* \"#utility.yul\":26770:26901   */\n      tag_320\n      jump\t// in\n    tag_573:\n        /* \"#utility.yul\":26762:26901   */\n      swap1\n      pop\n        /* \"#utility.yul\":26489:26908   */\n      swap2\n      swap1\n      pop\n      jump\t// out\n        /* \"#utility.yul\":26914:27105   */\n    tag_144:\n        /* \"#utility.yul\":26954:26957   */\n      0x00\n        /* \"#utility.yul\":26973:26993   */\n      tag_575\n        /* \"#utility.yul\":26991:26992   */\n      dup3\n        /* \"#utility.yul\":26973:26993   */\n      tag_254\n      jump\t// in\n    tag_575:\n        /* \"#utility.yul\":26968:26993   */\n      swap2\n      pop\n        /* \"#utility.yul\":27007:27027   */\n      tag_576\n        /* \"#utility.yul\":27025:27026   */\n      dup4\n        /* \"#utility.yul\":27007:27027   */\n      tag_254\n      jump\t// in\n    tag_576:\n        /* \"#utility.yul\":27002:27027   */\n      swap3\n      pop\n        /* \"#utility.yul\":27050:27051   */\n      dup3\n        /* \"#utility.yul\":27047:27048   */\n      dup3\n        /* \"#utility.yul\":27043:27052   */\n      add\n        /* \"#utility.yul\":27036:27052   */\n      swap1\n      pop\n        /* \"#utility.yul\":27071:27074   */\n      dup1\n        /* \"#utility.yul\":27068:27069   */\n      dup3\n        /* \"#utility.yul\":27065:27075   */\n      gt\n        /* \"#utility.yul\":27062:27098   */\n      iszero\n      tag_577\n      jumpi\n        /* \"#utility.yul\":27078:27096   */\n      tag_578\n      tag_297\n      jump\t// in\n    tag_578:\n        /* \"#utility.yul\":27062:27098   */\n    tag_577:\n        /* \"#utility.yul\":26914:27105   */\n      swap3\n      swap2\n      pop\n      pop\n      jump\t// out\n        /* \"#utility.yul\":27111:27291   */\n    tag_147:\n        /* \"#utility.yul\":27159:27236   */\n      0x4e487b7100000000000000000000000000000000000000000000000000000000\n        /* \"#utility.yul\":27156:27157   */\n      0x00\n        /* \"#utility.yul\":27149:27237   */\n      mstore\n        /* \"#utility.yul\":27256:27260   */\n      0x32\n        /* \"#utility.yul\":27253:27254   */\n      0x04\n        /* \"#utility.yul\":27246:27261   */\n      mstore\n        /* \"#utility.yul\":27280:27284   */\n      0x24\n        /* \"#utility.yul\":27277:27278   */\n      0x00\n        /* \"#utility.yul\":27270:27285   */\n      revert\n        /* \"#utility.yul\":27297:27714   */\n    tag_201:\n        /* \"#utility.yul\":27435:27439   */\n      0x00\n        /* \"#utility.yul\":27473:27475   */\n      0x40\n        /* \"#utility.yul\":27462:27471   */\n      dup3\n        /* \"#utility.yul\":27458:27476   */\n      add\n        /* \"#utility.yul\":27450:27476   */\n      swap1\n      pop\n        /* \"#utility.yul\":27522:27531   */\n      dup2\n        /* \"#utility.yul\":27516:27520   */\n      dup2\n        /* \"#utility.yul\":27512:27532   */\n      sub\n        /* \"#utility.yul\":27508:27509   */\n      0x00\n        /* \"#utility.yul\":27497:27506   */\n      dup4\n        /* \"#utility.yul\":27493:27510   */\n      add\n        /* \"#utility.yul\":27486:27533   */\n      mstore\n        /* \"#utility.yul\":27550:27625   */\n      tag_581\n        /* \"#utility.yul\":27620:27624   */\n      dup2\n        /* \"#utility.yul\":27611:27617   */\n      dup6\n        /* \"#utility.yul\":27550:27625   */\n      tag_314\n      jump\t// in\n    tag_581:\n        /* \"#utility.yul\":27542:27625   */\n      swap1\n      pop\n        /* \"#utility.yul\":27635:27707   */\n      tag_582\n        /* \"#utility.yul\":27703:27705   */\n      0x20\n        /* \"#utility.yul\":27692:27701   */\n      dup4\n        /* \"#utility.yul\":27688:27706   */\n      add\n        /* \"#utility.yul\":27679:27685   */\n      dup5\n        /* \"#utility.yul\":27635:27707   */\n      tag_270\n      jump\t// in\n    tag_582:\n        /* \"#utility.yul\":27297:27714   */\n      swap4\n      swap3\n      pop\n      pop\n      pop\n      jump\t// out\n        /* \"#utility.yul\":27720:28671   */\n    tag_225:\n        /* \"#utility.yul\":27990:27994   */\n      0x00\n        /* \"#utility.yul\":28028:28031   */\n      0xc0\n        /* \"#utility.yul\":28017:28026   */\n      dup3\n        /* \"#utility.yul\":28013:28032   */\n      add\n        /* \"#utility.yul\":28005:28032   */\n      swap1\n      pop\n        /* \"#utility.yul\":28042:28113   */\n      tag_584\n        /* \"#utility.yul\":28110:28111   */\n      0x00\n        /* \"#utility.yul\":28099:28108   */\n      dup4\n        /* \"#utility.yul\":28095:28112   */\n      add\n        /* \"#utility.yul\":28086:28092   */\n      dup10\n        /* \"#utility.yul\":28042:28113   */\n      tag_270\n      jump\t// in\n    tag_584:\n        /* \"#utility.yul\":28160:28169   */\n      dup2\n        /* \"#utility.yul\":28154:28158   */\n      dup2\n        /* \"#utility.yul\":28150:28170   */\n      sub\n        /* \"#utility.yul\":28145:28147   */\n      0x20\n        /* \"#utility.yul\":28134:28143   */\n      dup4\n        /* \"#utility.yul\":28130:28148   */\n      add\n        /* \"#utility.yul\":28123:28171   */\n      mstore\n        /* \"#utility.yul\":28188:28263   */\n      tag_585\n        /* \"#utility.yul\":28258:28262   */\n      dup2\n        /* \"#utility.yul\":28249:28255   */\n      dup9\n        /* \"#utility.yul\":28188:28263   */\n      tag_314\n      jump\t// in\n    tag_585:\n        /* \"#utility.yul\":28180:28263   */\n      swap1\n      pop\n        /* \"#utility.yul\":28273:28345   */\n      tag_586\n        /* \"#utility.yul\":28341:28343   */\n      0x40\n        /* \"#utility.yul\":28330:28339   */\n      dup4\n        /* \"#utility.yul\":28326:28344   */\n      add\n        /* \"#utility.yul\":28317:28323   */\n      dup8\n        /* \"#utility.yul\":28273:28345   */\n      tag_270\n      jump\t// in\n    tag_586:\n        /* \"#utility.yul\":28392:28401   */\n      dup2\n        /* \"#utility.yul\":28386:28390   */\n      dup2\n        /* \"#utility.yul\":28382:28402   */\n      sub\n        /* \"#utility.yul\":28377:28379   */\n      0x60\n        /* \"#utility.yul\":28366:28375   */\n      dup4\n        /* \"#utility.yul\":28362:28380   */\n      add\n        /* \"#utility.yul\":28355:28403   */\n      mstore\n        /* \"#utility.yul\":28420:28498   */\n      tag_587\n        /* \"#utility.yul\":28493:28497   */\n      dup2\n        /* \"#utility.yul\":28484:28490   */\n      dup7\n        /* \"#utility.yul\":28420:28498   */\n      tag_269\n      jump\t// in\n    tag_587:\n        /* \"#utility.yul\":28412:28498   */\n      swap1\n      pop\n        /* \"#utility.yul\":28508:28581   */\n      tag_588\n        /* \"#utility.yul\":28576:28579   */\n      0x80\n        /* \"#utility.yul\":28565:28574   */\n      dup4\n        /* \"#utility.yul\":28561:28580   */\n      add\n        /* \"#utility.yul\":28552:28558   */\n      dup6\n        /* \"#utility.yul\":28508:28581   */\n      tag_270\n      jump\t// in\n    tag_588:\n        /* \"#utility.yul\":28591:28664   */\n      tag_589\n        /* \"#utility.yul\":28659:28662   */\n      0xa0\n        /* \"#utility.yul\":28648:28657   */\n      dup4\n        /* \"#utility.yul\":28644:28663   */\n      add\n        /* \"#utility.yul\":28635:28641   */\n      dup5\n        /* \"#utility.yul\":28591:28664   */\n      tag_270\n      jump\t// in\n    tag_589:\n        /* \"#utility.yul\":27720:28671   */\n      swap8\n      swap7\n      pop\n      pop\n      pop\n      pop\n      pop\n      pop\n      pop\n      jump\t// out\n        /* \"#utility.yul\":28677:28899   */\n    tag_321:\n        /* \"#utility.yul\":28817:28851   */\n      0x5468657265206973206e6f20656c656374696f6e2069732072756e6e696e6720\n        /* \"#utility.yul\":28813:28814   */\n      0x00\n        /* \"#utility.yul\":28805:28811   */\n      dup3\n        /* \"#utility.yul\":28801:28815   */\n      add\n        /* \"#utility.yul\":28794:28852   */\n      mstore\n        /* \"#utility.yul\":28886:28891   */\n      0x6e6f770000000000000000000000000000000000000000000000000000000000\n        /* \"#utility.yul\":28881:28883   */\n      0x20\n        /* \"#utility.yul\":28873:28879   */\n      dup3\n        /* \"#utility.yul\":28869:28884   */\n      add\n        /* \"#utility.yul\":28862:28892   */\n      mstore\n        /* \"#utility.yul\":28677:28899   */\n      pop\n      jump\t// out\n        /* \"#utility.yul\":28905:29271   */\n    tag_322:\n        /* \"#utility.yul\":29047:29050   */\n      0x00\n        /* \"#utility.yul\":29068:29135   */\n      tag_592\n        /* \"#utility.yul\":29132:29134   */\n      0x23\n        /* \"#utility.yul\":29127:29130   */\n      dup4\n        /* \"#utility.yul\":29068:29135   */\n      tag_267\n      jump\t// in\n    tag_592:\n        /* \"#utility.yul\":29061:29135   */\n      swap2\n      pop\n        /* \"#utility.yul\":29144:29237   */\n      tag_593\n        /* \"#utility.yul\":29233:29236   */\n      dup3\n        /* \"#utility.yul\":29144:29237   */\n      tag_321\n      jump\t// in\n    tag_593:\n        /* \"#utility.yul\":29262:29264   */\n      0x40\n        /* \"#utility.yul\":29257:29260   */\n      dup3\n        /* \"#utility.yul\":29253:29265   */\n      add\n        /* \"#utility.yul\":29246:29265   */\n      swap1\n      pop\n        /* \"#utility.yul\":28905:29271   */\n      swap2\n      swap1\n      pop\n      jump\t// out\n        /* \"#utility.yul\":29277:29696   */\n    tag_229:\n        /* \"#utility.yul\":29443:29447   */\n      0x00\n        /* \"#utility.yul\":29481:29483   */\n      0x20\n        /* \"#utility.yul\":29470:29479   */\n      dup3\n        /* \"#utility.yul\":29466:29484   */\n      add\n        /* \"#utility.yul\":29458:29484   */\n      swap1\n      pop\n        /* \"#utility.yul\":29530:29539   */\n      dup2\n        /* \"#utility.yul\":29524:29528   */\n      dup2\n        /* \"#utility.yul\":29520:29540   */\n      sub\n        /* \"#utility.yul\":29516:29517   */\n      0x00\n        /* \"#utility.yul\":29505:29514   */\n      dup4\n        /* \"#utility.yul\":29501:29518   */\n      add\n        /* \"#utility.yul\":29494:29541   */\n      mstore\n        /* \"#utility.yul\":29558:29689   */\n      tag_595\n        /* \"#utility.yul\":29684:29688   */\n      dup2\n        /* \"#utility.yul\":29558:29689   */\n      tag_322\n      jump\t// in\n    tag_595:\n        /* \"#utility.yul\":29550:29689   */\n      swap1\n      pop\n        /* \"#utility.yul\":29277:29696   */\n      swap2\n      swap1\n      pop\n      jump\t// out\n\n    auxdata: 0xa2646970667358221220b9189fd6798d6b5a27ab642058d19a5bdfb21a34a08bae2525d6c0e55679219664736f6c634300081e0033\n}\n",
				"bytecode": {
					"linkReferences": {},
					"object": "6080604052348015600e575f5ffd5b50335f5f6101000a81548173ffffffffffffffffffffffffffffffffffffffff021916908373ffffffffffffffffffffffffffffffffffffffff16021790555061265d8061005b5f395ff3fe608060405234801561000f575f5ffd5b50600436106100b2575f3560e01c80635e6fef011161006f5780635e6fef01146101b55780637c0e1dba146101ea578063997d2830146102065780639c98bcbb146102245780639f3a7f5214610256578063f851a44014610275576100b2565b80630a63c583146100b65780632ce35e11146100d25780632d81fa59146101035780633e39a7a51461011f5780634129b2c9146101515780634bd4644814610183575b5f5ffd5b6100d060048036038101906100cb91906118bb565b610293565b005b6100ec60048036038101906100e79190611915565b6104ee565b6040516100fa9291906119af565b60405180910390f35b61011d600480360381019061011891906119dd565b6105f4565b005b61013960048036038101906101349190611915565b610909565b60405161014893929190611bd5565b60405180910390f35b61016b60048036038101906101669190611915565b610c71565b60405161017a93929190611c1f565b60405180910390f35b61019d600480360381019061019891906119dd565b610e0d565b6040516101ac93929190611c1f565b60405180910390f35b6101cf60048036038101906101ca9190611915565b610fd3565b6040516101e196959493929190611c75565b60405180910390f35b61020460048036038101906101ff9190611cdb565b61109d565b005b61020e6111f6565b60405161021b9190611d35565b60405180910390f35b61023e60048036038101906102399190611915565b6111fc565b60405161024d93929190611c1f565b60405180910390f35b61025e611515565b60405161026c929190611d4e565b60405180910390f35b61027d611717565b60405161028a9190611dc2565b60405180910390f35b3373ffffffffffffffffffffffffffffffffffffffff165f5f9054906101000a900473ffffffffffffffffffffffffffffffffffffffff1673ffffffffffffffffffffffffffffffffffffffff1614610321576040517f08c379a000000000000000000000000000000000000000000000000000000000815260040161031890611e4b565b60405180910390fd5b81805f10801561033357506001548111155b610372576040517f08c379a000000000000000000000000000000000000000000000000000000000815260040161036990611eb3565b60405180910390fd5b826001151560025f8381526020019081526020015f206001015f9054906101000a900460ff1615151480156103bb57504260025f8381526020019081526020015f206003015410155b6103fa576040517f08c379a00000000000000000000000000000000000000000000000000000000081526004016103f190611f41565b60405180910390fd5b5f60025f8681526020019081526020015f2090505f816004015f815461041f90611f8c565b919050819055905080826007015f8381526020019081526020015f206001018190555084826007015f8381526020019081526020015f205f01908161046491906121d0565b505f826007015f8381526020019081526020015f2060020181905550816007015f8281526020019081526020015f2060010154825f01547fed8911b3df733b7d5f75724158e54478ea12e30f49c9d31b5261879f5b76586f846007015f8581526020019081526020015f205f016040516104de9190612320565b60405180910390a3505050505050565b60605f82805f10801561050357506001548111155b610542576040517f08c379a000000000000000000000000000000000000000000000000000000000815260040161053990611eb3565b60405180910390fd5b5f60025f8681526020019081526020015f20905080600201816005015481805461056b90612000565b80601f016020809104026020016040519081016040528092919081815260200182805461059790612000565b80156105e25780601f106105b9576101008083540402835291602001916105e2565b820191905f5260205f20905b8154815290600101906020018083116105c557829003601f168201915b50505050509150935093505050915091565b81805f10801561060657506001548111155b610645576040517f08c379a000000000000000000000000000000000000000000000000000000000815260040161063c90611eb3565b60405180910390fd5b826001151560025f8381526020019081526020015f206001015f9054906101000a900460ff16151514801561068e57504260025f8381526020019081526020015f206003015410155b6106cd576040517f08c379a00000000000000000000000000000000000000000000000000000000081526004016106c490611f41565b60405180910390fd5b83835f811180156106f2575060025f8381526020019081526020015f20600401548111155b610731576040517f08c379a00000000000000000000000000000000000000000000000000000000081526004016107289061238a565b60405180910390fd5b8560025f8281526020019081526020015f206006015f3373ffffffffffffffffffffffffffffffffffffffff1673ffffffffffffffffffffffffffffffffffffffff1681526020019081526020015f205f9054906101000a900460ff16156107ce576040517f08c379a00000000000000000000000000000000000000000000000000000000081526004016107c5906123f2565b60405180910390fd5b600160025f8981526020019081526020015f206006015f3373ffffffffffffffffffffffffffffffffffffffff1673ffffffffffffffffffffffffffffffffffffffff1681526020019081526020015f205f6101000a81548160ff02191690831515021790555060025f8881526020019081526020015f206007015f8781526020019081526020015f206002015f81548092919061086b90611f8c565b919050555060025f8881526020019081526020015f206005015f81548092919061089490611f8c565b919050555060025f8881526020019081526020015f206007015f8781526020019081526020015f206001015460025f8981526020019081526020015f205f01547fc31875ef3ed5138b71a0c1da7e494bc4d2ba4f567084ea481ec9c45f3a93948b60405160405180910390a350505050505050565b606080606083805f10801561092057506001548111155b61095f576040517f08c379a000000000000000000000000000000000000000000000000000000000815260040161095690611eb3565b60405180910390fd5b5f60025f8781526020019081526020015f2060040154116109b5576040517f08c379a00000000000000000000000000000000000000000000000000000000081526004016109ac90612480565b60405180910390fd5b5f60025f8781526020019081526020015f206004015467ffffffffffffffff8111156109e4576109e3611797565b5b604051908082528060200260200182016040528015610a125781602001602082028036833780820191505090505b5090505f60025f8881526020019081526020015f206004015467ffffffffffffffff811115610a4457610a43611797565b5b604051908082528060200260200182016040528015610a7757816020015b6060815260200190600190039081610a625790505b5090505f60025f8981526020019081526020015f206004015467ffffffffffffffff811115610aa957610aa8611797565b5b604051908082528060200260200182016040528015610ad75781602001602082028036833780820191505090505b5090505f5f90505b60025f8a81526020019081526020015f2060040154811015610c5c57600181610b08919061249e565b848281518110610b1b57610b1a6124d1565b5b60200260200101818152505060025f8a81526020019081526020015f206007015f600183610b49919061249e565b81526020019081526020015f205f018054610b6390612000565b80601f0160208091040260200160405190810160405280929190818152602001828054610b8f90612000565b8015610bda5780601f10610bb157610100808354040283529160200191610bda565b820191905f5260205f20905b815481529060010190602001808311610bbd57829003601f168201915b5050505050838281518110610bf257610bf16124d1565b5b602002602001018190525060025f8a81526020019081526020015f206007015f600183610c1f919061249e565b81526020019081526020015f2060020154828281518110610c4357610c426124d1565b5b6020026020010181815250508080600101915050610adf565b50828282965096509650505050509193909250565b5f60605f83805f108015610c8757506001548111155b610cc6576040517f08c379a0000000000000000000000000000000000000000000000000000000008152600401610cbd90611eb3565b60405180910390fd5b5f60025f8781526020019081526020015f2090505f5f905060605f5f90505f600190505b84600401548111610df75781856007015f8381526020019081526020015f20600201541115610de457846007015f8281526020019081526020015f20600101549350846007015f8281526020019081526020015f205f018054610d4c90612000565b80601f0160208091040260200160405190810160405280929190818152602001828054610d7890612000565b8015610dc35780601f10610d9a57610100808354040283529160200191610dc3565b820191905f5260205f20905b815481529060010190602001808311610da657829003601f168201915b50505050509250846007015f8281526020019081526020015f206002015491505b8080610def90611f8c565b915050610cea565b5082828297509750975050505050509193909250565b5f60605f84805f108015610e2357506001548111155b610e62576040517f08c379a0000000000000000000000000000000000000000000000000000000008152600401610e5990611eb3565b60405180910390fd5b85855f81118015610e87575060025f8381526020019081526020015f20600401548111155b610ec6576040517f08c379a0000000000000000000000000000000000000000000000000000000008152600401610ebd9061238a565b60405180910390fd5b60025f8981526020019081526020015f206007015f8881526020019081526020015f206001015460025f8a81526020019081526020015f206007015f8981526020019081526020015f205f0160025f8b81526020019081526020015f206007015f8a81526020019081526020015f2060020154818054610f4590612000565b80601f0160208091040260200160405190810160405280929190818152602001828054610f7190612000565b8015610fbc5780601f10610f9357610100808354040283529160200191610fbc565b820191905f5260205f20905b815481529060010190602001808311610f9f57829003601f168201915b505050505091509550955095505050509250925092565b6002602052805f5260405f205f91509050805f015490806001015f9054906101000a900460ff169080600201805461100a90612000565b80601f016020809104026020016040519081016040528092919081815260200182805461103690612000565b80156110815780601f1061105857610100808354040283529160200191611081565b820191905f5260205f20905b81548152906001019060200180831161106457829003601f168201915b5050505050908060030154908060040154908060050154905086565b3373ffffffffffffffffffffffffffffffffffffffff165f5f9054906101000a900473ffffffffffffffffffffffffffffffffffffffff1673ffffffffffffffffffffffffffffffffffffffff161461112b576040517f08c379a000000000000000000000000000000000000000000000000000000000815260040161112290611e4b565b60405180910390fd5b60015f81548092919061113d90611f8c565b91905055505f60025f60015481526020019081526020015f2090508281600201908161116991906121d0565b50600154815f01819055506001816001015f6101000a81548160ff021916908315150217905550814261119c919061249e565b81600301819055505f8160040181905550805f01547f43131521170c5b80ffe9526cfec987f5a24eb1f6c4bda47c41a5e4b8388afe5c8260020183600301546040516111e99291906124fe565b60405180910390a2505050565b60015481565b5f60605f3373ffffffffffffffffffffffffffffffffffffffff165f5f9054906101000a900473ffffffffffffffffffffffffffffffffffffffff1673ffffffffffffffffffffffffffffffffffffffff161461128e576040517f08c379a000000000000000000000000000000000000000000000000000000000815260040161128590611e4b565b60405180910390fd5b83805f1080156112a057506001548111155b6112df576040517f08c379a00000000000000000000000000000000000000000000000000000000081526004016112d690611eb3565b60405180910390fd5b846001151560025f8381526020019081526020015f206001015f9054906101000a900460ff16151514801561132857504260025f8381526020019081526020015f206003015410155b611367576040517f08c379a000000000000000000000000000000000000000000000000000000000815260040161135e90611f41565b60405180910390fd5b5f60025f8881526020019081526020015f2090505f816001015f6101000a81548160ff0219169083151502179055505f5f905060605f5f90505f600190505b846004015481116114b35781856007015f8381526020019081526020015f206002015411156114a057846007015f8281526020019081526020015f20600101549350846007015f8281526020019081526020015f205f01805461140890612000565b80601f016020809104026020016040519081016040528092919081815260200182805461143490612000565b801561147f5780601f106114565761010080835404028352916020019161147f565b820191905f5260205f20905b81548152906001019060200180831161146257829003601f168201915b50505050509250846007015f8281526020019081526020015f206002015491505b80806114ab90611f8c565b9150506113a6565b507f3b6c4d7e2cef081634247cfac8d389fcae0ae5780d888244df410080efa0bec3845f01548560020185858589600501546040516114f79695949392919061252c565b60405180910390a18282829850985098505050505050509193909250565b6060805f6001541161155c576040517f08c379a000000000000000000000000000000000000000000000000000000000815260040161155390612609565b60405180910390fd5b5f60015467ffffffffffffffff81111561157957611578611797565b5b6040519080825280602002602001820160405280156115a75781602001602082028036833780820191505090505b5090505f60015467ffffffffffffffff8111156115c7576115c6611797565b5b6040519080825280602002602001820160405280156115fa57816020015b60608152602001906001900390816115e55790505b5090505f5f90505b60015481101561170a57600181611619919061249e565b83828151811061162c5761162b6124d1565b5b60200260200101818152505060025f600183611648919061249e565b81526020019081526020015f20600201805461166390612000565b80601f016020809104026020016040519081016040528092919081815260200182805461168f90612000565b80156116da5780601f106116b1576101008083540402835291602001916116da565b820191905f5260205f20905b8154815290600101906020018083116116bd57829003601f168201915b50505050508282815181106116f2576116f16124d1565b5b60200260200101819052508080600101915050611602565b5081819350935050509091565b5f5f9054906101000a900473ffffffffffffffffffffffffffffffffffffffff1681565b5f604051905090565b5f5ffd5b5f5ffd5b5f819050919050565b61175e8161174c565b8114611768575f5ffd5b50565b5f8135905061177981611755565b92915050565b5f5ffd5b5f5ffd5b5f601f19601f8301169050919050565b7f4e487b71000000000000000000000000000000000000000000000000000000005f52604160045260245ffd5b6117cd82611787565b810181811067ffffffffffffffff821117156117ec576117eb611797565b5b80604052505050565b5f6117fe61173b565b905061180a82826117c4565b919050565b5f67ffffffffffffffff82111561182957611828611797565b5b61183282611787565b9050602081019050919050565b828183375f83830152505050565b5f61185f61185a8461180f565b6117f5565b90508281526020810184848401111561187b5761187a611783565b5b61188684828561183f565b509392505050565b5f82601f8301126118a2576118a161177f565b5b81356118b284826020860161184d565b91505092915050565b5f5f604083850312156118d1576118d0611744565b5b5f6118de8582860161176b565b925050602083013567ffffffffffffffff8111156118ff576118fe611748565b5b61190b8582860161188e565b9150509250929050565b5f6020828403121561192a57611929611744565b5b5f6119378482850161176b565b91505092915050565b5f81519050919050565b5f82825260208201905092915050565b8281835e5f83830152505050565b5f61197282611940565b61197c818561194a565b935061198c81856020860161195a565b61199581611787565b840191505092915050565b6119a98161174c565b82525050565b5f6040820190508181035f8301526119c78185611968565b90506119d660208301846119a0565b9392505050565b5f5f604083850312156119f3576119f2611744565b5b5f611a008582860161176b565b9250506020611a118582860161176b565b9150509250929050565b5f81519050919050565b5f82825260208201905092915050565b5f819050602082019050919050565b611a4d8161174c565b82525050565b5f611a5e8383611a44565b60208301905092915050565b5f602082019050919050565b5f611a8082611a1b565b611a8a8185611a25565b9350611a9583611a35565b805f5b83811015611ac5578151611aac8882611a53565b9750611ab783611a6a565b925050600181019050611a98565b5085935050505092915050565b5f81519050919050565b5f82825260208201905092915050565b5f819050602082019050919050565b5f82825260208201905092915050565b5f611b1582611940565b611b1f8185611afb565b9350611b2f81856020860161195a565b611b3881611787565b840191505092915050565b5f611b4e8383611b0b565b905092915050565b5f602082019050919050565b5f611b6c82611ad2565b611b768185611adc565b935083602082028501611b8885611aec565b805f5b85811015611bc35784840389528151611ba48582611b43565b9450611baf83611b56565b925060208a01995050600181019050611b8b565b50829750879550505050505092915050565b5f6060820190508181035f830152611bed8186611a76565b90508181036020830152611c018185611b62565b90508181036040830152611c158184611a76565b9050949350505050565b5f606082019050611c325f8301866119a0565b8181036020830152611c448185611968565b9050611c5360408301846119a0565b949350505050565b5f8115159050919050565b611c6f81611c5b565b82525050565b5f60c082019050611c885f8301896119a0565b611c956020830188611c66565b8181036040830152611ca78187611968565b9050611cb660608301866119a0565b611cc360808301856119a0565b611cd060a08301846119a0565b979650505050505050565b5f5f60408385031215611cf157611cf0611744565b5b5f83013567ffffffffffffffff811115611d0e57611d0d611748565b5b611d1a8582860161188e565b9250506020611d2b8582860161176b565b9150509250929050565b5f602082019050611d485f8301846119a0565b92915050565b5f6040820190508181035f830152611d668185611a76565b90508181036020830152611d7a8184611b62565b90509392505050565b5f73ffffffffffffffffffffffffffffffffffffffff82169050919050565b5f611dac82611d83565b9050919050565b611dbc81611da2565b82525050565b5f602082019050611dd55f830184611db3565b92915050565b7f4f6e6c792061646d696e2063616e20706572666f726d20746869732066756e635f8201527f74696f6e00000000000000000000000000000000000000000000000000000000602082015250565b5f611e3560248361194a565b9150611e4082611ddb565b604082019050919050565b5f6020820190508181035f830152611e6281611e29565b9050919050565b7f456c656374696f6e206973206e6f7420457869737400000000000000000000005f82015250565b5f611e9d60158361194a565b9150611ea882611e69565b602082019050919050565b5f6020820190508181035f830152611eca81611e91565b9050919050565b7f456c656374696f6e206973206e6f7420416374697665206f642074696d656f755f8201527f7400000000000000000000000000000000000000000000000000000000000000602082015250565b5f611f2b60218361194a565b9150611f3682611ed1565b604082019050919050565b5f6020820190508181035f830152611f5881611f1f565b9050919050565b7f4e487b71000000000000000000000000000000000000000000000000000000005f52601160045260245ffd5b5f611f968261174c565b91507fffffffffffffffffffffffffffffffffffffffffffffffffffffffffffffffff8203611fc857611fc7611f5f565b5b600182019050919050565b7f4e487b71000000000000000000000000000000000000000000000000000000005f52602260045260245ffd5b5f600282049050600182168061201757607f821691505b60208210810361202a57612029611fd3565b5b50919050565b5f819050815f5260205f209050919050565b5f6020601f8301049050919050565b5f82821b905092915050565b5f6008830261208c7fffffffffffffffffffffffffffffffffffffffffffffffffffffffffffffffff82612051565b6120968683612051565b95508019841693508086168417925050509392505050565b5f819050919050565b5f6120d16120cc6120c78461174c565b6120ae565b61174c565b9050919050565b5f819050919050565b6120ea836120b7565b6120fe6120f6826120d8565b84845461205d565b825550505050565b5f5f905090565b612115612106565b6121208184846120e1565b505050565b5b81811015612143576121385f8261210d565b600181019050612126565b5050565b601f8211156121885761215981612030565b61216284612042565b81016020851015612171578190505b61218561217d85612042565b830182612125565b50505b505050565b5f82821c905092915050565b5f6121a85f198460080261218d565b1980831691505092915050565b5f6121c08383612199565b9150826002028217905092915050565b6121d982611940565b67ffffffffffffffff8111156121f2576121f1611797565b5b6121fc8254612000565b612207828285612147565b5f60209050601f831160018114612238575f8415612226578287015190505b61223085826121b5565b865550612297565b601f19841661224686612030565b5f5b8281101561226d57848901518255600182019150602085019450602081019050612248565b8683101561228a5784890151612286601f891682612199565b8355505b6001600288020188555050505b505050505050565b5f81546122ab81612000565b6122b5818661194a565b9450600182165f81146122cf57600181146122e557612317565b60ff198316865281151560200286019350612317565b6122ee85612030565b5f5b8381101561230f578154818901526001820191506020810190506122f0565b808801955050505b50505092915050565b5f6020820190508181035f830152612338818461229f565b905092915050565b7f43616e64696461746520496420697320696e76616c69640000000000000000005f82015250565b5f61237460178361194a565b915061237f82612340565b602082019050919050565b5f6020820190508181035f8301526123a181612368565b9050919050565b7f5468697320766f74657220616c726561647920676976652068697320766f74655f82015250565b5f6123dc60208361194a565b91506123e7826123a8565b602082019050919050565b5f6020820190508181035f830152612409816123d0565b9050919050565b7f5468657265206973206e6f2063616e6469646174657320666f722074686973205f8201527f656c656374696f6e000000000000000000000000000000000000000000000000602082015250565b5f61246a60288361194a565b915061247582612410565b604082019050919050565b5f6020820190508181035f8301526124978161245e565b9050919050565b5f6124a88261174c565b91506124b38361174c565b92508282019050808211156124cb576124ca611f5f565b5b92915050565b7f4e487b71000000000000000000000000000000000000000000000000000000005f52603260045260245ffd5b5f6040820190508181035f830152612516818561229f565b905061252560208301846119a0565b9392505050565b5f60c08201905061253f5f8301896119a0565b8181036020830152612551818861229f565b905061256060408301876119a0565b81810360608301526125728186611968565b905061258160808301856119a0565b61258e60a08301846119a0565b979650505050505050565b7f5468657265206973206e6f20656c656374696f6e2069732072756e6e696e67205f8201527f6e6f770000000000000000000000000000000000000000000000000000000000602082015250565b5f6125f360238361194a565b91506125fe82612599565b604082019050919050565b5f6020820190508181035f830152612620816125e7565b905091905056fea2646970667358221220b9189fd6798d6b5a27ab642058d19a5bdfb21a34a08bae2525d6c0e55679219664736f6c634300081e0033",
					"opcodes": "PUSH1 0x80 PUSH1 0x40 MSTORE CALLVALUE DUP1 ISZERO PUSH1 0xE JUMPI PUSH0 PUSH0 REVERT JUMPDEST POP CALLER PUSH0 PUSH0 PUSH2 0x100 EXP DUP2 SLOAD DUP2 PUSH20 0xFFFFFFFFFFFFFFFFFFFFFFFFFFFFFFFFFFFFFFFF MUL NOT AND SWAP1 DUP4 PUSH20 0xFFFFFFFFFFFFFFFFFFFFFFFFFFFFFFFFFFFFFFFF AND MUL OR SWAP1 SSTORE POP PUSH2 0x265D DUP1 PUSH2 0x5B PUSH0 CODECOPY PUSH0 RETURN INVALID PUSH1 0x80 PUSH1 0x40 MSTORE CALLVALUE DUP1 ISZERO PUSH2 0xF JUMPI PUSH0 PUSH0 REVERT JUMPDEST POP PUSH1 0x4 CALLDATASIZE LT PUSH2 0xB2 JUMPI PUSH0 CALLDATALOAD PUSH1 0xE0 SHR DUP1 PUSH4 0x5E6FEF01 GT PUSH2 0x6F JUMPI DUP1 PUSH4 0x5E6FEF01 EQ PUSH2 0x1B5 JUMPI DUP1 PUSH4 0x7C0E1DBA EQ PUSH2 0x1EA JUMPI DUP1 PUSH4 0x997D2830 EQ PUSH2 0x206 JUMPI DUP1 PUSH4 0x9C98BCBB EQ PUSH2 0x224 JUMPI DUP1 PUSH4 0x9F3A7F52 EQ PUSH2 0x256 JUMPI DUP1 PUSH4 0xF851A440 EQ PUSH2 0x275 JUMPI PUSH2 0xB2 JUMP JUMPDEST DUP1 PUSH4 0xA63C583 EQ PUSH2 0xB6 JUMPI DUP1 PUSH4 0x2CE35E11 EQ PUSH2 0xD2 JUMPI DUP1 PUSH4 0x2D81FA59 EQ PUSH2 0x103 JUMPI DUP1 PUSH4 0x3E39A7A5 EQ PUSH2 0x11F JUMPI DUP1 PUSH4 0x4129B2C9 EQ PUSH2 0x151 JUMPI DUP1 PUSH4 0x4BD46448 EQ PUSH2 0x183 JUMPI JUMPDEST PUSH0 PUSH0 REVERT JUMPDEST PUSH2 0xD0 PUSH1 0x4 DUP1 CALLDATASIZE SUB DUP2 ADD SWAP1 PUSH2 0xCB SWAP2 SWAP1 PUSH2 0x18BB JUMP JUMPDEST PUSH2 0x293 JUMP JUMPDEST STOP JUMPDEST PUSH2 0xEC PUSH1 0x4 DUP1 CALLDATASIZE SUB DUP2 ADD SWAP1 PUSH2 0xE7 SWAP2 SWAP1 PUSH2 0x1915 JUMP JUMPDEST PUSH2 0x4EE JUMP JUMPDEST PUSH1 0x40 MLOAD PUSH2 0xFA SWAP3 SWAP2 SWAP1 PUSH2 0x19AF JUMP JUMPDEST PUSH1 0x40 MLOAD DUP1 SWAP2 SUB SWAP1 RETURN JUMPDEST PUSH2 0x11D PUSH1 0x4 DUP1 CALLDATASIZE SUB DUP2 ADD SWAP1 PUSH2 0x118 SWAP2 SWAP1 PUSH2 0x19DD JUMP JUMPDEST PUSH2 0x5F4 JUMP JUMPDEST STOP JUMPDEST PUSH2 0x139 PUSH1 0x4 DUP1 CALLDATASIZE SUB DUP2 ADD SWAP1 PUSH2 0x134 SWAP2 SWAP1 PUSH2 0x1915 JUMP JUMPDEST PUSH2 0x909 JUMP JUMPDEST PUSH1 0x40 MLOAD PUSH2 0x148 SWAP4 SWAP3 SWAP2 SWAP1 PUSH2 0x1BD5 JUMP JUMPDEST PUSH1 0x40 MLOAD DUP1 SWAP2 SUB SWAP1 RETURN JUMPDEST PUSH2 0x16B PUSH1 0x4 DUP1 CALLDATASIZE SUB DUP2 ADD SWAP1 PUSH2 0x166 SWAP2 SWAP1 PUSH2 0x1915 JUMP JUMPDEST PUSH2 0xC71 JUMP JUMPDEST PUSH1 0x40 MLOAD PUSH2 0x17A SWAP4 SWAP3 SWAP2 SWAP1 PUSH2 0x1C1F JUMP JUMPDEST PUSH1 0x40 MLOAD DUP1 SWAP2 SUB SWAP1 RETURN JUMPDEST PUSH2 0x19D PUSH1 0x4 DUP1 CALLDATASIZE SUB DUP2 ADD SWAP1 PUSH2 0x198 SWAP2 SWAP1 PUSH2 0x19DD JUMP JUMPDEST PUSH2 0xE0D JUMP JUMPDEST PUSH1 0x40 MLOAD PUSH2 0x1AC SWAP4 SWAP3 SWAP2 SWAP1 PUSH2 0x1C1F JUMP JUMPDEST PUSH1 0x40 MLOAD DUP1 SWAP2 SUB SWAP1 RETURN JUMPDEST PUSH2 0x1CF PUSH1 0x4 DUP1 CALLDATASIZE SUB DUP2 ADD SWAP1 PUSH2 0x1CA SWAP2 SWAP1 PUSH2 0x1915 JUMP JUMPDEST PUSH2 0xFD3 JUMP JUMPDEST PUSH1 0x40 MLOAD PUSH2 0x1E1 SWAP7 SWAP6 SWAP5 SWAP4 SWAP3 SWAP2 SWAP1 PUSH2 0x1C75 JUMP JUMPDEST PUSH1 0x40 MLOAD DUP1 SWAP2 SUB SWAP1 RETURN JUMPDEST PUSH2 0x204 PUSH1 0x4 DUP1 CALLDATASIZE SUB DUP2 ADD SWAP1 PUSH2 0x1FF SWAP2 SWAP1 PUSH2 0x1CDB JUMP JUMPDEST PUSH2 0x109D JUMP JUMPDEST STOP JUMPDEST PUSH2 0x20E PUSH2 0x11F6 JUMP JUMPDEST PUSH1 0x40 MLOAD PUSH2 0x21B SWAP2 SWAP1 PUSH2 0x1D35 JUMP JUMPDEST PUSH1 0x40 MLOAD DUP1 SWAP2 SUB SWAP1 RETURN JUMPDEST PUSH2 0x23E PUSH1 0x4 DUP1 CALLDATASIZE SUB DUP2 ADD SWAP1 PUSH2 0x239 SWAP2 SWAP1 PUSH2 0x1915 JUMP JUMPDEST PUSH2 0x11FC JUMP JUMPDEST PUSH1 0x40 MLOAD PUSH2 0x24D SWAP4 SWAP3 SWAP2 SWAP1 PUSH2 0x1C1F JUMP JUMPDEST PUSH1 0x40 MLOAD DUP1 SWAP2 SUB SWAP1 RETURN JUMPDEST PUSH2 0x25E PUSH2 0x1515 JUMP JUMPDEST PUSH1 0x40 MLOAD PUSH2 0x26C SWAP3 SWAP2 SWAP1 PUSH2 0x1D4E JUMP JUMPDEST PUSH1 0x40 MLOAD DUP1 SWAP2 SUB SWAP1 RETURN JUMPDEST PUSH2 0x27D PUSH2 0x1717 JUMP JUMPDEST PUSH1 0x40 MLOAD PUSH2 0x28A SWAP2 SWAP1 PUSH2 0x1DC2 JUMP JUMPDEST PUSH1 0x40 MLOAD DUP1 SWAP2 SUB SWAP1 RETURN JUMPDEST CALLER PUSH20 0xFFFFFFFFFFFFFFFFFFFFFFFFFFFFFFFFFFFFFFFF AND PUSH0 PUSH0 SWAP1 SLOAD SWAP1 PUSH2 0x100 EXP SWAP1 DIV PUSH20 0xFFFFFFFFFFFFFFFFFFFFFFFFFFFFFFFFFFFFFFFF AND PUSH20 0xFFFFFFFFFFFFFFFFFFFFFFFFFFFFFFFFFFFFFFFF AND EQ PUSH2 0x321 JUMPI PUSH1 0x40 MLOAD PUSH32 0x8C379A000000000000000000000000000000000000000000000000000000000 DUP2 MSTORE PUSH1 0x4 ADD PUSH2 0x318 SWAP1 PUSH2 0x1E4B JUMP JUMPDEST PUSH1 0x40 MLOAD DUP1 SWAP2 SUB SWAP1 REVERT JUMPDEST DUP2 DUP1 PUSH0 LT DUP1 ISZERO PUSH2 0x333 JUMPI POP PUSH1 0x1 SLOAD DUP2 GT ISZERO JUMPDEST PUSH2 0x372 JUMPI PUSH1 0x40 MLOAD PUSH32 0x8C379A000000000000000000000000000000000000000000000000000000000 DUP2 MSTORE PUSH1 0x4 ADD PUSH2 0x369 SWAP1 PUSH2 0x1EB3 JUMP JUMPDEST PUSH1 0x40 MLOAD DUP1 SWAP2 SUB SWAP1 REVERT JUMPDEST DUP3 PUSH1 0x1 ISZERO ISZERO PUSH1 0x2 PUSH0 DUP4 DUP2 MSTORE PUSH1 0x20 ADD SWAP1 DUP2 MSTORE PUSH1 0x20 ADD PUSH0 KECCAK256 PUSH1 0x1 ADD PUSH0 SWAP1 SLOAD SWAP1 PUSH2 0x100 EXP SWAP1 DIV PUSH1 0xFF AND ISZERO ISZERO EQ DUP1 ISZERO PUSH2 0x3BB JUMPI POP TIMESTAMP PUSH1 0x2 PUSH0 DUP4 DUP2 MSTORE PUSH1 0x20 ADD SWAP1 DUP2 MSTORE PUSH1 0x20 ADD PUSH0 KECCAK256 PUSH1 0x3 ADD SLOAD LT ISZERO JUMPDEST PUSH2 0x3FA JUMPI PUSH1 0x40 MLOAD PUSH32 0x8C379A000000000000000000000000000000000000000000000000000000000 DUP2 MSTORE PUSH1 0x4 ADD PUSH2 0x3F1 SWAP1 PUSH2 0x1F41 JUMP JUMPDEST PUSH1 0x40 MLOAD DUP1 SWAP2 SUB SWAP1 REVERT JUMPDEST PUSH0 PUSH1 0x2 PUSH0 DUP7 DUP2 MSTORE PUSH1 0x20 ADD SWAP1 DUP2 MSTORE PUSH1 0x20 ADD PUSH0 KECCAK256 SWAP1 POP PUSH0 DUP2 PUSH1 0x4 ADD PUSH0 DUP2 SLOAD PUSH2 0x41F SWAP1 PUSH2 0x1F8C JUMP JUMPDEST SWAP2 SWAP1 POP DUP2 SWAP1 SSTORE SWAP1 POP DUP1 DUP3 PUSH1 0x7 ADD PUSH0 DUP4 DUP2 MSTORE PUSH1 0x20 ADD SWAP1 DUP2 MSTORE PUSH1 0x20 ADD PUSH0 KECCAK256 PUSH1 0x1 ADD DUP2 SWAP1 SSTORE POP DUP5 DUP3 PUSH1 0x7 ADD PUSH0 DUP4 DUP2 MSTORE PUSH1 0x20 ADD SWAP1 DUP2 MSTORE PUSH1 0x20 ADD PUSH0 KECCAK256 PUSH0 ADD SWAP1 DUP2 PUSH2 0x464 SWAP2 SWAP1 PUSH2 0x21D0 JUMP JUMPDEST POP PUSH0 DUP3 PUSH1 0x7 ADD PUSH0 DUP4 DUP2 MSTORE PUSH1 0x20 ADD SWAP1 DUP2 MSTORE PUSH1 0x20 ADD PUSH0 KECCAK256 PUSH1 0x2 ADD DUP2 SWAP1 SSTORE POP DUP2 PUSH1 0x7 ADD PUSH0 DUP3 DUP2 MSTORE PUSH1 0x20 ADD SWAP1 DUP2 MSTORE PUSH1 0x20 ADD PUSH0 KECCAK256 PUSH1 0x1 ADD SLOAD DUP3 PUSH0 ADD SLOAD PUSH32 0xED8911B3DF733B7D5F75724158E54478EA12E30F49C9D31B5261879F5B76586F DUP5 PUSH1 0x7 ADD PUSH0 DUP6 DUP2 MSTORE PUSH1 0x20 ADD SWAP1 DUP2 MSTORE PUSH1 0x20 ADD PUSH0 KECCAK256 PUSH0 ADD PUSH1 0x40 MLOAD PUSH2 0x4DE SWAP2 SWAP1 PUSH2 0x2320 JUMP JUMPDEST PUSH1 0x40 MLOAD DUP1 SWAP2 SUB SWAP1 LOG3 POP POP POP POP POP POP JUMP JUMPDEST PUSH1 0x60 PUSH0 DUP3 DUP1 PUSH0 LT DUP1 ISZERO PUSH2 0x503 JUMPI POP PUSH1 0x1 SLOAD DUP2 GT ISZERO JUMPDEST PUSH2 0x542 JUMPI PUSH1 0x40 MLOAD PUSH32 0x8C379A000000000000000000000000000000000000000000000000000000000 DUP2 MSTORE PUSH1 0x4 ADD PUSH2 0x539 SWAP1 PUSH2 0x1EB3 JUMP JUMPDEST PUSH1 0x40 MLOAD DUP1 SWAP2 SUB SWAP1 REVERT JUMPDEST PUSH0 PUSH1 0x2 PUSH0 DUP7 DUP2 MSTORE PUSH1 0x20 ADD SWAP1 DUP2 MSTORE PUSH1 0x20 ADD PUSH0 KECCAK256 SWAP1 POP DUP1 PUSH1 0x2 ADD DUP2 PUSH1 0x5 ADD SLOAD DUP2 DUP1 SLOAD PUSH2 0x56B SWAP1 PUSH2 0x2000 JUMP JUMPDEST DUP1 PUSH1 0x1F ADD PUSH1 0x20 DUP1 SWAP2 DIV MUL PUSH1 0x20 ADD PUSH1 0x40 MLOAD SWAP1 DUP2 ADD PUSH1 0x40 MSTORE DUP1 SWAP3 SWAP2 SWAP1 DUP2 DUP2 MSTORE PUSH1 0x20 ADD DUP3 DUP1 SLOAD PUSH2 0x597 SWAP1 PUSH2 0x2000 JUMP JUMPDEST DUP1 ISZERO PUSH2 0x5E2 JUMPI DUP1 PUSH1 0x1F LT PUSH2 0x5B9 JUMPI PUSH2 0x100 DUP1 DUP4 SLOAD DIV MUL DUP4 MSTORE SWAP2 PUSH1 0x20 ADD SWAP2 PUSH2 0x5E2 JUMP JUMPDEST DUP3 ADD SWAP2 SWAP1 PUSH0 MSTORE PUSH1 0x20 PUSH0 KECCAK256 SWAP1 JUMPDEST DUP2 SLOAD DUP2 MSTORE SWAP1 PUSH1 0x1 ADD SWAP1 PUSH1 0x20 ADD DUP1 DUP4 GT PUSH2 0x5C5 JUMPI DUP3 SWAP1 SUB PUSH1 0x1F AND DUP3 ADD SWAP2 JUMPDEST POP POP POP POP POP SWAP2 POP SWAP4 POP SWAP4 POP POP POP SWAP2 POP SWAP2 JUMP JUMPDEST DUP2 DUP1 PUSH0 LT DUP1 ISZERO PUSH2 0x606 JUMPI POP PUSH1 0x1 SLOAD DUP2 GT ISZERO JUMPDEST PUSH2 0x645 JUMPI PUSH1 0x40 MLOAD PUSH32 0x8C379A000000000000000000000000000000000000000000000000000000000 DUP2 MSTORE PUSH1 0x4 ADD PUSH2 0x63C SWAP1 PUSH2 0x1EB3 JUMP JUMPDEST PUSH1 0x40 MLOAD DUP1 SWAP2 SUB SWAP1 REVERT JUMPDEST DUP3 PUSH1 0x1 ISZERO ISZERO PUSH1 0x2 PUSH0 DUP4 DUP2 MSTORE PUSH1 0x20 ADD SWAP1 DUP2 MSTORE PUSH1 0x20 ADD PUSH0 KECCAK256 PUSH1 0x1 ADD PUSH0 SWAP1 SLOAD SWAP1 PUSH2 0x100 EXP SWAP1 DIV PUSH1 0xFF AND ISZERO ISZERO EQ DUP1 ISZERO PUSH2 0x68E JUMPI POP TIMESTAMP PUSH1 0x2 PUSH0 DUP4 DUP2 MSTORE PUSH1 0x20 ADD SWAP1 DUP2 MSTORE PUSH1 0x20 ADD PUSH0 KECCAK256 PUSH1 0x3 ADD SLOAD LT ISZERO JUMPDEST PUSH2 0x6CD JUMPI PUSH1 0x40 MLOAD PUSH32 0x8C379A000000000000000000000000000000000000000000000000000000000 DUP2 MSTORE PUSH1 0x4 ADD PUSH2 0x6C4 SWAP1 PUSH2 0x1F41 JUMP JUMPDEST PUSH1 0x40 MLOAD DUP1 SWAP2 SUB SWAP1 REVERT JUMPDEST DUP4 DUP4 PUSH0 DUP2 GT DUP1 ISZERO PUSH2 0x6F2 JUMPI POP PUSH1 0x2 PUSH0 DUP4 DUP2 MSTORE PUSH1 0x20 ADD SWAP1 DUP2 MSTORE PUSH1 0x20 ADD PUSH0 KECCAK256 PUSH1 0x4 ADD SLOAD DUP2 GT ISZERO JUMPDEST PUSH2 0x731 JUMPI PUSH1 0x40 MLOAD PUSH32 0x8C379A000000000000000000000000000000000000000000000000000000000 DUP2 MSTORE PUSH1 0x4 ADD PUSH2 0x728 SWAP1 PUSH2 0x238A JUMP JUMPDEST PUSH1 0x40 MLOAD DUP1 SWAP2 SUB SWAP1 REVERT JUMPDEST DUP6 PUSH1 0x2 PUSH0 DUP3 DUP2 MSTORE PUSH1 0x20 ADD SWAP1 DUP2 MSTORE PUSH1 0x20 ADD PUSH0 KECCAK256 PUSH1 0x6 ADD PUSH0 CALLER PUSH20 0xFFFFFFFFFFFFFFFFFFFFFFFFFFFFFFFFFFFFFFFF AND PUSH20 0xFFFFFFFFFFFFFFFFFFFFFFFFFFFFFFFFFFFFFFFF AND DUP2 MSTORE PUSH1 0x20 ADD SWAP1 DUP2 MSTORE PUSH1 0x20 ADD PUSH0 KECCAK256 PUSH0 SWAP1 SLOAD SWAP1 PUSH2 0x100 EXP SWAP1 DIV PUSH1 0xFF AND ISZERO PUSH2 0x7CE JUMPI PUSH1 0x40 MLOAD PUSH32 0x8C379A000000000000000000000000000000000000000000000000000000000 DUP2 MSTORE PUSH1 0x4 ADD PUSH2 0x7C5 SWAP1 PUSH2 0x23F2 JUMP JUMPDEST PUSH1 0x40 MLOAD DUP1 SWAP2 SUB SWAP1 REVERT JUMPDEST PUSH1 0x1 PUSH1 0x2 PUSH0 DUP10 DUP2 MSTORE PUSH1 0x20 ADD SWAP1 DUP2 MSTORE PUSH1 0x20 ADD PUSH0 KECCAK256 PUSH1 0x6 ADD PUSH0 CALLER PUSH20 0xFFFFFFFFFFFFFFFFFFFFFFFFFFFFFFFFFFFFFFFF AND PUSH20 0xFFFFFFFFFFFFFFFFFFFFFFFFFFFFFFFFFFFFFFFF AND DUP2 MSTORE PUSH1 0x20 ADD SWAP1 DUP2 MSTORE PUSH1 0x20 ADD PUSH0 KECCAK256 PUSH0 PUSH2 0x100 EXP DUP2 SLOAD DUP2 PUSH1 0xFF MUL NOT AND SWAP1 DUP4 ISZERO ISZERO MUL OR SWAP1 SSTORE POP PUSH1 0x2 PUSH0 DUP9 DUP2 MSTORE PUSH1 0x20 ADD SWAP1 DUP2 MSTORE PUSH1 0x20 ADD PUSH0 KECCAK256 PUSH1 0x7 ADD PUSH0 DUP8 DUP2 MSTORE PUSH1 0x20 ADD SWAP1 DUP2 MSTORE PUSH1 0x20 ADD PUSH0 KECCAK256 PUSH1 0x2 ADD PUSH0 DUP2 SLOAD DUP1 SWAP3 SWAP2 SWAP1 PUSH2 0x86B SWAP1 PUSH2 0x1F8C JUMP JUMPDEST SWAP2 SWAP1 POP SSTORE POP PUSH1 0x2 PUSH0 DUP9 DUP2 MSTORE PUSH1 0x20 ADD SWAP1 DUP2 MSTORE PUSH1 0x20 ADD PUSH0 KECCAK256 PUSH1 0x5 ADD PUSH0 DUP2 SLOAD DUP1 SWAP3 SWAP2 SWAP1 PUSH2 0x894 SWAP1 PUSH2 0x1F8C JUMP JUMPDEST SWAP2 SWAP1 POP SSTORE POP PUSH1 0x2 PUSH0 DUP9 DUP2 MSTORE PUSH1 0x20 ADD SWAP1 DUP2 MSTORE PUSH1 0x20 ADD PUSH0 KECCAK256 PUSH1 0x7 ADD PUSH0 DUP8 DUP2 MSTORE PUSH1 0x20 ADD SWAP1 DUP2 MSTORE PUSH1 0x20 ADD PUSH0 KECCAK256 PUSH1 0x1 ADD SLOAD PUSH1 0x2 PUSH0 DUP10 DUP2 MSTORE PUSH1 0x20 ADD SWAP1 DUP2 MSTORE PUSH1 0x20 ADD PUSH0 KECCAK256 PUSH0 ADD SLOAD PUSH32 0xC31875EF3ED5138B71A0C1DA7E494BC4D2BA4F567084EA481EC9C45F3A93948B PUSH1 0x40 MLOAD PUSH1 0x40 MLOAD DUP1 SWAP2 SUB SWAP1 LOG3 POP POP POP POP POP POP POP JUMP JUMPDEST PUSH1 0x60 DUP1 PUSH1 0x60 DUP4 DUP1 PUSH0 LT DUP1 ISZERO PUSH2 0x920 JUMPI POP PUSH1 0x1 SLOAD DUP2 GT ISZERO JUMPDEST PUSH2 0x95F JUMPI PUSH1 0x40 MLOAD PUSH32 0x8C379A000000000000000000000000000000000000000000000000000000000 DUP2 MSTORE PUSH1 0x4 ADD PUSH2 0x956 SWAP1 PUSH2 0x1EB3 JUMP JUMPDEST PUSH1 0x40 MLOAD DUP1 SWAP2 SUB SWAP1 REVERT JUMPDEST PUSH0 PUSH1 0x2 PUSH0 DUP8 DUP2 MSTORE PUSH1 0x20 ADD SWAP1 DUP2 MSTORE PUSH1 0x20 ADD PUSH0 KECCAK256 PUSH1 0x4 ADD SLOAD GT PUSH2 0x9B5 JUMPI PUSH1 0x40 MLOAD PUSH32 0x8C379A000000000000000000000000000000000000000000000000000000000 DUP2 MSTORE PUSH1 0x4 ADD PUSH2 0x9AC SWAP1 PUSH2 0x2480 JUMP JUMPDEST PUSH1 0x40 MLOAD DUP1 SWAP2 SUB SWAP1 REVERT JUMPDEST PUSH0 PUSH1 0x2 PUSH0 DUP8 DUP2 MSTORE PUSH1 0x20 ADD SWAP1 DUP2 MSTORE PUSH1 0x20 ADD PUSH0 KECCAK256 PUSH1 0x4 ADD SLOAD PUSH8 0xFFFFFFFFFFFFFFFF DUP2 GT ISZERO PUSH2 0x9E4 JUMPI PUSH2 0x9E3 PUSH2 0x1797 JUMP JUMPDEST JUMPDEST PUSH1 0x40 MLOAD SWAP1 DUP1 DUP3 MSTORE DUP1 PUSH1 0x20 MUL PUSH1 0x20 ADD DUP3 ADD PUSH1 0x40 MSTORE DUP1 ISZERO PUSH2 0xA12 JUMPI DUP2 PUSH1 0x20 ADD PUSH1 0x20 DUP3 MUL DUP1 CALLDATASIZE DUP4 CALLDATACOPY DUP1 DUP3 ADD SWAP2 POP POP SWAP1 POP JUMPDEST POP SWAP1 POP PUSH0 PUSH1 0x2 PUSH0 DUP9 DUP2 MSTORE PUSH1 0x20 ADD SWAP1 DUP2 MSTORE PUSH1 0x20 ADD PUSH0 KECCAK256 PUSH1 0x4 ADD SLOAD PUSH8 0xFFFFFFFFFFFFFFFF DUP2 GT ISZERO PUSH2 0xA44 JUMPI PUSH2 0xA43 PUSH2 0x1797 JUMP JUMPDEST JUMPDEST PUSH1 0x40 MLOAD SWAP1 DUP1 DUP3 MSTORE DUP1 PUSH1 0x20 MUL PUSH1 0x20 ADD DUP3 ADD PUSH1 0x40 MSTORE DUP1 ISZERO PUSH2 0xA77 JUMPI DUP2 PUSH1 0x20 ADD JUMPDEST PUSH1 0x60 DUP2 MSTORE PUSH1 0x20 ADD SWAP1 PUSH1 0x1 SWAP1 SUB SWAP1 DUP2 PUSH2 0xA62 JUMPI SWAP1 POP JUMPDEST POP SWAP1 POP PUSH0 PUSH1 0x2 PUSH0 DUP10 DUP2 MSTORE PUSH1 0x20 ADD SWAP1 DUP2 MSTORE PUSH1 0x20 ADD PUSH0 KECCAK256 PUSH1 0x4 ADD SLOAD PUSH8 0xFFFFFFFFFFFFFFFF DUP2 GT ISZERO PUSH2 0xAA9 JUMPI PUSH2 0xAA8 PUSH2 0x1797 JUMP JUMPDEST JUMPDEST PUSH1 0x40 MLOAD SWAP1 DUP1 DUP3 MSTORE DUP1 PUSH1 0x20 MUL PUSH1 0x20 ADD DUP3 ADD PUSH1 0x40 MSTORE DUP1 ISZERO PUSH2 0xAD7 JUMPI DUP2 PUSH1 0x20 ADD PUSH1 0x20 DUP3 MUL DUP1 CALLDATASIZE DUP4 CALLDATACOPY DUP1 DUP3 ADD SWAP2 POP POP SWAP1 POP JUMPDEST POP SWAP1 POP PUSH0 PUSH0 SWAP1 POP JUMPDEST PUSH1 0x2 PUSH0 DUP11 DUP2 MSTORE PUSH1 0x20 ADD SWAP1 DUP2 MSTORE PUSH1 0x20 ADD PUSH0 KECCAK256 PUSH1 0x4 ADD SLOAD DUP2 LT ISZERO PUSH2 0xC5C JUMPI PUSH1 0x1 DUP2 PUSH2 0xB08 SWAP2 SWAP1 PUSH2 0x249E JUMP JUMPDEST DUP5 DUP3 DUP2 MLOAD DUP2 LT PUSH2 0xB1B JUMPI PUSH2 0xB1A PUSH2 0x24D1 JUMP JUMPDEST JUMPDEST PUSH1 0x20 MUL PUSH1 0x20 ADD ADD DUP2 DUP2 MSTORE POP POP PUSH1 0x2 PUSH0 DUP11 DUP2 MSTORE PUSH1 0x20 ADD SWAP1 DUP2 MSTORE PUSH1 0x20 ADD PUSH0 KECCAK256 PUSH1 0x7 ADD PUSH0 PUSH1 0x1 DUP4 PUSH2 0xB49 SWAP2 SWAP1 PUSH2 0x249E JUMP JUMPDEST DUP2 MSTORE PUSH1 0x20 ADD SWAP1 DUP2 MSTORE PUSH1 0x20 ADD PUSH0 KECCAK256 PUSH0 ADD DUP1 SLOAD PUSH2 0xB63 SWAP1 PUSH2 0x2000 JUMP JUMPDEST DUP1 PUSH1 0x1F ADD PUSH1 0x20 DUP1 SWAP2 DIV MUL PUSH1 0x20 ADD PUSH1 0x40 MLOAD SWAP1 DUP2 ADD PUSH1 0x40 MSTORE DUP1 SWAP3 SWAP2 SWAP1 DUP2 DUP2 MSTORE PUSH1 0x20 ADD DUP3 DUP1 SLOAD PUSH2 0xB8F SWAP1 PUSH2 0x2000 JUMP JUMPDEST DUP1 ISZERO PUSH2 0xBDA JUMPI DUP1 PUSH1 0x1F LT PUSH2 0xBB1 JUMPI PUSH2 0x100 DUP1 DUP4 SLOAD DIV MUL DUP4 MSTORE SWAP2 PUSH1 0x20 ADD SWAP2 PUSH2 0xBDA JUMP JUMPDEST DUP3 ADD SWAP2 SWAP1 PUSH0 MSTORE PUSH1 0x20 PUSH0 KECCAK256 SWAP1 JUMPDEST DUP2 SLOAD DUP2 MSTORE SWAP1 PUSH1 0x1 ADD SWAP1 PUSH1 0x20 ADD DUP1 DUP4 GT PUSH2 0xBBD JUMPI DUP3 SWAP1 SUB PUSH1 0x1F AND DUP3 ADD SWAP2 JUMPDEST POP POP POP POP POP DUP4 DUP3 DUP2 MLOAD DUP2 LT PUSH2 0xBF2 JUMPI PUSH2 0xBF1 PUSH2 0x24D1 JUMP JUMPDEST JUMPDEST PUSH1 0x20 MUL PUSH1 0x20 ADD ADD DUP2 SWAP1 MSTORE POP PUSH1 0x2 PUSH0 DUP11 DUP2 MSTORE PUSH1 0x20 ADD SWAP1 DUP2 MSTORE PUSH1 0x20 ADD PUSH0 KECCAK256 PUSH1 0x7 ADD PUSH0 PUSH1 0x1 DUP4 PUSH2 0xC1F SWAP2 SWAP1 PUSH2 0x249E JUMP JUMPDEST DUP2 MSTORE PUSH1 0x20 ADD SWAP1 DUP2 MSTORE PUSH1 0x20 ADD PUSH0 KECCAK256 PUSH1 0x2 ADD SLOAD DUP3 DUP3 DUP2 MLOAD DUP2 LT PUSH2 0xC43 JUMPI PUSH2 0xC42 PUSH2 0x24D1 JUMP JUMPDEST JUMPDEST PUSH1 0x20 MUL PUSH1 0x20 ADD ADD DUP2 DUP2 MSTORE POP POP DUP1 DUP1 PUSH1 0x1 ADD SWAP2 POP POP PUSH2 0xADF JUMP JUMPDEST POP DUP3 DUP3 DUP3 SWAP7 POP SWAP7 POP SWAP7 POP POP POP POP POP SWAP2 SWAP4 SWAP1 SWAP3 POP JUMP JUMPDEST PUSH0 PUSH1 0x60 PUSH0 DUP4 DUP1 PUSH0 LT DUP1 ISZERO PUSH2 0xC87 JUMPI POP PUSH1 0x1 SLOAD DUP2 GT ISZERO JUMPDEST PUSH2 0xCC6 JUMPI PUSH1 0x40 MLOAD PUSH32 0x8C379A000000000000000000000000000000000000000000000000000000000 DUP2 MSTORE PUSH1 0x4 ADD PUSH2 0xCBD SWAP1 PUSH2 0x1EB3 JUMP JUMPDEST PUSH1 0x40 MLOAD DUP1 SWAP2 SUB SWAP1 REVERT JUMPDEST PUSH0 PUSH1 0x2 PUSH0 DUP8 DUP2 MSTORE PUSH1 0x20 ADD SWAP1 DUP2 MSTORE PUSH1 0x20 ADD PUSH0 KECCAK256 SWAP1 POP PUSH0 PUSH0 SWAP1 POP PUSH1 0x60 PUSH0 PUSH0 SWAP1 POP PUSH0 PUSH1 0x1 SWAP1 POP JUMPDEST DUP5 PUSH1 0x4 ADD SLOAD DUP2 GT PUSH2 0xDF7 JUMPI DUP2 DUP6 PUSH1 0x7 ADD PUSH0 DUP4 DUP2 MSTORE PUSH1 0x20 ADD SWAP1 DUP2 MSTORE PUSH1 0x20 ADD PUSH0 KECCAK256 PUSH1 0x2 ADD SLOAD GT ISZERO PUSH2 0xDE4 JUMPI DUP5 PUSH1 0x7 ADD PUSH0 DUP3 DUP2 MSTORE PUSH1 0x20 ADD SWAP1 DUP2 MSTORE PUSH1 0x20 ADD PUSH0 KECCAK256 PUSH1 0x1 ADD SLOAD SWAP4 POP DUP5 PUSH1 0x7 ADD PUSH0 DUP3 DUP2 MSTORE PUSH1 0x20 ADD SWAP1 DUP2 MSTORE PUSH1 0x20 ADD PUSH0 KECCAK256 PUSH0 ADD DUP1 SLOAD PUSH2 0xD4C SWAP1 PUSH2 0x2000 JUMP JUMPDEST DUP1 PUSH1 0x1F ADD PUSH1 0x20 DUP1 SWAP2 DIV MUL PUSH1 0x20 ADD PUSH1 0x40 MLOAD SWAP1 DUP2 ADD PUSH1 0x40 MSTORE DUP1 SWAP3 SWAP2 SWAP1 DUP2 DUP2 MSTORE PUSH1 0x20 ADD DUP3 DUP1 SLOAD PUSH2 0xD78 SWAP1 PUSH2 0x2000 JUMP JUMPDEST DUP1 ISZERO PUSH2 0xDC3 JUMPI DUP1 PUSH1 0x1F LT PUSH2 0xD9A JUMPI PUSH2 0x100 DUP1 DUP4 SLOAD DIV MUL DUP4 MSTORE SWAP2 PUSH1 0x20 ADD SWAP2 PUSH2 0xDC3 JUMP JUMPDEST DUP3 ADD SWAP2 SWAP1 PUSH0 MSTORE PUSH1 0x20 PUSH0 KECCAK256 SWAP1 JUMPDEST DUP2 SLOAD DUP2 MSTORE SWAP1 PUSH1 0x1 ADD SWAP1 PUSH1 0x20 ADD DUP1 DUP4 GT PUSH2 0xDA6 JUMPI DUP3 SWAP1 SUB PUSH1 0x1F AND DUP3 ADD SWAP2 JUMPDEST POP POP POP POP POP SWAP3 POP DUP5 PUSH1 0x7 ADD PUSH0 DUP3 DUP2 MSTORE PUSH1 0x20 ADD SWAP1 DUP2 MSTORE PUSH1 0x20 ADD PUSH0 KECCAK256 PUSH1 0x2 ADD SLOAD SWAP2 POP JUMPDEST DUP1 DUP1 PUSH2 0xDEF SWAP1 PUSH2 0x1F8C JUMP JUMPDEST SWAP2 POP POP PUSH2 0xCEA JUMP JUMPDEST POP DUP3 DUP3 DUP3 SWAP8 POP SWAP8 POP SWAP8 POP POP POP POP POP POP SWAP2 SWAP4 SWAP1 SWAP3 POP JUMP JUMPDEST PUSH0 PUSH1 0x60 PUSH0 DUP5 DUP1 PUSH0 LT DUP1 ISZERO PUSH2 0xE23 JUMPI POP PUSH1 0x1 SLOAD DUP2 GT ISZERO JUMPDEST PUSH2 0xE62 JUMPI PUSH1 0x40 MLOAD PUSH32 0x8C379A000000000000000000000000000000000000000000000000000000000 DUP2 MSTORE PUSH1 0x4 ADD PUSH2 0xE59 SWAP1 PUSH2 0x1EB3 JUMP JUMPDEST PUSH1 0x40 MLOAD DUP1 SWAP2 SUB SWAP1 REVERT JUMPDEST DUP6 DUP6 PUSH0 DUP2 GT DUP1 ISZERO PUSH2 0xE87 JUMPI POP PUSH1 0x2 PUSH0 DUP4 DUP2 MSTORE PUSH1 0x20 ADD SWAP1 DUP2 MSTORE PUSH1 0x20 ADD PUSH0 KECCAK256 PUSH1 0x4 ADD SLOAD DUP2 GT ISZERO JUMPDEST PUSH2 0xEC6 JUMPI PUSH1 0x40 MLOAD PUSH32 0x8C379A000000000000000000000000000000000000000000000000000000000 DUP2 MSTORE PUSH1 0x4 ADD PUSH2 0xEBD SWAP1 PUSH2 0x238A JUMP JUMPDEST PUSH1 0x40 MLOAD DUP1 SWAP2 SUB SWAP1 REVERT JUMPDEST PUSH1 0x2 PUSH0 DUP10 DUP2 MSTORE PUSH1 0x20 ADD SWAP1 DUP2 MSTORE PUSH1 0x20 ADD PUSH0 KECCAK256 PUSH1 0x7 ADD PUSH0 DUP9 DUP2 MSTORE PUSH1 0x20 ADD SWAP1 DUP2 MSTORE PUSH1 0x20 ADD PUSH0 KECCAK256 PUSH1 0x1 ADD SLOAD PUSH1 0x2 PUSH0 DUP11 DUP2 MSTORE PUSH1 0x20 ADD SWAP1 DUP2 MSTORE PUSH1 0x20 ADD PUSH0 KECCAK256 PUSH1 0x7 ADD PUSH0 DUP10 DUP2 MSTORE PUSH1 0x20 ADD SWAP1 DUP2 MSTORE PUSH1 0x20 ADD PUSH0 KECCAK256 PUSH0 ADD PUSH1 0x2 PUSH0 DUP12 DUP2 MSTORE PUSH1 0x20 ADD SWAP1 DUP2 MSTORE PUSH1 0x20 ADD PUSH0 KECCAK256 PUSH1 0x7 ADD PUSH0 DUP11 DUP2 MSTORE PUSH1 0x20 ADD SWAP1 DUP2 MSTORE PUSH1 0x20 ADD PUSH0 KECCAK256 PUSH1 0x2 ADD SLOAD DUP2 DUP1 SLOAD PUSH2 0xF45 SWAP1 PUSH2 0x2000 JUMP JUMPDEST DUP1 PUSH1 0x1F ADD PUSH1 0x20 DUP1 SWAP2 DIV MUL PUSH1 0x20 ADD PUSH1 0x40 MLOAD SWAP1 DUP2 ADD PUSH1 0x40 MSTORE DUP1 SWAP3 SWAP2 SWAP1 DUP2 DUP2 MSTORE PUSH1 0x20 ADD DUP3 DUP1 SLOAD PUSH2 0xF71 SWAP1 PUSH2 0x2000 JUMP JUMPDEST DUP1 ISZERO PUSH2 0xFBC JUMPI DUP1 PUSH1 0x1F LT PUSH2 0xF93 JUMPI PUSH2 0x100 DUP1 DUP4 SLOAD DIV MUL DUP4 MSTORE SWAP2 PUSH1 0x20 ADD SWAP2 PUSH2 0xFBC JUMP JUMPDEST DUP3 ADD SWAP2 SWAP1 PUSH0 MSTORE PUSH1 0x20 PUSH0 KECCAK256 SWAP1 JUMPDEST DUP2 SLOAD DUP2 MSTORE SWAP1 PUSH1 0x1 ADD SWAP1 PUSH1 0x20 ADD DUP1 DUP4 GT PUSH2 0xF9F JUMPI DUP3 SWAP1 SUB PUSH1 0x1F AND DUP3 ADD SWAP2 JUMPDEST POP POP POP POP POP SWAP2 POP SWAP6 POP SWAP6 POP SWAP6 POP POP POP POP SWAP3 POP SWAP3 POP SWAP3 JUMP JUMPDEST PUSH1 0x2 PUSH1 0x20 MSTORE DUP1 PUSH0 MSTORE PUSH1 0x40 PUSH0 KECCAK256 PUSH0 SWAP2 POP SWAP1 POP DUP1 PUSH0 ADD SLOAD SWAP1 DUP1 PUSH1 0x1 ADD PUSH0 SWAP1 SLOAD SWAP1 PUSH2 0x100 EXP SWAP1 DIV PUSH1 0xFF AND SWAP1 DUP1 PUSH1 0x2 ADD DUP1 SLOAD PUSH2 0x100A SWAP1 PUSH2 0x2000 JUMP JUMPDEST DUP1 PUSH1 0x1F ADD PUSH1 0x20 DUP1 SWAP2 DIV MUL PUSH1 0x20 ADD PUSH1 0x40 MLOAD SWAP1 DUP2 ADD PUSH1 0x40 MSTORE DUP1 SWAP3 SWAP2 SWAP1 DUP2 DUP2 MSTORE PUSH1 0x20 ADD DUP3 DUP1 SLOAD PUSH2 0x1036 SWAP1 PUSH2 0x2000 JUMP JUMPDEST DUP1 ISZERO PUSH2 0x1081 JUMPI DUP1 PUSH1 0x1F LT PUSH2 0x1058 JUMPI PUSH2 0x100 DUP1 DUP4 SLOAD DIV MUL DUP4 MSTORE SWAP2 PUSH1 0x20 ADD SWAP2 PUSH2 0x1081 JUMP JUMPDEST DUP3 ADD SWAP2 SWAP1 PUSH0 MSTORE PUSH1 0x20 PUSH0 KECCAK256 SWAP1 JUMPDEST DUP2 SLOAD DUP2 MSTORE SWAP1 PUSH1 0x1 ADD SWAP1 PUSH1 0x20 ADD DUP1 DUP4 GT PUSH2 0x1064 JUMPI DUP3 SWAP1 SUB PUSH1 0x1F AND DUP3 ADD SWAP2 JUMPDEST POP POP POP POP POP SWAP1 DUP1 PUSH1 0x3 ADD SLOAD SWAP1 DUP1 PUSH1 0x4 ADD SLOAD SWAP1 DUP1 PUSH1 0x5 ADD SLOAD SWAP1 POP DUP7 JUMP JUMPDEST CALLER PUSH20 0xFFFFFFFFFFFFFFFFFFFFFFFFFFFFFFFFFFFFFFFF AND PUSH0 PUSH0 SWAP1 SLOAD SWAP1 PUSH2 0x100 EXP SWAP1 DIV PUSH20 0xFFFFFFFFFFFFFFFFFFFFFFFFFFFFFFFFFFFFFFFF AND PUSH20 0xFFFFFFFFFFFFFFFFFFFFFFFFFFFFFFFFFFFFFFFF AND EQ PUSH2 0x112B JUMPI PUSH1 0x40 MLOAD PUSH32 0x8C379A000000000000000000000000000000000000000000000000000000000 DUP2 MSTORE PUSH1 0x4 ADD PUSH2 0x1122 SWAP1 PUSH2 0x1E4B JUMP JUMPDEST PUSH1 0x40 MLOAD DUP1 SWAP2 SUB SWAP1 REVERT JUMPDEST PUSH1 0x1 PUSH0 DUP2 SLOAD DUP1 SWAP3 SWAP2 SWAP1 PUSH2 0x113D SWAP1 PUSH2 0x1F8C JUMP JUMPDEST SWAP2 SWAP1 POP SSTORE POP PUSH0 PUSH1 0x2 PUSH0 PUSH1 0x1 SLOAD DUP2 MSTORE PUSH1 0x20 ADD SWAP1 DUP2 MSTORE PUSH1 0x20 ADD PUSH0 KECCAK256 SWAP1 POP DUP3 DUP2 PUSH1 0x2 ADD SWAP1 DUP2 PUSH2 0x1169 SWAP2 SWAP1 PUSH2 0x21D0 JUMP JUMPDEST POP PUSH1 0x1 SLOAD DUP2 PUSH0 ADD DUP2 SWAP1 SSTORE POP PUSH1 0x1 DUP2 PUSH1 0x1 ADD PUSH0 PUSH2 0x100 EXP DUP2 SLOAD DUP2 PUSH1 0xFF MUL NOT AND SWAP1 DUP4 ISZERO ISZERO MUL OR SWAP1 SSTORE POP DUP2 TIMESTAMP PUSH2 0x119C SWAP2 SWAP1 PUSH2 0x249E JUMP JUMPDEST DUP2 PUSH1 0x3 ADD DUP2 SWAP1 SSTORE POP PUSH0 DUP2 PUSH1 0x4 ADD DUP2 SWAP1 SSTORE POP DUP1 PUSH0 ADD SLOAD PUSH32 0x43131521170C5B80FFE9526CFEC987F5A24EB1F6C4BDA47C41A5E4B8388AFE5C DUP3 PUSH1 0x2 ADD DUP4 PUSH1 0x3 ADD SLOAD PUSH1 0x40 MLOAD PUSH2 0x11E9 SWAP3 SWAP2 SWAP1 PUSH2 0x24FE JUMP JUMPDEST PUSH1 0x40 MLOAD DUP1 SWAP2 SUB SWAP1 LOG2 POP POP POP JUMP JUMPDEST PUSH1 0x1 SLOAD DUP2 JUMP JUMPDEST PUSH0 PUSH1 0x60 PUSH0 CALLER PUSH20 0xFFFFFFFFFFFFFFFFFFFFFFFFFFFFFFFFFFFFFFFF AND PUSH0 PUSH0 SWAP1 SLOAD SWAP1 PUSH2 0x100 EXP SWAP1 DIV PUSH20 0xFFFFFFFFFFFFFFFFFFFFFFFFFFFFFFFFFFFFFFFF AND PUSH20 0xFFFFFFFFFFFFFFFFFFFFFFFFFFFFFFFFFFFFFFFF AND EQ PUSH2 0x128E JUMPI PUSH1 0x40 MLOAD PUSH32 0x8C379A000000000000000000000000000000000000000000000000000000000 DUP2 MSTORE PUSH1 0x4 ADD PUSH2 0x1285 SWAP1 PUSH2 0x1E4B JUMP JUMPDEST PUSH1 0x40 MLOAD DUP1 SWAP2 SUB SWAP1 REVERT JUMPDEST DUP4 DUP1 PUSH0 LT DUP1 ISZERO PUSH2 0x12A0 JUMPI POP PUSH1 0x1 SLOAD DUP2 GT ISZERO JUMPDEST PUSH2 0x12DF JUMPI PUSH1 0x40 MLOAD PUSH32 0x8C379A000000000000000000000000000000000000000000000000000000000 DUP2 MSTORE PUSH1 0x4 ADD PUSH2 0x12D6 SWAP1 PUSH2 0x1EB3 JUMP JUMPDEST PUSH1 0x40 MLOAD DUP1 SWAP2 SUB SWAP1 REVERT JUMPDEST DUP5 PUSH1 0x1 ISZERO ISZERO PUSH1 0x2 PUSH0 DUP4 DUP2 MSTORE PUSH1 0x20 ADD SWAP1 DUP2 MSTORE PUSH1 0x20 ADD PUSH0 KECCAK256 PUSH1 0x1 ADD PUSH0 SWAP1 SLOAD SWAP1 PUSH2 0x100 EXP SWAP1 DIV PUSH1 0xFF AND ISZERO ISZERO EQ DUP1 ISZERO PUSH2 0x1328 JUMPI POP TIMESTAMP PUSH1 0x2 PUSH0 DUP4 DUP2 MSTORE PUSH1 0x20 ADD SWAP1 DUP2 MSTORE PUSH1 0x20 ADD PUSH0 KECCAK256 PUSH1 0x3 ADD SLOAD LT ISZERO JUMPDEST PUSH2 0x1367 JUMPI PUSH1 0x40 MLOAD PUSH32 0x8C379A000000000000000000000000000000000000000000000000000000000 DUP2 MSTORE PUSH1 0x4 ADD PUSH2 0x135E SWAP1 PUSH2 0x1F41 JUMP JUMPDEST PUSH1 0x40 MLOAD DUP1 SWAP2 SUB SWAP1 REVERT JUMPDEST PUSH0 PUSH1 0x2 PUSH0 DUP9 DUP2 MSTORE PUSH1 0x20 ADD SWAP1 DUP2 MSTORE PUSH1 0x20 ADD PUSH0 KECCAK256 SWAP1 POP PUSH0 DUP2 PUSH1 0x1 ADD PUSH0 PUSH2 0x100 EXP DUP2 SLOAD DUP2 PUSH1 0xFF MUL NOT AND SWAP1 DUP4 ISZERO ISZERO MUL OR SWAP1 SSTORE POP PUSH0 PUSH0 SWAP1 POP PUSH1 0x60 PUSH0 PUSH0 SWAP1 POP PUSH0 PUSH1 0x1 SWAP1 POP JUMPDEST DUP5 PUSH1 0x4 ADD SLOAD DUP2 GT PUSH2 0x14B3 JUMPI DUP2 DUP6 PUSH1 0x7 ADD PUSH0 DUP4 DUP2 MSTORE PUSH1 0x20 ADD SWAP1 DUP2 MSTORE PUSH1 0x20 ADD PUSH0 KECCAK256 PUSH1 0x2 ADD SLOAD GT ISZERO PUSH2 0x14A0 JUMPI DUP5 PUSH1 0x7 ADD PUSH0 DUP3 DUP2 MSTORE PUSH1 0x20 ADD SWAP1 DUP2 MSTORE PUSH1 0x20 ADD PUSH0 KECCAK256 PUSH1 0x1 ADD SLOAD SWAP4 POP DUP5 PUSH1 0x7 ADD PUSH0 DUP3 DUP2 MSTORE PUSH1 0x20 ADD SWAP1 DUP2 MSTORE PUSH1 0x20 ADD PUSH0 KECCAK256 PUSH0 ADD DUP1 SLOAD PUSH2 0x1408 SWAP1 PUSH2 0x2000 JUMP JUMPDEST DUP1 PUSH1 0x1F ADD PUSH1 0x20 DUP1 SWAP2 DIV MUL PUSH1 0x20 ADD PUSH1 0x40 MLOAD SWAP1 DUP2 ADD PUSH1 0x40 MSTORE DUP1 SWAP3 SWAP2 SWAP1 DUP2 DUP2 MSTORE PUSH1 0x20 ADD DUP3 DUP1 SLOAD PUSH2 0x1434 SWAP1 PUSH2 0x2000 JUMP JUMPDEST DUP1 ISZERO PUSH2 0x147F JUMPI DUP1 PUSH1 0x1F LT PUSH2 0x1456 JUMPI PUSH2 0x100 DUP1 DUP4 SLOAD DIV MUL DUP4 MSTORE SWAP2 PUSH1 0x20 ADD SWAP2 PUSH2 0x147F JUMP JUMPDEST DUP3 ADD SWAP2 SWAP1 PUSH0 MSTORE PUSH1 0x20 PUSH0 KECCAK256 SWAP1 JUMPDEST DUP2 SLOAD DUP2 MSTORE SWAP1 PUSH1 0x1 ADD SWAP1 PUSH1 0x20 ADD DUP1 DUP4 GT PUSH2 0x1462 JUMPI DUP3 SWAP1 SUB PUSH1 0x1F AND DUP3 ADD SWAP2 JUMPDEST POP POP POP POP POP SWAP3 POP DUP5 PUSH1 0x7 ADD PUSH0 DUP3 DUP2 MSTORE PUSH1 0x20 ADD SWAP1 DUP2 MSTORE PUSH1 0x20 ADD PUSH0 KECCAK256 PUSH1 0x2 ADD SLOAD SWAP2 POP JUMPDEST DUP1 DUP1 PUSH2 0x14AB SWAP1 PUSH2 0x1F8C JUMP JUMPDEST SWAP2 POP POP PUSH2 0x13A6 JUMP JUMPDEST POP PUSH32 0x3B6C4D7E2CEF081634247CFAC8D389FCAE0AE5780D888244DF410080EFA0BEC3 DUP5 PUSH0 ADD SLOAD DUP6 PUSH1 0x2 ADD DUP6 DUP6 DUP6 DUP10 PUSH1 0x5 ADD SLOAD PUSH1 0x40 MLOAD PUSH2 0x14F7 SWAP7 SWAP6 SWAP5 SWAP4 SWAP3 SWAP2 SWAP1 PUSH2 0x252C JUMP JUMPDEST PUSH1 0x40 MLOAD DUP1 SWAP2 SUB SWAP1 LOG1 DUP3 DUP3 DUP3 SWAP9 POP SWAP9 POP SWAP9 POP POP POP POP POP POP POP SWAP2 SWAP4 SWAP1 SWAP3 POP JUMP JUMPDEST PUSH1 0x60 DUP1 PUSH0 PUSH1 0x1 SLOAD GT PUSH2 0x155C JUMPI PUSH1 0x40 MLOAD PUSH32 0x8C379A000000000000000000000000000000000000000000000000000000000 DUP2 MSTORE PUSH1 0x4 ADD PUSH2 0x1553 SWAP1 PUSH2 0x2609 JUMP JUMPDEST PUSH1 0x40 MLOAD DUP1 SWAP2 SUB SWAP1 REVERT JUMPDEST PUSH0 PUSH1 0x1 SLOAD PUSH8 0xFFFFFFFFFFFFFFFF DUP2 GT ISZERO PUSH2 0x1579 JUMPI PUSH2 0x1578 PUSH2 0x1797 JUMP JUMPDEST JUMPDEST PUSH1 0x40 MLOAD SWAP1 DUP1 DUP3 MSTORE DUP1 PUSH1 0x20 MUL PUSH1 0x20 ADD DUP3 ADD PUSH1 0x40 MSTORE DUP1 ISZERO PUSH2 0x15A7 JUMPI DUP2 PUSH1 0x20 ADD PUSH1 0x20 DUP3 MUL DUP1 CALLDATASIZE DUP4 CALLDATACOPY DUP1 DUP3 ADD SWAP2 POP POP SWAP1 POP JUMPDEST POP SWAP1 POP PUSH0 PUSH1 0x1 SLOAD PUSH8 0xFFFFFFFFFFFFFFFF DUP2 GT ISZERO PUSH2 0x15C7 JUMPI PUSH2 0x15C6 PUSH2 0x1797 JUMP JUMPDEST JUMPDEST PUSH1 0x40 MLOAD SWAP1 DUP1 DUP3 MSTORE DUP1 PUSH1 0x20 MUL PUSH1 0x20 ADD DUP3 ADD PUSH1 0x40 MSTORE DUP1 ISZERO PUSH2 0x15FA JUMPI DUP2 PUSH1 0x20 ADD JUMPDEST PUSH1 0x60 DUP2 MSTORE PUSH1 0x20 ADD SWAP1 PUSH1 0x1 SWAP1 SUB SWAP1 DUP2 PUSH2 0x15E5 JUMPI SWAP1 POP JUMPDEST POP SWAP1 POP PUSH0 PUSH0 SWAP1 POP JUMPDEST PUSH1 0x1 SLOAD DUP2 LT ISZERO PUSH2 0x170A JUMPI PUSH1 0x1 DUP2 PUSH2 0x1619 SWAP2 SWAP1 PUSH2 0x249E JUMP JUMPDEST DUP4 DUP3 DUP2 MLOAD DUP2 LT PUSH2 0x162C JUMPI PUSH2 0x162B PUSH2 0x24D1 JUMP JUMPDEST JUMPDEST PUSH1 0x20 MUL PUSH1 0x20 ADD ADD DUP2 DUP2 MSTORE POP POP PUSH1 0x2 PUSH0 PUSH1 0x1 DUP4 PUSH2 0x1648 SWAP2 SWAP1 PUSH2 0x249E JUMP JUMPDEST DUP2 MSTORE PUSH1 0x20 ADD SWAP1 DUP2 MSTORE PUSH1 0x20 ADD PUSH0 KECCAK256 PUSH1 0x2 ADD DUP1 SLOAD PUSH2 0x1663 SWAP1 PUSH2 0x2000 JUMP JUMPDEST DUP1 PUSH1 0x1F ADD PUSH1 0x20 DUP1 SWAP2 DIV MUL PUSH1 0x20 ADD PUSH1 0x40 MLOAD SWAP1 DUP2 ADD PUSH1 0x40 MSTORE DUP1 SWAP3 SWAP2 SWAP1 DUP2 DUP2 MSTORE PUSH1 0x20 ADD DUP3 DUP1 SLOAD PUSH2 0x168F SWAP1 PUSH2 0x2000 JUMP JUMPDEST DUP1 ISZERO PUSH2 0x16DA JUMPI DUP1 PUSH1 0x1F LT PUSH2 0x16B1 JUMPI PUSH2 0x100 DUP1 DUP4 SLOAD DIV MUL DUP4 MSTORE SWAP2 PUSH1 0x20 ADD SWAP2 PUSH2 0x16DA JUMP JUMPDEST DUP3 ADD SWAP2 SWAP1 PUSH0 MSTORE PUSH1 0x20 PUSH0 KECCAK256 SWAP1 JUMPDEST DUP2 SLOAD DUP2 MSTORE SWAP1 PUSH1 0x1 ADD SWAP1 PUSH1 0x20 ADD DUP1 DUP4 GT PUSH2 0x16BD JUMPI DUP3 SWAP1 SUB PUSH1 0x1F AND DUP3 ADD SWAP2 JUMPDEST POP POP POP POP POP DUP3 DUP3 DUP2 MLOAD DUP2 LT PUSH2 0x16F2 JUMPI PUSH2 0x16F1 PUSH2 0x24D1 JUMP JUMPDEST JUMPDEST PUSH1 0x20 MUL PUSH1 0x20 ADD ADD DUP2 SWAP1 MSTORE POP DUP1 DUP1 PUSH1 0x1 ADD SWAP2 POP POP PUSH2 0x1602 JUMP JUMPDEST POP DUP2 DUP2 SWAP4 POP SWAP4 POP POP POP SWAP1 SWAP2 JUMP JUMPDEST PUSH0 PUSH0 SWAP1 SLOAD SWAP1 PUSH2 0x100 EXP SWAP1 DIV PUSH20 0xFFFFFFFFFFFFFFFFFFFFFFFFFFFFFFFFFFFFFFFF AND DUP2 JUMP JUMPDEST PUSH0 PUSH1 0x40 MLOAD SWAP1 POP SWAP1 JUMP JUMPDEST PUSH0 PUSH0 REVERT JUMPDEST PUSH0 PUSH0 REVERT JUMPDEST PUSH0 DUP2 SWAP1 POP SWAP2 SWAP1 POP JUMP JUMPDEST PUSH2 0x175E DUP2 PUSH2 0x174C JUMP JUMPDEST DUP2 EQ PUSH2 0x1768 JUMPI PUSH0 PUSH0 REVERT JUMPDEST POP JUMP JUMPDEST PUSH0 DUP2 CALLDATALOAD SWAP1 POP PUSH2 0x1779 DUP2 PUSH2 0x1755 JUMP JUMPDEST SWAP3 SWAP2 POP POP JUMP JUMPDEST PUSH0 PUSH0 REVERT JUMPDEST PUSH0 PUSH0 REVERT JUMPDEST PUSH0 PUSH1 0x1F NOT PUSH1 0x1F DUP4 ADD AND SWAP1 POP SWAP2 SWAP1 POP JUMP JUMPDEST PUSH32 0x4E487B7100000000000000000000000000000000000000000000000000000000 PUSH0 MSTORE PUSH1 0x41 PUSH1 0x4 MSTORE PUSH1 0x24 PUSH0 REVERT JUMPDEST PUSH2 0x17CD DUP3 PUSH2 0x1787 JUMP JUMPDEST DUP2 ADD DUP2 DUP2 LT PUSH8 0xFFFFFFFFFFFFFFFF DUP3 GT OR ISZERO PUSH2 0x17EC JUMPI PUSH2 0x17EB PUSH2 0x1797 JUMP JUMPDEST JUMPDEST DUP1 PUSH1 0x40 MSTORE POP POP POP JUMP JUMPDEST PUSH0 PUSH2 0x17FE PUSH2 0x173B JUMP JUMPDEST SWAP1 POP PUSH2 0x180A DUP3 DUP3 PUSH2 0x17C4 JUMP JUMPDEST SWAP2 SWAP1 POP JUMP JUMPDEST PUSH0 PUSH8 0xFFFFFFFFFFFFFFFF DUP3 GT ISZERO PUSH2 0x1829 JUMPI PUSH2 0x1828 PUSH2 0x1797 JUMP JUMPDEST JUMPDEST PUSH2 0x1832 DUP3 PUSH2 0x1787 JUMP JUMPDEST SWAP1 POP PUSH1 0x20 DUP2 ADD SWAP1 POP SWAP2 SWAP1 POP JUMP JUMPDEST DUP3 DUP2 DUP4 CALLDATACOPY PUSH0 DUP4 DUP4 ADD MSTORE POP POP POP JUMP JUMPDEST PUSH0 PUSH2 0x185F PUSH2 0x185A DUP5 PUSH2 0x180F JUMP JUMPDEST PUSH2 0x17F5 JUMP JUMPDEST SWAP1 POP DUP3 DUP2 MSTORE PUSH1 0x20 DUP2 ADD DUP5 DUP5 DUP5 ADD GT ISZERO PUSH2 0x187B JUMPI PUSH2 0x187A PUSH2 0x1783 JUMP JUMPDEST JUMPDEST PUSH2 0x1886 DUP5 DUP3 DUP6 PUSH2 0x183F JUMP JUMPDEST POP SWAP4 SWAP3 POP POP POP JUMP JUMPDEST PUSH0 DUP3 PUSH1 0x1F DUP4 ADD SLT PUSH2 0x18A2 JUMPI PUSH2 0x18A1 PUSH2 0x177F JUMP JUMPDEST JUMPDEST DUP2 CALLDATALOAD PUSH2 0x18B2 DUP5 DUP3 PUSH1 0x20 DUP7 ADD PUSH2 0x184D JUMP JUMPDEST SWAP2 POP POP SWAP3 SWAP2 POP POP JUMP JUMPDEST PUSH0 PUSH0 PUSH1 0x40 DUP4 DUP6 SUB SLT ISZERO PUSH2 0x18D1 JUMPI PUSH2 0x18D0 PUSH2 0x1744 JUMP JUMPDEST JUMPDEST PUSH0 PUSH2 0x18DE DUP6 DUP3 DUP7 ADD PUSH2 0x176B JUMP JUMPDEST SWAP3 POP POP PUSH1 0x20 DUP4 ADD CALLDATALOAD PUSH8 0xFFFFFFFFFFFFFFFF DUP2 GT ISZERO PUSH2 0x18FF JUMPI PUSH2 0x18FE PUSH2 0x1748 JUMP JUMPDEST JUMPDEST PUSH2 0x190B DUP6 DUP3 DUP7 ADD PUSH2 0x188E JUMP JUMPDEST SWAP2 POP POP SWAP3 POP SWAP3 SWAP1 POP JUMP JUMPDEST PUSH0 PUSH1 0x20 DUP3 DUP5 SUB SLT ISZERO PUSH2 0x192A JUMPI PUSH2 0x1929 PUSH2 0x1744 JUMP JUMPDEST JUMPDEST PUSH0 PUSH2 0x1937 DUP5 DUP3 DUP6 ADD PUSH2 0x176B JUMP JUMPDEST SWAP2 POP POP SWAP3 SWAP2 POP POP JUMP JUMPDEST PUSH0 DUP2 MLOAD SWAP1 POP SWAP2 SWAP1 POP JUMP JUMPDEST PUSH0 DUP3 DUP3 MSTORE PUSH1 0x20 DUP3 ADD SWAP1 POP SWAP3 SWAP2 POP POP JUMP JUMPDEST DUP3 DUP2 DUP4 MCOPY PUSH0 DUP4 DUP4 ADD MSTORE POP POP POP JUMP JUMPDEST PUSH0 PUSH2 0x1972 DUP3 PUSH2 0x1940 JUMP JUMPDEST PUSH2 0x197C DUP2 DUP6 PUSH2 0x194A JUMP JUMPDEST SWAP4 POP PUSH2 0x198C DUP2 DUP6 PUSH1 0x20 DUP7 ADD PUSH2 0x195A JUMP JUMPDEST PUSH2 0x1995 DUP2 PUSH2 0x1787 JUMP JUMPDEST DUP5 ADD SWAP2 POP POP SWAP3 SWAP2 POP POP JUMP JUMPDEST PUSH2 0x19A9 DUP2 PUSH2 0x174C JUMP JUMPDEST DUP3 MSTORE POP POP JUMP JUMPDEST PUSH0 PUSH1 0x40 DUP3 ADD SWAP1 POP DUP2 DUP2 SUB PUSH0 DUP4 ADD MSTORE PUSH2 0x19C7 DUP2 DUP6 PUSH2 0x1968 JUMP JUMPDEST SWAP1 POP PUSH2 0x19D6 PUSH1 0x20 DUP4 ADD DUP5 PUSH2 0x19A0 JUMP JUMPDEST SWAP4 SWAP3 POP POP POP JUMP JUMPDEST PUSH0 PUSH0 PUSH1 0x40 DUP4 DUP6 SUB SLT ISZERO PUSH2 0x19F3 JUMPI PUSH2 0x19F2 PUSH2 0x1744 JUMP JUMPDEST JUMPDEST PUSH0 PUSH2 0x1A00 DUP6 DUP3 DUP7 ADD PUSH2 0x176B JUMP JUMPDEST SWAP3 POP POP PUSH1 0x20 PUSH2 0x1A11 DUP6 DUP3 DUP7 ADD PUSH2 0x176B JUMP JUMPDEST SWAP2 POP POP SWAP3 POP SWAP3 SWAP1 POP JUMP JUMPDEST PUSH0 DUP2 MLOAD SWAP1 POP SWAP2 SWAP1 POP JUMP JUMPDEST PUSH0 DUP3 DUP3 MSTORE PUSH1 0x20 DUP3 ADD SWAP1 POP SWAP3 SWAP2 POP POP JUMP JUMPDEST PUSH0 DUP2 SWAP1 POP PUSH1 0x20 DUP3 ADD SWAP1 POP SWAP2 SWAP1 POP JUMP JUMPDEST PUSH2 0x1A4D DUP2 PUSH2 0x174C JUMP JUMPDEST DUP3 MSTORE POP POP JUMP JUMPDEST PUSH0 PUSH2 0x1A5E DUP4 DUP4 PUSH2 0x1A44 JUMP JUMPDEST PUSH1 0x20 DUP4 ADD SWAP1 POP SWAP3 SWAP2 POP POP JUMP JUMPDEST PUSH0 PUSH1 0x20 DUP3 ADD SWAP1 POP SWAP2 SWAP1 POP JUMP JUMPDEST PUSH0 PUSH2 0x1A80 DUP3 PUSH2 0x1A1B JUMP JUMPDEST PUSH2 0x1A8A DUP2 DUP6 PUSH2 0x1A25 JUMP JUMPDEST SWAP4 POP PUSH2 0x1A95 DUP4 PUSH2 0x1A35 JUMP JUMPDEST DUP1 PUSH0 JUMPDEST DUP4 DUP2 LT ISZERO PUSH2 0x1AC5 JUMPI DUP2 MLOAD PUSH2 0x1AAC DUP9 DUP3 PUSH2 0x1A53 JUMP JUMPDEST SWAP8 POP PUSH2 0x1AB7 DUP4 PUSH2 0x1A6A JUMP JUMPDEST SWAP3 POP POP PUSH1 0x1 DUP2 ADD SWAP1 POP PUSH2 0x1A98 JUMP JUMPDEST POP DUP6 SWAP4 POP POP POP POP SWAP3 SWAP2 POP POP JUMP JUMPDEST PUSH0 DUP2 MLOAD SWAP1 POP SWAP2 SWAP1 POP JUMP JUMPDEST PUSH0 DUP3 DUP3 MSTORE PUSH1 0x20 DUP3 ADD SWAP1 POP SWAP3 SWAP2 POP POP JUMP JUMPDEST PUSH0 DUP2 SWAP1 POP PUSH1 0x20 DUP3 ADD SWAP1 POP SWAP2 SWAP1 POP JUMP JUMPDEST PUSH0 DUP3 DUP3 MSTORE PUSH1 0x20 DUP3 ADD SWAP1 POP SWAP3 SWAP2 POP POP JUMP JUMPDEST PUSH0 PUSH2 0x1B15 DUP3 PUSH2 0x1940 JUMP JUMPDEST PUSH2 0x1B1F DUP2 DUP6 PUSH2 0x1AFB JUMP JUMPDEST SWAP4 POP PUSH2 0x1B2F DUP2 DUP6 PUSH1 0x20 DUP7 ADD PUSH2 0x195A JUMP JUMPDEST PUSH2 0x1B38 DUP2 PUSH2 0x1787 JUMP JUMPDEST DUP5 ADD SWAP2 POP POP SWAP3 SWAP2 POP POP JUMP JUMPDEST PUSH0 PUSH2 0x1B4E DUP4 DUP4 PUSH2 0x1B0B JUMP JUMPDEST SWAP1 POP SWAP3 SWAP2 POP POP JUMP JUMPDEST PUSH0 PUSH1 0x20 DUP3 ADD SWAP1 POP SWAP2 SWAP1 POP JUMP JUMPDEST PUSH0 PUSH2 0x1B6C DUP3 PUSH2 0x1AD2 JUMP JUMPDEST PUSH2 0x1B76 DUP2 DUP6 PUSH2 0x1ADC JUMP JUMPDEST SWAP4 POP DUP4 PUSH1 0x20 DUP3 MUL DUP6 ADD PUSH2 0x1B88 DUP6 PUSH2 0x1AEC JUMP JUMPDEST DUP1 PUSH0 JUMPDEST DUP6 DUP2 LT ISZERO PUSH2 0x1BC3 JUMPI DUP5 DUP5 SUB DUP10 MSTORE DUP2 MLOAD PUSH2 0x1BA4 DUP6 DUP3 PUSH2 0x1B43 JUMP JUMPDEST SWAP5 POP PUSH2 0x1BAF DUP4 PUSH2 0x1B56 JUMP JUMPDEST SWAP3 POP PUSH1 0x20 DUP11 ADD SWAP10 POP POP PUSH1 0x1 DUP2 ADD SWAP1 POP PUSH2 0x1B8B JUMP JUMPDEST POP DUP3 SWAP8 POP DUP8 SWAP6 POP POP POP POP POP POP SWAP3 SWAP2 POP POP JUMP JUMPDEST PUSH0 PUSH1 0x60 DUP3 ADD SWAP1 POP DUP2 DUP2 SUB PUSH0 DUP4 ADD MSTORE PUSH2 0x1BED DUP2 DUP7 PUSH2 0x1A76 JUMP JUMPDEST SWAP1 POP DUP2 DUP2 SUB PUSH1 0x20 DUP4 ADD MSTORE PUSH2 0x1C01 DUP2 DUP6 PUSH2 0x1B62 JUMP JUMPDEST SWAP1 POP DUP2 DUP2 SUB PUSH1 0x40 DUP4 ADD MSTORE PUSH2 0x1C15 DUP2 DUP5 PUSH2 0x1A76 JUMP JUMPDEST SWAP1 POP SWAP5 SWAP4 POP POP POP POP JUMP JUMPDEST PUSH0 PUSH1 0x60 DUP3 ADD SWAP1 POP PUSH2 0x1C32 PUSH0 DUP4 ADD DUP7 PUSH2 0x19A0 JUMP JUMPDEST DUP2 DUP2 SUB PUSH1 0x20 DUP4 ADD MSTORE PUSH2 0x1C44 DUP2 DUP6 PUSH2 0x1968 JUMP JUMPDEST SWAP1 POP PUSH2 0x1C53 PUSH1 0x40 DUP4 ADD DUP5 PUSH2 0x19A0 JUMP JUMPDEST SWAP5 SWAP4 POP POP POP POP JUMP JUMPDEST PUSH0 DUP2 ISZERO ISZERO SWAP1 POP SWAP2 SWAP1 POP JUMP JUMPDEST PUSH2 0x1C6F DUP2 PUSH2 0x1C5B JUMP JUMPDEST DUP3 MSTORE POP POP JUMP JUMPDEST PUSH0 PUSH1 0xC0 DUP3 ADD SWAP1 POP PUSH2 0x1C88 PUSH0 DUP4 ADD DUP10 PUSH2 0x19A0 JUMP JUMPDEST PUSH2 0x1C95 PUSH1 0x20 DUP4 ADD DUP9 PUSH2 0x1C66 JUMP JUMPDEST DUP2 DUP2 SUB PUSH1 0x40 DUP4 ADD MSTORE PUSH2 0x1CA7 DUP2 DUP8 PUSH2 0x1968 JUMP JUMPDEST SWAP1 POP PUSH2 0x1CB6 PUSH1 0x60 DUP4 ADD DUP7 PUSH2 0x19A0 JUMP JUMPDEST PUSH2 0x1CC3 PUSH1 0x80 DUP4 ADD DUP6 PUSH2 0x19A0 JUMP JUMPDEST PUSH2 0x1CD0 PUSH1 0xA0 DUP4 ADD DUP5 PUSH2 0x19A0 JUMP JUMPDEST SWAP8 SWAP7 POP POP POP POP POP POP POP JUMP JUMPDEST PUSH0 PUSH0 PUSH1 0x40 DUP4 DUP6 SUB SLT ISZERO PUSH2 0x1CF1 JUMPI PUSH2 0x1CF0 PUSH2 0x1744 JUMP JUMPDEST JUMPDEST PUSH0 DUP4 ADD CALLDATALOAD PUSH8 0xFFFFFFFFFFFFFFFF DUP2 GT ISZERO PUSH2 0x1D0E JUMPI PUSH2 0x1D0D PUSH2 0x1748 JUMP JUMPDEST JUMPDEST PUSH2 0x1D1A DUP6 DUP3 DUP7 ADD PUSH2 0x188E JUMP JUMPDEST SWAP3 POP POP PUSH1 0x20 PUSH2 0x1D2B DUP6 DUP3 DUP7 ADD PUSH2 0x176B JUMP JUMPDEST SWAP2 POP POP SWAP3 POP SWAP3 SWAP1 POP JUMP JUMPDEST PUSH0 PUSH1 0x20 DUP3 ADD SWAP1 POP PUSH2 0x1D48 PUSH0 DUP4 ADD DUP5 PUSH2 0x19A0 JUMP JUMPDEST SWAP3 SWAP2 POP POP JUMP JUMPDEST PUSH0 PUSH1 0x40 DUP3 ADD SWAP1 POP DUP2 DUP2 SUB PUSH0 DUP4 ADD MSTORE PUSH2 0x1D66 DUP2 DUP6 PUSH2 0x1A76 JUMP JUMPDEST SWAP1 POP DUP2 DUP2 SUB PUSH1 0x20 DUP4 ADD MSTORE PUSH2 0x1D7A DUP2 DUP5 PUSH2 0x1B62 JUMP JUMPDEST SWAP1 POP SWAP4 SWAP3 POP POP POP JUMP JUMPDEST PUSH0 PUSH20 0xFFFFFFFFFFFFFFFFFFFFFFFFFFFFFFFFFFFFFFFF DUP3 AND SWAP1 POP SWAP2 SWAP1 POP JUMP JUMPDEST PUSH0 PUSH2 0x1DAC DUP3 PUSH2 0x1D83 JUMP JUMPDEST SWAP1 POP SWAP2 SWAP1 POP JUMP JUMPDEST PUSH2 0x1DBC DUP2 PUSH2 0x1DA2 JUMP JUMPDEST DUP3 MSTORE POP POP JUMP JUMPDEST PUSH0 PUSH1 0x20 DUP3 ADD SWAP1 POP PUSH2 0x1DD5 PUSH0 DUP4 ADD DUP5 PUSH2 0x1DB3 JUMP JUMPDEST SWAP3 SWAP2 POP POP JUMP JUMPDEST PUSH32 0x4F6E6C792061646D696E2063616E20706572666F726D20746869732066756E63 PUSH0 DUP3 ADD MSTORE PUSH32 0x74696F6E00000000000000000000000000000000000000000000000000000000 PUSH1 0x20 DUP3 ADD MSTORE POP JUMP JUMPDEST PUSH0 PUSH2 0x1E35 PUSH1 0x24 DUP4 PUSH2 0x194A JUMP JUMPDEST SWAP2 POP PUSH2 0x1E40 DUP3 PUSH2 0x1DDB JUMP JUMPDEST PUSH1 0x40 DUP3 ADD SWAP1 POP SWAP2 SWAP1 POP JUMP JUMPDEST PUSH0 PUSH1 0x20 DUP3 ADD SWAP1 POP DUP2 DUP2 SUB PUSH0 DUP4 ADD MSTORE PUSH2 0x1E62 DUP2 PUSH2 0x1E29 JUMP JUMPDEST SWAP1 POP SWAP2 SWAP1 POP JUMP JUMPDEST PUSH32 0x456C656374696F6E206973206E6F742045786973740000000000000000000000 PUSH0 DUP3 ADD MSTORE POP JUMP JUMPDEST PUSH0 PUSH2 0x1E9D PUSH1 0x15 DUP4 PUSH2 0x194A JUMP JUMPDEST SWAP2 POP PUSH2 0x1EA8 DUP3 PUSH2 0x1E69 JUMP JUMPDEST PUSH1 0x20 DUP3 ADD SWAP1 POP SWAP2 SWAP1 POP JUMP JUMPDEST PUSH0 PUSH1 0x20 DUP3 ADD SWAP1 POP DUP2 DUP2 SUB PUSH0 DUP4 ADD MSTORE PUSH2 0x1ECA DUP2 PUSH2 0x1E91 JUMP JUMPDEST SWAP1 POP SWAP2 SWAP1 POP JUMP JUMPDEST PUSH32 0x456C656374696F6E206973206E6F7420416374697665206F642074696D656F75 PUSH0 DUP3 ADD MSTORE PUSH32 0x7400000000000000000000000000000000000000000000000000000000000000 PUSH1 0x20 DUP3 ADD MSTORE POP JUMP JUMPDEST PUSH0 PUSH2 0x1F2B PUSH1 0x21 DUP4 PUSH2 0x194A JUMP JUMPDEST SWAP2 POP PUSH2 0x1F36 DUP3 PUSH2 0x1ED1 JUMP JUMPDEST PUSH1 0x40 DUP3 ADD SWAP1 POP SWAP2 SWAP1 POP JUMP JUMPDEST PUSH0 PUSH1 0x20 DUP3 ADD SWAP1 POP DUP2 DUP2 SUB PUSH0 DUP4 ADD MSTORE PUSH2 0x1F58 DUP2 PUSH2 0x1F1F JUMP JUMPDEST SWAP1 POP SWAP2 SWAP1 POP JUMP JUMPDEST PUSH32 0x4E487B7100000000000000000000000000000000000000000000000000000000 PUSH0 MSTORE PUSH1 0x11 PUSH1 0x4 MSTORE PUSH1 0x24 PUSH0 REVERT JUMPDEST PUSH0 PUSH2 0x1F96 DUP3 PUSH2 0x174C JUMP JUMPDEST SWAP2 POP PUSH32 0xFFFFFFFFFFFFFFFFFFFFFFFFFFFFFFFFFFFFFFFFFFFFFFFFFFFFFFFFFFFFFFFF DUP3 SUB PUSH2 0x1FC8 JUMPI PUSH2 0x1FC7 PUSH2 0x1F5F JUMP JUMPDEST JUMPDEST PUSH1 0x1 DUP3 ADD SWAP1 POP SWAP2 SWAP1 POP JUMP JUMPDEST PUSH32 0x4E487B7100000000000000000000000000000000000000000000000000000000 PUSH0 MSTORE PUSH1 0x22 PUSH1 0x4 MSTORE PUSH1 0x24 PUSH0 REVERT JUMPDEST PUSH0 PUSH1 0x2 DUP3 DIV SWAP1 POP PUSH1 0x1 DUP3 AND DUP1 PUSH2 0x2017 JUMPI PUSH1 0x7F DUP3 AND SWAP2 POP JUMPDEST PUSH1 0x20 DUP3 LT DUP2 SUB PUSH2 0x202A JUMPI PUSH2 0x2029 PUSH2 0x1FD3 JUMP JUMPDEST JUMPDEST POP SWAP2 SWAP1 POP JUMP JUMPDEST PUSH0 DUP2 SWAP1 POP DUP2 PUSH0 MSTORE PUSH1 0x20 PUSH0 KECCAK256 SWAP1 POP SWAP2 SWAP1 POP JUMP JUMPDEST PUSH0 PUSH1 0x20 PUSH1 0x1F DUP4 ADD DIV SWAP1 POP SWAP2 SWAP1 POP JUMP JUMPDEST PUSH0 DUP3 DUP3 SHL SWAP1 POP SWAP3 SWAP2 POP POP JUMP JUMPDEST PUSH0 PUSH1 0x8 DUP4 MUL PUSH2 0x208C PUSH32 0xFFFFFFFFFFFFFFFFFFFFFFFFFFFFFFFFFFFFFFFFFFFFFFFFFFFFFFFFFFFFFFFF DUP3 PUSH2 0x2051 JUMP JUMPDEST PUSH2 0x2096 DUP7 DUP4 PUSH2 0x2051 JUMP JUMPDEST SWAP6 POP DUP1 NOT DUP5 AND SWAP4 POP DUP1 DUP7 AND DUP5 OR SWAP3 POP POP POP SWAP4 SWAP3 POP POP POP JUMP JUMPDEST PUSH0 DUP2 SWAP1 POP SWAP2 SWAP1 POP JUMP JUMPDEST PUSH0 PUSH2 0x20D1 PUSH2 0x20CC PUSH2 0x20C7 DUP5 PUSH2 0x174C JUMP JUMPDEST PUSH2 0x20AE JUMP JUMPDEST PUSH2 0x174C JUMP JUMPDEST SWAP1 POP SWAP2 SWAP1 POP JUMP JUMPDEST PUSH0 DUP2 SWAP1 POP SWAP2 SWAP1 POP JUMP JUMPDEST PUSH2 0x20EA DUP4 PUSH2 0x20B7 JUMP JUMPDEST PUSH2 0x20FE PUSH2 0x20F6 DUP3 PUSH2 0x20D8 JUMP JUMPDEST DUP5 DUP5 SLOAD PUSH2 0x205D JUMP JUMPDEST DUP3 SSTORE POP POP POP POP JUMP JUMPDEST PUSH0 PUSH0 SWAP1 POP SWAP1 JUMP JUMPDEST PUSH2 0x2115 PUSH2 0x2106 JUMP JUMPDEST PUSH2 0x2120 DUP2 DUP5 DUP5 PUSH2 0x20E1 JUMP JUMPDEST POP POP POP JUMP JUMPDEST JUMPDEST DUP2 DUP2 LT ISZERO PUSH2 0x2143 JUMPI PUSH2 0x2138 PUSH0 DUP3 PUSH2 0x210D JUMP JUMPDEST PUSH1 0x1 DUP2 ADD SWAP1 POP PUSH2 0x2126 JUMP JUMPDEST POP POP JUMP JUMPDEST PUSH1 0x1F DUP3 GT ISZERO PUSH2 0x2188 JUMPI PUSH2 0x2159 DUP2 PUSH2 0x2030 JUMP JUMPDEST PUSH2 0x2162 DUP5 PUSH2 0x2042 JUMP JUMPDEST DUP2 ADD PUSH1 0x20 DUP6 LT ISZERO PUSH2 0x2171 JUMPI DUP2 SWAP1 POP JUMPDEST PUSH2 0x2185 PUSH2 0x217D DUP6 PUSH2 0x2042 JUMP JUMPDEST DUP4 ADD DUP3 PUSH2 0x2125 JUMP JUMPDEST POP POP JUMPDEST POP POP POP JUMP JUMPDEST PUSH0 DUP3 DUP3 SHR SWAP1 POP SWAP3 SWAP2 POP POP JUMP JUMPDEST PUSH0 PUSH2 0x21A8 PUSH0 NOT DUP5 PUSH1 0x8 MUL PUSH2 0x218D JUMP JUMPDEST NOT DUP1 DUP4 AND SWAP2 POP POP SWAP3 SWAP2 POP POP JUMP JUMPDEST PUSH0 PUSH2 0x21C0 DUP4 DUP4 PUSH2 0x2199 JUMP JUMPDEST SWAP2 POP DUP3 PUSH1 0x2 MUL DUP3 OR SWAP1 POP SWAP3 SWAP2 POP POP JUMP JUMPDEST PUSH2 0x21D9 DUP3 PUSH2 0x1940 JUMP JUMPDEST PUSH8 0xFFFFFFFFFFFFFFFF DUP2 GT ISZERO PUSH2 0x21F2 JUMPI PUSH2 0x21F1 PUSH2 0x1797 JUMP JUMPDEST JUMPDEST PUSH2 0x21FC DUP3 SLOAD PUSH2 0x2000 JUMP JUMPDEST PUSH2 0x2207 DUP3 DUP3 DUP6 PUSH2 0x2147 JUMP JUMPDEST PUSH0 PUSH1 0x20 SWAP1 POP PUSH1 0x1F DUP4 GT PUSH1 0x1 DUP2 EQ PUSH2 0x2238 JUMPI PUSH0 DUP5 ISZERO PUSH2 0x2226 JUMPI DUP3 DUP8 ADD MLOAD SWAP1 POP JUMPDEST PUSH2 0x2230 DUP6 DUP3 PUSH2 0x21B5 JUMP JUMPDEST DUP7 SSTORE POP PUSH2 0x2297 JUMP JUMPDEST PUSH1 0x1F NOT DUP5 AND PUSH2 0x2246 DUP7 PUSH2 0x2030 JUMP JUMPDEST PUSH0 JUMPDEST DUP3 DUP2 LT ISZERO PUSH2 0x226D JUMPI DUP5 DUP10 ADD MLOAD DUP3 SSTORE PUSH1 0x1 DUP3 ADD SWAP2 POP PUSH1 0x20 DUP6 ADD SWAP5 POP PUSH1 0x20 DUP2 ADD SWAP1 POP PUSH2 0x2248 JUMP JUMPDEST DUP7 DUP4 LT ISZERO PUSH2 0x228A JUMPI DUP5 DUP10 ADD MLOAD PUSH2 0x2286 PUSH1 0x1F DUP10 AND DUP3 PUSH2 0x2199 JUMP JUMPDEST DUP4 SSTORE POP JUMPDEST PUSH1 0x1 PUSH1 0x2 DUP9 MUL ADD DUP9 SSTORE POP POP POP JUMPDEST POP POP POP POP POP POP JUMP JUMPDEST PUSH0 DUP2 SLOAD PUSH2 0x22AB DUP2 PUSH2 0x2000 JUMP JUMPDEST PUSH2 0x22B5 DUP2 DUP7 PUSH2 0x194A JUMP JUMPDEST SWAP5 POP PUSH1 0x1 DUP3 AND PUSH0 DUP2 EQ PUSH2 0x22CF JUMPI PUSH1 0x1 DUP2 EQ PUSH2 0x22E5 JUMPI PUSH2 0x2317 JUMP JUMPDEST PUSH1 0xFF NOT DUP4 AND DUP7 MSTORE DUP2 ISZERO ISZERO PUSH1 0x20 MUL DUP7 ADD SWAP4 POP PUSH2 0x2317 JUMP JUMPDEST PUSH2 0x22EE DUP6 PUSH2 0x2030 JUMP JUMPDEST PUSH0 JUMPDEST DUP4 DUP2 LT ISZERO PUSH2 0x230F JUMPI DUP2 SLOAD DUP2 DUP10 ADD MSTORE PUSH1 0x1 DUP3 ADD SWAP2 POP PUSH1 0x20 DUP2 ADD SWAP1 POP PUSH2 0x22F0 JUMP JUMPDEST DUP1 DUP9 ADD SWAP6 POP POP POP JUMPDEST POP POP POP SWAP3 SWAP2 POP POP JUMP JUMPDEST PUSH0 PUSH1 0x20 DUP3 ADD SWAP1 POP DUP2 DUP2 SUB PUSH0 DUP4 ADD MSTORE PUSH2 0x2338 DUP2 DUP5 PUSH2 0x229F JUMP JUMPDEST SWAP1 POP SWAP3 SWAP2 POP POP JUMP JUMPDEST PUSH32 0x43616E64696461746520496420697320696E76616C6964000000000000000000 PUSH0 DUP3 ADD MSTORE POP JUMP JUMPDEST PUSH0 PUSH2 0x2374 PUSH1 0x17 DUP4 PUSH2 0x194A JUMP JUMPDEST SWAP2 POP PUSH2 0x237F DUP3 PUSH2 0x2340 JUMP JUMPDEST PUSH1 0x20 DUP3 ADD SWAP1 POP SWAP2 SWAP1 POP JUMP JUMPDEST PUSH0 PUSH1 0x20 DUP3 ADD SWAP1 POP DUP2 DUP2 SUB PUSH0 DUP4 ADD MSTORE PUSH2 0x23A1 DUP2 PUSH2 0x2368 JUMP JUMPDEST SWAP1 POP SWAP2 SWAP1 POP JUMP JUMPDEST PUSH32 0x5468697320766F74657220616C726561647920676976652068697320766F7465 PUSH0 DUP3 ADD MSTORE POP JUMP JUMPDEST PUSH0 PUSH2 0x23DC PUSH1 0x20 DUP4 PUSH2 0x194A JUMP JUMPDEST SWAP2 POP PUSH2 0x23E7 DUP3 PUSH2 0x23A8 JUMP JUMPDEST PUSH1 0x20 DUP3 ADD SWAP1 POP SWAP2 SWAP1 POP JUMP JUMPDEST PUSH0 PUSH1 0x20 DUP3 ADD SWAP1 POP DUP2 DUP2 SUB PUSH0 DUP4 ADD MSTORE PUSH2 0x2409 DUP2 PUSH2 0x23D0 JUMP JUMPDEST SWAP1 POP SWAP2 SWAP1 POP JUMP JUMPDEST PUSH32 0x5468657265206973206E6F2063616E6469646174657320666F72207468697320 PUSH0 DUP3 ADD MSTORE PUSH32 0x656C656374696F6E000000000000000000000000000000000000000000000000 PUSH1 0x20 DUP3 ADD MSTORE POP JUMP JUMPDEST PUSH0 PUSH2 0x246A PUSH1 0x28 DUP4 PUSH2 0x194A JUMP JUMPDEST SWAP2 POP PUSH2 0x2475 DUP3 PUSH2 0x2410 JUMP JUMPDEST PUSH1 0x40 DUP3 ADD SWAP1 POP SWAP2 SWAP1 POP JUMP JUMPDEST PUSH0 PUSH1 0x20 DUP3 ADD SWAP1 POP DUP2 DUP2 SUB PUSH0 DUP4 ADD MSTORE PUSH2 0x2497 DUP2 PUSH2 0x245E JUMP JUMPDEST SWAP1 POP SWAP2 SWAP1 POP JUMP JUMPDEST PUSH0 PUSH2 0x24A8 DUP3 PUSH2 0x174C JUMP JUMPDEST SWAP2 POP PUSH2 0x24B3 DUP4 PUSH2 0x174C JUMP JUMPDEST SWAP3 POP DUP3 DUP3 ADD SWAP1 POP DUP1 DUP3 GT ISZERO PUSH2 0x24CB JUMPI PUSH2 0x24CA PUSH2 0x1F5F JUMP JUMPDEST JUMPDEST SWAP3 SWAP2 POP POP JUMP JUMPDEST PUSH32 0x4E487B7100000000000000000000000000000000000000000000000000000000 PUSH0 MSTORE PUSH1 0x32 PUSH1 0x4 MSTORE PUSH1 0x24 PUSH0 REVERT JUMPDEST PUSH0 PUSH1 0x40 DUP3 ADD SWAP1 POP DUP2 DUP2 SUB PUSH0 DUP4 ADD MSTORE PUSH2 0x2516 DUP2 DUP6 PUSH2 0x229F JUMP JUMPDEST SWAP1 POP PUSH2 0x2525 PUSH1 0x20 DUP4 ADD DUP5 PUSH2 0x19A0 JUMP JUMPDEST SWAP4 SWAP3 POP POP POP JUMP JUMPDEST PUSH0 PUSH1 0xC0 DUP3 ADD SWAP1 POP PUSH2 0x253F PUSH0 DUP4 ADD DUP10 PUSH2 0x19A0 JUMP JUMPDEST DUP2 DUP2 SUB PUSH1 0x20 DUP4 ADD MSTORE PUSH2 0x2551 DUP2 DUP9 PUSH2 0x229F JUMP JUMPDEST SWAP1 POP PUSH2 0x2560 PUSH1 0x40 DUP4 ADD DUP8 PUSH2 0x19A0 JUMP JUMPDEST DUP2 DUP2 SUB PUSH1 0x60 DUP4 ADD MSTORE PUSH2 0x2572 DUP2 DUP7 PUSH2 0x1968 JUMP JUMPDEST SWAP1 POP PUSH2 0x2581 PUSH1 0x80 DUP4 ADD DUP6 PUSH2 0x19A0 JUMP JUMPDEST PUSH2 0x258E PUSH1 0xA0 DUP4 ADD DUP5 PUSH2 0x19A0 JUMP JUMPDEST SWAP8 SWAP7 POP POP POP POP POP POP POP JUMP JUMPDEST PUSH32 0x5468657265206973206E6F20656C656374696F6E2069732072756E6E696E6720 PUSH0 DUP3 ADD MSTORE PUSH32 0x6E6F770000000000000000000000000000000000000000000000000000000000 PUSH1 0x20 DUP3 ADD MSTORE POP JUMP JUMPDEST PUSH0 PUSH2 0x25F3 PUSH1 0x23 DUP4 PUSH2 0x194A JUMP JUMPDEST SWAP2 POP PUSH2 0x25FE DUP3 PUSH2 0x2599 JUMP JUMPDEST PUSH1 0x40 DUP3 ADD SWAP1 POP SWAP2 SWAP1 POP JUMP JUMPDEST PUSH0 PUSH1 0x20 DUP3 ADD SWAP1 POP DUP2 DUP2 SUB PUSH0 DUP4 ADD MSTORE PUSH2 0x2620 DUP2 PUSH2 0x25E7 JUMP JUMPDEST SWAP1 POP SWAP2 SWAP1 POP JUMP INVALID LOG2 PUSH5 0x6970667358 0x22 SLT KECCAK256 0xB9 XOR SWAP16 0xD6 PUSH26 0x8D6B5A27AB642058D19A5BDFB21A34A08BAE2525D6C0E5567921 SWAP7 PUSH5 0x736F6C6343 STOP ADDMOD 0x1E STOP CALLER "
				},
				"gasEstimates": {
					"creation": {
						"codeDepositCost": "1964200",
						"executionCost": "26339",
						"totalCost": "1990539"
					},
					"external": {
						"AddCandidate(uint256,string)": "infinite",
						"CreateElection(string,uint256)": "infinite",
						"admin()": "2617",
						"electionCount()": "2469",
						"elections(uint256)": "infinite",
						"endElection(uint256)": "infinite",
						"getCandidate(uint256,uint256)": "infinite",
						"getCandidates(uint256)": "infinite",
						"getElections()": "infinite",
						"getTotalVotes(uint256)": "infinite",
						"getWinner(uint256)": "infinite",
						"votting(uint256,uint256)": "infinite"
					}
				},
				"methodIdentifiers": {
					"AddCandidate(uint256,string)": "0a63c583",
					"CreateElection(string,uint256)": "7c0e1dba",
					"admin()": "f851a440",
					"electionCount()": "997d2830",
					"elections(uint256)": "5e6fef01",
					"endElection(uint256)": "9c98bcbb",
					"getCandidate(uint256,uint256)": "4bd46448",
					"getCandidates(uint256)": "3e39a7a5",
					"getElections()": "9f3a7f52",
					"getTotalVotes(uint256)": "2ce35e11",
					"getWinner(uint256)": "4129b2c9",
					"votting(uint256,uint256)": "2d81fa59"
				}
			},
			"storageLayout": {
				"storage": [
					{
						"astId": 32,
						"contract": "src/votingMachine.sol:booth",
						"label": "admin",
						"offset": 0,
						"slot": "0",
						"type": "t_address"
					},
					{
						"astId": 34,
						"contract": "src/votingMachine.sol:booth",
						"label": "electionCount",
						"offset": 0,
						"slot": "1",
						"type": "t_uint256"
					},
					{
						"astId": 39,
						"contract": "src/votingMachine.sol:booth",
						"label": "elections",
						"offset": 0,
						"slot": "2",
						"type": "t_mapping(t_uint256,t_struct(Election)30_storage)"
					}
				],
				"types": {
					"t_address": {
						"encoding": "inplace",
						"label": "address",
						"numberOfBytes": "20"
					},
					"t_bool": {
						"encoding": "inplace",
						"label": "bool",
						"numberOfBytes": "1"
					},
					"t_mapping(t_address,t_bool)": {
						"encoding": "mapping",
						"key": "t_address",
						"label": "mapping(address => bool)",
						"numberOfBytes": "32",
						"value": "t_bool"
					},
					"t_mapping(t_uint256,t_struct(Election)30_storage)": {
						"encoding": "mapping",
						"key": "t_uint256",
						"label": "mapping(uint256 => struct booth.Election)",
						"numberOfBytes": "32",
						"value": "t_struct(Election)30_storage"
					},
					"t_mapping(t_uint256,t_struct(candidate)8_storage)": {
						"encoding": "mapping",
						"key": "t_uint256",
						"label": "mapping(uint256 => struct booth.candidate)",
						"numberOfBytes": "32",
						"value": "t_struct(candidate)8_storage"
					},
					"t_string_storage": {
						"encoding": "bytes",
						"label": "string",
						"numberOfBytes": "32"
					},
					"t_struct(Election)30_storage": {
						"encoding": "inplace",
						"label": "struct booth.Election",
						"members": [
							{
								"astId": 10,
								"contract": "src/votingMachine.sol:booth",
								"label": "electionId",
								"offset": 0,
								"slot": "0",
								"type": "t_uint256"
							},
							{
								"astId": 12,
								"contract": "src/votingMachine.sol:booth",
								"label": "isActive",
								"offset": 0,
								"slot": "1",
								"type": "t_bool"
							},
							{
								"astId": 14,
								"contract": "src/votingMachine.sol:booth",
								"label": "name",
								"offset": 0,
								"slot": "2",
								"type": "t_string_storage"
							},
							{
								"astId": 16,
								"contract": "src/votingMachine.sol:booth",
								"label": "endTime",
								"offset": 0,
								"slot": "3",
								"type": "t_uint256"
							},
							{
								"astId": 18,
								"contract": "src/votingMachine.sol:booth",
								"label": "candidateCount",
								"offset": 0,
								"slot": "4",
								"type": "t_uint256"
							},
							{
								"astId": 20,
								"contract": "src/votingMachine.sol:booth",
								"label": "totalVote",
								"offset": 0,
								"slot": "5",
								"type": "t_uint256"
							},
							{
								"astId": 24,
								"contract": "src/votingMachine.sol:booth",
								"label": "hasVoted",
								"offset": 0,
								"slot": "6",
								"type": "t_mapping(t_address,t_bool)"
							},
							{
								"astId": 29,
								"contract": "src/votingMachine.sol:booth",
								"label": "candidates",
								"offset": 0,
								"slot": "7",
								"type": "t_mapping(t_uint256,t_struct(candidate)8_storage)"
							}
						],
						"numberOfBytes": "256"
					},
					"t_struct(candidate)8_storage": {
						"encoding": "inplace",
						"label": "struct booth.candidate",
						"members": [
							{
								"astId": 3,
								"contract": "src/votingMachine.sol:booth",
								"label": "name",
								"offset": 0,
								"slot": "0",
								"type": "t_string_storage"
							},
							{
								"astId": 5,
								"contract": "src/votingMachine.sol:booth",
								"label": "candidateId",
								"offset": 0,
								"slot": "1",
								"type": "t_uint256"
							},
							{
								"astId": 7,
								"contract": "src/votingMachine.sol:booth",
								"label": "voteCount",
								"offset": 0,
								"slot": "2",
								"type": "t_uint256"
							}
						],
						"numberOfBytes": "96"
					},
					"t_uint256": {
						"encoding": "inplace",
						"label": "uint256",
						"numberOfBytes": "32"
					}
				}
			},
			"userdoc": {
				"kind": "user",
				"methods": {},
				"version": 1
			}
		}
	}
}