{
	"data": {
		"bytecode": {
			"linkReferences": {},
			"object": "6080604052348015600e575f5ffd5b50335f5f6101000a81548173ffffffffffffffffffffffffffffffffffffffff021916908373ffffffffffffffffffffffffffffffffffffffff1602179055506125588061005b5f395ff3fe608060405234801561000f575f5ffd5b50600436106100b2575f3560e01c80635e6fef011161006f5780635e6fef01146101b45780637c0e1dba146101e9578063997d2830146102055780639c98bcbb146102235780639f3a7f5214610255578063f851a44014610274576100b2565b80630a63c583146100b65780632ce35e11146100d25780632d81fa59146101035780633e39a7a51461011f5780634129b2c9146101505780634bd4644814610182575b5f5ffd5b6100d060048036038101906100cb9190611800565b610292565b005b6100ec60048036038101906100e7919061185a565b6104ed565b6040516100fa9291906118f4565b60405180910390f35b61011d60048036038101906101189190611922565b6105f3565b005b6101396004803603810190610134919061185a565b610908565b604051610147929190611b1a565b60405180910390f35b61016a6004803603810190610165919061185a565b610bb6565b60405161017993929190611b4f565b60405180910390f35b61019c60048036038101906101979190611922565b610d52565b6040516101ab93929190611b4f565b60405180910390f35b6101ce60048036038101906101c9919061185a565b610f18565b6040516101e096959493929190611ba5565b60405180910390f35b61020360048036038101906101fe9190611c0b565b610fe2565b005b61020d61113b565b60405161021a9190611c65565b60405180910390f35b61023d6004803603810190610238919061185a565b611141565b60405161024c93929190611b4f565b60405180910390f35b61025d61145a565b60405161026b929190611b1a565b60405180910390f35b61027c61165c565b6040516102899190611cbd565b60405180910390f35b3373ffffffffffffffffffffffffffffffffffffffff165f5f9054906101000a900473ffffffffffffffffffffffffffffffffffffffff1673ffffffffffffffffffffffffffffffffffffffff1614610320576040517f08c379a000000000000000000000000000000000000000000000000000000000815260040161031790611d46565b60405180910390fd5b81805f10801561033257506001548111155b610371576040517f08c379a000000000000000000000000000000000000000000000000000000000815260040161036890611dae565b60405180910390fd5b826001151560025f8381526020019081526020015f206001015f9054906101000a900460ff1615151480156103ba57504260025f8381526020019081526020015f206003015410155b6103f9576040517f08c379a00000000000000000000000000000000000000000000000000000000081526004016103f090611e3c565b60405180910390fd5b5f60025f8681526020019081526020015f2090505f816004015f815461041e90611e87565b919050819055905080826007015f8381526020019081526020015f206001018190555084826007015f8381526020019081526020015f205f01908161046391906120cb565b505f826007015f8381526020019081526020015f2060020181905550816007015f8281526020019081526020015f2060010154825f01547fed8911b3df733b7d5f75724158e54478ea12e30f49c9d31b5261879f5b76586f846007015f8581526020019081526020015f205f016040516104dd919061221b565b60405180910390a3505050505050565b60605f82805f10801561050257506001548111155b610541576040517f08c379a000000000000000000000000000000000000000000000000000000000815260040161053890611dae565b60405180910390fd5b5f60025f8681526020019081526020015f20905080600201816005015481805461056a90611efb565b80601f016020809104026020016040519081016040528092919081815260200182805461059690611efb565b80156105e15780601f106105b8576101008083540402835291602001916105e1565b820191905f5260205f20905b8154815290600101906020018083116105c457829003601f168201915b50505050509150935093505050915091565b81805f10801561060557506001548111155b610644576040517f08c379a000000000000000000000000000000000000000000000000000000000815260040161063b90611dae565b60405180910390fd5b826001151560025f8381526020019081526020015f206001015f9054906101000a900460ff16151514801561068d57504260025f8381526020019081526020015f206003015410155b6106cc576040517f08c379a00000000000000000000000000000000000000000000000000000000081526004016106c390611e3c565b60405180910390fd5b83835f811180156106f1575060025f8381526020019081526020015f20600401548111155b610730576040517f08c379a000000000000000000000000000000000000000000000000000000000815260040161072790612285565b60405180910390fd5b8560025f8281526020019081526020015f206006015f3373ffffffffffffffffffffffffffffffffffffffff1673ffffffffffffffffffffffffffffffffffffffff1681526020019081526020015f205f9054906101000a900460ff16156107cd576040517f08c379a00000000000000000000000000000000000000000000000000000000081526004016107c4906122ed565b60405180910390fd5b600160025f8981526020019081526020015f206006015f3373ffffffffffffffffffffffffffffffffffffffff1673ffffffffffffffffffffffffffffffffffffffff1681526020019081526020015f205f6101000a81548160ff02191690831515021790555060025f8881526020019081526020015f206007015f8781526020019081526020015f206002015f81548092919061086a90611e87565b919050555060025f8881526020019081526020015f206005015f81548092919061089390611e87565b919050555060025f8881526020019081526020015f206007015f8781526020019081526020015f206001015460025f8981526020019081526020015f205f01547fc31875ef3ed5138b71a0c1da7e494bc4d2ba4f567084ea481ec9c45f3a93948b60405160405180910390a350505050505050565b60608082805f10801561091d57506001548111155b61095c576040517f08c379a000000000000000000000000000000000000000000000000000000000815260040161095390611dae565b60405180910390fd5b5f60025f8681526020019081526020015f2060040154116109b2576040517f08c379a00000000000000000000000000000000000000000000000000000000081526004016109a99061237b565b60405180910390fd5b5f60025f8681526020019081526020015f206004015467ffffffffffffffff8111156109e1576109e06116dc565b5b604051908082528060200260200182016040528015610a0f5781602001602082028036833780820191505090505b5090505f60025f8781526020019081526020015f206004015467ffffffffffffffff811115610a4157610a406116dc565b5b604051908082528060200260200182016040528015610a7457816020015b6060815260200190600190039081610a5f5790505b5090505f5f90505b60025f8881526020019081526020015f2060040154811015610ba757600181610aa59190612399565b838281518110610ab857610ab76123cc565b5b60200260200101818152505060025f8881526020019081526020015f206007015f600183610ae69190612399565b81526020019081526020015f205f018054610b0090611efb565b80601f0160208091040260200160405190810160405280929190818152602001828054610b2c90611efb565b8015610b775780601f10610b4e57610100808354040283529160200191610b77565b820191905f5260205f20905b815481529060010190602001808311610b5a57829003601f168201915b5050505050828281518110610b8f57610b8e6123cc565b5b60200260200101819052508080600101915050610a7c565b50818194509450505050915091565b5f60605f83805f108015610bcc57506001548111155b610c0b576040517f08c379a0000000000000000000000000000000000000000000000000000000008152600401610c0290611dae565b60405180910390fd5b5f60025f8781526020019081526020015f2090505f5f905060605f5f90505f600190505b84600401548111610d3c5781856007015f8381526020019081526020015f20600201541115610d2957846007015f8281526020019081526020015f20600101549350846007015f8281526020019081526020015f205f018054610c9190611efb565b80601f0160208091040260200160405190810160405280929190818152602001828054610cbd90611efb565b8015610d085780601f10610cdf57610100808354040283529160200191610d08565b820191905f5260205f20905b815481529060010190602001808311610ceb57829003601f168201915b50505050509250846007015f8281526020019081526020015f206002015491505b8080610d3490611e87565b915050610c2f565b5082828297509750975050505050509193909250565b5f60605f84805f108015610d6857506001548111155b610da7576040517f08c379a0000000000000000000000000000000000000000000000000000000008152600401610d9e90611dae565b60405180910390fd5b85855f81118015610dcc575060025f8381526020019081526020015f20600401548111155b610e0b576040517f08c379a0000000000000000000000000000000000000000000000000000000008152600401610e0290612285565b60405180910390fd5b60025f8981526020019081526020015f206007015f8881526020019081526020015f206001015460025f8a81526020019081526020015f206007015f8981526020019081526020015f205f0160025f8b81526020019081526020015f206007015f8a81526020019081526020015f2060020154818054610e8a90611efb565b80601f0160208091040260200160405190810160405280929190818152602001828054610eb690611efb565b8015610f015780601f10610ed857610100808354040283529160200191610f01565b820191905f5260205f20905b815481529060010190602001808311610ee457829003601f168201915b505050505091509550955095505050509250925092565b6002602052805f5260405f205f91509050805f015490806001015f9054906101000a900460ff1690806002018054610f4f90611efb565b80601f0160208091040260200160405190810160405280929190818152602001828054610f7b90611efb565b8015610fc65780601f10610f9d57610100808354040283529160200191610fc6565b820191905f5260205f20905b815481529060010190602001808311610fa957829003601f168201915b5050505050908060030154908060040154908060050154905086565b3373ffffffffffffffffffffffffffffffffffffffff165f5f9054906101000a900473ffffffffffffffffffffffffffffffffffffffff1673ffffffffffffffffffffffffffffffffffffffff1614611070576040517f08c379a000000000000000000000000000000000000000000000000000000000815260040161106790611d46565b60405180910390fd5b60015f81548092919061108290611e87565b91905055505f60025f60015481526020019081526020015f209050828160020190816110ae91906120cb565b50600154815f01819055506001816001015f6101000a81548160ff02191690831515021790555081426110e19190612399565b81600301819055505f8160040181905550805f01547f43131521170c5b80ffe9526cfec987f5a24eb1f6c4bda47c41a5e4b8388afe5c82600201836003015460405161112e9291906123f9565b60405180910390a2505050565b60015481565b5f60605f3373ffffffffffffffffffffffffffffffffffffffff165f5f9054906101000a900473ffffffffffffffffffffffffffffffffffffffff1673ffffffffffffffffffffffffffffffffffffffff16146111d3576040517f08c379a00000000000000000000000000000000000000000000000000000000081526004016111ca90611d46565b60405180910390fd5b83805f1080156111e557506001548111155b611224576040517f08c379a000000000000000000000000000000000000000000000000000000000815260040161121b90611dae565b60405180910390fd5b846001151560025f8381526020019081526020015f206001015f9054906101000a900460ff16151514801561126d57504260025f8381526020019081526020015f206003015410155b6112ac576040517f08c379a00000000000000000000000000000000000000000000000000000000081526004016112a390611e3c565b60405180910390fd5b5f60025f8881526020019081526020015f2090505f816001015f6101000a81548160ff0219169083151502179055505f5f905060605f5f90505f600190505b846004015481116113f85781856007015f8381526020019081526020015f206002015411156113e557846007015f8281526020019081526020015f20600101549350846007015f8281526020019081526020015f205f01805461134d90611efb565b80601f016020809104026020016040519081016040528092919081815260200182805461137990611efb565b80156113c45780601f1061139b576101008083540402835291602001916113c4565b820191905f5260205f20905b8154815290600101906020018083116113a757829003601f168201915b50505050509250846007015f8281526020019081526020015f206002015491505b80806113f090611e87565b9150506112eb565b507f3b6c4d7e2cef081634247cfac8d389fcae0ae5780d888244df410080efa0bec3845f015485600201858585896005015460405161143c96959493929190612427565b60405180910390a18282829850985098505050505050509193909250565b6060805f600154116114a1576040517f08c379a000000000000000000000000000000000000000000000000000000000815260040161149890612504565b60405180910390fd5b5f60015467ffffffffffffffff8111156114be576114bd6116dc565b5b6040519080825280602002602001820160405280156114ec5781602001602082028036833780820191505090505b5090505f60015467ffffffffffffffff81111561150c5761150b6116dc565b5b60405190808252806020026020018201604052801561153f57816020015b606081526020019060019003908161152a5790505b5090505f5f90505b60015481101561164f5760018161155e9190612399565b838281518110611571576115706123cc565b5b60200260200101818152505060025f60018361158d9190612399565b81526020019081526020015f2060020180546115a890611efb565b80601f01602080910402602001604051908101604052809291908181526020018280546115d490611efb565b801561161f5780601f106115f65761010080835404028352916020019161161f565b820191905f5260205f20905b81548152906001019060200180831161160257829003601f168201915b5050505050828281518110611637576116366123cc565b5b60200260200101819052508080600101915050611547565b5081819350935050509091565b5f5f9054906101000a900473ffffffffffffffffffffffffffffffffffffffff1681565b5f604051905090565b5f5ffd5b5f5ffd5b5f819050919050565b6116a381611691565b81146116ad575f5ffd5b50565b5f813590506116be8161169a565b92915050565b5f5ffd5b5f5ffd5b5f601f19601f8301169050919050565b7f4e487b71000000000000000000000000000000000000000000000000000000005f52604160045260245ffd5b611712826116cc565b810181811067ffffffffffffffff82111715611731576117306116dc565b5b80604052505050565b5f611743611680565b905061174f8282611709565b919050565b5f67ffffffffffffffff82111561176e5761176d6116dc565b5b611777826116cc565b9050602081019050919050565b828183375f83830152505050565b5f6117a461179f84611754565b61173a565b9050828152602081018484840111156117c0576117bf6116c8565b5b6117cb848285611784565b509392505050565b5f82601f8301126117e7576117e66116c4565b5b81356117f7848260208601611792565b91505092915050565b5f5f6040838503121561181657611815611689565b5b5f611823858286016116b0565b925050602083013567ffffffffffffffff8111156118445761184361168d565b5b611850858286016117d3565b9150509250929050565b5f6020828403121561186f5761186e611689565b5b5f61187c848285016116b0565b91505092915050565b5f81519050919050565b5f82825260208201905092915050565b8281835e5f83830152505050565b5f6118b782611885565b6118c1818561188f565b93506118d181856020860161189f565b6118da816116cc565b840191505092915050565b6118ee81611691565b82525050565b5f6040820190508181035f83015261190c81856118ad565b905061191b60208301846118e5565b9392505050565b5f5f6040838503121561193857611937611689565b5b5f611945858286016116b0565b9250506020611956858286016116b0565b9150509250929050565b5f81519050919050565b5f82825260208201905092915050565b5f819050602082019050919050565b61199281611691565b82525050565b5f6119a38383611989565b60208301905092915050565b5f602082019050919050565b5f6119c582611960565b6119cf818561196a565b93506119da8361197a565b805f5b83811015611a0a5781516119f18882611998565b97506119fc836119af565b9250506001810190506119dd565b5085935050505092915050565b5f81519050919050565b5f82825260208201905092915050565b5f819050602082019050919050565b5f82825260208201905092915050565b5f611a5a82611885565b611a648185611a40565b9350611a7481856020860161189f565b611a7d816116cc565b840191505092915050565b5f611a938383611a50565b905092915050565b5f602082019050919050565b5f611ab182611a17565b611abb8185611a21565b935083602082028501611acd85611a31565b805f5b85811015611b085784840389528151611ae98582611a88565b9450611af483611a9b565b925060208a01995050600181019050611ad0565b50829750879550505050505092915050565b5f6040820190508181035f830152611b3281856119bb565b90508181036020830152611b468184611aa7565b90509392505050565b5f606082019050611b625f8301866118e5565b8181036020830152611b7481856118ad565b9050611b8360408301846118e5565b949350505050565b5f8115159050919050565b611b9f81611b8b565b82525050565b5f60c082019050611bb85f8301896118e5565b611bc56020830188611b96565b8181036040830152611bd781876118ad565b9050611be660608301866118e5565b611bf360808301856118e5565b611c0060a08301846118e5565b979650505050505050565b5f5f60408385031215611c2157611c20611689565b5b5f83013567ffffffffffffffff811115611c3e57611c3d61168d565b5b611c4a858286016117d3565b9250506020611c5b858286016116b0565b9150509250929050565b5f602082019050611c785f8301846118e5565b92915050565b5f73ffffffffffffffffffffffffffffffffffffffff82169050919050565b5f611ca782611c7e565b9050919050565b611cb781611c9d565b82525050565b5f602082019050611cd05f830184611cae565b92915050565b7f4f6e6c792061646d696e2063616e20706572666f726d20746869732066756e635f8201527f74696f6e00000000000000000000000000000000000000000000000000000000602082015250565b5f611d3060248361188f565b9150611d3b82611cd6565b604082019050919050565b5f6020820190508181035f830152611d5d81611d24565b9050919050565b7f456c656374696f6e206973206e6f7420457869737400000000000000000000005f82015250565b5f611d9860158361188f565b9150611da382611d64565b602082019050919050565b5f6020820190508181035f830152611dc581611d8c565b9050919050565b7f456c656374696f6e206973206e6f7420416374697665206f642074696d656f755f8201527f7400000000000000000000000000000000000000000000000000000000000000602082015250565b5f611e2660218361188f565b9150611e3182611dcc565b604082019050919050565b5f6020820190508181035f830152611e5381611e1a565b9050919050565b7f4e487b71000000000000000000000000000000000000000000000000000000005f52601160045260245ffd5b5f611e9182611691565b91507fffffffffffffffffffffffffffffffffffffffffffffffffffffffffffffffff8203611ec357611ec2611e5a565b5b600182019050919050565b7f4e487b71000000000000000000000000000000000000000000000000000000005f52602260045260245ffd5b5f6002820490506001821680611f1257607f821691505b602082108103611f2557611f24611ece565b5b50919050565b5f819050815f5260205f209050919050565b5f6020601f8301049050919050565b5f82821b905092915050565b5f60088302611f877fffffffffffffffffffffffffffffffffffffffffffffffffffffffffffffffff82611f4c565b611f918683611f4c565b95508019841693508086168417925050509392505050565b5f819050919050565b5f611fcc611fc7611fc284611691565b611fa9565b611691565b9050919050565b5f819050919050565b611fe583611fb2565b611ff9611ff182611fd3565b848454611f58565b825550505050565b5f5f905090565b612010612001565b61201b818484611fdc565b505050565b5b8181101561203e576120335f82612008565b600181019050612021565b5050565b601f8211156120835761205481611f2b565b61205d84611f3d565b8101602085101561206c578190505b61208061207885611f3d565b830182612020565b50505b505050565b5f82821c905092915050565b5f6120a35f1984600802612088565b1980831691505092915050565b5f6120bb8383612094565b9150826002028217905092915050565b6120d482611885565b67ffffffffffffffff8111156120ed576120ec6116dc565b5b6120f78254611efb565b612102828285612042565b5f60209050601f831160018114612133575f8415612121578287015190505b61212b85826120b0565b865550612192565b601f19841661214186611f2b565b5f5b8281101561216857848901518255600182019150602085019450602081019050612143565b868310156121855784890151612181601f891682612094565b8355505b6001600288020188555050505b505050505050565b5f81546121a681611efb565b6121b0818661188f565b9450600182165f81146121ca57600181146121e057612212565b60ff198316865281151560200286019350612212565b6121e985611f2b565b5f5b8381101561220a578154818901526001820191506020810190506121eb565b808801955050505b50505092915050565b5f6020820190508181035f830152612233818461219a565b905092915050565b7f43616e64696461746520496420697320696e76616c69640000000000000000005f82015250565b5f61226f60178361188f565b915061227a8261223b565b602082019050919050565b5f6020820190508181035f83015261229c81612263565b9050919050565b7f5468697320766f74657220616c726561647920676976652068697320766f74655f82015250565b5f6122d760208361188f565b91506122e2826122a3565b602082019050919050565b5f6020820190508181035f830152612304816122cb565b9050919050565b7f5468657265206973206e6f2063616e6469646174657320666f722074686973205f8201527f656c656374696f6e000000000000000000000000000000000000000000000000602082015250565b5f61236560288361188f565b91506123708261230b565b604082019050919050565b5f6020820190508181035f83015261239281612359565b9050919050565b5f6123a382611691565b91506123ae83611691565b92508282019050808211156123c6576123c5611e5a565b5b92915050565b7f4e487b71000000000000000000000000000000000000000000000000000000005f52603260045260245ffd5b5f6040820190508181035f830152612411818561219a565b905061242060208301846118e5565b9392505050565b5f60c08201905061243a5f8301896118e5565b818103602083015261244c818861219a565b905061245b60408301876118e5565b818103606083015261246d81866118ad565b905061247c60808301856118e5565b61248960a08301846118e5565b979650505050505050565b7f5468657265206973206e6f20656c656374696f6e2069732072756e6e696e67205f8201527f6e6f770000000000000000000000000000000000000000000000000000000000602082015250565b5f6124ee60238361188f565b91506124f982612494565b604082019050919050565b5f6020820190508181035f83015261251b816124e2565b905091905056fea2646970667358221220bd19c291a036ea47cafd07461c31c2982f4dec09277432866cc14fec7575880a64736f6c634300081e0033",
			"opcodes": "PUSH1 0x80 PUSH1 0x40 MSTORE CALLVALUE DUP1 ISZERO PUSH1 0xE JUMPI PUSH0 PUSH0 REVERT JUMPDEST POP CALLER PUSH0 PUSH0 PUSH2 0x100 EXP DUP2 SLOAD DUP2 PUSH20 0xFFFFFFFFFFFFFFFFFFFFFFFFFFFFFFFFFFFFFFFF MUL NOT AND SWAP1 DUP4 PUSH20 0xFFFFFFFFFFFFFFFFFFFFFFFFFFFFFFFFFFFFFFFF AND MUL OR SWAP1 SSTORE POP PUSH2 0x2558 DUP1 PUSH2 0x5B PUSH0 CODECOPY PUSH0 RETURN INVALID PUSH1 0x80 PUSH1 0x40 MSTORE CALLVALUE DUP1 ISZERO PUSH2 0xF JUMPI PUSH0 PUSH0 REVERT JUMPDEST POP PUSH1 0x4 CALLDATASIZE LT PUSH2 0xB2 JUMPI PUSH0 CALLDATALOAD PUSH1 0xE0 SHR DUP1 PUSH4 0x5E6FEF01 GT PUSH2 0x6F JUMPI DUP1 PUSH4 0x5E6FEF01 EQ PUSH2 0x1B4 JUMPI DUP1 PUSH4 0x7C0E1DBA EQ PUSH2 0x1E9 JUMPI DUP1 PUSH4 0x997D2830 EQ PUSH2 0x205 JUMPI DUP1 PUSH4 0x9C98BCBB EQ PUSH2 0x223 JUMPI DUP1 PUSH4 0x9F3A7F52 EQ PUSH2 0x255 JUMPI DUP1 PUSH4 0xF851A440 EQ PUSH2 0x274 JUMPI PUSH2 0xB2 JUMP JUMPDEST DUP1 PUSH4 0xA63C583 EQ PUSH2 0xB6 JUMPI DUP1 PUSH4 0x2CE35E11 EQ PUSH2 0xD2 JUMPI DUP1 PUSH4 0x2D81FA59 EQ PUSH2 0x103 JUMPI DUP1 PUSH4 0x3E39A7A5 EQ PUSH2 0x11F JUMPI DUP1 PUSH4 0x4129B2C9 EQ PUSH2 0x150 JUMPI DUP1 PUSH4 0x4BD46448 EQ PUSH2 0x182 JUMPI JUMPDEST PUSH0 PUSH0 REVERT JUMPDEST PUSH2 0xD0 PUSH1 0x4 DUP1 CALLDATASIZE SUB DUP2 ADD SWAP1 PUSH2 0xCB SWAP2 SWAP1 PUSH2 0x1800 JUMP JUMPDEST PUSH2 0x292 JUMP JUMPDEST STOP JUMPDEST PUSH2 0xEC PUSH1 0x4 DUP1 CALLDATASIZE SUB DUP2 ADD SWAP1 PUSH2 0xE7 SWAP2 SWAP1 PUSH2 0x185A JUMP JUMPDEST PUSH2 0x4ED JUMP JUMPDEST PUSH1 0x40 MLOAD PUSH2 0xFA SWAP3 SWAP2 SWAP1 PUSH2 0x18F4 JUMP JUMPDEST PUSH1 0x40 MLOAD DUP1 SWAP2 SUB SWAP1 RETURN JUMPDEST PUSH2 0x11D PUSH1 0x4 DUP1 CALLDATASIZE SUB DUP2 ADD SWAP1 PUSH2 0x118 SWAP2 SWAP1 PUSH2 0x1922 JUMP JUMPDEST PUSH2 0x5F3 JUMP JUMPDEST STOP JUMPDEST PUSH2 0x139 PUSH1 0x4 DUP1 CALLDATASIZE SUB DUP2 ADD SWAP1 PUSH2 0x134 SWAP2 SWAP1 PUSH2 0x185A JUMP JUMPDEST PUSH2 0x908 JUMP JUMPDEST PUSH1 0x40 MLOAD PUSH2 0x147 SWAP3 SWAP2 SWAP1 PUSH2 0x1B1A JUMP JUMPDEST PUSH1 0x40 MLOAD DUP1 SWAP2 SUB SWAP1 RETURN JUMPDEST PUSH2 0x16A PUSH1 0x4 DUP1 CALLDATASIZE SUB DUP2 ADD SWAP1 PUSH2 0x165 SWAP2 SWAP1 PUSH2 0x185A JUMP JUMPDEST PUSH2 0xBB6 JUMP JUMPDEST PUSH1 0x40 MLOAD PUSH2 0x179 SWAP4 SWAP3 SWAP2 SWAP1 PUSH2 0x1B4F JUMP JUMPDEST PUSH1 0x40 MLOAD DUP1 SWAP2 SUB SWAP1 RETURN JUMPDEST PUSH2 0x19C PUSH1 0x4 DUP1 CALLDATASIZE SUB DUP2 ADD SWAP1 PUSH2 0x197 SWAP2 SWAP1 PUSH2 0x1922 JUMP JUMPDEST PUSH2 0xD52 JUMP JUMPDEST PUSH1 0x40 MLOAD PUSH2 0x1AB SWAP4 SWAP3 SWAP2 SWAP1 PUSH2 0x1B4F JUMP JUMPDEST PUSH1 0x40 MLOAD DUP1 SWAP2 SUB SWAP1 RETURN JUMPDEST PUSH2 0x1CE PUSH1 0x4 DUP1 CALLDATASIZE SUB DUP2 ADD SWAP1 PUSH2 0x1C9 SWAP2 SWAP1 PUSH2 0x185A JUMP JUMPDEST PUSH2 0xF18 JUMP JUMPDEST PUSH1 0x40 MLOAD PUSH2 0x1E0 SWAP7 SWAP6 SWAP5 SWAP4 SWAP3 SWAP2 SWAP1 PUSH2 0x1BA5 JUMP JUMPDEST PUSH1 0x40 MLOAD DUP1 SWAP2 SUB SWAP1 RETURN JUMPDEST PUSH2 0x203 PUSH1 0x4 DUP1 CALLDATASIZE SUB DUP2 ADD SWAP1 PUSH2 0x1FE SWAP2 SWAP1 PUSH2 0x1C0B JUMP JUMPDEST PUSH2 0xFE2 JUMP JUMPDEST STOP JUMPDEST PUSH2 0x20D PUSH2 0x113B JUMP JUMPDEST PUSH1 0x40 MLOAD PUSH2 0x21A SWAP2 SWAP1 PUSH2 0x1C65 JUMP JUMPDEST PUSH1 0x40 MLOAD DUP1 SWAP2 SUB SWAP1 RETURN JUMPDEST PUSH2 0x23D PUSH1 0x4 DUP1 CALLDATASIZE SUB DUP2 ADD SWAP1 PUSH2 0x238 SWAP2 SWAP1 PUSH2 0x185A JUMP JUMPDEST PUSH2 0x1141 JUMP JUMPDEST PUSH1 0x40 MLOAD PUSH2 0x24C SWAP4 SWAP3 SWAP2 SWAP1 PUSH2 0x1B4F JUMP JUMPDEST PUSH1 0x40 MLOAD DUP1 SWAP2 SUB SWAP1 RETURN JUMPDEST PUSH2 0x25D PUSH2 0x145A JUMP JUMPDEST PUSH1 0x40 MLOAD PUSH2 0x26B SWAP3 SWAP2 SWAP1 PUSH2 0x1B1A JUMP JUMPDEST PUSH1 0x40 MLOAD DUP1 SWAP2 SUB SWAP1 RETURN JUMPDEST PUSH2 0x27C PUSH2 0x165C JUMP JUMPDEST PUSH1 0x40 MLOAD PUSH2 0x289 SWAP2 SWAP1 PUSH2 0x1CBD JUMP JUMPDEST PUSH1 0x40 MLOAD DUP1 SWAP2 SUB SWAP1 RETURN JUMPDEST CALLER PUSH20 0xFFFFFFFFFFFFFFFFFFFFFFFFFFFFFFFFFFFFFFFF AND PUSH0 PUSH0 SWAP1 SLOAD SWAP1 PUSH2 0x100 EXP SWAP1 DIV PUSH20 0xFFFFFFFFFFFFFFFFFFFFFFFFFFFFFFFFFFFFFFFF AND PUSH20 0xFFFFFFFFFFFFFFFFFFFFFFFFFFFFFFFFFFFFFFFF AND EQ PUSH2 0x320 JUMPI PUSH1 0x40 MLOAD PUSH32 0x8C379A000000000000000000000000000000000000000000000000000000000 DUP2 MSTORE PUSH1 0x4 ADD PUSH2 0x317 SWAP1 PUSH2 0x1D46 JUMP JUMPDEST PUSH1 0x40 MLOAD DUP1 SWAP2 SUB SWAP1 REVERT JUMPDEST DUP2 DUP1 PUSH0 LT DUP1 ISZERO PUSH2 0x332 JUMPI POP PUSH1 0x1 SLOAD DUP2 GT ISZERO JUMPDEST PUSH2 0x371 JUMPI PUSH1 0x40 MLOAD PUSH32 0x8C379A000000000000000000000000000000000000000000000000000000000 DUP2 MSTORE PUSH1 0x4 ADD PUSH2 0x368 SWAP1 PUSH2 0x1DAE JUMP JUMPDEST PUSH1 0x40 MLOAD DUP1 SWAP2 SUB SWAP1 REVERT JUMPDEST DUP3 PUSH1 0x1 ISZERO ISZERO PUSH1 0x2 PUSH0 DUP4 DUP2 MSTORE PUSH1 0x20 ADD SWAP1 DUP2 MSTORE PUSH1 0x20 ADD PUSH0 KECCAK256 PUSH1 0x1 ADD PUSH0 SWAP1 SLOAD SWAP1 PUSH2 0x100 EXP SWAP1 DIV PUSH1 0xFF AND ISZERO ISZERO EQ DUP1 ISZERO PUSH2 0x3BA JUMPI POP TIMESTAMP PUSH1 0x2 PUSH0 DUP4 DUP2 MSTORE PUSH1 0x20 ADD SWAP1 DUP2 MSTORE PUSH1 0x20 ADD PUSH0 KECCAK256 PUSH1 0x3 ADD SLOAD LT ISZERO JUMPDEST PUSH2 0x3F9 JUMPI PUSH1 0x40 MLOAD PUSH32 0x8C379A000000000000000000000000000000000000000000000000000000000 DUP2 MSTORE PUSH1 0x4 ADD PUSH2 0x3F0 SWAP1 PUSH2 0x1E3C JUMP JUMPDEST PUSH1 0x40 MLOAD DUP1 SWAP2 SUB SWAP1 REVERT JUMPDEST PUSH0 PUSH1 0x2 PUSH0 DUP7 DUP2 MSTORE PUSH1 0x20 ADD SWAP1 DUP2 MSTORE PUSH1 0x20 ADD PUSH0 KECCAK256 SWAP1 POP PUSH0 DUP2 PUSH1 0x4 ADD PUSH0 DUP2 SLOAD PUSH2 0x41E SWAP1 PUSH2 0x1E87 JUMP JUMPDEST SWAP2 SWAP1 POP DUP2 SWAP1 SSTORE SWAP1 POP DUP1 DUP3 PUSH1 0x7 ADD PUSH0 DUP4 DUP2 MSTORE PUSH1 0x20 ADD SWAP1 DUP2 MSTORE PUSH1 0x20 ADD PUSH0 KECCAK256 PUSH1 0x1 ADD DUP2 SWAP1 SSTORE POP DUP5 DUP3 PUSH1 0x7 ADD PUSH0 DUP4 DUP2 MSTORE PUSH1 0x20 ADD SWAP1 DUP2 MSTORE PUSH1 0x20 ADD PUSH0 KECCAK256 PUSH0 ADD SWAP1 DUP2 PUSH2 0x463 SWAP2 SWAP1 PUSH2 0x20CB JUMP JUMPDEST POP PUSH0 DUP3 PUSH1 0x7 ADD PUSH0 DUP4 DUP2 MSTORE PUSH1 0x20 ADD SWAP1 DUP2 MSTORE PUSH1 0x20 ADD PUSH0 KECCAK256 PUSH1 0x2 ADD DUP2 SWAP1 SSTORE POP DUP2 PUSH1 0x7 ADD PUSH0 DUP3 DUP2 MSTORE PUSH1 0x20 ADD SWAP1 DUP2 MSTORE PUSH1 0x20 ADD PUSH0 KECCAK256 PUSH1 0x1 ADD SLOAD DUP3 PUSH0 ADD SLOAD PUSH32 0xED8911B3DF733B7D5F75724158E54478EA12E30F49C9D31B5261879F5B76586F DUP5 PUSH1 0x7 ADD PUSH0 DUP6 DUP2 MSTORE PUSH1 0x20 ADD SWAP1 DUP2 MSTORE PUSH1 0x20 ADD PUSH0 KECCAK256 PUSH0 ADD PUSH1 0x40 MLOAD PUSH2 0x4DD SWAP2 SWAP1 PUSH2 0x221B JUMP JUMPDEST PUSH1 0x40 MLOAD DUP1 SWAP2 SUB SWAP1 LOG3 POP POP POP POP POP POP JUMP JUMPDEST PUSH1 0x60 PUSH0 DUP3 DUP1 PUSH0 LT DUP1 ISZERO PUSH2 0x502 JUMPI POP PUSH1 0x1 SLOAD DUP2 GT ISZERO JUMPDEST PUSH2 0x541 JUMPI PUSH1 0x40 MLOAD PUSH32 0x8C379A000000000000000000000000000000000000000000000000000000000 DUP2 MSTORE PUSH1 0x4 ADD PUSH2 0x538 SWAP1 PUSH2 0x1DAE JUMP JUMPDEST PUSH1 0x40 MLOAD DUP1 SWAP2 SUB SWAP1 REVERT JUMPDEST PUSH0 PUSH1 0x2 PUSH0 DUP7 DUP2 MSTORE PUSH1 0x20 ADD SWAP1 DUP2 MSTORE PUSH1 0x20 ADD PUSH0 KECCAK256 SWAP1 POP DUP1 PUSH1 0x2 ADD DUP2 PUSH1 0x5 ADD SLOAD DUP2 DUP1 SLOAD PUSH2 0x56A SWAP1 PUSH2 0x1EFB JUMP JUMPDEST DUP1 PUSH1 0x1F ADD PUSH1 0x20 DUP1 SWAP2 DIV MUL PUSH1 0x20 ADD PUSH1 0x40 MLOAD SWAP1 DUP2 ADD PUSH1 0x40 MSTORE DUP1 SWAP3 SWAP2 SWAP1 DUP2 DUP2 MSTORE PUSH1 0x20 ADD DUP3 DUP1 SLOAD PUSH2 0x596 SWAP1 PUSH2 0x1EFB JUMP JUMPDEST DUP1 ISZERO PUSH2 0x5E1 JUMPI DUP1 PUSH1 0x1F LT PUSH2 0x5B8 JUMPI PUSH2 0x100 DUP1 DUP4 SLOAD DIV MUL DUP4 MSTORE SWAP2 PUSH1 0x20 ADD SWAP2 PUSH2 0x5E1 JUMP JUMPDEST DUP3 ADD SWAP2 SWAP1 PUSH0 MSTORE PUSH1 0x20 PUSH0 KECCAK256 SWAP1 JUMPDEST DUP2 SLOAD DUP2 MSTORE SWAP1 PUSH1 0x1 ADD SWAP1 PUSH1 0x20 ADD DUP1 DUP4 GT PUSH2 0x5C4 JUMPI DUP3 SWAP1 SUB PUSH1 0x1F AND DUP3 ADD SWAP2 JUMPDEST POP POP POP POP POP SWAP2 POP SWAP4 POP SWAP4 POP POP POP SWAP2 POP SWAP2 JUMP JUMPDEST DUP2 DUP1 PUSH0 LT DUP1 ISZERO PUSH2 0x605 JUMPI POP PUSH1 0x1 SLOAD DUP2 GT ISZERO JUMPDEST PUSH2 0x644 JUMPI PUSH1 0x40 MLOAD PUSH32 0x8C379A000000000000000000000000000000000000000000000000000000000 DUP2 MSTORE PUSH1 0x4 ADD PUSH2 0x63B SWAP1 PUSH2 0x1DAE JUMP JUMPDEST PUSH1 0x40 MLOAD DUP1 SWAP2 SUB SWAP1 REVERT JUMPDEST DUP3 PUSH1 0x1 ISZERO ISZERO PUSH1 0x2 PUSH0 DUP4 DUP2 MSTORE PUSH1 0x20 ADD SWAP1 DUP2 MSTORE PUSH1 0x20 ADD PUSH0 KECCAK256 PUSH1 0x1 ADD PUSH0 SWAP1 SLOAD SWAP1 PUSH2 0x100 EXP SWAP1 DIV PUSH1 0xFF AND ISZERO ISZERO EQ DUP1 ISZERO PUSH2 0x68D JUMPI POP TIMESTAMP PUSH1 0x2 PUSH0 DUP4 DUP2 MSTORE PUSH1 0x20 ADD SWAP1 DUP2 MSTORE PUSH1 0x20 ADD PUSH0 KECCAK256 PUSH1 0x3 ADD SLOAD LT ISZERO JUMPDEST PUSH2 0x6CC JUMPI PUSH1 0x40 MLOAD PUSH32 0x8C379A000000000000000000000000000000000000000000000000000000000 DUP2 MSTORE PUSH1 0x4 ADD PUSH2 0x6C3 SWAP1 PUSH2 0x1E3C JUMP JUMPDEST PUSH1 0x40 MLOAD DUP1 SWAP2 SUB SWAP1 REVERT JUMPDEST DUP4 DUP4 PUSH0 DUP2 GT DUP1 ISZERO PUSH2 0x6F1 JUMPI POP PUSH1 0x2 PUSH0 DUP4 DUP2 MSTORE PUSH1 0x20 ADD SWAP1 DUP2 MSTORE PUSH1 0x20 ADD PUSH0 KECCAK256 PUSH1 0x4 ADD SLOAD DUP2 GT ISZERO JUMPDEST PUSH2 0x730 JUMPI PUSH1 0x40 MLOAD PUSH32 0x8C379A000000000000000000000000000000000000000000000000000000000 DUP2 MSTORE PUSH1 0x4 ADD PUSH2 0x727 SWAP1 PUSH2 0x2285 JUMP JUMPDEST PUSH1 0x40 MLOAD DUP1 SWAP2 SUB SWAP1 REVERT JUMPDEST DUP6 PUSH1 0x2 PUSH0 DUP3 DUP2 MSTORE PUSH1 0x20 ADD SWAP1 DUP2 MSTORE PUSH1 0x20 ADD PUSH0 KECCAK256 PUSH1 0x6 ADD PUSH0 CALLER PUSH20 0xFFFFFFFFFFFFFFFFFFFFFFFFFFFFFFFFFFFFFFFF AND PUSH20 0xFFFFFFFFFFFFFFFFFFFFFFFFFFFFFFFFFFFFFFFF AND DUP2 MSTORE PUSH1 0x20 ADD SWAP1 DUP2 MSTORE PUSH1 0x20 ADD PUSH0 KECCAK256 PUSH0 SWAP1 SLOAD SWAP1 PUSH2 0x100 EXP SWAP1 DIV PUSH1 0xFF AND ISZERO PUSH2 0x7CD JUMPI PUSH1 0x40 MLOAD PUSH32 0x8C379A000000000000000000000000000000000000000000000000000000000 DUP2 MSTORE PUSH1 0x4 ADD PUSH2 0x7C4 SWAP1 PUSH2 0x22ED JUMP JUMPDEST PUSH1 0x40 MLOAD DUP1 SWAP2 SUB SWAP1 REVERT JUMPDEST PUSH1 0x1 PUSH1 0x2 PUSH0 DUP10 DUP2 MSTORE PUSH1 0x20 ADD SWAP1 DUP2 MSTORE PUSH1 0x20 ADD PUSH0 KECCAK256 PUSH1 0x6 ADD PUSH0 CALLER PUSH20 0xFFFFFFFFFFFFFFFFFFFFFFFFFFFFFFFFFFFFFFFF AND PUSH20 0xFFFFFFFFFFFFFFFFFFFFFFFFFFFFFFFFFFFFFFFF AND DUP2 MSTORE PUSH1 0x20 ADD SWAP1 DUP2 MSTORE PUSH1 0x20 ADD PUSH0 KECCAK256 PUSH0 PUSH2 0x100 EXP DUP2 SLOAD DUP2 PUSH1 0xFF MUL NOT AND SWAP1 DUP4 ISZERO ISZERO MUL OR SWAP1 SSTORE POP PUSH1 0x2 PUSH0 DUP9 DUP2 MSTORE PUSH1 0x20 ADD SWAP1 DUP2 MSTORE PUSH1 0x20 ADD PUSH0 KECCAK256 PUSH1 0x7 ADD PUSH0 DUP8 DUP2 MSTORE PUSH1 0x20 ADD SWAP1 DUP2 MSTORE PUSH1 0x20 ADD PUSH0 KECCAK256 PUSH1 0x2 ADD PUSH0 DUP2 SLOAD DUP1 SWAP3 SWAP2 SWAP1 PUSH2 0x86A SWAP1 PUSH2 0x1E87 JUMP JUMPDEST SWAP2 SWAP1 POP SSTORE POP PUSH1 0x2 PUSH0 DUP9 DUP2 MSTORE PUSH1 0x20 ADD SWAP1 DUP2 MSTORE PUSH1 0x20 ADD PUSH0 KECCAK256 PUSH1 0x5 ADD PUSH0 DUP2 SLOAD DUP1 SWAP3 SWAP2 SWAP1 PUSH2 0x893 SWAP1 PUSH2 0x1E87 JUMP JUMPDEST SWAP2 SWAP1 POP SSTORE POP PUSH1 0x2 PUSH0 DUP9 DUP2 MSTORE PUSH1 0x20 ADD SWAP1 DUP2 MSTORE PUSH1 0x20 ADD PUSH0 KECCAK256 PUSH1 0x7 ADD PUSH0 DUP8 DUP2 MSTORE PUSH1 0x20 ADD SWAP1 DUP2 MSTORE PUSH1 0x20 ADD PUSH0 KECCAK256 PUSH1 0x1 ADD SLOAD PUSH1 0x2 PUSH0 DUP10 DUP2 MSTORE PUSH1 0x20 ADD SWAP1 DUP2 MSTORE PUSH1 0x20 ADD PUSH0 KECCAK256 PUSH0 ADD SLOAD PUSH32 0xC31875EF3ED5138B71A0C1DA7E494BC4D2BA4F567084EA481EC9C45F3A93948B PUSH1 0x40 MLOAD PUSH1 0x40 MLOAD DUP1 SWAP2 SUB SWAP1 LOG3 POP POP POP POP POP POP POP JUMP JUMPDEST PUSH1 0x60 DUP1 DUP3 DUP1 PUSH0 LT DUP1 ISZERO PUSH2 0x91D JUMPI POP PUSH1 0x1 SLOAD DUP2 GT ISZERO JUMPDEST PUSH2 0x95C JUMPI PUSH1 0x40 MLOAD PUSH32 0x8C379A000000000000000000000000000000000000000000000000000000000 DUP2 MSTORE PUSH1 0x4 ADD PUSH2 0x953 SWAP1 PUSH2 0x1DAE JUMP JUMPDEST PUSH1 0x40 MLOAD DUP1 SWAP2 SUB SWAP1 REVERT JUMPDEST PUSH0 PUSH1 0x2 PUSH0 DUP7 DUP2 MSTORE PUSH1 0x20 ADD SWAP1 DUP2 MSTORE PUSH1 0x20 ADD PUSH0 KECCAK256 PUSH1 0x4 ADD SLOAD GT PUSH2 0x9B2 JUMPI PUSH1 0x40 MLOAD PUSH32 0x8C379A000000000000000000000000000000000000000000000000000000000 DUP2 MSTORE PUSH1 0x4 ADD PUSH2 0x9A9 SWAP1 PUSH2 0x237B JUMP JUMPDEST PUSH1 0x40 MLOAD DUP1 SWAP2 SUB SWAP1 REVERT JUMPDEST PUSH0 PUSH1 0x2 PUSH0 DUP7 DUP2 MSTORE PUSH1 0x20 ADD SWAP1 DUP2 MSTORE PUSH1 0x20 ADD PUSH0 KECCAK256 PUSH1 0x4 ADD SLOAD PUSH8 0xFFFFFFFFFFFFFFFF DUP2 GT ISZERO PUSH2 0x9E1 JUMPI PUSH2 0x9E0 PUSH2 0x16DC JUMP JUMPDEST JUMPDEST PUSH1 0x40 MLOAD SWAP1 DUP1 DUP3 MSTORE DUP1 PUSH1 0x20 MUL PUSH1 0x20 ADD DUP3 ADD PUSH1 0x40 MSTORE DUP1 ISZERO PUSH2 0xA0F JUMPI DUP2 PUSH1 0x20 ADD PUSH1 0x20 DUP3 MUL DUP1 CALLDATASIZE DUP4 CALLDATACOPY DUP1 DUP3 ADD SWAP2 POP POP SWAP1 POP JUMPDEST POP SWAP1 POP PUSH0 PUSH1 0x2 PUSH0 DUP8 DUP2 MSTORE PUSH1 0x20 ADD SWAP1 DUP2 MSTORE PUSH1 0x20 ADD PUSH0 KECCAK256 PUSH1 0x4 ADD SLOAD PUSH8 0xFFFFFFFFFFFFFFFF DUP2 GT ISZERO PUSH2 0xA41 JUMPI PUSH2 0xA40 PUSH2 0x16DC JUMP JUMPDEST JUMPDEST PUSH1 0x40 MLOAD SWAP1 DUP1 DUP3 MSTORE DUP1 PUSH1 0x20 MUL PUSH1 0x20 ADD DUP3 ADD PUSH1 0x40 MSTORE DUP1 ISZERO PUSH2 0xA74 JUMPI DUP2 PUSH1 0x20 ADD JUMPDEST PUSH1 0x60 DUP2 MSTORE PUSH1 0x20 ADD SWAP1 PUSH1 0x1 SWAP1 SUB SWAP1 DUP2 PUSH2 0xA5F JUMPI SWAP1 POP JUMPDEST POP SWAP1 POP PUSH0 PUSH0 SWAP1 POP JUMPDEST PUSH1 0x2 PUSH0 DUP9 DUP2 MSTORE PUSH1 0x20 ADD SWAP1 DUP2 MSTORE PUSH1 0x20 ADD PUSH0 KECCAK256 PUSH1 0x4 ADD SLOAD DUP2 LT ISZERO PUSH2 0xBA7 JUMPI PUSH1 0x1 DUP2 PUSH2 0xAA5 SWAP2 SWAP1 PUSH2 0x2399 JUMP JUMPDEST DUP4 DUP3 DUP2 MLOAD DUP2 LT PUSH2 0xAB8 JUMPI PUSH2 0xAB7 PUSH2 0x23CC JUMP JUMPDEST JUMPDEST PUSH1 0x20 MUL PUSH1 0x20 ADD ADD DUP2 DUP2 MSTORE POP POP PUSH1 0x2 PUSH0 DUP9 DUP2 MSTORE PUSH1 0x20 ADD SWAP1 DUP2 MSTORE PUSH1 0x20 ADD PUSH0 KECCAK256 PUSH1 0x7 ADD PUSH0 PUSH1 0x1 DUP4 PUSH2 0xAE6 SWAP2 SWAP1 PUSH2 0x2399 JUMP JUMPDEST DUP2 MSTORE PUSH1 0x20 ADD SWAP1 DUP2 MSTORE PUSH1 0x20 ADD PUSH0 KECCAK256 PUSH0 ADD DUP1 SLOAD PUSH2 0xB00 SWAP1 PUSH2 0x1EFB JUMP JUMPDEST DUP1 PUSH1 0x1F ADD PUSH1 0x20 DUP1 SWAP2 DIV MUL PUSH1 0x20 ADD PUSH1 0x40 MLOAD SWAP1 DUP2 ADD PUSH1 0x40 MSTORE DUP1 SWAP3 SWAP2 SWAP1 DUP2 DUP2 MSTORE PUSH1 0x20 ADD DUP3 DUP1 SLOAD PUSH2 0xB2C SWAP1 PUSH2 0x1EFB JUMP JUMPDEST DUP1 ISZERO PUSH2 0xB77 JUMPI DUP1 PUSH1 0x1F LT PUSH2 0xB4E JUMPI PUSH2 0x100 DUP1 DUP4 SLOAD DIV MUL DUP4 MSTORE SWAP2 PUSH1 0x20 ADD SWAP2 PUSH2 0xB77 JUMP JUMPDEST DUP3 ADD SWAP2 SWAP1 PUSH0 MSTORE PUSH1 0x20 PUSH0 KECCAK256 SWAP1 JUMPDEST DUP2 SLOAD DUP2 MSTORE SWAP1 PUSH1 0x1 ADD SWAP1 PUSH1 0x20 ADD DUP1 DUP4 GT PUSH2 0xB5A JUMPI DUP3 SWAP1 SUB PUSH1 0x1F AND DUP3 ADD SWAP2 JUMPDEST POP POP POP POP POP DUP3 DUP3 DUP2 MLOAD DUP2 LT PUSH2 0xB8F JUMPI PUSH2 0xB8E PUSH2 0x23CC JUMP JUMPDEST JUMPDEST PUSH1 0x20 MUL PUSH1 0x20 ADD ADD DUP2 SWAP1 MSTORE POP DUP1 DUP1 PUSH1 0x1 ADD SWAP2 POP POP PUSH2 0xA7C JUMP JUMPDEST POP DUP2 DUP2 SWAP5 POP SWAP5 POP POP POP POP SWAP2 POP SWAP2 JUMP JUMPDEST PUSH0 PUSH1 0x60 PUSH0 DUP4 DUP1 PUSH0 LT DUP1 ISZERO PUSH2 0xBCC JUMPI POP PUSH1 0x1 SLOAD DUP2 GT ISZERO JUMPDEST PUSH2 0xC0B JUMPI PUSH1 0x40 MLOAD PUSH32 0x8C379A000000000000000000000000000000000000000000000000000000000 DUP2 MSTORE PUSH1 0x4 ADD PUSH2 0xC02 SWAP1 PUSH2 0x1DAE JUMP JUMPDEST PUSH1 0x40 MLOAD DUP1 SWAP2 SUB SWAP1 REVERT JUMPDEST PUSH0 PUSH1 0x2 PUSH0 DUP8 DUP2 MSTORE PUSH1 0x20 ADD SWAP1 DUP2 MSTORE PUSH1 0x20 ADD PUSH0 KECCAK256 SWAP1 POP PUSH0 PUSH0 SWAP1 POP PUSH1 0x60 PUSH0 PUSH0 SWAP1 POP PUSH0 PUSH1 0x1 SWAP1 POP JUMPDEST DUP5 PUSH1 0x4 ADD SLOAD DUP2 GT PUSH2 0xD3C JUMPI DUP2 DUP6 PUSH1 0x7 ADD PUSH0 DUP4 DUP2 MSTORE PUSH1 0x20 ADD SWAP1 DUP2 MSTORE PUSH1 0x20 ADD PUSH0 KECCAK256 PUSH1 0x2 ADD SLOAD GT ISZERO PUSH2 0xD29 JUMPI DUP5 PUSH1 0x7 ADD PUSH0 DUP3 DUP2 MSTORE PUSH1 0x20 ADD SWAP1 DUP2 MSTORE PUSH1 0x20 ADD PUSH0 KECCAK256 PUSH1 0x1 ADD SLOAD SWAP4 POP DUP5 PUSH1 0x7 ADD PUSH0 DUP3 DUP2 MSTORE PUSH1 0x20 ADD SWAP1 DUP2 MSTORE PUSH1 0x20 ADD PUSH0 KECCAK256 PUSH0 ADD DUP1 SLOAD PUSH2 0xC91 SWAP1 PUSH2 0x1EFB JUMP JUMPDEST DUP1 PUSH1 0x1F ADD PUSH1 0x20 DUP1 SWAP2 DIV MUL PUSH1 0x20 ADD PUSH1 0x40 MLOAD SWAP1 DUP2 ADD PUSH1 0x40 MSTORE DUP1 SWAP3 SWAP2 SWAP1 DUP2 DUP2 MSTORE PUSH1 0x20 ADD DUP3 DUP1 SLOAD PUSH2 0xCBD SWAP1 PUSH2 0x1EFB JUMP JUMPDEST DUP1 ISZERO PUSH2 0xD08 JUMPI DUP1 PUSH1 0x1F LT PUSH2 0xCDF JUMPI PUSH2 0x100 DUP1 DUP4 SLOAD DIV MUL DUP4 MSTORE SWAP2 PUSH1 0x20 ADD SWAP2 PUSH2 0xD08 JUMP JUMPDEST DUP3 ADD SWAP2 SWAP1 PUSH0 MSTORE PUSH1 0x20 PUSH0 KECCAK256 SWAP1 JUMPDEST DUP2 SLOAD DUP2 MSTORE SWAP1 PUSH1 0x1 ADD SWAP1 PUSH1 0x20 ADD DUP1 DUP4 GT PUSH2 0xCEB JUMPI DUP3 SWAP1 SUB PUSH1 0x1F AND DUP3 ADD SWAP2 JUMPDEST POP POP POP POP POP SWAP3 POP DUP5 PUSH1 0x7 ADD PUSH0 DUP3 DUP2 MSTORE PUSH1 0x20 ADD SWAP1 DUP2 MSTORE PUSH1 0x20 ADD PUSH0 KECCAK256 PUSH1 0x2 ADD SLOAD SWAP2 POP JUMPDEST DUP1 DUP1 PUSH2 0xD34 SWAP1 PUSH2 0x1E87 JUMP JUMPDEST SWAP2 POP POP PUSH2 0xC2F JUMP JUMPDEST POP DUP3 DUP3 DUP3 SWAP8 POP SWAP8 POP SWAP8 POP POP POP POP POP POP SWAP2 SWAP4 SWAP1 SWAP3 POP JUMP JUMPDEST PUSH0 PUSH1 0x60 PUSH0 DUP5 DUP1 PUSH0 LT DUP1 ISZERO PUSH2 0xD68 JUMPI POP PUSH1 0x1 SLOAD DUP2 GT ISZERO JUMPDEST PUSH2 0xDA7 JUMPI PUSH1 0x40 MLOAD PUSH32 0x8C379A000000000000000000000000000000000000000000000000000000000 DUP2 MSTORE PUSH1 0x4 ADD PUSH2 0xD9E SWAP1 PUSH2 0x1DAE JUMP JUMPDEST PUSH1 0x40 MLOAD DUP1 SWAP2 SUB SWAP1 REVERT JUMPDEST DUP6 DUP6 PUSH0 DUP2 GT DUP1 ISZERO PUSH2 0xDCC JUMPI POP PUSH1 0x2 PUSH0 DUP4 DUP2 MSTORE PUSH1 0x20 ADD SWAP1 DUP2 MSTORE PUSH1 0x20 ADD PUSH0 KECCAK256 PUSH1 0x4 ADD SLOAD DUP2 GT ISZERO JUMPDEST PUSH2 0xE0B JUMPI PUSH1 0x40 MLOAD PUSH32 0x8C379A000000000000000000000000000000000000000000000000000000000 DUP2 MSTORE PUSH1 0x4 ADD PUSH2 0xE02 SWAP1 PUSH2 0x2285 JUMP JUMPDEST PUSH1 0x40 MLOAD DUP1 SWAP2 SUB SWAP1 REVERT JUMPDEST PUSH1 0x2 PUSH0 DUP10 DUP2 MSTORE PUSH1 0x20 ADD SWAP1 DUP2 MSTORE PUSH1 0x20 ADD PUSH0 KECCAK256 PUSH1 0x7 ADD PUSH0 DUP9 DUP2 MSTORE PUSH1 0x20 ADD SWAP1 DUP2 MSTORE PUSH1 0x20 ADD PUSH0 KECCAK256 PUSH1 0x1 ADD SLOAD PUSH1 0x2 PUSH0 DUP11 DUP2 MSTORE PUSH1 0x20 ADD SWAP1 DUP2 MSTORE PUSH1 0x20 ADD PUSH0 KECCAK256 PUSH1 0x7 ADD PUSH0 DUP10 DUP2 MSTORE PUSH1 0x20 ADD SWAP1 DUP2 MSTORE PUSH1 0x20 ADD PUSH0 KECCAK256 PUSH0 ADD PUSH1 0x2 PUSH0 DUP12 DUP2 MSTORE PUSH1 0x20 ADD SWAP1 DUP2 MSTORE PUSH1 0x20 ADD PUSH0 KECCAK256 PUSH1 0x7 ADD PUSH0 DUP11 DUP2 MSTORE PUSH1 0x20 ADD SWAP1 DUP2 MSTORE PUSH1 0x20 ADD PUSH0 KECCAK256 PUSH1 0x2 ADD SLOAD DUP2 DUP1 SLOAD PUSH2 0xE8A SWAP1 PUSH2 0x1EFB JUMP JUMPDEST DUP1 PUSH1 0x1F ADD PUSH1 0x20 DUP1 SWAP2 DIV MUL PUSH1 0x20 ADD PUSH1 0x40 MLOAD SWAP1 DUP2 ADD PUSH1 0x40 MSTORE DUP1 SWAP3 SWAP2 SWAP1 DUP2 DUP2 MSTORE PUSH1 0x20 ADD DUP3 DUP1 SLOAD PUSH2 0xEB6 SWAP1 PUSH2 0x1EFB JUMP JUMPDEST DUP1 ISZERO PUSH2 0xF01 JUMPI DUP1 PUSH1 0x1F LT PUSH2 0xED8 JUMPI PUSH2 0x100 DUP1 DUP4 SLOAD DIV MUL DUP4 MSTORE SWAP2 PUSH1 0x20 ADD SWAP2 PUSH2 0xF01 JUMP JUMPDEST DUP3 ADD SWAP2 SWAP1 PUSH0 MSTORE PUSH1 0x20 PUSH0 KECCAK256 SWAP1 JUMPDEST DUP2 SLOAD DUP2 MSTORE SWAP1 PUSH1 0x1 ADD SWAP1 PUSH1 0x20 ADD DUP1 DUP4 GT PUSH2 0xEE4 JUMPI DUP3 SWAP1 SUB PUSH1 0x1F AND DUP3 ADD SWAP2 JUMPDEST POP POP POP POP POP SWAP2 POP SWAP6 POP SWAP6 POP SWAP6 POP POP POP POP SWAP3 POP SWAP3 POP SWAP3 JUMP JUMPDEST PUSH1 0x2 PUSH1 0x20 MSTORE DUP1 PUSH0 MSTORE PUSH1 0x40 PUSH0 KECCAK256 PUSH0 SWAP2 POP SWAP1 POP DUP1 PUSH0 ADD SLOAD SWAP1 DUP1 PUSH1 0x1 ADD PUSH0 SWAP1 SLOAD SWAP1 PUSH2 0x100 EXP SWAP1 DIV PUSH1 0xFF AND SWAP1 DUP1 PUSH1 0x2 ADD DUP1 SLOAD PUSH2 0xF4F SWAP1 PUSH2 0x1EFB JUMP JUMPDEST DUP1 PUSH1 0x1F ADD PUSH1 0x20 DUP1 SWAP2 DIV MUL PUSH1 0x20 ADD PUSH1 0x40 MLOAD SWAP1 DUP2 ADD PUSH1 0x40 MSTORE DUP1 SWAP3 SWAP2 SWAP1 DUP2 DUP2 MSTORE PUSH1 0x20 ADD DUP3 DUP1 SLOAD PUSH2 0xF7B SWAP1 PUSH2 0x1EFB JUMP JUMPDEST DUP1 ISZERO PUSH2 0xFC6 JUMPI DUP1 PUSH1 0x1F LT PUSH2 0xF9D JUMPI PUSH2 0x100 DUP1 DUP4 SLOAD DIV MUL DUP4 MSTORE SWAP2 PUSH1 0x20 ADD SWAP2 PUSH2 0xFC6 JUMP JUMPDEST DUP3 ADD SWAP2 SWAP1 PUSH0 MSTORE PUSH1 0x20 PUSH0 KECCAK256 SWAP1 JUMPDEST DUP2 SLOAD DUP2 MSTORE SWAP1 PUSH1 0x1 ADD SWAP1 PUSH1 0x20 ADD DUP1 DUP4 GT PUSH2 0xFA9 JUMPI DUP3 SWAP1 SUB PUSH1 0x1F AND DUP3 ADD SWAP2 JUMPDEST POP POP POP POP POP SWAP1 DUP1 PUSH1 0x3 ADD SLOAD SWAP1 DUP1 PUSH1 0x4 ADD SLOAD SWAP1 DUP1 PUSH1 0x5 ADD SLOAD SWAP1 POP DUP7 JUMP JUMPDEST CALLER PUSH20 0xFFFFFFFFFFFFFFFFFFFFFFFFFFFFFFFFFFFFFFFF AND PUSH0 PUSH0 SWAP1 SLOAD SWAP1 PUSH2 0x100 EXP SWAP1 DIV PUSH20 0xFFFFFFFFFFFFFFFFFFFFFFFFFFFFFFFFFFFFFFFF AND PUSH20 0xFFFFFFFFFFFFFFFFFFFFFFFFFFFFFFFFFFFFFFFF AND EQ PUSH2 0x1070 JUMPI PUSH1 0x40 MLOAD PUSH32 0x8C379A000000000000000000000000000000000000000000000000000000000 DUP2 MSTORE PUSH1 0x4 ADD PUSH2 0x1067 SWAP1 PUSH2 0x1D46 JUMP JUMPDEST PUSH1 0x40 MLOAD DUP1 SWAP2 SUB SWAP1 REVERT JUMPDEST PUSH1 0x1 PUSH0 DUP2 SLOAD DUP1 SWAP3 SWAP2 SWAP1 PUSH2 0x1082 SWAP1 PUSH2 0x1E87 JUMP JUMPDEST SWAP2 SWAP1 POP SSTORE POP PUSH0 PUSH1 0x2 PUSH0 PUSH1 0x1 SLOAD DUP2 MSTORE PUSH1 0x20 ADD SWAP1 DUP2 MSTORE PUSH1 0x20 ADD PUSH0 KECCAK256 SWAP1 POP DUP3 DUP2 PUSH1 0x2 ADD SWAP1 DUP2 PUSH2 0x10AE SWAP2 SWAP1 PUSH2 0x20CB JUMP JUMPDEST POP PUSH1 0x1 SLOAD DUP2 PUSH0 ADD DUP2 SWAP1 SSTORE POP PUSH1 0x1 DUP2 PUSH1 0x1 ADD PUSH0 PUSH2 0x100 EXP DUP2 SLOAD DUP2 PUSH1 0xFF MUL NOT AND SWAP1 DUP4 ISZERO ISZERO MUL OR SWAP1 SSTORE POP DUP2 TIMESTAMP PUSH2 0x10E1 SWAP2 SWAP1 PUSH2 0x2399 JUMP JUMPDEST DUP2 PUSH1 0x3 ADD DUP2 SWAP1 SSTORE POP PUSH0 DUP2 PUSH1 0x4 ADD DUP2 SWAP1 SSTORE POP DUP1 PUSH0 ADD SLOAD PUSH32 0x43131521170C5B80FFE9526CFEC987F5A24EB1F6C4BDA47C41A5E4B8388AFE5C DUP3 PUSH1 0x2 ADD DUP4 PUSH1 0x3 ADD SLOAD PUSH1 0x40 MLOAD PUSH2 0x112E SWAP3 SWAP2 SWAP1 PUSH2 0x23F9 JUMP JUMPDEST PUSH1 0x40 MLOAD DUP1 SWAP2 SUB SWAP1 LOG2 POP POP POP JUMP JUMPDEST PUSH1 0x1 SLOAD DUP2 JUMP JUMPDEST PUSH0 PUSH1 0x60 PUSH0 CALLER PUSH20 0xFFFFFFFFFFFFFFFFFFFFFFFFFFFFFFFFFFFFFFFF AND PUSH0 PUSH0 SWAP1 SLOAD SWAP1 PUSH2 0x100 EXP SWAP1 DIV PUSH20 0xFFFFFFFFFFFFFFFFFFFFFFFFFFFFFFFFFFFFFFFF AND PUSH20 0xFFFFFFFFFFFFFFFFFFFFFFFFFFFFFFFFFFFFFFFF AND EQ PUSH2 0x11D3 JUMPI PUSH1 0x40 MLOAD PUSH32 0x8C379A000000000000000000000000000000000000000000000000000000000 DUP2 MSTORE PUSH1 0x4 ADD PUSH2 0x11CA SWAP1 PUSH2 0x1D46 JUMP JUMPDEST PUSH1 0x40 MLOAD DUP1 SWAP2 SUB SWAP1 REVERT JUMPDEST DUP4 DUP1 PUSH0 LT DUP1 ISZERO PUSH2 0x11E5 JUMPI POP PUSH1 0x1 SLOAD DUP2 GT ISZERO JUMPDEST PUSH2 0x1224 JUMPI PUSH1 0x40 MLOAD PUSH32 0x8C379A000000000000000000000000000000000000000000000000000000000 DUP2 MSTORE PUSH1 0x4 ADD PUSH2 0x121B SWAP1 PUSH2 0x1DAE JUMP JUMPDEST PUSH1 0x40 MLOAD DUP1 SWAP2 SUB SWAP1 REVERT JUMPDEST DUP5 PUSH1 0x1 ISZERO ISZERO PUSH1 0x2 PUSH0 DUP4 DUP2 MSTORE PUSH1 0x20 ADD SWAP1 DUP2 MSTORE PUSH1 0x20 ADD PUSH0 KECCAK256 PUSH1 0x1 ADD PUSH0 SWAP1 SLOAD SWAP1 PUSH2 0x100 EXP SWAP1 DIV PUSH1 0xFF AND ISZERO ISZERO EQ DUP1 ISZERO PUSH2 0x126D JUMPI POP TIMESTAMP PUSH1 0x2 PUSH0 DUP4 DUP2 MSTORE PUSH1 0x20 ADD SWAP1 DUP2 MSTORE PUSH1 0x20 ADD PUSH0 KECCAK256 PUSH1 0x3 ADD SLOAD LT ISZERO JUMPDEST PUSH2 0x12AC JUMPI PUSH1 0x40 MLOAD PUSH32 0x8C379A000000000000000000000000000000000000000000000000000000000 DUP2 MSTORE PUSH1 0x4 ADD PUSH2 0x12A3 SWAP1 PUSH2 0x1E3C JUMP JUMPDEST PUSH1 0x40 MLOAD DUP1 SWAP2 SUB SWAP1 REVERT JUMPDEST PUSH0 PUSH1 0x2 PUSH0 DUP9 DUP2 MSTORE PUSH1 0x20 ADD SWAP1 DUP2 MSTORE PUSH1 0x20 ADD PUSH0 KECCAK256 SWAP1 POP PUSH0 DUP2 PUSH1 0x1 ADD PUSH0 PUSH2 0x100 EXP DUP2 SLOAD DUP2 PUSH1 0xFF MUL NOT AND SWAP1 DUP4 ISZERO ISZERO MUL OR SWAP1 SSTORE POP PUSH0 PUSH0 SWAP1 POP PUSH1 0x60 PUSH0 PUSH0 SWAP1 POP PUSH0 PUSH1 0x1 SWAP1 POP JUMPDEST DUP5 PUSH1 0x4 ADD SLOAD DUP2 GT PUSH2 0x13F8 JUMPI DUP2 DUP6 PUSH1 0x7 ADD PUSH0 DUP4 DUP2 MSTORE PUSH1 0x20 ADD SWAP1 DUP2 MSTORE PUSH1 0x20 ADD PUSH0 KECCAK256 PUSH1 0x2 ADD SLOAD GT ISZERO PUSH2 0x13E5 JUMPI DUP5 PUSH1 0x7 ADD PUSH0 DUP3 DUP2 MSTORE PUSH1 0x20 ADD SWAP1 DUP2 MSTORE PUSH1 0x20 ADD PUSH0 KECCAK256 PUSH1 0x1 ADD SLOAD SWAP4 POP DUP5 PUSH1 0x7 ADD PUSH0 DUP3 DUP2 MSTORE PUSH1 0x20 ADD SWAP1 DUP2 MSTORE PUSH1 0x20 ADD PUSH0 KECCAK256 PUSH0 ADD DUP1 SLOAD PUSH2 0x134D SWAP1 PUSH2 0x1EFB JUMP JUMPDEST DUP1 PUSH1 0x1F ADD PUSH1 0x20 DUP1 SWAP2 DIV MUL PUSH1 0x20 ADD PUSH1 0x40 MLOAD SWAP1 DUP2 ADD PUSH1 0x40 MSTORE DUP1 SWAP3 SWAP2 SWAP1 DUP2 DUP2 MSTORE PUSH1 0x20 ADD DUP3 DUP1 SLOAD PUSH2 0x1379 SWAP1 PUSH2 0x1EFB JUMP JUMPDEST DUP1 ISZERO PUSH2 0x13C4 JUMPI DUP1 PUSH1 0x1F LT PUSH2 0x139B JUMPI PUSH2 0x100 DUP1 DUP4 SLOAD DIV MUL DUP4 MSTORE SWAP2 PUSH1 0x20 ADD SWAP2 PUSH2 0x13C4 JUMP JUMPDEST DUP3 ADD SWAP2 SWAP1 PUSH0 MSTORE PUSH1 0x20 PUSH0 KECCAK256 SWAP1 JUMPDEST DUP2 SLOAD DUP2 MSTORE SWAP1 PUSH1 0x1 ADD SWAP1 PUSH1 0x20 ADD DUP1 DUP4 GT PUSH2 0x13A7 JUMPI DUP3 SWAP1 SUB PUSH1 0x1F AND DUP3 ADD SWAP2 JUMPDEST POP POP POP POP POP SWAP3 POP DUP5 PUSH1 0x7 ADD PUSH0 DUP3 DUP2 MSTORE PUSH1 0x20 ADD SWAP1 DUP2 MSTORE PUSH1 0x20 ADD PUSH0 KECCAK256 PUSH1 0x2 ADD SLOAD SWAP2 POP JUMPDEST DUP1 DUP1 PUSH2 0x13F0 SWAP1 PUSH2 0x1E87 JUMP JUMPDEST SWAP2 POP POP PUSH2 0x12EB JUMP JUMPDEST POP PUSH32 0x3B6C4D7E2CEF081634247CFAC8D389FCAE0AE5780D888244DF410080EFA0BEC3 DUP5 PUSH0 ADD SLOAD DUP6 PUSH1 0x2 ADD DUP6 DUP6 DUP6 DUP10 PUSH1 0x5 ADD SLOAD PUSH1 0x40 MLOAD PUSH2 0x143C SWAP7 SWAP6 SWAP5 SWAP4 SWAP3 SWAP2 SWAP1 PUSH2 0x2427 JUMP JUMPDEST PUSH1 0x40 MLOAD DUP1 SWAP2 SUB SWAP1 LOG1 DUP3 DUP3 DUP3 SWAP9 POP SWAP9 POP SWAP9 POP POP POP POP POP POP POP SWAP2 SWAP4 SWAP1 SWAP3 POP JUMP JUMPDEST PUSH1 0x60 DUP1 PUSH0 PUSH1 0x1 SLOAD GT PUSH2 0x14A1 JUMPI PUSH1 0x40 MLOAD PUSH32 0x8C379A000000000000000000000000000000000000000000000000000000000 DUP2 MSTORE PUSH1 0x4 ADD PUSH2 0x1498 SWAP1 PUSH2 0x2504 JUMP JUMPDEST PUSH1 0x40 MLOAD DUP1 SWAP2 SUB SWAP1 REVERT JUMPDEST PUSH0 PUSH1 0x1 SLOAD PUSH8 0xFFFFFFFFFFFFFFFF DUP2 GT ISZERO PUSH2 0x14BE JUMPI PUSH2 0x14BD PUSH2 0x16DC JUMP JUMPDEST JUMPDEST PUSH1 0x40 MLOAD SWAP1 DUP1 DUP3 MSTORE DUP1 PUSH1 0x20 MUL PUSH1 0x20 ADD DUP3 ADD PUSH1 0x40 MSTORE DUP1 ISZERO PUSH2 0x14EC JUMPI DUP2 PUSH1 0x20 ADD PUSH1 0x20 DUP3 MUL DUP1 CALLDATASIZE DUP4 CALLDATACOPY DUP1 DUP3 ADD SWAP2 POP POP SWAP1 POP JUMPDEST POP SWAP1 POP PUSH0 PUSH1 0x1 SLOAD PUSH8 0xFFFFFFFFFFFFFFFF DUP2 GT ISZERO PUSH2 0x150C JUMPI PUSH2 0x150B PUSH2 0x16DC JUMP JUMPDEST JUMPDEST PUSH1 0x40 MLOAD SWAP1 DUP1 DUP3 MSTORE DUP1 PUSH1 0x20 MUL PUSH1 0x20 ADD DUP3 ADD PUSH1 0x40 MSTORE DUP1 ISZERO PUSH2 0x153F JUMPI DUP2 PUSH1 0x20 ADD JUMPDEST PUSH1 0x60 DUP2 MSTORE PUSH1 0x20 ADD SWAP1 PUSH1 0x1 SWAP1 SUB SWAP1 DUP2 PUSH2 0x152A JUMPI SWAP1 POP JUMPDEST POP SWAP1 POP PUSH0 PUSH0 SWAP1 POP JUMPDEST PUSH1 0x1 SLOAD DUP2 LT ISZERO PUSH2 0x164F JUMPI PUSH1 0x1 DUP2 PUSH2 0x155E SWAP2 SWAP1 PUSH2 0x2399 JUMP JUMPDEST DUP4 DUP3 DUP2 MLOAD DUP2 LT PUSH2 0x1571 JUMPI PUSH2 0x1570 PUSH2 0x23CC JUMP JUMPDEST JUMPDEST PUSH1 0x20 MUL PUSH1 0x20 ADD ADD DUP2 DUP2 MSTORE POP POP PUSH1 0x2 PUSH0 PUSH1 0x1 DUP4 PUSH2 0x158D SWAP2 SWAP1 PUSH2 0x2399 JUMP JUMPDEST DUP2 MSTORE PUSH1 0x20 ADD SWAP1 DUP2 MSTORE PUSH1 0x20 ADD PUSH0 KECCAK256 PUSH1 0x2 ADD DUP1 SLOAD PUSH2 0x15A8 SWAP1 PUSH2 0x1EFB JUMP JUMPDEST DUP1 PUSH1 0x1F ADD PUSH1 0x20 DUP1 SWAP2 DIV MUL PUSH1 0x20 ADD PUSH1 0x40 MLOAD SWAP1 DUP2 ADD PUSH1 0x40 MSTORE DUP1 SWAP3 SWAP2 SWAP1 DUP2 DUP2 MSTORE PUSH1 0x20 ADD DUP3 DUP1 SLOAD PUSH2 0x15D4 SWAP1 PUSH2 0x1EFB JUMP JUMPDEST DUP1 ISZERO PUSH2 0x161F JUMPI DUP1 PUSH1 0x1F LT PUSH2 0x15F6 JUMPI PUSH2 0x100 DUP1 DUP4 SLOAD DIV MUL DUP4 MSTORE SWAP2 PUSH1 0x20 ADD SWAP2 PUSH2 0x161F JUMP JUMPDEST DUP3 ADD SWAP2 SWAP1 PUSH0 MSTORE PUSH1 0x20 PUSH0 KECCAK256 SWAP1 JUMPDEST DUP2 SLOAD DUP2 MSTORE SWAP1 PUSH1 0x1 ADD SWAP1 PUSH1 0x20 ADD DUP1 DUP4 GT PUSH2 0x1602 JUMPI DUP3 SWAP1 SUB PUSH1 0x1F AND DUP3 ADD SWAP2 JUMPDEST POP POP POP POP POP DUP3 DUP3 DUP2 MLOAD DUP2 LT PUSH2 0x1637 JUMPI PUSH2 0x1636 PUSH2 0x23CC JUMP JUMPDEST JUMPDEST PUSH1 0x20 MUL PUSH1 0x20 ADD ADD DUP2 SWAP1 MSTORE POP DUP1 DUP1 PUSH1 0x1 ADD SWAP2 POP POP PUSH2 0x1547 JUMP JUMPDEST POP DUP2 DUP2 SWAP4 POP SWAP4 POP POP POP SWAP1 SWAP2 JUMP JUMPDEST PUSH0 PUSH0 SWAP1 SLOAD SWAP1 PUSH2 0x100 EXP SWAP1 DIV PUSH20 0xFFFFFFFFFFFFFFFFFFFFFFFFFFFFFFFFFFFFFFFF AND DUP2 JUMP JUMPDEST PUSH0 PUSH1 0x40 MLOAD SWAP1 POP SWAP1 JUMP JUMPDEST PUSH0 PUSH0 REVERT JUMPDEST PUSH0 PUSH0 REVERT JUMPDEST PUSH0 DUP2 SWAP1 POP SWAP2 SWAP1 POP JUMP JUMPDEST PUSH2 0x16A3 DUP2 PUSH2 0x1691 JUMP JUMPDEST DUP2 EQ PUSH2 0x16AD JUMPI PUSH0 PUSH0 REVERT JUMPDEST POP JUMP JUMPDEST PUSH0 DUP2 CALLDATALOAD SWAP1 POP PUSH2 0x16BE DUP2 PUSH2 0x169A JUMP JUMPDEST SWAP3 SWAP2 POP POP JUMP JUMPDEST PUSH0 PUSH0 REVERT JUMPDEST PUSH0 PUSH0 REVERT JUMPDEST PUSH0 PUSH1 0x1F NOT PUSH1 0x1F DUP4 ADD AND SWAP1 POP SWAP2 SWAP1 POP JUMP JUMPDEST PUSH32 0x4E487B7100000000000000000000000000000000000000000000000000000000 PUSH0 MSTORE PUSH1 0x41 PUSH1 0x4 MSTORE PUSH1 0x24 PUSH0 REVERT JUMPDEST PUSH2 0x1712 DUP3 PUSH2 0x16CC JUMP JUMPDEST DUP2 ADD DUP2 DUP2 LT PUSH8 0xFFFFFFFFFFFFFFFF DUP3 GT OR ISZERO PUSH2 0x1731 JUMPI PUSH2 0x1730 PUSH2 0x16DC JUMP JUMPDEST JUMPDEST DUP1 PUSH1 0x40 MSTORE POP POP POP JUMP JUMPDEST PUSH0 PUSH2 0x1743 PUSH2 0x1680 JUMP JUMPDEST SWAP1 POP PUSH2 0x174F DUP3 DUP3 PUSH2 0x1709 JUMP JUMPDEST SWAP2 SWAP1 POP JUMP JUMPDEST PUSH0 PUSH8 0xFFFFFFFFFFFFFFFF DUP3 GT ISZERO PUSH2 0x176E JUMPI PUSH2 0x176D PUSH2 0x16DC JUMP JUMPDEST JUMPDEST PUSH2 0x1777 DUP3 PUSH2 0x16CC JUMP JUMPDEST SWAP1 POP PUSH1 0x20 DUP2 ADD SWAP1 POP SWAP2 SWAP1 POP JUMP JUMPDEST DUP3 DUP2 DUP4 CALLDATACOPY PUSH0 DUP4 DUP4 ADD MSTORE POP POP POP JUMP JUMPDEST PUSH0 PUSH2 0x17A4 PUSH2 0x179F DUP5 PUSH2 0x1754 JUMP JUMPDEST PUSH2 0x173A JUMP JUMPDEST SWAP1 POP DUP3 DUP2 MSTORE PUSH1 0x20 DUP2 ADD DUP5 DUP5 DUP5 ADD GT ISZERO PUSH2 0x17C0 JUMPI PUSH2 0x17BF PUSH2 0x16C8 JUMP JUMPDEST JUMPDEST PUSH2 0x17CB DUP5 DUP3 DUP6 PUSH2 0x1784 JUMP JUMPDEST POP SWAP4 SWAP3 POP POP POP JUMP JUMPDEST PUSH0 DUP3 PUSH1 0x1F DUP4 ADD SLT PUSH2 0x17E7 JUMPI PUSH2 0x17E6 PUSH2 0x16C4 JUMP JUMPDEST JUMPDEST DUP2 CALLDATALOAD PUSH2 0x17F7 DUP5 DUP3 PUSH1 0x20 DUP7 ADD PUSH2 0x1792 JUMP JUMPDEST SWAP2 POP POP SWAP3 SWAP2 POP POP JUMP JUMPDEST PUSH0 PUSH0 PUSH1 0x40 DUP4 DUP6 SUB SLT ISZERO PUSH2 0x1816 JUMPI PUSH2 0x1815 PUSH2 0x1689 JUMP JUMPDEST JUMPDEST PUSH0 PUSH2 0x1823 DUP6 DUP3 DUP7 ADD PUSH2 0x16B0 JUMP JUMPDEST SWAP3 POP POP PUSH1 0x20 DUP4 ADD CALLDATALOAD PUSH8 0xFFFFFFFFFFFFFFFF DUP2 GT ISZERO PUSH2 0x1844 JUMPI PUSH2 0x1843 PUSH2 0x168D JUMP JUMPDEST JUMPDEST PUSH2 0x1850 DUP6 DUP3 DUP7 ADD PUSH2 0x17D3 JUMP JUMPDEST SWAP2 POP POP SWAP3 POP SWAP3 SWAP1 POP JUMP JUMPDEST PUSH0 PUSH1 0x20 DUP3 DUP5 SUB SLT ISZERO PUSH2 0x186F JUMPI PUSH2 0x186E PUSH2 0x1689 JUMP JUMPDEST JUMPDEST PUSH0 PUSH2 0x187C DUP5 DUP3 DUP6 ADD PUSH2 0x16B0 JUMP JUMPDEST SWAP2 POP POP SWAP3 SWAP2 POP POP JUMP JUMPDEST PUSH0 DUP2 MLOAD SWAP1 POP SWAP2 SWAP1 POP JUMP JUMPDEST PUSH0 DUP3 DUP3 MSTORE PUSH1 0x20 DUP3 ADD SWAP1 POP SWAP3 SWAP2 POP POP JUMP JUMPDEST DUP3 DUP2 DUP4 MCOPY PUSH0 DUP4 DUP4 ADD MSTORE POP POP POP JUMP JUMPDEST PUSH0 PUSH2 0x18B7 DUP3 PUSH2 0x1885 JUMP JUMPDEST PUSH2 0x18C1 DUP2 DUP6 PUSH2 0x188F JUMP JUMPDEST SWAP4 POP PUSH2 0x18D1 DUP2 DUP6 PUSH1 0x20 DUP7 ADD PUSH2 0x189F JUMP JUMPDEST PUSH2 0x18DA DUP2 PUSH2 0x16CC JUMP JUMPDEST DUP5 ADD SWAP2 POP POP SWAP3 SWAP2 POP POP JUMP JUMPDEST PUSH2 0x18EE DUP2 PUSH2 0x1691 JUMP JUMPDEST DUP3 MSTORE POP POP JUMP JUMPDEST PUSH0 PUSH1 0x40 DUP3 ADD SWAP1 POP DUP2 DUP2 SUB PUSH0 DUP4 ADD MSTORE PUSH2 0x190C DUP2 DUP6 PUSH2 0x18AD JUMP JUMPDEST SWAP1 POP PUSH2 0x191B PUSH1 0x20 DUP4 ADD DUP5 PUSH2 0x18E5 JUMP JUMPDEST SWAP4 SWAP3 POP POP POP JUMP JUMPDEST PUSH0 PUSH0 PUSH1 0x40 DUP4 DUP6 SUB SLT ISZERO PUSH2 0x1938 JUMPI PUSH2 0x1937 PUSH2 0x1689 JUMP JUMPDEST JUMPDEST PUSH0 PUSH2 0x1945 DUP6 DUP3 DUP7 ADD PUSH2 0x16B0 JUMP JUMPDEST SWAP3 POP POP PUSH1 0x20 PUSH2 0x1956 DUP6 DUP3 DUP7 ADD PUSH2 0x16B0 JUMP JUMPDEST SWAP2 POP POP SWAP3 POP SWAP3 SWAP1 POP JUMP JUMPDEST PUSH0 DUP2 MLOAD SWAP1 POP SWAP2 SWAP1 POP JUMP JUMPDEST PUSH0 DUP3 DUP3 MSTORE PUSH1 0x20 DUP3 ADD SWAP1 POP SWAP3 SWAP2 POP POP JUMP JUMPDEST PUSH0 DUP2 SWAP1 POP PUSH1 0x20 DUP3 ADD SWAP1 POP SWAP2 SWAP1 POP JUMP JUMPDEST PUSH2 0x1992 DUP2 PUSH2 0x1691 JUMP JUMPDEST DUP3 MSTORE POP POP JUMP JUMPDEST PUSH0 PUSH2 0x19A3 DUP4 DUP4 PUSH2 0x1989 JUMP JUMPDEST PUSH1 0x20 DUP4 ADD SWAP1 POP SWAP3 SWAP2 POP POP JUMP JUMPDEST PUSH0 PUSH1 0x20 DUP3 ADD SWAP1 POP SWAP2 SWAP1 POP JUMP JUMPDEST PUSH0 PUSH2 0x19C5 DUP3 PUSH2 0x1960 JUMP JUMPDEST PUSH2 0x19CF DUP2 DUP6 PUSH2 0x196A JUMP JUMPDEST SWAP4 POP PUSH2 0x19DA DUP4 PUSH2 0x197A JUMP JUMPDEST DUP1 PUSH0 JUMPDEST DUP4 DUP2 LT ISZERO PUSH2 0x1A0A JUMPI DUP2 MLOAD PUSH2 0x19F1 DUP9 DUP3 PUSH2 0x1998 JUMP JUMPDEST SWAP8 POP PUSH2 0x19FC DUP4 PUSH2 0x19AF JUMP JUMPDEST SWAP3 POP POP PUSH1 0x1 DUP2 ADD SWAP1 POP PUSH2 0x19DD JUMP JUMPDEST POP DUP6 SWAP4 POP POP POP POP SWAP3 SWAP2 POP POP JUMP JUMPDEST PUSH0 DUP2 MLOAD SWAP1 POP SWAP2 SWAP1 POP JUMP JUMPDEST PUSH0 DUP3 DUP3 MSTORE PUSH1 0x20 DUP3 ADD SWAP1 POP SWAP3 SWAP2 POP POP JUMP JUMPDEST PUSH0 DUP2 SWAP1 POP PUSH1 0x20 DUP3 ADD SWAP1 POP SWAP2 SWAP1 POP JUMP JUMPDEST PUSH0 DUP3 DUP3 MSTORE PUSH1 0x20 DUP3 ADD SWAP1 POP SWAP3 SWAP2 POP POP JUMP JUMPDEST PUSH0 PUSH2 0x1A5A DUP3 PUSH2 0x1885 JUMP JUMPDEST PUSH2 0x1A64 DUP2 DUP6 PUSH2 0x1A40 JUMP JUMPDEST SWAP4 POP PUSH2 0x1A74 DUP2 DUP6 PUSH1 0x20 DUP7 ADD PUSH2 0x189F JUMP JUMPDEST PUSH2 0x1A7D DUP2 PUSH2 0x16CC JUMP JUMPDEST DUP5 ADD SWAP2 POP POP SWAP3 SWAP2 POP POP JUMP JUMPDEST PUSH0 PUSH2 0x1A93 DUP4 DUP4 PUSH2 0x1A50 JUMP JUMPDEST SWAP1 POP SWAP3 SWAP2 POP POP JUMP JUMPDEST PUSH0 PUSH1 0x20 DUP3 ADD SWAP1 POP SWAP2 SWAP1 POP JUMP JUMPDEST PUSH0 PUSH2 0x1AB1 DUP3 PUSH2 0x1A17 JUMP JUMPDEST PUSH2 0x1ABB DUP2 DUP6 PUSH2 0x1A21 JUMP JUMPDEST SWAP4 POP DUP4 PUSH1 0x20 DUP3 MUL DUP6 ADD PUSH2 0x1ACD DUP6 PUSH2 0x1A31 JUMP JUMPDEST DUP1 PUSH0 JUMPDEST DUP6 DUP2 LT ISZERO PUSH2 0x1B08 JUMPI DUP5 DUP5 SUB DUP10 MSTORE DUP2 MLOAD PUSH2 0x1AE9 DUP6 DUP3 PUSH2 0x1A88 JUMP JUMPDEST SWAP5 POP PUSH2 0x1AF4 DUP4 PUSH2 0x1A9B JUMP JUMPDEST SWAP3 POP PUSH1 0x20 DUP11 ADD SWAP10 POP POP PUSH1 0x1 DUP2 ADD SWAP1 POP PUSH2 0x1AD0 JUMP JUMPDEST POP DUP3 SWAP8 POP DUP8 SWAP6 POP POP POP POP POP POP SWAP3 SWAP2 POP POP JUMP JUMPDEST PUSH0 PUSH1 0x40 DUP3 ADD SWAP1 POP DUP2 DUP2 SUB PUSH0 DUP4 ADD MSTORE PUSH2 0x1B32 DUP2 DUP6 PUSH2 0x19BB JUMP JUMPDEST SWAP1 POP DUP2 DUP2 SUB PUSH1 0x20 DUP4 ADD MSTORE PUSH2 0x1B46 DUP2 DUP5 PUSH2 0x1AA7 JUMP JUMPDEST SWAP1 POP SWAP4 SWAP3 POP POP POP JUMP JUMPDEST PUSH0 PUSH1 0x60 DUP3 ADD SWAP1 POP PUSH2 0x1B62 PUSH0 DUP4 ADD DUP7 PUSH2 0x18E5 JUMP JUMPDEST DUP2 DUP2 SUB PUSH1 0x20 DUP4 ADD MSTORE PUSH2 0x1B74 DUP2 DUP6 PUSH2 0x18AD JUMP JUMPDEST SWAP1 POP PUSH2 0x1B83 PUSH1 0x40 DUP4 ADD DUP5 PUSH2 0x18E5 JUMP JUMPDEST SWAP5 SWAP4 POP POP POP POP JUMP JUMPDEST PUSH0 DUP2 ISZERO ISZERO SWAP1 POP SWAP2 SWAP1 POP JUMP JUMPDEST PUSH2 0x1B9F DUP2 PUSH2 0x1B8B JUMP JUMPDEST DUP3 MSTORE POP POP JUMP JUMPDEST PUSH0 PUSH1 0xC0 DUP3 ADD SWAP1 POP PUSH2 0x1BB8 PUSH0 DUP4 ADD DUP10 PUSH2 0x18E5 JUMP JUMPDEST PUSH2 0x1BC5 PUSH1 0x20 DUP4 ADD DUP9 PUSH2 0x1B96 JUMP JUMPDEST DUP2 DUP2 SUB PUSH1 0x40 DUP4 ADD MSTORE PUSH2 0x1BD7 DUP2 DUP8 PUSH2 0x18AD JUMP JUMPDEST SWAP1 POP PUSH2 0x1BE6 PUSH1 0x60 DUP4 ADD DUP7 PUSH2 0x18E5 JUMP JUMPDEST PUSH2 0x1BF3 PUSH1 0x80 DUP4 ADD DUP6 PUSH2 0x18E5 JUMP JUMPDEST PUSH2 0x1C00 PUSH1 0xA0 DUP4 ADD DUP5 PUSH2 0x18E5 JUMP JUMPDEST SWAP8 SWAP7 POP POP POP POP POP POP POP JUMP JUMPDEST PUSH0 PUSH0 PUSH1 0x40 DUP4 DUP6 SUB SLT ISZERO PUSH2 0x1C21 JUMPI PUSH2 0x1C20 PUSH2 0x1689 JUMP JUMPDEST JUMPDEST PUSH0 DUP4 ADD CALLDATALOAD PUSH8 0xFFFFFFFFFFFFFFFF DUP2 GT ISZERO PUSH2 0x1C3E JUMPI PUSH2 0x1C3D PUSH2 0x168D JUMP JUMPDEST JUMPDEST PUSH2 0x1C4A DUP6 DUP3 DUP7 ADD PUSH2 0x17D3 JUMP JUMPDEST SWAP3 POP POP PUSH1 0x20 PUSH2 0x1C5B DUP6 DUP3 DUP7 ADD PUSH2 0x16B0 JUMP JUMPDEST SWAP2 POP POP SWAP3 POP SWAP3 SWAP1 POP JUMP JUMPDEST PUSH0 PUSH1 0x20 DUP3 ADD SWAP1 POP PUSH2 0x1C78 PUSH0 DUP4 ADD DUP5 PUSH2 0x18E5 JUMP JUMPDEST SWAP3 SWAP2 POP POP JUMP JUMPDEST PUSH0 PUSH20 0xFFFFFFFFFFFFFFFFFFFFFFFFFFFFFFFFFFFFFFFF DUP3 AND SWAP1 POP SWAP2 SWAP1 POP JUMP JUMPDEST PUSH0 PUSH2 0x1CA7 DUP3 PUSH2 0x1C7E JUMP JUMPDEST SWAP1 POP SWAP2 SWAP1 POP JUMP JUMPDEST PUSH2 0x1CB7 DUP2 PUSH2 0x1C9D JUMP JUMPDEST DUP3 MSTORE POP POP JUMP JUMPDEST PUSH0 PUSH1 0x20 DUP3 ADD SWAP1 POP PUSH2 0x1CD0 PUSH0 DUP4 ADD DUP5 PUSH2 0x1CAE JUMP JUMPDEST SWAP3 SWAP2 POP POP JUMP JUMPDEST PUSH32 0x4F6E6C792061646D696E2063616E20706572666F726D20746869732066756E63 PUSH0 DUP3 ADD MSTORE PUSH32 0x74696F6E00000000000000000000000000000000000000000000000000000000 PUSH1 0x20 DUP3 ADD MSTORE POP JUMP JUMPDEST PUSH0 PUSH2 0x1D30 PUSH1 0x24 DUP4 PUSH2 0x188F JUMP JUMPDEST SWAP2 POP PUSH2 0x1D3B DUP3 PUSH2 0x1CD6 JUMP JUMPDEST PUSH1 0x40 DUP3 ADD SWAP1 POP SWAP2 SWAP1 POP JUMP JUMPDEST PUSH0 PUSH1 0x20 DUP3 ADD SWAP1 POP DUP2 DUP2 SUB PUSH0 DUP4 ADD MSTORE PUSH2 0x1D5D DUP2 PUSH2 0x1D24 JUMP JUMPDEST SWAP1 POP SWAP2 SWAP1 POP JUMP JUMPDEST PUSH32 0x456C656374696F6E206973206E6F742045786973740000000000000000000000 PUSH0 DUP3 ADD MSTORE POP JUMP JUMPDEST PUSH0 PUSH2 0x1D98 PUSH1 0x15 DUP4 PUSH2 0x188F JUMP JUMPDEST SWAP2 POP PUSH2 0x1DA3 DUP3 PUSH2 0x1D64 JUMP JUMPDEST PUSH1 0x20 DUP3 ADD SWAP1 POP SWAP2 SWAP1 POP JUMP JUMPDEST PUSH0 PUSH1 0x20 DUP3 ADD SWAP1 POP DUP2 DUP2 SUB PUSH0 DUP4 ADD MSTORE PUSH2 0x1DC5 DUP2 PUSH2 0x1D8C JUMP JUMPDEST SWAP1 POP SWAP2 SWAP1 POP JUMP JUMPDEST PUSH32 0x456C656374696F6E206973206E6F7420416374697665206F642074696D656F75 PUSH0 DUP3 ADD MSTORE PUSH32 0x7400000000000000000000000000000000000000000000000000000000000000 PUSH1 0x20 DUP3 ADD MSTORE POP JUMP JUMPDEST PUSH0 PUSH2 0x1E26 PUSH1 0x21 DUP4 PUSH2 0x188F JUMP JUMPDEST SWAP2 POP PUSH2 0x1E31 DUP3 PUSH2 0x1DCC JUMP JUMPDEST PUSH1 0x40 DUP3 ADD SWAP1 POP SWAP2 SWAP1 POP JUMP JUMPDEST PUSH0 PUSH1 0x20 DUP3 ADD SWAP1 POP DUP2 DUP2 SUB PUSH0 DUP4 ADD MSTORE PUSH2 0x1E53 DUP2 PUSH2 0x1E1A JUMP JUMPDEST SWAP1 POP SWAP2 SWAP1 POP JUMP JUMPDEST PUSH32 0x4E487B7100000000000000000000000000000000000000000000000000000000 PUSH0 MSTORE PUSH1 0x11 PUSH1 0x4 MSTORE PUSH1 0x24 PUSH0 REVERT JUMPDEST PUSH0 PUSH2 0x1E91 DUP3 PUSH2 0x1691 JUMP JUMPDEST SWAP2 POP PUSH32 0xFFFFFFFFFFFFFFFFFFFFFFFFFFFFFFFFFFFFFFFFFFFFFFFFFFFFFFFFFFFFFFFF DUP3 SUB PUSH2 0x1EC3 JUMPI PUSH2 0x1EC2 PUSH2 0x1E5A JUMP JUMPDEST JUMPDEST PUSH1 0x1 DUP3 ADD SWAP1 POP SWAP2 SWAP1 POP JUMP JUMPDEST PUSH32 0x4E487B7100000000000000000000000000000000000000000000000000000000 PUSH0 MSTORE PUSH1 0x22 PUSH1 0x4 MSTORE PUSH1 0x24 PUSH0 REVERT JUMPDEST PUSH0 PUSH1 0x2 DUP3 DIV SWAP1 POP PUSH1 0x1 DUP3 AND DUP1 PUSH2 0x1F12 JUMPI PUSH1 0x7F DUP3 AND SWAP2 POP JUMPDEST PUSH1 0x20 DUP3 LT DUP2 SUB PUSH2 0x1F25 JUMPI PUSH2 0x1F24 PUSH2 0x1ECE JUMP JUMPDEST JUMPDEST POP SWAP2 SWAP1 POP JUMP JUMPDEST PUSH0 DUP2 SWAP1 POP DUP2 PUSH0 MSTORE PUSH1 0x20 PUSH0 KECCAK256 SWAP1 POP SWAP2 SWAP1 POP JUMP JUMPDEST PUSH0 PUSH1 0x20 PUSH1 0x1F DUP4 ADD DIV SWAP1 POP SWAP2 SWAP1 POP JUMP JUMPDEST PUSH0 DUP3 DUP3 SHL SWAP1 POP SWAP3 SWAP2 POP POP JUMP JUMPDEST PUSH0 PUSH1 0x8 DUP4 MUL PUSH2 0x1F87 PUSH32 0xFFFFFFFFFFFFFFFFFFFFFFFFFFFFFFFFFFFFFFFFFFFFFFFFFFFFFFFFFFFFFFFF DUP3 PUSH2 0x1F4C JUMP JUMPDEST PUSH2 0x1F91 DUP7 DUP4 PUSH2 0x1F4C JUMP JUMPDEST SWAP6 POP DUP1 NOT DUP5 AND SWAP4 POP DUP1 DUP7 AND DUP5 OR SWAP3 POP POP POP SWAP4 SWAP3 POP POP POP JUMP JUMPDEST PUSH0 DUP2 SWAP1 POP SWAP2 SWAP1 POP JUMP JUMPDEST PUSH0 PUSH2 0x1FCC PUSH2 0x1FC7 PUSH2 0x1FC2 DUP5 PUSH2 0x1691 JUMP JUMPDEST PUSH2 0x1FA9 JUMP JUMPDEST PUSH2 0x1691 JUMP JUMPDEST SWAP1 POP SWAP2 SWAP1 POP JUMP JUMPDEST PUSH0 DUP2 SWAP1 POP SWAP2 SWAP1 POP JUMP JUMPDEST PUSH2 0x1FE5 DUP4 PUSH2 0x1FB2 JUMP JUMPDEST PUSH2 0x1FF9 PUSH2 0x1FF1 DUP3 PUSH2 0x1FD3 JUMP JUMPDEST DUP5 DUP5 SLOAD PUSH2 0x1F58 JUMP JUMPDEST DUP3 SSTORE POP POP POP POP JUMP JUMPDEST PUSH0 PUSH0 SWAP1 POP SWAP1 JUMP JUMPDEST PUSH2 0x2010 PUSH2 0x2001 JUMP JUMPDEST PUSH2 0x201B DUP2 DUP5 DUP5 PUSH2 0x1FDC JUMP JUMPDEST POP POP POP JUMP JUMPDEST JUMPDEST DUP2 DUP2 LT ISZERO PUSH2 0x203E JUMPI PUSH2 0x2033 PUSH0 DUP3 PUSH2 0x2008 JUMP JUMPDEST PUSH1 0x1 DUP2 ADD SWAP1 POP PUSH2 0x2021 JUMP JUMPDEST POP POP JUMP JUMPDEST PUSH1 0x1F DUP3 GT ISZERO PUSH2 0x2083 JUMPI PUSH2 0x2054 DUP2 PUSH2 0x1F2B JUMP JUMPDEST PUSH2 0x205D DUP5 PUSH2 0x1F3D JUMP JUMPDEST DUP2 ADD PUSH1 0x20 DUP6 LT ISZERO PUSH2 0x206C JUMPI DUP2 SWAP1 POP JUMPDEST PUSH2 0x2080 PUSH2 0x2078 DUP6 PUSH2 0x1F3D JUMP JUMPDEST DUP4 ADD DUP3 PUSH2 0x2020 JUMP JUMPDEST POP POP JUMPDEST POP POP POP JUMP JUMPDEST PUSH0 DUP3 DUP3 SHR SWAP1 POP SWAP3 SWAP2 POP POP JUMP JUMPDEST PUSH0 PUSH2 0x20A3 PUSH0 NOT DUP5 PUSH1 0x8 MUL PUSH2 0x2088 JUMP JUMPDEST NOT DUP1 DUP4 AND SWAP2 POP POP SWAP3 SWAP2 POP POP JUMP JUMPDEST PUSH0 PUSH2 0x20BB DUP4 DUP4 PUSH2 0x2094 JUMP JUMPDEST SWAP2 POP DUP3 PUSH1 0x2 MUL DUP3 OR SWAP1 POP SWAP3 SWAP2 POP POP JUMP JUMPDEST PUSH2 0x20D4 DUP3 PUSH2 0x1885 JUMP JUMPDEST PUSH8 0xFFFFFFFFFFFFFFFF DUP2 GT ISZERO PUSH2 0x20ED JUMPI PUSH2 0x20EC PUSH2 0x16DC JUMP JUMPDEST JUMPDEST PUSH2 0x20F7 DUP3 SLOAD PUSH2 0x1EFB JUMP JUMPDEST PUSH2 0x2102 DUP3 DUP3 DUP6 PUSH2 0x2042 JUMP JUMPDEST PUSH0 PUSH1 0x20 SWAP1 POP PUSH1 0x1F DUP4 GT PUSH1 0x1 DUP2 EQ PUSH2 0x2133 JUMPI PUSH0 DUP5 ISZERO PUSH2 0x2121 JUMPI DUP3 DUP8 ADD MLOAD SWAP1 POP JUMPDEST PUSH2 0x212B DUP6 DUP3 PUSH2 0x20B0 JUMP JUMPDEST DUP7 SSTORE POP PUSH2 0x2192 JUMP JUMPDEST PUSH1 0x1F NOT DUP5 AND PUSH2 0x2141 DUP7 PUSH2 0x1F2B JUMP JUMPDEST PUSH0 JUMPDEST DUP3 DUP2 LT ISZERO PUSH2 0x2168 JUMPI DUP5 DUP10 ADD MLOAD DUP3 SSTORE PUSH1 0x1 DUP3 ADD SWAP2 POP PUSH1 0x20 DUP6 ADD SWAP5 POP PUSH1 0x20 DUP2 ADD SWAP1 POP PUSH2 0x2143 JUMP JUMPDEST DUP7 DUP4 LT ISZERO PUSH2 0x2185 JUMPI DUP5 DUP10 ADD MLOAD PUSH2 0x2181 PUSH1 0x1F DUP10 AND DUP3 PUSH2 0x2094 JUMP JUMPDEST DUP4 SSTORE POP JUMPDEST PUSH1 0x1 PUSH1 0x2 DUP9 MUL ADD DUP9 SSTORE POP POP POP JUMPDEST POP POP POP POP POP POP JUMP JUMPDEST PUSH0 DUP2 SLOAD PUSH2 0x21A6 DUP2 PUSH2 0x1EFB JUMP JUMPDEST PUSH2 0x21B0 DUP2 DUP7 PUSH2 0x188F JUMP JUMPDEST SWAP5 POP PUSH1 0x1 DUP3 AND PUSH0 DUP2 EQ PUSH2 0x21CA JUMPI PUSH1 0x1 DUP2 EQ PUSH2 0x21E0 JUMPI PUSH2 0x2212 JUMP JUMPDEST PUSH1 0xFF NOT DUP4 AND DUP7 MSTORE DUP2 ISZERO ISZERO PUSH1 0x20 MUL DUP7 ADD SWAP4 POP PUSH2 0x2212 JUMP JUMPDEST PUSH2 0x21E9 DUP6 PUSH2 0x1F2B JUMP JUMPDEST PUSH0 JUMPDEST DUP4 DUP2 LT ISZERO PUSH2 0x220A JUMPI DUP2 SLOAD DUP2 DUP10 ADD MSTORE PUSH1 0x1 DUP3 ADD SWAP2 POP PUSH1 0x20 DUP2 ADD SWAP1 POP PUSH2 0x21EB JUMP JUMPDEST DUP1 DUP9 ADD SWAP6 POP POP POP JUMPDEST POP POP POP SWAP3 SWAP2 POP POP JUMP JUMPDEST PUSH0 PUSH1 0x20 DUP3 ADD SWAP1 POP DUP2 DUP2 SUB PUSH0 DUP4 ADD MSTORE PUSH2 0x2233 DUP2 DUP5 PUSH2 0x219A JUMP JUMPDEST SWAP1 POP SWAP3 SWAP2 POP POP JUMP JUMPDEST PUSH32 0x43616E64696461746520496420697320696E76616C6964000000000000000000 PUSH0 DUP3 ADD MSTORE POP JUMP JUMPDEST PUSH0 PUSH2 0x226F PUSH1 0x17 DUP4 PUSH2 0x188F JUMP JUMPDEST SWAP2 POP PUSH2 0x227A DUP3 PUSH2 0x223B JUMP JUMPDEST PUSH1 0x20 DUP3 ADD SWAP1 POP SWAP2 SWAP1 POP JUMP JUMPDEST PUSH0 PUSH1 0x20 DUP3 ADD SWAP1 POP DUP2 DUP2 SUB PUSH0 DUP4 ADD MSTORE PUSH2 0x229C DUP2 PUSH2 0x2263 JUMP JUMPDEST SWAP1 POP SWAP2 SWAP1 POP JUMP JUMPDEST PUSH32 0x5468697320766F74657220616C726561647920676976652068697320766F7465 PUSH0 DUP3 ADD MSTORE POP JUMP JUMPDEST PUSH0 PUSH2 0x22D7 PUSH1 0x20 DUP4 PUSH2 0x188F JUMP JUMPDEST SWAP2 POP PUSH2 0x22E2 DUP3 PUSH2 0x22A3 JUMP JUMPDEST PUSH1 0x20 DUP3 ADD SWAP1 POP SWAP2 SWAP1 POP JUMP JUMPDEST PUSH0 PUSH1 0x20 DUP3 ADD SWAP1 POP DUP2 DUP2 SUB PUSH0 DUP4 ADD MSTORE PUSH2 0x2304 DUP2 PUSH2 0x22CB JUMP JUMPDEST SWAP1 POP SWAP2 SWAP1 POP JUMP JUMPDEST PUSH32 0x5468657265206973206E6F2063616E6469646174657320666F72207468697320 PUSH0 DUP3 ADD MSTORE PUSH32 0x656C656374696F6E000000000000000000000000000000000000000000000000 PUSH1 0x20 DUP3 ADD MSTORE POP JUMP JUMPDEST PUSH0 PUSH2 0x2365 PUSH1 0x28 DUP4 PUSH2 0x188F JUMP JUMPDEST SWAP2 POP PUSH2 0x2370 DUP3 PUSH2 0x230B JUMP JUMPDEST PUSH1 0x40 DUP3 ADD SWAP1 POP SWAP2 SWAP1 POP JUMP JUMPDEST PUSH0 PUSH1 0x20 DUP3 ADD SWAP1 POP DUP2 DUP2 SUB PUSH0 DUP4 ADD MSTORE PUSH2 0x2392 DUP2 PUSH2 0x2359 JUMP JUMPDEST SWAP1 POP SWAP2 SWAP1 POP JUMP JUMPDEST PUSH0 PUSH2 0x23A3 DUP3 PUSH2 0x1691 JUMP JUMPDEST SWAP2 POP PUSH2 0x23AE DUP4 PUSH2 0x1691 JUMP JUMPDEST SWAP3 POP DUP3 DUP3 ADD SWAP1 POP DUP1 DUP3 GT ISZERO PUSH2 0x23C6 JUMPI PUSH2 0x23C5 PUSH2 0x1E5A JUMP JUMPDEST JUMPDEST SWAP3 SWAP2 POP POP JUMP JUMPDEST PUSH32 0x4E487B7100000000000000000000000000000000000000000000000000000000 PUSH0 MSTORE PUSH1 0x32 PUSH1 0x4 MSTORE PUSH1 0x24 PUSH0 REVERT JUMPDEST PUSH0 PUSH1 0x40 DUP3 ADD SWAP1 POP DUP2 DUP2 SUB PUSH0 DUP4 ADD MSTORE PUSH2 0x2411 DUP2 DUP6 PUSH2 0x219A JUMP JUMPDEST SWAP1 POP PUSH2 0x2420 PUSH1 0x20 DUP4 ADD DUP5 PUSH2 0x18E5 JUMP JUMPDEST SWAP4 SWAP3 POP POP POP JUMP JUMPDEST PUSH0 PUSH1 0xC0 DUP3 ADD SWAP1 POP PUSH2 0x243A PUSH0 DUP4 ADD DUP10 PUSH2 0x18E5 JUMP JUMPDEST DUP2 DUP2 SUB PUSH1 0x20 DUP4 ADD MSTORE PUSH2 0x244C DUP2 DUP9 PUSH2 0x219A JUMP JUMPDEST SWAP1 POP PUSH2 0x245B PUSH1 0x40 DUP4 ADD DUP8 PUSH2 0x18E5 JUMP JUMPDEST DUP2 DUP2 SUB PUSH1 0x60 DUP4 ADD MSTORE PUSH2 0x246D DUP2 DUP7 PUSH2 0x18AD JUMP JUMPDEST SWAP1 POP PUSH2 0x247C PUSH1 0x80 DUP4 ADD DUP6 PUSH2 0x18E5 JUMP JUMPDEST PUSH2 0x2489 PUSH1 0xA0 DUP4 ADD DUP5 PUSH2 0x18E5 JUMP JUMPDEST SWAP8 SWAP7 POP POP POP POP POP POP POP JUMP JUMPDEST PUSH32 0x5468657265206973206E6F20656C656374696F6E2069732072756E6E696E6720 PUSH0 DUP3 ADD MSTORE PUSH32 0x6E6F770000000000000000000000000000000000000000000000000000000000 PUSH1 0x20 DUP3 ADD MSTORE POP JUMP JUMPDEST PUSH0 PUSH2 0x24EE PUSH1 0x23 DUP4 PUSH2 0x188F JUMP JUMPDEST SWAP2 POP PUSH2 0x24F9 DUP3 PUSH2 0x2494 JUMP JUMPDEST PUSH1 0x40 DUP3 ADD SWAP1 POP SWAP2 SWAP1 POP JUMP JUMPDEST PUSH0 PUSH1 0x20 DUP3 ADD SWAP1 POP DUP2 DUP2 SUB PUSH0 DUP4 ADD MSTORE PUSH2 0x251B DUP2 PUSH2 0x24E2 JUMP JUMPDEST SWAP1 POP SWAP2 SWAP1 POP JUMP INVALID LOG2 PUSH5 0x6970667358 0x22 SLT KECCAK256 0xBD NOT 0xC2 SWAP2 LOG0 CALLDATASIZE 0xEA SELFBALANCE 0xCA REVERT SMOD CHAINID SHR BALANCE 0xC2 SWAP9 0x2F 0x4D EOFCREATE 0x9 0x27 PUSH21 0x32866CC14FEC7575880A64736F6C634300081E0033 "
		},
		"gasEstimates": {
			"creation": {
				"codeDepositCost": "1912000",
				"executionCost": "26281",
				"totalCost": "1938281"
			},
			"external": {
				"AddCandidate(uint256,string)": "infinite",
				"CreateElection(string,uint256)": "infinite",
				"admin()": "2617",
				"electionCount()": "2469",
				"elections(uint256)": "infinite",
				"endElection(uint256)": "infinite",
				"getCandidate(uint256,uint256)": "infinite",
				"getCandidates(uint256)": "infinite",
				"getElections()": "infinite",
				"getTotalVotes(uint256)": "infinite",
				"getWinner(uint256)": "infinite",
				"votting(uint256,uint256)": "infinite"
			}
		},
		"methodIdentifiers": {
			"AddCandidate(uint256,string)": "0a63c583",
			"CreateElection(string,uint256)": "7c0e1dba",
			"admin()": "f851a440",
			"electionCount()": "997d2830",
			"elections(uint256)": "5e6fef01",
			"endElection(uint256)": "9c98bcbb",
			"getCandidate(uint256,uint256)": "4bd46448",
			"getCandidates(uint256)": "3e39a7a5",
			"getElections()": "9f3a7f52",
			"getTotalVotes(uint256)": "2ce35e11",
			"getWinner(uint256)": "4129b2c9",
			"votting(uint256,uint256)": "2d81fa59"
		}
	},
	"abi": [
		{
			"inputs": [],
			"stateMutability": "nonpayable",
			"type": "constructor"
		},
		{
			"anonymous": false,
			"inputs": [
				{
					"indexed": true,
					"internalType": "uint256",
					"name": "ElectionId",
					"type": "uint256"
				},
				{
					"indexed": true,
					"internalType": "uint256",
					"name": "CandidateId",
					"type": "uint256"
				},
				{
					"indexed": false,
					"internalType": "string",
					"name": "CandidateName",
					"type": "string"
				}
			],
			"name": "CandidateAdded",
			"type": "event"
		},
		{
			"anonymous": false,
			"inputs": [
				{
					"indexed": true,
					"internalType": "uint256",
					"name": "ElectionId",
					"type": "uint256"
				},
				{
					"indexed": false,
					"internalType": "string",
					"name": "ElectionName",
					"type": "string"
				},
				{
					"indexed": false,
					"internalType": "uint256",
					"name": "EndTime",
					"type": "uint256"
				}
			],
			"name": "ElectionCreated",
			"type": "event"
		},
		{
			"anonymous": false,
			"inputs": [
				{
					"indexed": false,
					"internalType": "uint256",
					"name": "ElectionId",
					"type": "uint256"
				},
				{
					"indexed": false,
					"internalType": "string",
					"name": "ElectionName",
					"type": "string"
				},
				{
					"indexed": false,
					"internalType": "uint256",
					"name": "WinnerId",
					"type": "uint256"
				},
				{
					"indexed": false,
					"internalType": "string",
					"name": "WinnerName",
					"type": "string"
				},
				{
					"indexed": false,
					"internalType": "uint256",
					"name": "WinnerVotes",
					"type": "uint256"
				},
				{
					"indexed": false,
					"internalType": "uint256",
					"name": "TotalVote",
					"type": "uint256"
				}
			],
			"name": "ElectionEnded",
			"type": "event"
		},
		{
			"anonymous": false,
			"inputs": [
				{
					"indexed": true,
					"internalType": "uint256",
					"name": "ElectionId",
					"type": "uint256"
				},
				{
					"indexed": true,
					"internalType": "uint256",
					"name": "CandidateId",
					"type": "uint256"
				}
			],
			"name": "VoteCast",
			"type": "event"
		},
		{
			"inputs": [
				{
					"internalType": "uint256",
					"name": "_electionId",
					"type": "uint256"
				},
				{
					"internalType": "string",
					"name": "_name",
					"type": "string"
				}
			],
			"name": "AddCandidate",
			"outputs": [],
			"stateMutability": "nonpayable",
			"type": "function"
		},
		{
			"inputs": [
				{
					"internalType": "string",
					"name": "_name",
					"type": "string"
				},
				{
					"internalType": "uint256",
					"name": "_duration",
					"type": "uint256"
				}
			],
			"name": "CreateElection",
			"outputs": [],
			"stateMutability": "nonpayable",
			"type": "function"
		},
		{
			"inputs": [],
			"name": "admin",
			"outputs": [
				{
					"internalType": "address",
					"name": "",
					"type": "address"
				}
			],
			"stateMutability": "view",
			"type": "function"
		},
		{
			"inputs": [],
			"name": "electionCount",
			"outputs": [
				{
					"internalType": "uint256",
					"name": "",
					"type": "uint256"
				}
			],
			"stateMutability": "view",
			"type": "function"
		},
		{
			"inputs": [
				{
					"internalType": "uint256",
					"name": "",
					"type": "uint256"
				}
			],
			"name": "elections",
			"outputs": [
				{
					"internalType": "uint256",
					"name": "electionId",
					"type": "uint256"
				},
				{
					"internalType": "bool",
					"name": "isActive",
					"type": "bool"
				},
				{
					"internalType": "string",
					"name": "name",
					"type": "string"
				},
				{
					"internalType": "uint256",
					"name": "endTime",
					"type": "uint256"
				},
				{
					"internalType": "uint256",
					"name": "candidateCount",
					"type": "uint256"
				},
				{
					"internalType": "uint256",
					"name": "totalVote",
					"type": "uint256"
				}
			],
			"stateMutability": "view",
			"type": "function"
		},
		{
			"inputs": [
				{
					"internalType": "uint256",
					"name": "_electionId",
					"type": "uint256"
				}
			],
			"name": "endElection",
			"outputs": [
				{
					"internalType": "uint256",
					"name": "",
					"type": "uint256"
				},
				{
					"internalType": "string",
					"name": "",
					"type": "string"
				},
				{
					"internalType": "uint256",
					"name": "",
					"type": "uint256"
				}
			],
			"stateMutability": "nonpayable",
			"type": "function"
		},
		{
			"inputs": [
				{
					"internalType": "uint256",
					"name": "_electionId",
					"type": "uint256"
				},
				{
					"internalType": "uint256",
					"name": "_candidateId",
					"type": "uint256"
				}
			],
			"name": "getCandidate",
			"outputs": [
				{
					"internalType": "uint256",
					"name": "CandidateId",
					"type": "uint256"
				},
				{
					"internalType": "string",
					"name": "Name",
					"type": "string"
				},
				{
					"internalType": "uint256",
					"name": "Votes",
					"type": "uint256"
				}
			],
			"stateMutability": "view",
			"type": "function"
		},
		{
			"inputs": [
				{
					"internalType": "uint256",
					"name": "_electionId",
					"type": "uint256"
				}
			],
			"name": "getCandidates",
			"outputs": [
				{
					"internalType": "uint256[]",
					"name": "",
					"type": "uint256[]"
				},
				{
					"internalType": "string[]",
					"name": "",
					"type": "string[]"
				}
			],
			"stateMutability": "view",
			"type": "function"
		},
		{
			"inputs": [],
			"name": "getElections",
			"outputs": [
				{
					"internalType": "uint256[]",
					"name": "",
					"type": "uint256[]"
				},
				{
					"internalType": "string[]",
					"name": "",
					"type": "string[]"
				}
			],
			"stateMutability": "view",
			"type": "function"
		},
		{
			"inputs": [
				{
					"internalType": "uint256",
					"name": "_electionId",
					"type": "uint256"
				}
			],
			"name": "getTotalVotes",
			"outputs": [
				{
					"internalType": "string",
					"name": "Name",
					"type": "string"
				},
				{
					"internalType": "uint256",
					"name": "TotalVotes",
					"type": "uint256"
				}
			],
			"stateMutability": "view",
			"type": "function"
		},
		{
			"inputs": [
				{
					"internalType": "uint256",
					"name": "_electionId",
					"type": "uint256"
				}
			],
			"name": "getWinner",
			"outputs": [
				{
					"internalType": "uint256",
					"name": "WinnerID",
					"type": "uint256"
				},
				{
					"internalType": "string",
					"name": "WminnerName",
					"type": "string"
				},
				{
					"internalType": "uint256",
					"name": "VoteCount",
					"type": "uint256"
				}
			],
			"stateMutability": "view",
			"type": "function"
		},
		{
			"inputs": [
				{
					"internalType": "uint256",
					"name": "_electionId",
					"type": "uint256"
				},
				{
					"internalType": "uint256",
					"name": "_candidateId",
					"type": "uint256"
				}
			],
			"name": "votting",
			"outputs": [],
			"stateMutability": "nonpayable",
			"type": "function"
		}
	]
}